
003Led_task_delay.elf:     file format elf32-littlearm

Sections:
Idx Name          Size      VMA       LMA       File off  Algn
  0 .isr_vector   00000188  08000000  08000000  00010000  2**0
                  CONTENTS, ALLOC, LOAD, READONLY, DATA
  1 .text         000061e8  08000190  08000190  00010190  2**4
                  CONTENTS, ALLOC, LOAD, READONLY, CODE
  2 .rodata       00000140  08006378  08006378  00016378  2**2
                  CONTENTS, ALLOC, LOAD, READONLY, DATA
  3 .ARM.extab    00000000  080064b8  080064b8  00020014  2**0
                  CONTENTS
  4 .ARM          00000008  080064b8  080064b8  000164b8  2**2
                  CONTENTS, ALLOC, LOAD, READONLY, DATA
  5 .preinit_array 00000000  080064c0  080064c0  00020014  2**0
                  CONTENTS, ALLOC, LOAD, DATA
  6 .init_array   00000004  080064c0  080064c0  000164c0  2**2
                  CONTENTS, ALLOC, LOAD, DATA
  7 .fini_array   00000004  080064c4  080064c4  000164c4  2**2
                  CONTENTS, ALLOC, LOAD, DATA
  8 .data         00000014  20000000  080064c8  00020000  2**2
                  CONTENTS, ALLOC, LOAD, DATA
  9 .bss          00014490  20000014  080064dc  00020014  2**2
                  ALLOC
 10 ._user_heap_stack 00000604  200144a4  080064dc  000244a4  2**0
                  ALLOC
 11 .ARM.attributes 00000030  00000000  00000000  00020014  2**0
                  CONTENTS, READONLY
 12 .debug_info   0001a0dc  00000000  00000000  00020044  2**0
                  CONTENTS, READONLY, DEBUGGING, OCTETS
 13 .debug_abbrev 00003536  00000000  00000000  0003a120  2**0
                  CONTENTS, READONLY, DEBUGGING, OCTETS
 14 .debug_aranges 00001368  00000000  00000000  0003d658  2**3
                  CONTENTS, READONLY, DEBUGGING, OCTETS
 15 .debug_ranges 000011d0  00000000  00000000  0003e9c0  2**3
                  CONTENTS, READONLY, DEBUGGING, OCTETS
 16 .debug_macro  00023d84  00000000  00000000  0003fb90  2**0
                  CONTENTS, READONLY, DEBUGGING, OCTETS
 17 .debug_line   00016f7b  00000000  00000000  00063914  2**0
                  CONTENTS, READONLY, DEBUGGING, OCTETS
 18 .debug_str    000d74e8  00000000  00000000  0007a88f  2**0
                  CONTENTS, READONLY, DEBUGGING, OCTETS
 19 .comment      00000053  00000000  00000000  00151d77  2**0
                  CONTENTS, READONLY
 20 .debug_frame  00005094  00000000  00000000  00151dcc  2**2
                  CONTENTS, READONLY, DEBUGGING, OCTETS

Disassembly of section .text:

08000190 <__do_global_dtors_aux>:
 8000190:	b510      	push	{r4, lr}
 8000192:	4c05      	ldr	r4, [pc, #20]	; (80001a8 <__do_global_dtors_aux+0x18>)
 8000194:	7823      	ldrb	r3, [r4, #0]
 8000196:	b933      	cbnz	r3, 80001a6 <__do_global_dtors_aux+0x16>
 8000198:	4b04      	ldr	r3, [pc, #16]	; (80001ac <__do_global_dtors_aux+0x1c>)
 800019a:	b113      	cbz	r3, 80001a2 <__do_global_dtors_aux+0x12>
 800019c:	4804      	ldr	r0, [pc, #16]	; (80001b0 <__do_global_dtors_aux+0x20>)
 800019e:	f3af 8000 	nop.w
 80001a2:	2301      	movs	r3, #1
 80001a4:	7023      	strb	r3, [r4, #0]
 80001a6:	bd10      	pop	{r4, pc}
 80001a8:	20000014 	.word	0x20000014
 80001ac:	00000000 	.word	0x00000000
 80001b0:	08006360 	.word	0x08006360

080001b4 <frame_dummy>:
 80001b4:	b508      	push	{r3, lr}
 80001b6:	4b03      	ldr	r3, [pc, #12]	; (80001c4 <frame_dummy+0x10>)
 80001b8:	b11b      	cbz	r3, 80001c2 <frame_dummy+0xe>
 80001ba:	4903      	ldr	r1, [pc, #12]	; (80001c8 <frame_dummy+0x14>)
 80001bc:	4803      	ldr	r0, [pc, #12]	; (80001cc <frame_dummy+0x18>)
 80001be:	f3af 8000 	nop.w
 80001c2:	bd08      	pop	{r3, pc}
 80001c4:	00000000 	.word	0x00000000
 80001c8:	20000018 	.word	0x20000018
 80001cc:	08006360 	.word	0x08006360

080001d0 <SEGGER_RTT_ASM_WriteSkipNoLock>:
        //   R4 <Rem>
        //   R5 pRing->pBuffer
        //   R6 pRing (Points to active struct SEGGER_RTT_BUFFER_DOWN)
        //   R7 WrOff
        //
        PUSH     {R4-R7}
 80001d0:	b4f0      	push	{r4, r5, r6, r7}
        ADD      R3,R0,R0, LSL #+1
 80001d2:	eb00 0340 	add.w	r3, r0, r0, lsl #1
        LDR.W    R0,=_SEGGER_RTT                 // pRing = &_SEGGER_RTT.aUp[BufferIndex];
 80001d6:	f8df 0088 	ldr.w	r0, [pc, #136]	; 8000260 <_Case3+0x6>
        ADD      R0,R0,R3, LSL #+3
 80001da:	eb00 00c3 	add.w	r0, r0, r3, lsl #3
        ADD      R6,R0,#+24
 80001de:	f100 0618 	add.w	r6, r0, #24
        LDR      R0,[R6, #+16]                   // RdOff = pRing->RdOff;
 80001e2:	6930      	ldr	r0, [r6, #16]
        LDR      R7,[R6, #+12]                   // WrOff = pRing->WrOff;
 80001e4:	68f7      	ldr	r7, [r6, #12]
        LDR      R5,[R6, #+4]                    // pRing->pBuffer
 80001e6:	6875      	ldr	r5, [r6, #4]
        CMP      R7,R0
 80001e8:	4287      	cmp	r7, r0
        BCC.N    _CheckCase4                     // if (RdOff <= WrOff) {                           => Case 1), 2) or 3)
 80001ea:	d332      	bcc.n	8000252 <_CheckCase4>
        //
        // Handling for case 1, later on identical to case 4
        //
        LDR      R3,[R6, #+8]                    //  Avail = pRing->SizeOfBuffer - WrOff - 1u;      => Space until wrap-around (assume 1 byte not usable for case that RdOff == 0)
 80001ec:	68b3      	ldr	r3, [r6, #8]
        SUBS     R4,R3,R7                        // <Rem> (Used in case we jump into case 2 afterwards)
 80001ee:	1bdc      	subs	r4, r3, r7
        SUBS     R3,R4,#+1                       // <Avail>
 80001f0:	1e63      	subs	r3, r4, #1
        CMP      R3,R2
 80001f2:	4293      	cmp	r3, r2
        BCC.N    _CheckCase2                     // if (Avail >= NumBytes) {  => Case 1)?
 80001f4:	d314      	bcc.n	8000220 <_CheckCase2>

080001f6 <_Case4>:
_Case4:
        ADDS     R5,R7,R5                        // pBuffer += WrOff
 80001f6:	197d      	adds	r5, r7, r5
        ADDS     R0,R2,R7                        // v = WrOff + NumBytes
 80001f8:	19d0      	adds	r0, r2, r7
 80001fa:	bf00      	nop

080001fc <_LoopCopyStraight>:
        // 2x unrolling for the copy loop that is used most of the time
        // This is a special optimization for small SystemView packets and makes them even faster
        //
        _ALIGN(2)
_LoopCopyStraight:                               // memcpy(pRing->pBuffer + WrOff, pData, NumBytes);
        LDRB     R3,[R1], #+1
 80001fc:	f811 3b01 	ldrb.w	r3, [r1], #1
        STRB     R3,[R5], #+1                    // *pDest++ = *pSrc++
 8000200:	f805 3b01 	strb.w	r3, [r5], #1
        SUBS     R2,R2,#+1
 8000204:	3a01      	subs	r2, #1
        BEQ      _CSDone
 8000206:	d005      	beq.n	8000214 <_CSDone>
        LDRB     R3,[R1], #+1
 8000208:	f811 3b01 	ldrb.w	r3, [r1], #1
        STRB     R3,[R5], #+1                    // *pDest++ = *pSrc++
 800020c:	f805 3b01 	strb.w	r3, [r5], #1
        SUBS     R2,R2,#+1
 8000210:	3a01      	subs	r2, #1
        BNE      _LoopCopyStraight
 8000212:	d1f3      	bne.n	80001fc <_LoopCopyStraight>

08000214 <_CSDone>:
_CSDone:
#if _CORE_NEEDS_DMB                              // Do not slow down cores that do not need a DMB instruction here
        DMB                                      // Cortex-M7 may delay memory writes and also change the order in which the writes happen. Therefore, make sure that all buffer writes are finished, before updating the <WrOff> in the struct
 8000214:	f3bf 8f5f 	dmb	sy
#endif
        STR      R0,[R6, #+12]                   // pRing->WrOff = WrOff + NumBytes;
 8000218:	60f0      	str	r0, [r6, #12]
        MOVS     R0,#+1
 800021a:	2001      	movs	r0, #1
        POP      {R4-R7}
 800021c:	bcf0      	pop	{r4, r5, r6, r7}
        BX       LR                              // Return 1
 800021e:	4770      	bx	lr

08000220 <_CheckCase2>:
_CheckCase2:
        ADDS     R0,R0,R3                        // Avail += RdOff; => Space incl. wrap-around
 8000220:	18c0      	adds	r0, r0, r3
        CMP      R0,R2
 8000222:	4290      	cmp	r0, r2
        BCC.N    _Case3                          // if (Avail >= NumBytes) {           => Case 2? => If not, we have case 3) (does not fit)
 8000224:	d319      	bcc.n	800025a <_Case3>
        //
        // Handling for case 2
        //
        ADDS     R0,R7,R5                        // v = pRing->pBuffer + WrOff => Do not change pRing->pBuffer here because 2nd chunk needs org. value
 8000226:	1978      	adds	r0, r7, r5
        SUBS     R2,R2,R4                        // NumBytes -= Rem;  (Rem = pRing->SizeOfBuffer - WrOff; => Space until end of buffer)
 8000228:	1b12      	subs	r2, r2, r4

0800022a <_LoopCopyBeforeWrapAround>:
_LoopCopyBeforeWrapAround:                       // memcpy(pRing->pBuffer + WrOff, pData, Rem); => Copy 1st chunk
        LDRB     R3,[R1], #+1
 800022a:	f811 3b01 	ldrb.w	r3, [r1], #1
        STRB     R3,[R0], #+1                    // *pDest++ = *pSrc++
 800022e:	f800 3b01 	strb.w	r3, [r0], #1
        SUBS     R4,R4,#+1
 8000232:	3c01      	subs	r4, #1
        BNE      _LoopCopyBeforeWrapAround
 8000234:	d1f9      	bne.n	800022a <_LoopCopyBeforeWrapAround>
        // Special case: First check that assumed RdOff == 0 calculated that last element before wrap-around could not be used
        // But 2nd check (considering space until wrap-around and until RdOff) revealed that RdOff is not 0, so we can use the last element
        // In this case, we may use a copy straight until buffer end anyway without needing to copy 2 chunks
        // Therefore, check if 2nd memcpy is necessary at all
        //
        ADDS     R4,R2,#+0                       // Save <NumBytes> (needed as counter in loop but must be written to <WrOff> after the loop). Also use this inst to update the flags to skip 2nd loop if possible
 8000236:	1c14      	adds	r4, r2, #0
        BEQ.N    _No2ChunkNeeded                 // if (NumBytes) {
 8000238:	d005      	beq.n	8000246 <_No2ChunkNeeded>

0800023a <_LoopCopyAfterWrapAround>:
_LoopCopyAfterWrapAround:                        // memcpy(pRing->pBuffer, pData + Rem, NumBytes);
        LDRB     R3,[R1], #+1                    // pData already points to the next src byte due to copy loop increment before this loop
 800023a:	f811 3b01 	ldrb.w	r3, [r1], #1
        STRB     R3,[R5], #+1                    // *pDest++ = *pSrc++
 800023e:	f805 3b01 	strb.w	r3, [r5], #1
        SUBS     R2,R2,#+1
 8000242:	3a01      	subs	r2, #1
        BNE      _LoopCopyAfterWrapAround
 8000244:	d1f9      	bne.n	800023a <_LoopCopyAfterWrapAround>

08000246 <_No2ChunkNeeded>:
_No2ChunkNeeded:
#if _CORE_NEEDS_DMB                              // Do not slow down cores that do not need a DMB instruction here
        DMB                                      // Cortex-M7 may delay memory writes and also change the order in which the writes happen. Therefore, make sure that all buffer writes are finished, before updating the <WrOff> in the struct
 8000246:	f3bf 8f5f 	dmb	sy
#endif
        STR      R4,[R6, #+12]                   // pRing->WrOff = NumBytes; => Must be written after copying data because J-Link may read control block asynchronously while writing into buffer
 800024a:	60f4      	str	r4, [r6, #12]
        MOVS     R0,#+1
 800024c:	2001      	movs	r0, #1
        POP      {R4-R7}
 800024e:	bcf0      	pop	{r4, r5, r6, r7}
        BX       LR                              // Return 1
 8000250:	4770      	bx	lr

08000252 <_CheckCase4>:
_CheckCase4:
        SUBS     R0,R0,R7
 8000252:	1bc0      	subs	r0, r0, r7
        SUBS     R0,R0,#+1                       // Avail = RdOff - WrOff - 1u;
 8000254:	3801      	subs	r0, #1
        CMP      R0,R2
 8000256:	4290      	cmp	r0, r2
        BCS.N    _Case4                          // if (Avail >= NumBytes) {      => Case 4) == 1) ? => If not, we have case 5) == 3) (does not fit)
 8000258:	d2cd      	bcs.n	80001f6 <_Case4>

0800025a <_Case3>:
_Case3:
        MOVS     R0,#+0
 800025a:	2000      	movs	r0, #0
        POP      {R4-R7}
 800025c:	bcf0      	pop	{r4, r5, r6, r7}
        BX       LR                              // Return 0
 800025e:	4770      	bx	lr
        LDR.W    R0,=_SEGGER_RTT                 // pRing = &_SEGGER_RTT.aUp[BufferIndex];
 8000260:	200143fc 	.word	0x200143fc

08000264 <__aeabi_uldivmod>:
 8000264:	b953      	cbnz	r3, 800027c <__aeabi_uldivmod+0x18>
 8000266:	b94a      	cbnz	r2, 800027c <__aeabi_uldivmod+0x18>
 8000268:	2900      	cmp	r1, #0
 800026a:	bf08      	it	eq
 800026c:	2800      	cmpeq	r0, #0
 800026e:	bf1c      	itt	ne
 8000270:	f04f 31ff 	movne.w	r1, #4294967295
 8000274:	f04f 30ff 	movne.w	r0, #4294967295
 8000278:	f000 b96e 	b.w	8000558 <__aeabi_idiv0>
 800027c:	f1ad 0c08 	sub.w	ip, sp, #8
 8000280:	e96d ce04 	strd	ip, lr, [sp, #-16]!
 8000284:	f000 f806 	bl	8000294 <__udivmoddi4>
 8000288:	f8dd e004 	ldr.w	lr, [sp, #4]
 800028c:	e9dd 2302 	ldrd	r2, r3, [sp, #8]
 8000290:	b004      	add	sp, #16
 8000292:	4770      	bx	lr

08000294 <__udivmoddi4>:
 8000294:	e92d 47f0 	stmdb	sp!, {r4, r5, r6, r7, r8, r9, sl, lr}
 8000298:	9d08      	ldr	r5, [sp, #32]
 800029a:	4604      	mov	r4, r0
 800029c:	468c      	mov	ip, r1
 800029e:	2b00      	cmp	r3, #0
 80002a0:	f040 8083 	bne.w	80003aa <__udivmoddi4+0x116>
 80002a4:	428a      	cmp	r2, r1
 80002a6:	4617      	mov	r7, r2
 80002a8:	d947      	bls.n	800033a <__udivmoddi4+0xa6>
 80002aa:	fab2 f282 	clz	r2, r2
 80002ae:	b142      	cbz	r2, 80002c2 <__udivmoddi4+0x2e>
 80002b0:	f1c2 0020 	rsb	r0, r2, #32
 80002b4:	fa24 f000 	lsr.w	r0, r4, r0
 80002b8:	4091      	lsls	r1, r2
 80002ba:	4097      	lsls	r7, r2
 80002bc:	ea40 0c01 	orr.w	ip, r0, r1
 80002c0:	4094      	lsls	r4, r2
 80002c2:	ea4f 4817 	mov.w	r8, r7, lsr #16
 80002c6:	0c23      	lsrs	r3, r4, #16
 80002c8:	fbbc f6f8 	udiv	r6, ip, r8
 80002cc:	fa1f fe87 	uxth.w	lr, r7
 80002d0:	fb08 c116 	mls	r1, r8, r6, ip
 80002d4:	ea43 4301 	orr.w	r3, r3, r1, lsl #16
 80002d8:	fb06 f10e 	mul.w	r1, r6, lr
 80002dc:	4299      	cmp	r1, r3
 80002de:	d909      	bls.n	80002f4 <__udivmoddi4+0x60>
 80002e0:	18fb      	adds	r3, r7, r3
 80002e2:	f106 30ff 	add.w	r0, r6, #4294967295
 80002e6:	f080 8119 	bcs.w	800051c <__udivmoddi4+0x288>
 80002ea:	4299      	cmp	r1, r3
 80002ec:	f240 8116 	bls.w	800051c <__udivmoddi4+0x288>
 80002f0:	3e02      	subs	r6, #2
 80002f2:	443b      	add	r3, r7
 80002f4:	1a5b      	subs	r3, r3, r1
 80002f6:	b2a4      	uxth	r4, r4
 80002f8:	fbb3 f0f8 	udiv	r0, r3, r8
 80002fc:	fb08 3310 	mls	r3, r8, r0, r3
 8000300:	ea44 4403 	orr.w	r4, r4, r3, lsl #16
 8000304:	fb00 fe0e 	mul.w	lr, r0, lr
 8000308:	45a6      	cmp	lr, r4
 800030a:	d909      	bls.n	8000320 <__udivmoddi4+0x8c>
 800030c:	193c      	adds	r4, r7, r4
 800030e:	f100 33ff 	add.w	r3, r0, #4294967295
 8000312:	f080 8105 	bcs.w	8000520 <__udivmoddi4+0x28c>
 8000316:	45a6      	cmp	lr, r4
 8000318:	f240 8102 	bls.w	8000520 <__udivmoddi4+0x28c>
 800031c:	3802      	subs	r0, #2
 800031e:	443c      	add	r4, r7
 8000320:	ea40 4006 	orr.w	r0, r0, r6, lsl #16
 8000324:	eba4 040e 	sub.w	r4, r4, lr
 8000328:	2600      	movs	r6, #0
 800032a:	b11d      	cbz	r5, 8000334 <__udivmoddi4+0xa0>
 800032c:	40d4      	lsrs	r4, r2
 800032e:	2300      	movs	r3, #0
 8000330:	e9c5 4300 	strd	r4, r3, [r5]
 8000334:	4631      	mov	r1, r6
 8000336:	e8bd 87f0 	ldmia.w	sp!, {r4, r5, r6, r7, r8, r9, sl, pc}
 800033a:	b902      	cbnz	r2, 800033e <__udivmoddi4+0xaa>
 800033c:	deff      	udf	#255	; 0xff
 800033e:	fab2 f282 	clz	r2, r2
 8000342:	2a00      	cmp	r2, #0
 8000344:	d150      	bne.n	80003e8 <__udivmoddi4+0x154>
 8000346:	1bcb      	subs	r3, r1, r7
 8000348:	ea4f 4e17 	mov.w	lr, r7, lsr #16
 800034c:	fa1f f887 	uxth.w	r8, r7
 8000350:	2601      	movs	r6, #1
 8000352:	fbb3 fcfe 	udiv	ip, r3, lr
 8000356:	0c21      	lsrs	r1, r4, #16
 8000358:	fb0e 331c 	mls	r3, lr, ip, r3
 800035c:	ea41 4103 	orr.w	r1, r1, r3, lsl #16
 8000360:	fb08 f30c 	mul.w	r3, r8, ip
 8000364:	428b      	cmp	r3, r1
 8000366:	d907      	bls.n	8000378 <__udivmoddi4+0xe4>
 8000368:	1879      	adds	r1, r7, r1
 800036a:	f10c 30ff 	add.w	r0, ip, #4294967295
 800036e:	d202      	bcs.n	8000376 <__udivmoddi4+0xe2>
 8000370:	428b      	cmp	r3, r1
 8000372:	f200 80e9 	bhi.w	8000548 <__udivmoddi4+0x2b4>
 8000376:	4684      	mov	ip, r0
 8000378:	1ac9      	subs	r1, r1, r3
 800037a:	b2a3      	uxth	r3, r4
 800037c:	fbb1 f0fe 	udiv	r0, r1, lr
 8000380:	fb0e 1110 	mls	r1, lr, r0, r1
 8000384:	ea43 4401 	orr.w	r4, r3, r1, lsl #16
 8000388:	fb08 f800 	mul.w	r8, r8, r0
 800038c:	45a0      	cmp	r8, r4
 800038e:	d907      	bls.n	80003a0 <__udivmoddi4+0x10c>
 8000390:	193c      	adds	r4, r7, r4
 8000392:	f100 33ff 	add.w	r3, r0, #4294967295
 8000396:	d202      	bcs.n	800039e <__udivmoddi4+0x10a>
 8000398:	45a0      	cmp	r8, r4
 800039a:	f200 80d9 	bhi.w	8000550 <__udivmoddi4+0x2bc>
 800039e:	4618      	mov	r0, r3
 80003a0:	eba4 0408 	sub.w	r4, r4, r8
 80003a4:	ea40 400c 	orr.w	r0, r0, ip, lsl #16
 80003a8:	e7bf      	b.n	800032a <__udivmoddi4+0x96>
 80003aa:	428b      	cmp	r3, r1
 80003ac:	d909      	bls.n	80003c2 <__udivmoddi4+0x12e>
 80003ae:	2d00      	cmp	r5, #0
 80003b0:	f000 80b1 	beq.w	8000516 <__udivmoddi4+0x282>
 80003b4:	2600      	movs	r6, #0
 80003b6:	e9c5 0100 	strd	r0, r1, [r5]
 80003ba:	4630      	mov	r0, r6
 80003bc:	4631      	mov	r1, r6
 80003be:	e8bd 87f0 	ldmia.w	sp!, {r4, r5, r6, r7, r8, r9, sl, pc}
 80003c2:	fab3 f683 	clz	r6, r3
 80003c6:	2e00      	cmp	r6, #0
 80003c8:	d14a      	bne.n	8000460 <__udivmoddi4+0x1cc>
 80003ca:	428b      	cmp	r3, r1
 80003cc:	d302      	bcc.n	80003d4 <__udivmoddi4+0x140>
 80003ce:	4282      	cmp	r2, r0
 80003d0:	f200 80b8 	bhi.w	8000544 <__udivmoddi4+0x2b0>
 80003d4:	1a84      	subs	r4, r0, r2
 80003d6:	eb61 0103 	sbc.w	r1, r1, r3
 80003da:	2001      	movs	r0, #1
 80003dc:	468c      	mov	ip, r1
 80003de:	2d00      	cmp	r5, #0
 80003e0:	d0a8      	beq.n	8000334 <__udivmoddi4+0xa0>
 80003e2:	e9c5 4c00 	strd	r4, ip, [r5]
 80003e6:	e7a5      	b.n	8000334 <__udivmoddi4+0xa0>
 80003e8:	f1c2 0320 	rsb	r3, r2, #32
 80003ec:	fa20 f603 	lsr.w	r6, r0, r3
 80003f0:	4097      	lsls	r7, r2
 80003f2:	fa01 f002 	lsl.w	r0, r1, r2
 80003f6:	ea4f 4e17 	mov.w	lr, r7, lsr #16
 80003fa:	40d9      	lsrs	r1, r3
 80003fc:	4330      	orrs	r0, r6
 80003fe:	0c03      	lsrs	r3, r0, #16
 8000400:	fbb1 f6fe 	udiv	r6, r1, lr
 8000404:	fa1f f887 	uxth.w	r8, r7
 8000408:	fb0e 1116 	mls	r1, lr, r6, r1
 800040c:	ea43 4301 	orr.w	r3, r3, r1, lsl #16
 8000410:	fb06 f108 	mul.w	r1, r6, r8
 8000414:	4299      	cmp	r1, r3
 8000416:	fa04 f402 	lsl.w	r4, r4, r2
 800041a:	d909      	bls.n	8000430 <__udivmoddi4+0x19c>
 800041c:	18fb      	adds	r3, r7, r3
 800041e:	f106 3cff 	add.w	ip, r6, #4294967295
 8000422:	f080 808d 	bcs.w	8000540 <__udivmoddi4+0x2ac>
 8000426:	4299      	cmp	r1, r3
 8000428:	f240 808a 	bls.w	8000540 <__udivmoddi4+0x2ac>
 800042c:	3e02      	subs	r6, #2
 800042e:	443b      	add	r3, r7
 8000430:	1a5b      	subs	r3, r3, r1
 8000432:	b281      	uxth	r1, r0
 8000434:	fbb3 f0fe 	udiv	r0, r3, lr
 8000438:	fb0e 3310 	mls	r3, lr, r0, r3
 800043c:	ea41 4103 	orr.w	r1, r1, r3, lsl #16
 8000440:	fb00 f308 	mul.w	r3, r0, r8
 8000444:	428b      	cmp	r3, r1
 8000446:	d907      	bls.n	8000458 <__udivmoddi4+0x1c4>
 8000448:	1879      	adds	r1, r7, r1
 800044a:	f100 3cff 	add.w	ip, r0, #4294967295
 800044e:	d273      	bcs.n	8000538 <__udivmoddi4+0x2a4>
 8000450:	428b      	cmp	r3, r1
 8000452:	d971      	bls.n	8000538 <__udivmoddi4+0x2a4>
 8000454:	3802      	subs	r0, #2
 8000456:	4439      	add	r1, r7
 8000458:	1acb      	subs	r3, r1, r3
 800045a:	ea40 4606 	orr.w	r6, r0, r6, lsl #16
 800045e:	e778      	b.n	8000352 <__udivmoddi4+0xbe>
 8000460:	f1c6 0c20 	rsb	ip, r6, #32
 8000464:	fa03 f406 	lsl.w	r4, r3, r6
 8000468:	fa22 f30c 	lsr.w	r3, r2, ip
 800046c:	431c      	orrs	r4, r3
 800046e:	fa20 f70c 	lsr.w	r7, r0, ip
 8000472:	fa01 f306 	lsl.w	r3, r1, r6
 8000476:	ea4f 4e14 	mov.w	lr, r4, lsr #16
 800047a:	fa21 f10c 	lsr.w	r1, r1, ip
 800047e:	431f      	orrs	r7, r3
 8000480:	0c3b      	lsrs	r3, r7, #16
 8000482:	fbb1 f9fe 	udiv	r9, r1, lr
 8000486:	fa1f f884 	uxth.w	r8, r4
 800048a:	fb0e 1119 	mls	r1, lr, r9, r1
 800048e:	ea43 4101 	orr.w	r1, r3, r1, lsl #16
 8000492:	fb09 fa08 	mul.w	sl, r9, r8
 8000496:	458a      	cmp	sl, r1
 8000498:	fa02 f206 	lsl.w	r2, r2, r6
 800049c:	fa00 f306 	lsl.w	r3, r0, r6
 80004a0:	d908      	bls.n	80004b4 <__udivmoddi4+0x220>
 80004a2:	1861      	adds	r1, r4, r1
 80004a4:	f109 30ff 	add.w	r0, r9, #4294967295
 80004a8:	d248      	bcs.n	800053c <__udivmoddi4+0x2a8>
 80004aa:	458a      	cmp	sl, r1
 80004ac:	d946      	bls.n	800053c <__udivmoddi4+0x2a8>
 80004ae:	f1a9 0902 	sub.w	r9, r9, #2
 80004b2:	4421      	add	r1, r4
 80004b4:	eba1 010a 	sub.w	r1, r1, sl
 80004b8:	b2bf      	uxth	r7, r7
 80004ba:	fbb1 f0fe 	udiv	r0, r1, lr
 80004be:	fb0e 1110 	mls	r1, lr, r0, r1
 80004c2:	ea47 4701 	orr.w	r7, r7, r1, lsl #16
 80004c6:	fb00 f808 	mul.w	r8, r0, r8
 80004ca:	45b8      	cmp	r8, r7
 80004cc:	d907      	bls.n	80004de <__udivmoddi4+0x24a>
 80004ce:	19e7      	adds	r7, r4, r7
 80004d0:	f100 31ff 	add.w	r1, r0, #4294967295
 80004d4:	d22e      	bcs.n	8000534 <__udivmoddi4+0x2a0>
 80004d6:	45b8      	cmp	r8, r7
 80004d8:	d92c      	bls.n	8000534 <__udivmoddi4+0x2a0>
 80004da:	3802      	subs	r0, #2
 80004dc:	4427      	add	r7, r4
 80004de:	ea40 4009 	orr.w	r0, r0, r9, lsl #16
 80004e2:	eba7 0708 	sub.w	r7, r7, r8
 80004e6:	fba0 8902 	umull	r8, r9, r0, r2
 80004ea:	454f      	cmp	r7, r9
 80004ec:	46c6      	mov	lr, r8
 80004ee:	4649      	mov	r1, r9
 80004f0:	d31a      	bcc.n	8000528 <__udivmoddi4+0x294>
 80004f2:	d017      	beq.n	8000524 <__udivmoddi4+0x290>
 80004f4:	b15d      	cbz	r5, 800050e <__udivmoddi4+0x27a>
 80004f6:	ebb3 020e 	subs.w	r2, r3, lr
 80004fa:	eb67 0701 	sbc.w	r7, r7, r1
 80004fe:	fa07 fc0c 	lsl.w	ip, r7, ip
 8000502:	40f2      	lsrs	r2, r6
 8000504:	ea4c 0202 	orr.w	r2, ip, r2
 8000508:	40f7      	lsrs	r7, r6
 800050a:	e9c5 2700 	strd	r2, r7, [r5]
 800050e:	2600      	movs	r6, #0
 8000510:	4631      	mov	r1, r6
 8000512:	e8bd 87f0 	ldmia.w	sp!, {r4, r5, r6, r7, r8, r9, sl, pc}
 8000516:	462e      	mov	r6, r5
 8000518:	4628      	mov	r0, r5
 800051a:	e70b      	b.n	8000334 <__udivmoddi4+0xa0>
 800051c:	4606      	mov	r6, r0
 800051e:	e6e9      	b.n	80002f4 <__udivmoddi4+0x60>
 8000520:	4618      	mov	r0, r3
 8000522:	e6fd      	b.n	8000320 <__udivmoddi4+0x8c>
 8000524:	4543      	cmp	r3, r8
 8000526:	d2e5      	bcs.n	80004f4 <__udivmoddi4+0x260>
 8000528:	ebb8 0e02 	subs.w	lr, r8, r2
 800052c:	eb69 0104 	sbc.w	r1, r9, r4
 8000530:	3801      	subs	r0, #1
 8000532:	e7df      	b.n	80004f4 <__udivmoddi4+0x260>
 8000534:	4608      	mov	r0, r1
 8000536:	e7d2      	b.n	80004de <__udivmoddi4+0x24a>
 8000538:	4660      	mov	r0, ip
 800053a:	e78d      	b.n	8000458 <__udivmoddi4+0x1c4>
 800053c:	4681      	mov	r9, r0
 800053e:	e7b9      	b.n	80004b4 <__udivmoddi4+0x220>
 8000540:	4666      	mov	r6, ip
 8000542:	e775      	b.n	8000430 <__udivmoddi4+0x19c>
 8000544:	4630      	mov	r0, r6
 8000546:	e74a      	b.n	80003de <__udivmoddi4+0x14a>
 8000548:	f1ac 0c02 	sub.w	ip, ip, #2
 800054c:	4439      	add	r1, r7
 800054e:	e713      	b.n	8000378 <__udivmoddi4+0xe4>
 8000550:	3802      	subs	r0, #2
 8000552:	443c      	add	r4, r7
 8000554:	e724      	b.n	80003a0 <__udivmoddi4+0x10c>
 8000556:	bf00      	nop

08000558 <__aeabi_idiv0>:
 8000558:	4770      	bx	lr
 800055a:	bf00      	nop

0800055c <MX_GPIO_Init>:
/* USER CODE END 1 */

/** Configure pins
*/
void MX_GPIO_Init(void)
{
 800055c:	b580      	push	{r7, lr}
 800055e:	b086      	sub	sp, #24
 8000560:	af00      	add	r7, sp, #0

  GPIO_InitTypeDef GPIO_InitStruct = {0};
 8000562:	1d3b      	adds	r3, r7, #4
 8000564:	2200      	movs	r2, #0
 8000566:	601a      	str	r2, [r3, #0]
 8000568:	605a      	str	r2, [r3, #4]
 800056a:	609a      	str	r2, [r3, #8]
 800056c:	60da      	str	r2, [r3, #12]
 800056e:	611a      	str	r2, [r3, #16]

  /* GPIO Ports Clock Enable */
  __HAL_RCC_GPIOD_CLK_ENABLE();
 8000570:	2300      	movs	r3, #0
 8000572:	603b      	str	r3, [r7, #0]
 8000574:	4b11      	ldr	r3, [pc, #68]	; (80005bc <MX_GPIO_Init+0x60>)
 8000576:	6b1b      	ldr	r3, [r3, #48]	; 0x30
 8000578:	4a10      	ldr	r2, [pc, #64]	; (80005bc <MX_GPIO_Init+0x60>)
 800057a:	f043 0308 	orr.w	r3, r3, #8
 800057e:	6313      	str	r3, [r2, #48]	; 0x30
 8000580:	4b0e      	ldr	r3, [pc, #56]	; (80005bc <MX_GPIO_Init+0x60>)
 8000582:	6b1b      	ldr	r3, [r3, #48]	; 0x30
 8000584:	f003 0308 	and.w	r3, r3, #8
 8000588:	603b      	str	r3, [r7, #0]
 800058a:	683b      	ldr	r3, [r7, #0]

  /*Configure GPIO pin Output Level */
  HAL_GPIO_WritePin(GPIOD, LD4_Pin|LD3_Pin|LD5_Pin|LD6_Pin, GPIO_PIN_RESET);
 800058c:	2200      	movs	r2, #0
 800058e:	f44f 4170 	mov.w	r1, #61440	; 0xf000
 8000592:	480b      	ldr	r0, [pc, #44]	; (80005c0 <MX_GPIO_Init+0x64>)
 8000594:	f000 fd06 	bl	8000fa4 <HAL_GPIO_WritePin>

  /*Configure GPIO pins : PDPin PDPin PDPin PDPin */
  GPIO_InitStruct.Pin = LD4_Pin|LD3_Pin|LD5_Pin|LD6_Pin;
 8000598:	f44f 4370 	mov.w	r3, #61440	; 0xf000
 800059c:	607b      	str	r3, [r7, #4]
  GPIO_InitStruct.Mode = GPIO_MODE_OUTPUT_PP;
 800059e:	2301      	movs	r3, #1
 80005a0:	60bb      	str	r3, [r7, #8]
  GPIO_InitStruct.Pull = GPIO_NOPULL;
 80005a2:	2300      	movs	r3, #0
 80005a4:	60fb      	str	r3, [r7, #12]
  GPIO_InitStruct.Speed = GPIO_SPEED_FREQ_LOW;
 80005a6:	2300      	movs	r3, #0
 80005a8:	613b      	str	r3, [r7, #16]
  HAL_GPIO_Init(GPIOD, &GPIO_InitStruct);
 80005aa:	1d3b      	adds	r3, r7, #4
 80005ac:	4619      	mov	r1, r3
 80005ae:	4804      	ldr	r0, [pc, #16]	; (80005c0 <MX_GPIO_Init+0x64>)
 80005b0:	f000 fb5c 	bl	8000c6c <HAL_GPIO_Init>

}
 80005b4:	bf00      	nop
 80005b6:	3718      	adds	r7, #24
 80005b8:	46bd      	mov	sp, r7
 80005ba:	bd80      	pop	{r7, pc}
 80005bc:	40023800 	.word	0x40023800
 80005c0:	40020c00 	.word	0x40020c00

080005c4 <main>:
/**
  * @brief  The application entry point.
  * @retval int
  */
int main(void)
{
 80005c4:	b580      	push	{r7, lr}
 80005c6:	b08c      	sub	sp, #48	; 0x30
 80005c8:	af02      	add	r7, sp, #8
  /* USER CODE END 1 */

  /* MCU Configuration--------------------------------------------------------*/

  /* Reset of all peripherals, Initializes the Flash interface and the Systick. */
  HAL_Init();
 80005ca:	f000 fa2b 	bl	8000a24 <HAL_Init>
  /* USER CODE BEGIN Init */

  /* USER CODE END Init */

  /* Configure the system clock */
  SystemClock_Config();
 80005ce:	f000 f889 	bl	80006e4 <SystemClock_Config>
  /* USER CODE BEGIN SysInit */

  /* USER CODE END SysInit */

  /* Initialize all configured peripherals */
  MX_GPIO_Init();
 80005d2:	f7ff ffc3 	bl	800055c <MX_GPIO_Init>
  /* USER CODE BEGIN 2 */
  DWT_CTRL |= (1 << 0);
 80005d6:	4b3a      	ldr	r3, [pc, #232]	; (80006c0 <main+0xfc>)
 80005d8:	681b      	ldr	r3, [r3, #0]
 80005da:	4a39      	ldr	r2, [pc, #228]	; (80006c0 <main+0xfc>)
 80005dc:	f043 0301 	orr.w	r3, r3, #1
 80005e0:	6013      	str	r3, [r2, #0]
  SEGGER_SYSVIEW_Conf();
 80005e2:	f004 f957 	bl	8004894 <SEGGER_SYSVIEW_Conf>
  SEGGER_SYSVIEW_Start();
 80005e6:	f005 f8a7 	bl	8005738 <SEGGER_SYSVIEW_Start>

  status = xTaskCreate(LED1_handler, "TASK LED1", 200, NULL, 2, &hTask1);
 80005ea:	f107 0310 	add.w	r3, r7, #16
 80005ee:	9301      	str	r3, [sp, #4]
 80005f0:	2302      	movs	r3, #2
 80005f2:	9300      	str	r3, [sp, #0]
 80005f4:	2300      	movs	r3, #0
 80005f6:	22c8      	movs	r2, #200	; 0xc8
 80005f8:	4932      	ldr	r1, [pc, #200]	; (80006c4 <main+0x100>)
 80005fa:	4833      	ldr	r0, [pc, #204]	; (80006c8 <main+0x104>)
 80005fc:	f002 fa54 	bl	8002aa8 <xTaskCreate>
 8000600:	6278      	str	r0, [r7, #36]	; 0x24
  configASSERT(status== pdPASS);
 8000602:	6a7b      	ldr	r3, [r7, #36]	; 0x24
 8000604:	2b01      	cmp	r3, #1
 8000606:	d00a      	beq.n	800061e <main+0x5a>

    portFORCE_INLINE static void vPortRaiseBASEPRI( void )
    {
        uint32_t ulNewBASEPRI;

        __asm volatile
 8000608:	f04f 0350 	mov.w	r3, #80	; 0x50
 800060c:	f383 8811 	msr	BASEPRI, r3
 8000610:	f3bf 8f6f 	isb	sy
 8000614:	f3bf 8f4f 	dsb	sy
 8000618:	623b      	str	r3, [r7, #32]
            "	msr basepri, %0											\n"\
            "	isb														\n"\
            "	dsb														\n"\
            : "=r" ( ulNewBASEPRI ) : "i" ( configMAX_SYSCALL_INTERRUPT_PRIORITY ) : "memory"
        );
    }
 800061a:	bf00      	nop
 800061c:	e7fe      	b.n	800061c <main+0x58>

  status = xTaskCreate(LED2_handler, "TASK LED2", 200, NULL, 2, &hTask2);
 800061e:	f107 030c 	add.w	r3, r7, #12
 8000622:	9301      	str	r3, [sp, #4]
 8000624:	2302      	movs	r3, #2
 8000626:	9300      	str	r3, [sp, #0]
 8000628:	2300      	movs	r3, #0
 800062a:	22c8      	movs	r2, #200	; 0xc8
 800062c:	4927      	ldr	r1, [pc, #156]	; (80006cc <main+0x108>)
 800062e:	4828      	ldr	r0, [pc, #160]	; (80006d0 <main+0x10c>)
 8000630:	f002 fa3a 	bl	8002aa8 <xTaskCreate>
 8000634:	6278      	str	r0, [r7, #36]	; 0x24
  configASSERT(status== pdPASS);
 8000636:	6a7b      	ldr	r3, [r7, #36]	; 0x24
 8000638:	2b01      	cmp	r3, #1
 800063a:	d00a      	beq.n	8000652 <main+0x8e>
        __asm volatile
 800063c:	f04f 0350 	mov.w	r3, #80	; 0x50
 8000640:	f383 8811 	msr	BASEPRI, r3
 8000644:	f3bf 8f6f 	isb	sy
 8000648:	f3bf 8f4f 	dsb	sy
 800064c:	61fb      	str	r3, [r7, #28]
    }
 800064e:	bf00      	nop
 8000650:	e7fe      	b.n	8000650 <main+0x8c>

  status = xTaskCreate(LED3_handler, "TASK LED3", 200, NULL, 2, &hTask3);
 8000652:	f107 0308 	add.w	r3, r7, #8
 8000656:	9301      	str	r3, [sp, #4]
 8000658:	2302      	movs	r3, #2
 800065a:	9300      	str	r3, [sp, #0]
 800065c:	2300      	movs	r3, #0
 800065e:	22c8      	movs	r2, #200	; 0xc8
 8000660:	491c      	ldr	r1, [pc, #112]	; (80006d4 <main+0x110>)
 8000662:	481d      	ldr	r0, [pc, #116]	; (80006d8 <main+0x114>)
 8000664:	f002 fa20 	bl	8002aa8 <xTaskCreate>
 8000668:	6278      	str	r0, [r7, #36]	; 0x24
  configASSERT(status== pdPASS);
 800066a:	6a7b      	ldr	r3, [r7, #36]	; 0x24
 800066c:	2b01      	cmp	r3, #1
 800066e:	d00a      	beq.n	8000686 <main+0xc2>
        __asm volatile
 8000670:	f04f 0350 	mov.w	r3, #80	; 0x50
 8000674:	f383 8811 	msr	BASEPRI, r3
 8000678:	f3bf 8f6f 	isb	sy
 800067c:	f3bf 8f4f 	dsb	sy
 8000680:	61bb      	str	r3, [r7, #24]
    }
 8000682:	bf00      	nop
 8000684:	e7fe      	b.n	8000684 <main+0xc0>

  status = xTaskCreate(LED4_handler, "TASK LED4", 200, NULL, 2, &hTask4);
 8000686:	1d3b      	adds	r3, r7, #4
 8000688:	9301      	str	r3, [sp, #4]
 800068a:	2302      	movs	r3, #2
 800068c:	9300      	str	r3, [sp, #0]
 800068e:	2300      	movs	r3, #0
 8000690:	22c8      	movs	r2, #200	; 0xc8
 8000692:	4912      	ldr	r1, [pc, #72]	; (80006dc <main+0x118>)
 8000694:	4812      	ldr	r0, [pc, #72]	; (80006e0 <main+0x11c>)
 8000696:	f002 fa07 	bl	8002aa8 <xTaskCreate>
 800069a:	6278      	str	r0, [r7, #36]	; 0x24
  configASSERT(status== pdPASS);
 800069c:	6a7b      	ldr	r3, [r7, #36]	; 0x24
 800069e:	2b01      	cmp	r3, #1
 80006a0:	d00a      	beq.n	80006b8 <main+0xf4>
        __asm volatile
 80006a2:	f04f 0350 	mov.w	r3, #80	; 0x50
 80006a6:	f383 8811 	msr	BASEPRI, r3
 80006aa:	f3bf 8f6f 	isb	sy
 80006ae:	f3bf 8f4f 	dsb	sy
 80006b2:	617b      	str	r3, [r7, #20]
    }
 80006b4:	bf00      	nop
 80006b6:	e7fe      	b.n	80006b6 <main+0xf2>

  //start FreeRTOS scheduler
  vTaskStartScheduler(); //
 80006b8:	f002 fb92 	bl	8002de0 <vTaskStartScheduler>
  /* USER CODE END 2 */

  /* Infinite loop */
  /* USER CODE BEGIN WHILE */
  while (1)
 80006bc:	e7fe      	b.n	80006bc <main+0xf8>
 80006be:	bf00      	nop
 80006c0:	e0001000 	.word	0xe0001000
 80006c4:	08006378 	.word	0x08006378
 80006c8:	080007b9 	.word	0x080007b9
 80006cc:	08006384 	.word	0x08006384
 80006d0:	080007d9 	.word	0x080007d9
 80006d4:	08006390 	.word	0x08006390
 80006d8:	080007f9 	.word	0x080007f9
 80006dc:	0800639c 	.word	0x0800639c
 80006e0:	08000819 	.word	0x08000819

080006e4 <SystemClock_Config>:
/**
  * @brief System Clock Configuration
  * @retval None
  */
void SystemClock_Config(void)
{
 80006e4:	b580      	push	{r7, lr}
 80006e6:	b094      	sub	sp, #80	; 0x50
 80006e8:	af00      	add	r7, sp, #0
  RCC_OscInitTypeDef RCC_OscInitStruct = {0};
 80006ea:	f107 0320 	add.w	r3, r7, #32
 80006ee:	2230      	movs	r2, #48	; 0x30
 80006f0:	2100      	movs	r1, #0
 80006f2:	4618      	mov	r0, r3
 80006f4:	f005 fe2c 	bl	8006350 <memset>
  RCC_ClkInitTypeDef RCC_ClkInitStruct = {0};
 80006f8:	f107 030c 	add.w	r3, r7, #12
 80006fc:	2200      	movs	r2, #0
 80006fe:	601a      	str	r2, [r3, #0]
 8000700:	605a      	str	r2, [r3, #4]
 8000702:	609a      	str	r2, [r3, #8]
 8000704:	60da      	str	r2, [r3, #12]
 8000706:	611a      	str	r2, [r3, #16]

  /** Configure the main internal regulator output voltage
  */
  __HAL_RCC_PWR_CLK_ENABLE();
 8000708:	2300      	movs	r3, #0
 800070a:	60bb      	str	r3, [r7, #8]
 800070c:	4b28      	ldr	r3, [pc, #160]	; (80007b0 <SystemClock_Config+0xcc>)
 800070e:	6c1b      	ldr	r3, [r3, #64]	; 0x40
 8000710:	4a27      	ldr	r2, [pc, #156]	; (80007b0 <SystemClock_Config+0xcc>)
 8000712:	f043 5380 	orr.w	r3, r3, #268435456	; 0x10000000
 8000716:	6413      	str	r3, [r2, #64]	; 0x40
 8000718:	4b25      	ldr	r3, [pc, #148]	; (80007b0 <SystemClock_Config+0xcc>)
 800071a:	6c1b      	ldr	r3, [r3, #64]	; 0x40
 800071c:	f003 5380 	and.w	r3, r3, #268435456	; 0x10000000
 8000720:	60bb      	str	r3, [r7, #8]
 8000722:	68bb      	ldr	r3, [r7, #8]
  __HAL_PWR_VOLTAGESCALING_CONFIG(PWR_REGULATOR_VOLTAGE_SCALE1);
 8000724:	2300      	movs	r3, #0
 8000726:	607b      	str	r3, [r7, #4]
 8000728:	4b22      	ldr	r3, [pc, #136]	; (80007b4 <SystemClock_Config+0xd0>)
 800072a:	681b      	ldr	r3, [r3, #0]
 800072c:	4a21      	ldr	r2, [pc, #132]	; (80007b4 <SystemClock_Config+0xd0>)
 800072e:	f443 4380 	orr.w	r3, r3, #16384	; 0x4000
 8000732:	6013      	str	r3, [r2, #0]
 8000734:	4b1f      	ldr	r3, [pc, #124]	; (80007b4 <SystemClock_Config+0xd0>)
 8000736:	681b      	ldr	r3, [r3, #0]
 8000738:	f403 4380 	and.w	r3, r3, #16384	; 0x4000
 800073c:	607b      	str	r3, [r7, #4]
 800073e:	687b      	ldr	r3, [r7, #4]
  /** Initializes the RCC Oscillators according to the specified parameters
  * in the RCC_OscInitTypeDef structure.
  */
  RCC_OscInitStruct.OscillatorType = RCC_OSCILLATORTYPE_HSI;
 8000740:	2302      	movs	r3, #2
 8000742:	623b      	str	r3, [r7, #32]
  RCC_OscInitStruct.HSIState = RCC_HSI_ON;
 8000744:	2301      	movs	r3, #1
 8000746:	62fb      	str	r3, [r7, #44]	; 0x2c
  RCC_OscInitStruct.HSICalibrationValue = RCC_HSICALIBRATION_DEFAULT;
 8000748:	2310      	movs	r3, #16
 800074a:	633b      	str	r3, [r7, #48]	; 0x30
  RCC_OscInitStruct.PLL.PLLState = RCC_PLL_ON;
 800074c:	2302      	movs	r3, #2
 800074e:	63bb      	str	r3, [r7, #56]	; 0x38
  RCC_OscInitStruct.PLL.PLLSource = RCC_PLLSOURCE_HSI;
 8000750:	2300      	movs	r3, #0
 8000752:	63fb      	str	r3, [r7, #60]	; 0x3c
  RCC_OscInitStruct.PLL.PLLM = 8;
 8000754:	2308      	movs	r3, #8
 8000756:	643b      	str	r3, [r7, #64]	; 0x40
  RCC_OscInitStruct.PLL.PLLN = 50;
 8000758:	2332      	movs	r3, #50	; 0x32
 800075a:	647b      	str	r3, [r7, #68]	; 0x44
  RCC_OscInitStruct.PLL.PLLP = RCC_PLLP_DIV4;
 800075c:	2304      	movs	r3, #4
 800075e:	64bb      	str	r3, [r7, #72]	; 0x48
  RCC_OscInitStruct.PLL.PLLQ = 7;
 8000760:	2307      	movs	r3, #7
 8000762:	64fb      	str	r3, [r7, #76]	; 0x4c
  if (HAL_RCC_OscConfig(&RCC_OscInitStruct) != HAL_OK)
 8000764:	f107 0320 	add.w	r3, r7, #32
 8000768:	4618      	mov	r0, r3
 800076a:	f000 fc4f 	bl	800100c <HAL_RCC_OscConfig>
 800076e:	4603      	mov	r3, r0
 8000770:	2b00      	cmp	r3, #0
 8000772:	d001      	beq.n	8000778 <SystemClock_Config+0x94>
  {
    Error_Handler();
 8000774:	f000 f872 	bl	800085c <Error_Handler>
  }
  /** Initializes the CPU, AHB and APB buses clocks
  */
  RCC_ClkInitStruct.ClockType = RCC_CLOCKTYPE_HCLK|RCC_CLOCKTYPE_SYSCLK
 8000778:	230f      	movs	r3, #15
 800077a:	60fb      	str	r3, [r7, #12]
                              |RCC_CLOCKTYPE_PCLK1|RCC_CLOCKTYPE_PCLK2;
  RCC_ClkInitStruct.SYSCLKSource = RCC_SYSCLKSOURCE_PLLCLK;
 800077c:	2302      	movs	r3, #2
 800077e:	613b      	str	r3, [r7, #16]
  RCC_ClkInitStruct.AHBCLKDivider = RCC_SYSCLK_DIV1;
 8000780:	2300      	movs	r3, #0
 8000782:	617b      	str	r3, [r7, #20]
  RCC_ClkInitStruct.APB1CLKDivider = RCC_HCLK_DIV4;
 8000784:	f44f 53a0 	mov.w	r3, #5120	; 0x1400
 8000788:	61bb      	str	r3, [r7, #24]
  RCC_ClkInitStruct.APB2CLKDivider = RCC_HCLK_DIV2;
 800078a:	f44f 5380 	mov.w	r3, #4096	; 0x1000
 800078e:	61fb      	str	r3, [r7, #28]

  if (HAL_RCC_ClockConfig(&RCC_ClkInitStruct, FLASH_LATENCY_0) != HAL_OK)
 8000790:	f107 030c 	add.w	r3, r7, #12
 8000794:	2100      	movs	r1, #0
 8000796:	4618      	mov	r0, r3
 8000798:	f000 feb0 	bl	80014fc <HAL_RCC_ClockConfig>
 800079c:	4603      	mov	r3, r0
 800079e:	2b00      	cmp	r3, #0
 80007a0:	d001      	beq.n	80007a6 <SystemClock_Config+0xc2>
  {
    Error_Handler();
 80007a2:	f000 f85b 	bl	800085c <Error_Handler>
  }
}
 80007a6:	bf00      	nop
 80007a8:	3750      	adds	r7, #80	; 0x50
 80007aa:	46bd      	mov	sp, r7
 80007ac:	bd80      	pop	{r7, pc}
 80007ae:	bf00      	nop
 80007b0:	40023800 	.word	0x40023800
 80007b4:	40007000 	.word	0x40007000

080007b8 <LED1_handler>:

/* USER CODE BEGIN 4 */
static void LED1_handler(void* parameters)
{
 80007b8:	b580      	push	{r7, lr}
 80007ba:	b082      	sub	sp, #8
 80007bc:	af00      	add	r7, sp, #0
 80007be:	6078      	str	r0, [r7, #4]
	while(1)
	{
		HAL_GPIO_TogglePin(GPIOD, LD3_Pin);
 80007c0:	f44f 5100 	mov.w	r1, #8192	; 0x2000
 80007c4:	4803      	ldr	r0, [pc, #12]	; (80007d4 <LED1_handler+0x1c>)
 80007c6:	f000 fc06 	bl	8000fd6 <HAL_GPIO_TogglePin>
		vTaskDelay(pdMS_TO_TICKS(515));
 80007ca:	f240 2003 	movw	r0, #515	; 0x203
 80007ce:	f002 facf 	bl	8002d70 <vTaskDelay>
		HAL_GPIO_TogglePin(GPIOD, LD3_Pin);
 80007d2:	e7f5      	b.n	80007c0 <LED1_handler+0x8>
 80007d4:	40020c00 	.word	0x40020c00

080007d8 <LED2_handler>:

	}
}

static void LED2_handler(void* parameters)
{
 80007d8:	b580      	push	{r7, lr}
 80007da:	b082      	sub	sp, #8
 80007dc:	af00      	add	r7, sp, #0
 80007de:	6078      	str	r0, [r7, #4]
	while(1)
	{
		HAL_GPIO_TogglePin(GPIOD, LD4_Pin);
 80007e0:	f44f 5180 	mov.w	r1, #4096	; 0x1000
 80007e4:	4803      	ldr	r0, [pc, #12]	; (80007f4 <LED2_handler+0x1c>)
 80007e6:	f000 fbf6 	bl	8000fd6 <HAL_GPIO_TogglePin>
		vTaskDelay(pdMS_TO_TICKS(510));
 80007ea:	f44f 70ff 	mov.w	r0, #510	; 0x1fe
 80007ee:	f002 fabf 	bl	8002d70 <vTaskDelay>
		HAL_GPIO_TogglePin(GPIOD, LD4_Pin);
 80007f2:	e7f5      	b.n	80007e0 <LED2_handler+0x8>
 80007f4:	40020c00 	.word	0x40020c00

080007f8 <LED3_handler>:
	}
}

static void LED3_handler(void* parameters)
{
 80007f8:	b580      	push	{r7, lr}
 80007fa:	b082      	sub	sp, #8
 80007fc:	af00      	add	r7, sp, #0
 80007fe:	6078      	str	r0, [r7, #4]
	while(1)
	{
		HAL_GPIO_TogglePin(GPIOD, LD5_Pin);
 8000800:	f44f 4180 	mov.w	r1, #16384	; 0x4000
 8000804:	4803      	ldr	r0, [pc, #12]	; (8000814 <LED3_handler+0x1c>)
 8000806:	f000 fbe6 	bl	8000fd6 <HAL_GPIO_TogglePin>
		vTaskDelay(pdMS_TO_TICKS(505));
 800080a:	f240 10f9 	movw	r0, #505	; 0x1f9
 800080e:	f002 faaf 	bl	8002d70 <vTaskDelay>
		HAL_GPIO_TogglePin(GPIOD, LD5_Pin);
 8000812:	e7f5      	b.n	8000800 <LED3_handler+0x8>
 8000814:	40020c00 	.word	0x40020c00

08000818 <LED4_handler>:

	}
}

static void LED4_handler(void* parameters)
{
 8000818:	b580      	push	{r7, lr}
 800081a:	b082      	sub	sp, #8
 800081c:	af00      	add	r7, sp, #0
 800081e:	6078      	str	r0, [r7, #4]
	while(1)
	{
		HAL_GPIO_TogglePin(GPIOD, LD6_Pin);
 8000820:	f44f 4100 	mov.w	r1, #32768	; 0x8000
 8000824:	4803      	ldr	r0, [pc, #12]	; (8000834 <LED4_handler+0x1c>)
 8000826:	f000 fbd6 	bl	8000fd6 <HAL_GPIO_TogglePin>
		vTaskDelay(pdMS_TO_TICKS(500));
 800082a:	f44f 70fa 	mov.w	r0, #500	; 0x1f4
 800082e:	f002 fa9f 	bl	8002d70 <vTaskDelay>
		HAL_GPIO_TogglePin(GPIOD, LD6_Pin);
 8000832:	e7f5      	b.n	8000820 <LED4_handler+0x8>
 8000834:	40020c00 	.word	0x40020c00

08000838 <HAL_TIM_PeriodElapsedCallback>:
  * a global variable "uwTick" used as application time base.
  * @param  htim : TIM handle
  * @retval None
  */
void HAL_TIM_PeriodElapsedCallback(TIM_HandleTypeDef *htim)
{
 8000838:	b580      	push	{r7, lr}
 800083a:	b082      	sub	sp, #8
 800083c:	af00      	add	r7, sp, #0
 800083e:	6078      	str	r0, [r7, #4]
  /* USER CODE BEGIN Callback 0 */

  /* USER CODE END Callback 0 */
  if (htim->Instance == TIM6) {
 8000840:	687b      	ldr	r3, [r7, #4]
 8000842:	681b      	ldr	r3, [r3, #0]
 8000844:	4a04      	ldr	r2, [pc, #16]	; (8000858 <HAL_TIM_PeriodElapsedCallback+0x20>)
 8000846:	4293      	cmp	r3, r2
 8000848:	d101      	bne.n	800084e <HAL_TIM_PeriodElapsedCallback+0x16>
    HAL_IncTick();
 800084a:	f000 f90d 	bl	8000a68 <HAL_IncTick>
  }
  /* USER CODE BEGIN Callback 1 */

  /* USER CODE END Callback 1 */
}
 800084e:	bf00      	nop
 8000850:	3708      	adds	r7, #8
 8000852:	46bd      	mov	sp, r7
 8000854:	bd80      	pop	{r7, pc}
 8000856:	bf00      	nop
 8000858:	40001000 	.word	0x40001000

0800085c <Error_Handler>:
/**
  * @brief  This function is executed in case of error occurrence.
  * @retval None
  */
void Error_Handler(void)
{
 800085c:	b480      	push	{r7}
 800085e:	af00      	add	r7, sp, #0
  \details Disables IRQ interrupts by setting the I-bit in the CPSR.
           Can only be executed in Privileged modes.
 */
__STATIC_FORCEINLINE void __disable_irq(void)
{
  __ASM volatile ("cpsid i" : : : "memory");
 8000860:	b672      	cpsid	i
}
 8000862:	bf00      	nop
  /* USER CODE BEGIN Error_Handler_Debug */
  /* User can add his own implementation to report the HAL error return state */
  __disable_irq();
  while (1)
 8000864:	e7fe      	b.n	8000864 <Error_Handler+0x8>
	...

08000868 <HAL_MspInit>:
/* USER CODE END 0 */
/**
  * Initializes the Global MSP.
  */
void HAL_MspInit(void)
{
 8000868:	b580      	push	{r7, lr}
 800086a:	b082      	sub	sp, #8
 800086c:	af00      	add	r7, sp, #0
  /* USER CODE BEGIN MspInit 0 */

  /* USER CODE END MspInit 0 */

  __HAL_RCC_SYSCFG_CLK_ENABLE();
 800086e:	2300      	movs	r3, #0
 8000870:	607b      	str	r3, [r7, #4]
 8000872:	4b10      	ldr	r3, [pc, #64]	; (80008b4 <HAL_MspInit+0x4c>)
 8000874:	6c5b      	ldr	r3, [r3, #68]	; 0x44
 8000876:	4a0f      	ldr	r2, [pc, #60]	; (80008b4 <HAL_MspInit+0x4c>)
 8000878:	f443 4380 	orr.w	r3, r3, #16384	; 0x4000
 800087c:	6453      	str	r3, [r2, #68]	; 0x44
 800087e:	4b0d      	ldr	r3, [pc, #52]	; (80008b4 <HAL_MspInit+0x4c>)
 8000880:	6c5b      	ldr	r3, [r3, #68]	; 0x44
 8000882:	f403 4380 	and.w	r3, r3, #16384	; 0x4000
 8000886:	607b      	str	r3, [r7, #4]
 8000888:	687b      	ldr	r3, [r7, #4]
  __HAL_RCC_PWR_CLK_ENABLE();
 800088a:	2300      	movs	r3, #0
 800088c:	603b      	str	r3, [r7, #0]
 800088e:	4b09      	ldr	r3, [pc, #36]	; (80008b4 <HAL_MspInit+0x4c>)
 8000890:	6c1b      	ldr	r3, [r3, #64]	; 0x40
 8000892:	4a08      	ldr	r2, [pc, #32]	; (80008b4 <HAL_MspInit+0x4c>)
 8000894:	f043 5380 	orr.w	r3, r3, #268435456	; 0x10000000
 8000898:	6413      	str	r3, [r2, #64]	; 0x40
 800089a:	4b06      	ldr	r3, [pc, #24]	; (80008b4 <HAL_MspInit+0x4c>)
 800089c:	6c1b      	ldr	r3, [r3, #64]	; 0x40
 800089e:	f003 5380 	and.w	r3, r3, #268435456	; 0x10000000
 80008a2:	603b      	str	r3, [r7, #0]
 80008a4:	683b      	ldr	r3, [r7, #0]

  /* System interrupt init*/

  /* USER CODE BEGIN MspInit 1 */
  vInitPrioGroupValue();
 80008a6:	f003 fc3f 	bl	8004128 <vInitPrioGroupValue>
  /* USER CODE END MspInit 1 */
}
 80008aa:	bf00      	nop
 80008ac:	3708      	adds	r7, #8
 80008ae:	46bd      	mov	sp, r7
 80008b0:	bd80      	pop	{r7, pc}
 80008b2:	bf00      	nop
 80008b4:	40023800 	.word	0x40023800

080008b8 <HAL_InitTick>:
  *         reset by HAL_Init() or at any time when clock is configured, by HAL_RCC_ClockConfig().
  * @param  TickPriority: Tick interrupt priority.
  * @retval HAL status
  */
HAL_StatusTypeDef HAL_InitTick(uint32_t TickPriority)
{
 80008b8:	b580      	push	{r7, lr}
 80008ba:	b08c      	sub	sp, #48	; 0x30
 80008bc:	af00      	add	r7, sp, #0
 80008be:	6078      	str	r0, [r7, #4]
  RCC_ClkInitTypeDef    clkconfig;
  uint32_t              uwTimclock = 0;
 80008c0:	2300      	movs	r3, #0
 80008c2:	62fb      	str	r3, [r7, #44]	; 0x2c
  uint32_t              uwPrescalerValue = 0;
 80008c4:	2300      	movs	r3, #0
 80008c6:	62bb      	str	r3, [r7, #40]	; 0x28
  uint32_t              pFLatency;
  /*Configure the TIM6 IRQ priority */
  HAL_NVIC_SetPriority(TIM6_DAC_IRQn, TickPriority ,0);
 80008c8:	2200      	movs	r2, #0
 80008ca:	6879      	ldr	r1, [r7, #4]
 80008cc:	2036      	movs	r0, #54	; 0x36
 80008ce:	f000 f9a3 	bl	8000c18 <HAL_NVIC_SetPriority>

  /* Enable the TIM6 global Interrupt */
  HAL_NVIC_EnableIRQ(TIM6_DAC_IRQn);
 80008d2:	2036      	movs	r0, #54	; 0x36
 80008d4:	f000 f9bc 	bl	8000c50 <HAL_NVIC_EnableIRQ>
  /* Enable TIM6 clock */
  __HAL_RCC_TIM6_CLK_ENABLE();
 80008d8:	2300      	movs	r3, #0
 80008da:	60fb      	str	r3, [r7, #12]
 80008dc:	4b1f      	ldr	r3, [pc, #124]	; (800095c <HAL_InitTick+0xa4>)
 80008de:	6c1b      	ldr	r3, [r3, #64]	; 0x40
 80008e0:	4a1e      	ldr	r2, [pc, #120]	; (800095c <HAL_InitTick+0xa4>)
 80008e2:	f043 0310 	orr.w	r3, r3, #16
 80008e6:	6413      	str	r3, [r2, #64]	; 0x40
 80008e8:	4b1c      	ldr	r3, [pc, #112]	; (800095c <HAL_InitTick+0xa4>)
 80008ea:	6c1b      	ldr	r3, [r3, #64]	; 0x40
 80008ec:	f003 0310 	and.w	r3, r3, #16
 80008f0:	60fb      	str	r3, [r7, #12]
 80008f2:	68fb      	ldr	r3, [r7, #12]

  /* Get clock configuration */
  HAL_RCC_GetClockConfig(&clkconfig, &pFLatency);
 80008f4:	f107 0210 	add.w	r2, r7, #16
 80008f8:	f107 0314 	add.w	r3, r7, #20
 80008fc:	4611      	mov	r1, r2
 80008fe:	4618      	mov	r0, r3
 8000900:	f000 ffe4 	bl	80018cc <HAL_RCC_GetClockConfig>

  /* Compute TIM6 clock */
  uwTimclock = 2*HAL_RCC_GetPCLK1Freq();
 8000904:	f000 ffce 	bl	80018a4 <HAL_RCC_GetPCLK1Freq>
 8000908:	4603      	mov	r3, r0
 800090a:	005b      	lsls	r3, r3, #1
 800090c:	62fb      	str	r3, [r7, #44]	; 0x2c
  /* Compute the prescaler value to have TIM6 counter clock equal to 1MHz */
  uwPrescalerValue = (uint32_t) ((uwTimclock / 1000000U) - 1U);
 800090e:	6afb      	ldr	r3, [r7, #44]	; 0x2c
 8000910:	4a13      	ldr	r2, [pc, #76]	; (8000960 <HAL_InitTick+0xa8>)
 8000912:	fba2 2303 	umull	r2, r3, r2, r3
 8000916:	0c9b      	lsrs	r3, r3, #18
 8000918:	3b01      	subs	r3, #1
 800091a:	62bb      	str	r3, [r7, #40]	; 0x28

  /* Initialize TIM6 */
  htim6.Instance = TIM6;
 800091c:	4b11      	ldr	r3, [pc, #68]	; (8000964 <HAL_InitTick+0xac>)
 800091e:	4a12      	ldr	r2, [pc, #72]	; (8000968 <HAL_InitTick+0xb0>)
 8000920:	601a      	str	r2, [r3, #0]
  + Period = [(TIM6CLK/1000) - 1]. to have a (1/1000) s time base.
  + Prescaler = (uwTimclock/1000000 - 1) to have a 1MHz counter clock.
  + ClockDivision = 0
  + Counter direction = Up
  */
  htim6.Init.Period = (1000000U / 1000U) - 1U;
 8000922:	4b10      	ldr	r3, [pc, #64]	; (8000964 <HAL_InitTick+0xac>)
 8000924:	f240 32e7 	movw	r2, #999	; 0x3e7
 8000928:	60da      	str	r2, [r3, #12]
  htim6.Init.Prescaler = uwPrescalerValue;
 800092a:	4a0e      	ldr	r2, [pc, #56]	; (8000964 <HAL_InitTick+0xac>)
 800092c:	6abb      	ldr	r3, [r7, #40]	; 0x28
 800092e:	6053      	str	r3, [r2, #4]
  htim6.Init.ClockDivision = 0;
 8000930:	4b0c      	ldr	r3, [pc, #48]	; (8000964 <HAL_InitTick+0xac>)
 8000932:	2200      	movs	r2, #0
 8000934:	611a      	str	r2, [r3, #16]
  htim6.Init.CounterMode = TIM_COUNTERMODE_UP;
 8000936:	4b0b      	ldr	r3, [pc, #44]	; (8000964 <HAL_InitTick+0xac>)
 8000938:	2200      	movs	r2, #0
 800093a:	609a      	str	r2, [r3, #8]
  if(HAL_TIM_Base_Init(&htim6) == HAL_OK)
 800093c:	4809      	ldr	r0, [pc, #36]	; (8000964 <HAL_InitTick+0xac>)
 800093e:	f000 fff7 	bl	8001930 <HAL_TIM_Base_Init>
 8000942:	4603      	mov	r3, r0
 8000944:	2b00      	cmp	r3, #0
 8000946:	d104      	bne.n	8000952 <HAL_InitTick+0x9a>
  {
    /* Start the TIM time Base generation in interrupt mode */
    return HAL_TIM_Base_Start_IT(&htim6);
 8000948:	4806      	ldr	r0, [pc, #24]	; (8000964 <HAL_InitTick+0xac>)
 800094a:	f001 f84b 	bl	80019e4 <HAL_TIM_Base_Start_IT>
 800094e:	4603      	mov	r3, r0
 8000950:	e000      	b.n	8000954 <HAL_InitTick+0x9c>
  }

  /* Return function status */
  return HAL_ERROR;
 8000952:	2301      	movs	r3, #1
}
 8000954:	4618      	mov	r0, r3
 8000956:	3730      	adds	r7, #48	; 0x30
 8000958:	46bd      	mov	sp, r7
 800095a:	bd80      	pop	{r7, pc}
 800095c:	40023800 	.word	0x40023800
 8000960:	431bde83 	.word	0x431bde83
 8000964:	20014370 	.word	0x20014370
 8000968:	40001000 	.word	0x40001000

0800096c <NMI_Handler>:
/******************************************************************************/
/**
  * @brief This function handles Non maskable interrupt.
  */
void NMI_Handler(void)
{
 800096c:	b480      	push	{r7}
 800096e:	af00      	add	r7, sp, #0
  /* USER CODE BEGIN NonMaskableInt_IRQn 0 */

  /* USER CODE END NonMaskableInt_IRQn 0 */
  /* USER CODE BEGIN NonMaskableInt_IRQn 1 */
  while (1)
 8000970:	e7fe      	b.n	8000970 <NMI_Handler+0x4>

08000972 <HardFault_Handler>:

/**
  * @brief This function handles Hard fault interrupt.
  */
void HardFault_Handler(void)
{
 8000972:	b480      	push	{r7}
 8000974:	af00      	add	r7, sp, #0
  /* USER CODE BEGIN HardFault_IRQn 0 */

  /* USER CODE END HardFault_IRQn 0 */
  while (1)
 8000976:	e7fe      	b.n	8000976 <HardFault_Handler+0x4>

08000978 <MemManage_Handler>:

/**
  * @brief This function handles Memory management fault.
  */
void MemManage_Handler(void)
{
 8000978:	b480      	push	{r7}
 800097a:	af00      	add	r7, sp, #0
  /* USER CODE BEGIN MemoryManagement_IRQn 0 */

  /* USER CODE END MemoryManagement_IRQn 0 */
  while (1)
 800097c:	e7fe      	b.n	800097c <MemManage_Handler+0x4>

0800097e <BusFault_Handler>:

/**
  * @brief This function handles Pre-fetch fault, memory access fault.
  */
void BusFault_Handler(void)
{
 800097e:	b480      	push	{r7}
 8000980:	af00      	add	r7, sp, #0
  /* USER CODE BEGIN BusFault_IRQn 0 */

  /* USER CODE END BusFault_IRQn 0 */
  while (1)
 8000982:	e7fe      	b.n	8000982 <BusFault_Handler+0x4>

08000984 <UsageFault_Handler>:

/**
  * @brief This function handles Undefined instruction or illegal state.
  */
void UsageFault_Handler(void)
{
 8000984:	b480      	push	{r7}
 8000986:	af00      	add	r7, sp, #0
  /* USER CODE BEGIN UsageFault_IRQn 0 */

  /* USER CODE END UsageFault_IRQn 0 */
  while (1)
 8000988:	e7fe      	b.n	8000988 <UsageFault_Handler+0x4>

0800098a <DebugMon_Handler>:

/**
  * @brief This function handles Debug monitor.
  */
void DebugMon_Handler(void)
{
 800098a:	b480      	push	{r7}
 800098c:	af00      	add	r7, sp, #0

  /* USER CODE END DebugMonitor_IRQn 0 */
  /* USER CODE BEGIN DebugMonitor_IRQn 1 */

  /* USER CODE END DebugMonitor_IRQn 1 */
}
 800098e:	bf00      	nop
 8000990:	46bd      	mov	sp, r7
 8000992:	f85d 7b04 	ldr.w	r7, [sp], #4
 8000996:	4770      	bx	lr

08000998 <TIM6_DAC_IRQHandler>:

/**
  * @brief This function handles TIM6 global interrupt, DAC1 and DAC2 underrun error interrupts.
  */
void TIM6_DAC_IRQHandler(void)
{
 8000998:	b580      	push	{r7, lr}
 800099a:	af00      	add	r7, sp, #0
  /* USER CODE BEGIN TIM6_DAC_IRQn 0 */

  /* USER CODE END TIM6_DAC_IRQn 0 */
  HAL_TIM_IRQHandler(&htim6);
 800099c:	4802      	ldr	r0, [pc, #8]	; (80009a8 <TIM6_DAC_IRQHandler+0x10>)
 800099e:	f001 f891 	bl	8001ac4 <HAL_TIM_IRQHandler>
  /* USER CODE BEGIN TIM6_DAC_IRQn 1 */

  /* USER CODE END TIM6_DAC_IRQn 1 */
}
 80009a2:	bf00      	nop
 80009a4:	bd80      	pop	{r7, pc}
 80009a6:	bf00      	nop
 80009a8:	20014370 	.word	0x20014370

080009ac <SystemInit>:
  *         configuration.
  * @param  None
  * @retval None
  */
void SystemInit(void)
{
 80009ac:	b480      	push	{r7}
 80009ae:	af00      	add	r7, sp, #0
  /* FPU settings ------------------------------------------------------------*/
  #if (__FPU_PRESENT == 1) && (__FPU_USED == 1)
    SCB->CPACR |= ((3UL << 10*2)|(3UL << 11*2));  /* set CP10 and CP11 Full Access */
 80009b0:	4b06      	ldr	r3, [pc, #24]	; (80009cc <SystemInit+0x20>)
 80009b2:	f8d3 3088 	ldr.w	r3, [r3, #136]	; 0x88
 80009b6:	4a05      	ldr	r2, [pc, #20]	; (80009cc <SystemInit+0x20>)
 80009b8:	f443 0370 	orr.w	r3, r3, #15728640	; 0xf00000
 80009bc:	f8c2 3088 	str.w	r3, [r2, #136]	; 0x88

  /* Configure the Vector Table location -------------------------------------*/
#if defined(USER_VECT_TAB_ADDRESS)
  SCB->VTOR = VECT_TAB_BASE_ADDRESS | VECT_TAB_OFFSET; /* Vector Table Relocation in Internal SRAM */
#endif /* USER_VECT_TAB_ADDRESS */
}
 80009c0:	bf00      	nop
 80009c2:	46bd      	mov	sp, r7
 80009c4:	f85d 7b04 	ldr.w	r7, [sp], #4
 80009c8:	4770      	bx	lr
 80009ca:	bf00      	nop
 80009cc:	e000ed00 	.word	0xe000ed00

080009d0 <Reset_Handler>:

    .section  .text.Reset_Handler
  .weak  Reset_Handler
  .type  Reset_Handler, %function
Reset_Handler:  
  ldr   sp, =_estack     /* set stack pointer */
 80009d0:	f8df d034 	ldr.w	sp, [pc, #52]	; 8000a08 <LoopFillZerobss+0x12>

/* Copy the data segment initializers from flash to SRAM */  
  ldr r0, =_sdata
 80009d4:	480d      	ldr	r0, [pc, #52]	; (8000a0c <LoopFillZerobss+0x16>)
  ldr r1, =_edata
 80009d6:	490e      	ldr	r1, [pc, #56]	; (8000a10 <LoopFillZerobss+0x1a>)
  ldr r2, =_sidata
 80009d8:	4a0e      	ldr	r2, [pc, #56]	; (8000a14 <LoopFillZerobss+0x1e>)
  movs r3, #0
 80009da:	2300      	movs	r3, #0
  b LoopCopyDataInit
 80009dc:	e002      	b.n	80009e4 <LoopCopyDataInit>

080009de <CopyDataInit>:

CopyDataInit:
  ldr r4, [r2, r3]
 80009de:	58d4      	ldr	r4, [r2, r3]
  str r4, [r0, r3]
 80009e0:	50c4      	str	r4, [r0, r3]
  adds r3, r3, #4
 80009e2:	3304      	adds	r3, #4

080009e4 <LoopCopyDataInit>:

LoopCopyDataInit:
  adds r4, r0, r3
 80009e4:	18c4      	adds	r4, r0, r3
  cmp r4, r1
 80009e6:	428c      	cmp	r4, r1
  bcc CopyDataInit
 80009e8:	d3f9      	bcc.n	80009de <CopyDataInit>
  
/* Zero fill the bss segment. */
  ldr r2, =_sbss
 80009ea:	4a0b      	ldr	r2, [pc, #44]	; (8000a18 <LoopFillZerobss+0x22>)
  ldr r4, =_ebss
 80009ec:	4c0b      	ldr	r4, [pc, #44]	; (8000a1c <LoopFillZerobss+0x26>)
  movs r3, #0
 80009ee:	2300      	movs	r3, #0
  b LoopFillZerobss
 80009f0:	e001      	b.n	80009f6 <LoopFillZerobss>

080009f2 <FillZerobss>:

FillZerobss:
  str  r3, [r2]
 80009f2:	6013      	str	r3, [r2, #0]
  adds r2, r2, #4
 80009f4:	3204      	adds	r2, #4

080009f6 <LoopFillZerobss>:

LoopFillZerobss:
  cmp r2, r4
 80009f6:	42a2      	cmp	r2, r4
  bcc FillZerobss
 80009f8:	d3fb      	bcc.n	80009f2 <FillZerobss>

/* Call the clock system intitialization function.*/
  bl  SystemInit   
 80009fa:	f7ff ffd7 	bl	80009ac <SystemInit>
/* Call static constructors */
    bl __libc_init_array
 80009fe:	f005 fc67 	bl	80062d0 <__libc_init_array>
/* Call the application's entry point.*/
  bl  main
 8000a02:	f7ff fddf 	bl	80005c4 <main>
  bx  lr    
 8000a06:	4770      	bx	lr
  ldr   sp, =_estack     /* set stack pointer */
 8000a08:	20020000 	.word	0x20020000
  ldr r0, =_sdata
 8000a0c:	20000000 	.word	0x20000000
  ldr r1, =_edata
 8000a10:	20000014 	.word	0x20000014
  ldr r2, =_sidata
 8000a14:	080064c8 	.word	0x080064c8
  ldr r2, =_sbss
 8000a18:	20000014 	.word	0x20000014
  ldr r4, =_ebss
 8000a1c:	200144a4 	.word	0x200144a4

08000a20 <ADC_IRQHandler>:
 * @retval None       
*/
    .section  .text.Default_Handler,"ax",%progbits
Default_Handler:
Infinite_Loop:
  b  Infinite_Loop
 8000a20:	e7fe      	b.n	8000a20 <ADC_IRQHandler>
	...

08000a24 <HAL_Init>:
  *         need to ensure that the SysTick time base is always set to 1 millisecond
  *         to have correct HAL operation.
  * @retval HAL status
  */
HAL_StatusTypeDef HAL_Init(void)
{
 8000a24:	b580      	push	{r7, lr}
 8000a26:	af00      	add	r7, sp, #0
  /* Configure Flash prefetch, Instruction cache, Data cache */ 
#if (INSTRUCTION_CACHE_ENABLE != 0U)
  __HAL_FLASH_INSTRUCTION_CACHE_ENABLE();
 8000a28:	4b0e      	ldr	r3, [pc, #56]	; (8000a64 <HAL_Init+0x40>)
 8000a2a:	681b      	ldr	r3, [r3, #0]
 8000a2c:	4a0d      	ldr	r2, [pc, #52]	; (8000a64 <HAL_Init+0x40>)
 8000a2e:	f443 7300 	orr.w	r3, r3, #512	; 0x200
 8000a32:	6013      	str	r3, [r2, #0]
#endif /* INSTRUCTION_CACHE_ENABLE */

#if (DATA_CACHE_ENABLE != 0U)
  __HAL_FLASH_DATA_CACHE_ENABLE();
 8000a34:	4b0b      	ldr	r3, [pc, #44]	; (8000a64 <HAL_Init+0x40>)
 8000a36:	681b      	ldr	r3, [r3, #0]
 8000a38:	4a0a      	ldr	r2, [pc, #40]	; (8000a64 <HAL_Init+0x40>)
 8000a3a:	f443 6380 	orr.w	r3, r3, #1024	; 0x400
 8000a3e:	6013      	str	r3, [r2, #0]
#endif /* DATA_CACHE_ENABLE */

#if (PREFETCH_ENABLE != 0U)
  __HAL_FLASH_PREFETCH_BUFFER_ENABLE();
 8000a40:	4b08      	ldr	r3, [pc, #32]	; (8000a64 <HAL_Init+0x40>)
 8000a42:	681b      	ldr	r3, [r3, #0]
 8000a44:	4a07      	ldr	r2, [pc, #28]	; (8000a64 <HAL_Init+0x40>)
 8000a46:	f443 7380 	orr.w	r3, r3, #256	; 0x100
 8000a4a:	6013      	str	r3, [r2, #0]
#endif /* PREFETCH_ENABLE */

  /* Set Interrupt Group Priority */
  HAL_NVIC_SetPriorityGrouping(NVIC_PRIORITYGROUP_4);
 8000a4c:	2003      	movs	r0, #3
 8000a4e:	f000 f8d8 	bl	8000c02 <HAL_NVIC_SetPriorityGrouping>

  /* Use systick as time base source and configure 1ms tick (default clock after Reset is HSI) */
  HAL_InitTick(TICK_INT_PRIORITY);
 8000a52:	2000      	movs	r0, #0
 8000a54:	f7ff ff30 	bl	80008b8 <HAL_InitTick>

  /* Init the low level hardware */
  HAL_MspInit();
 8000a58:	f7ff ff06 	bl	8000868 <HAL_MspInit>

  /* Return function status */
  return HAL_OK;
 8000a5c:	2300      	movs	r3, #0
}
 8000a5e:	4618      	mov	r0, r3
 8000a60:	bd80      	pop	{r7, pc}
 8000a62:	bf00      	nop
 8000a64:	40023c00 	.word	0x40023c00

08000a68 <HAL_IncTick>:
 * @note This function is declared as __weak to be overwritten in case of other 
  *      implementations in user file.
  * @retval None
  */
__weak void HAL_IncTick(void)
{
 8000a68:	b480      	push	{r7}
 8000a6a:	af00      	add	r7, sp, #0
  uwTick += uwTickFreq;
 8000a6c:	4b06      	ldr	r3, [pc, #24]	; (8000a88 <HAL_IncTick+0x20>)
 8000a6e:	781b      	ldrb	r3, [r3, #0]
 8000a70:	461a      	mov	r2, r3
 8000a72:	4b06      	ldr	r3, [pc, #24]	; (8000a8c <HAL_IncTick+0x24>)
 8000a74:	681b      	ldr	r3, [r3, #0]
 8000a76:	4413      	add	r3, r2
 8000a78:	4a04      	ldr	r2, [pc, #16]	; (8000a8c <HAL_IncTick+0x24>)
 8000a7a:	6013      	str	r3, [r2, #0]
}
 8000a7c:	bf00      	nop
 8000a7e:	46bd      	mov	sp, r7
 8000a80:	f85d 7b04 	ldr.w	r7, [sp], #4
 8000a84:	4770      	bx	lr
 8000a86:	bf00      	nop
 8000a88:	20000008 	.word	0x20000008
 8000a8c:	200143b8 	.word	0x200143b8

08000a90 <HAL_GetTick>:
  * @note This function is declared as __weak to be overwritten in case of other 
  *       implementations in user file.
  * @retval tick value
  */
__weak uint32_t HAL_GetTick(void)
{
 8000a90:	b480      	push	{r7}
 8000a92:	af00      	add	r7, sp, #0
  return uwTick;
 8000a94:	4b03      	ldr	r3, [pc, #12]	; (8000aa4 <HAL_GetTick+0x14>)
 8000a96:	681b      	ldr	r3, [r3, #0]
}
 8000a98:	4618      	mov	r0, r3
 8000a9a:	46bd      	mov	sp, r7
 8000a9c:	f85d 7b04 	ldr.w	r7, [sp], #4
 8000aa0:	4770      	bx	lr
 8000aa2:	bf00      	nop
 8000aa4:	200143b8 	.word	0x200143b8

08000aa8 <__NVIC_SetPriorityGrouping>:
           In case of a conflict between priority grouping and available
           priority bits (__NVIC_PRIO_BITS), the smallest possible priority group is set.
  \param [in]      PriorityGroup  Priority grouping field.
 */
__STATIC_INLINE void __NVIC_SetPriorityGrouping(uint32_t PriorityGroup)
{
 8000aa8:	b480      	push	{r7}
 8000aaa:	b085      	sub	sp, #20
 8000aac:	af00      	add	r7, sp, #0
 8000aae:	6078      	str	r0, [r7, #4]
  uint32_t reg_value;
  uint32_t PriorityGroupTmp = (PriorityGroup & (uint32_t)0x07UL);             /* only values 0..7 are used          */
 8000ab0:	687b      	ldr	r3, [r7, #4]
 8000ab2:	f003 0307 	and.w	r3, r3, #7
 8000ab6:	60fb      	str	r3, [r7, #12]

  reg_value  =  SCB->AIRCR;                                                   /* read old register configuration    */
 8000ab8:	4b0c      	ldr	r3, [pc, #48]	; (8000aec <__NVIC_SetPriorityGrouping+0x44>)
 8000aba:	68db      	ldr	r3, [r3, #12]
 8000abc:	60bb      	str	r3, [r7, #8]
  reg_value &= ~((uint32_t)(SCB_AIRCR_VECTKEY_Msk | SCB_AIRCR_PRIGROUP_Msk)); /* clear bits to change               */
 8000abe:	68ba      	ldr	r2, [r7, #8]
 8000ac0:	f64f 03ff 	movw	r3, #63743	; 0xf8ff
 8000ac4:	4013      	ands	r3, r2
 8000ac6:	60bb      	str	r3, [r7, #8]
  reg_value  =  (reg_value                                   |
                ((uint32_t)0x5FAUL << SCB_AIRCR_VECTKEY_Pos) |
                (PriorityGroupTmp << SCB_AIRCR_PRIGROUP_Pos)  );              /* Insert write key and priority group */
 8000ac8:	68fb      	ldr	r3, [r7, #12]
 8000aca:	021a      	lsls	r2, r3, #8
                ((uint32_t)0x5FAUL << SCB_AIRCR_VECTKEY_Pos) |
 8000acc:	68bb      	ldr	r3, [r7, #8]
 8000ace:	4313      	orrs	r3, r2
  reg_value  =  (reg_value                                   |
 8000ad0:	f043 63bf 	orr.w	r3, r3, #100139008	; 0x5f80000
 8000ad4:	f443 3300 	orr.w	r3, r3, #131072	; 0x20000
 8000ad8:	60bb      	str	r3, [r7, #8]
  SCB->AIRCR =  reg_value;
 8000ada:	4a04      	ldr	r2, [pc, #16]	; (8000aec <__NVIC_SetPriorityGrouping+0x44>)
 8000adc:	68bb      	ldr	r3, [r7, #8]
 8000ade:	60d3      	str	r3, [r2, #12]
}
 8000ae0:	bf00      	nop
 8000ae2:	3714      	adds	r7, #20
 8000ae4:	46bd      	mov	sp, r7
 8000ae6:	f85d 7b04 	ldr.w	r7, [sp], #4
 8000aea:	4770      	bx	lr
 8000aec:	e000ed00 	.word	0xe000ed00

08000af0 <__NVIC_GetPriorityGrouping>:
  \brief   Get Priority Grouping
  \details Reads the priority grouping field from the NVIC Interrupt Controller.
  \return                Priority grouping field (SCB->AIRCR [10:8] PRIGROUP field).
 */
__STATIC_INLINE uint32_t __NVIC_GetPriorityGrouping(void)
{
 8000af0:	b480      	push	{r7}
 8000af2:	af00      	add	r7, sp, #0
  return ((uint32_t)((SCB->AIRCR & SCB_AIRCR_PRIGROUP_Msk) >> SCB_AIRCR_PRIGROUP_Pos));
 8000af4:	4b04      	ldr	r3, [pc, #16]	; (8000b08 <__NVIC_GetPriorityGrouping+0x18>)
 8000af6:	68db      	ldr	r3, [r3, #12]
 8000af8:	0a1b      	lsrs	r3, r3, #8
 8000afa:	f003 0307 	and.w	r3, r3, #7
}
 8000afe:	4618      	mov	r0, r3
 8000b00:	46bd      	mov	sp, r7
 8000b02:	f85d 7b04 	ldr.w	r7, [sp], #4
 8000b06:	4770      	bx	lr
 8000b08:	e000ed00 	.word	0xe000ed00

08000b0c <__NVIC_EnableIRQ>:
  \details Enables a device specific interrupt in the NVIC interrupt controller.
  \param [in]      IRQn  Device specific interrupt number.
  \note    IRQn must not be negative.
 */
__STATIC_INLINE void __NVIC_EnableIRQ(IRQn_Type IRQn)
{
 8000b0c:	b480      	push	{r7}
 8000b0e:	b083      	sub	sp, #12
 8000b10:	af00      	add	r7, sp, #0
 8000b12:	4603      	mov	r3, r0
 8000b14:	71fb      	strb	r3, [r7, #7]
  if ((int32_t)(IRQn) >= 0)
 8000b16:	f997 3007 	ldrsb.w	r3, [r7, #7]
 8000b1a:	2b00      	cmp	r3, #0
 8000b1c:	db0b      	blt.n	8000b36 <__NVIC_EnableIRQ+0x2a>
  {
    NVIC->ISER[(((uint32_t)IRQn) >> 5UL)] = (uint32_t)(1UL << (((uint32_t)IRQn) & 0x1FUL));
 8000b1e:	79fb      	ldrb	r3, [r7, #7]
 8000b20:	f003 021f 	and.w	r2, r3, #31
 8000b24:	4907      	ldr	r1, [pc, #28]	; (8000b44 <__NVIC_EnableIRQ+0x38>)
 8000b26:	f997 3007 	ldrsb.w	r3, [r7, #7]
 8000b2a:	095b      	lsrs	r3, r3, #5
 8000b2c:	2001      	movs	r0, #1
 8000b2e:	fa00 f202 	lsl.w	r2, r0, r2
 8000b32:	f841 2023 	str.w	r2, [r1, r3, lsl #2]
  }
}
 8000b36:	bf00      	nop
 8000b38:	370c      	adds	r7, #12
 8000b3a:	46bd      	mov	sp, r7
 8000b3c:	f85d 7b04 	ldr.w	r7, [sp], #4
 8000b40:	4770      	bx	lr
 8000b42:	bf00      	nop
 8000b44:	e000e100 	.word	0xe000e100

08000b48 <__NVIC_SetPriority>:
  \param [in]      IRQn  Interrupt number.
  \param [in]  priority  Priority to set.
  \note    The priority cannot be set for every processor exception.
 */
__STATIC_INLINE void __NVIC_SetPriority(IRQn_Type IRQn, uint32_t priority)
{
 8000b48:	b480      	push	{r7}
 8000b4a:	b083      	sub	sp, #12
 8000b4c:	af00      	add	r7, sp, #0
 8000b4e:	4603      	mov	r3, r0
 8000b50:	6039      	str	r1, [r7, #0]
 8000b52:	71fb      	strb	r3, [r7, #7]
  if ((int32_t)(IRQn) >= 0)
 8000b54:	f997 3007 	ldrsb.w	r3, [r7, #7]
 8000b58:	2b00      	cmp	r3, #0
 8000b5a:	db0a      	blt.n	8000b72 <__NVIC_SetPriority+0x2a>
  {
    NVIC->IP[((uint32_t)IRQn)]               = (uint8_t)((priority << (8U - __NVIC_PRIO_BITS)) & (uint32_t)0xFFUL);
 8000b5c:	683b      	ldr	r3, [r7, #0]
 8000b5e:	b2da      	uxtb	r2, r3
 8000b60:	490c      	ldr	r1, [pc, #48]	; (8000b94 <__NVIC_SetPriority+0x4c>)
 8000b62:	f997 3007 	ldrsb.w	r3, [r7, #7]
 8000b66:	0112      	lsls	r2, r2, #4
 8000b68:	b2d2      	uxtb	r2, r2
 8000b6a:	440b      	add	r3, r1
 8000b6c:	f883 2300 	strb.w	r2, [r3, #768]	; 0x300
  }
  else
  {
    SCB->SHP[(((uint32_t)IRQn) & 0xFUL)-4UL] = (uint8_t)((priority << (8U - __NVIC_PRIO_BITS)) & (uint32_t)0xFFUL);
  }
}
 8000b70:	e00a      	b.n	8000b88 <__NVIC_SetPriority+0x40>
    SCB->SHP[(((uint32_t)IRQn) & 0xFUL)-4UL] = (uint8_t)((priority << (8U - __NVIC_PRIO_BITS)) & (uint32_t)0xFFUL);
 8000b72:	683b      	ldr	r3, [r7, #0]
 8000b74:	b2da      	uxtb	r2, r3
 8000b76:	4908      	ldr	r1, [pc, #32]	; (8000b98 <__NVIC_SetPriority+0x50>)
 8000b78:	79fb      	ldrb	r3, [r7, #7]
 8000b7a:	f003 030f 	and.w	r3, r3, #15
 8000b7e:	3b04      	subs	r3, #4
 8000b80:	0112      	lsls	r2, r2, #4
 8000b82:	b2d2      	uxtb	r2, r2
 8000b84:	440b      	add	r3, r1
 8000b86:	761a      	strb	r2, [r3, #24]
}
 8000b88:	bf00      	nop
 8000b8a:	370c      	adds	r7, #12
 8000b8c:	46bd      	mov	sp, r7
 8000b8e:	f85d 7b04 	ldr.w	r7, [sp], #4
 8000b92:	4770      	bx	lr
 8000b94:	e000e100 	.word	0xe000e100
 8000b98:	e000ed00 	.word	0xe000ed00

08000b9c <NVIC_EncodePriority>:
  \param [in]   PreemptPriority  Preemptive priority value (starting from 0).
  \param [in]       SubPriority  Subpriority value (starting from 0).
  \return                        Encoded priority. Value can be used in the function \ref NVIC_SetPriority().
 */
__STATIC_INLINE uint32_t NVIC_EncodePriority (uint32_t PriorityGroup, uint32_t PreemptPriority, uint32_t SubPriority)
{
 8000b9c:	b480      	push	{r7}
 8000b9e:	b089      	sub	sp, #36	; 0x24
 8000ba0:	af00      	add	r7, sp, #0
 8000ba2:	60f8      	str	r0, [r7, #12]
 8000ba4:	60b9      	str	r1, [r7, #8]
 8000ba6:	607a      	str	r2, [r7, #4]
  uint32_t PriorityGroupTmp = (PriorityGroup & (uint32_t)0x07UL);   /* only values 0..7 are used          */
 8000ba8:	68fb      	ldr	r3, [r7, #12]
 8000baa:	f003 0307 	and.w	r3, r3, #7
 8000bae:	61fb      	str	r3, [r7, #28]
  uint32_t PreemptPriorityBits;
  uint32_t SubPriorityBits;

  PreemptPriorityBits = ((7UL - PriorityGroupTmp) > (uint32_t)(__NVIC_PRIO_BITS)) ? (uint32_t)(__NVIC_PRIO_BITS) : (uint32_t)(7UL - PriorityGroupTmp);
 8000bb0:	69fb      	ldr	r3, [r7, #28]
 8000bb2:	f1c3 0307 	rsb	r3, r3, #7
 8000bb6:	2b04      	cmp	r3, #4
 8000bb8:	bf28      	it	cs
 8000bba:	2304      	movcs	r3, #4
 8000bbc:	61bb      	str	r3, [r7, #24]
  SubPriorityBits     = ((PriorityGroupTmp + (uint32_t)(__NVIC_PRIO_BITS)) < (uint32_t)7UL) ? (uint32_t)0UL : (uint32_t)((PriorityGroupTmp - 7UL) + (uint32_t)(__NVIC_PRIO_BITS));
 8000bbe:	69fb      	ldr	r3, [r7, #28]
 8000bc0:	3304      	adds	r3, #4
 8000bc2:	2b06      	cmp	r3, #6
 8000bc4:	d902      	bls.n	8000bcc <NVIC_EncodePriority+0x30>
 8000bc6:	69fb      	ldr	r3, [r7, #28]
 8000bc8:	3b03      	subs	r3, #3
 8000bca:	e000      	b.n	8000bce <NVIC_EncodePriority+0x32>
 8000bcc:	2300      	movs	r3, #0
 8000bce:	617b      	str	r3, [r7, #20]

  return (
           ((PreemptPriority & (uint32_t)((1UL << (PreemptPriorityBits)) - 1UL)) << SubPriorityBits) |
 8000bd0:	f04f 32ff 	mov.w	r2, #4294967295
 8000bd4:	69bb      	ldr	r3, [r7, #24]
 8000bd6:	fa02 f303 	lsl.w	r3, r2, r3
 8000bda:	43da      	mvns	r2, r3
 8000bdc:	68bb      	ldr	r3, [r7, #8]
 8000bde:	401a      	ands	r2, r3
 8000be0:	697b      	ldr	r3, [r7, #20]
 8000be2:	409a      	lsls	r2, r3
           ((SubPriority     & (uint32_t)((1UL << (SubPriorityBits    )) - 1UL)))
 8000be4:	f04f 31ff 	mov.w	r1, #4294967295
 8000be8:	697b      	ldr	r3, [r7, #20]
 8000bea:	fa01 f303 	lsl.w	r3, r1, r3
 8000bee:	43d9      	mvns	r1, r3
 8000bf0:	687b      	ldr	r3, [r7, #4]
 8000bf2:	400b      	ands	r3, r1
           ((PreemptPriority & (uint32_t)((1UL << (PreemptPriorityBits)) - 1UL)) << SubPriorityBits) |
 8000bf4:	4313      	orrs	r3, r2
         );
}
 8000bf6:	4618      	mov	r0, r3
 8000bf8:	3724      	adds	r7, #36	; 0x24
 8000bfa:	46bd      	mov	sp, r7
 8000bfc:	f85d 7b04 	ldr.w	r7, [sp], #4
 8000c00:	4770      	bx	lr

08000c02 <HAL_NVIC_SetPriorityGrouping>:
  * @note   When the NVIC_PriorityGroup_0 is selected, IRQ preemption is no more possible. 
  *         The pending IRQ priority will be managed only by the subpriority. 
  * @retval None
  */
void HAL_NVIC_SetPriorityGrouping(uint32_t PriorityGroup)
{
 8000c02:	b580      	push	{r7, lr}
 8000c04:	b082      	sub	sp, #8
 8000c06:	af00      	add	r7, sp, #0
 8000c08:	6078      	str	r0, [r7, #4]
  /* Check the parameters */
  assert_param(IS_NVIC_PRIORITY_GROUP(PriorityGroup));
  
  /* Set the PRIGROUP[10:8] bits according to the PriorityGroup parameter value */
  NVIC_SetPriorityGrouping(PriorityGroup);
 8000c0a:	6878      	ldr	r0, [r7, #4]
 8000c0c:	f7ff ff4c 	bl	8000aa8 <__NVIC_SetPriorityGrouping>
}
 8000c10:	bf00      	nop
 8000c12:	3708      	adds	r7, #8
 8000c14:	46bd      	mov	sp, r7
 8000c16:	bd80      	pop	{r7, pc}

08000c18 <HAL_NVIC_SetPriority>:
  *         This parameter can be a value between 0 and 15
  *         A lower priority value indicates a higher priority.          
  * @retval None
  */
void HAL_NVIC_SetPriority(IRQn_Type IRQn, uint32_t PreemptPriority, uint32_t SubPriority)
{ 
 8000c18:	b580      	push	{r7, lr}
 8000c1a:	b086      	sub	sp, #24
 8000c1c:	af00      	add	r7, sp, #0
 8000c1e:	4603      	mov	r3, r0
 8000c20:	60b9      	str	r1, [r7, #8]
 8000c22:	607a      	str	r2, [r7, #4]
 8000c24:	73fb      	strb	r3, [r7, #15]
  uint32_t prioritygroup = 0x00U;
 8000c26:	2300      	movs	r3, #0
 8000c28:	617b      	str	r3, [r7, #20]
  
  /* Check the parameters */
  assert_param(IS_NVIC_SUB_PRIORITY(SubPriority));
  assert_param(IS_NVIC_PREEMPTION_PRIORITY(PreemptPriority));
  
  prioritygroup = NVIC_GetPriorityGrouping();
 8000c2a:	f7ff ff61 	bl	8000af0 <__NVIC_GetPriorityGrouping>
 8000c2e:	6178      	str	r0, [r7, #20]
  
  NVIC_SetPriority(IRQn, NVIC_EncodePriority(prioritygroup, PreemptPriority, SubPriority));
 8000c30:	687a      	ldr	r2, [r7, #4]
 8000c32:	68b9      	ldr	r1, [r7, #8]
 8000c34:	6978      	ldr	r0, [r7, #20]
 8000c36:	f7ff ffb1 	bl	8000b9c <NVIC_EncodePriority>
 8000c3a:	4602      	mov	r2, r0
 8000c3c:	f997 300f 	ldrsb.w	r3, [r7, #15]
 8000c40:	4611      	mov	r1, r2
 8000c42:	4618      	mov	r0, r3
 8000c44:	f7ff ff80 	bl	8000b48 <__NVIC_SetPriority>
}
 8000c48:	bf00      	nop
 8000c4a:	3718      	adds	r7, #24
 8000c4c:	46bd      	mov	sp, r7
 8000c4e:	bd80      	pop	{r7, pc}

08000c50 <HAL_NVIC_EnableIRQ>:
  *         This parameter can be an enumerator of IRQn_Type enumeration
  *         (For the complete STM32 Devices IRQ Channels list, please refer to the appropriate CMSIS device file (stm32f4xxxx.h))
  * @retval None
  */
void HAL_NVIC_EnableIRQ(IRQn_Type IRQn)
{
 8000c50:	b580      	push	{r7, lr}
 8000c52:	b082      	sub	sp, #8
 8000c54:	af00      	add	r7, sp, #0
 8000c56:	4603      	mov	r3, r0
 8000c58:	71fb      	strb	r3, [r7, #7]
  /* Check the parameters */
  assert_param(IS_NVIC_DEVICE_IRQ(IRQn));
  
  /* Enable interrupt */
  NVIC_EnableIRQ(IRQn);
 8000c5a:	f997 3007 	ldrsb.w	r3, [r7, #7]
 8000c5e:	4618      	mov	r0, r3
 8000c60:	f7ff ff54 	bl	8000b0c <__NVIC_EnableIRQ>
}
 8000c64:	bf00      	nop
 8000c66:	3708      	adds	r7, #8
 8000c68:	46bd      	mov	sp, r7
 8000c6a:	bd80      	pop	{r7, pc}

08000c6c <HAL_GPIO_Init>:
  * @param  GPIO_Init pointer to a GPIO_InitTypeDef structure that contains
  *         the configuration information for the specified GPIO peripheral.
  * @retval None
  */
void HAL_GPIO_Init(GPIO_TypeDef  *GPIOx, GPIO_InitTypeDef *GPIO_Init)
{
 8000c6c:	b480      	push	{r7}
 8000c6e:	b089      	sub	sp, #36	; 0x24
 8000c70:	af00      	add	r7, sp, #0
 8000c72:	6078      	str	r0, [r7, #4]
 8000c74:	6039      	str	r1, [r7, #0]
  uint32_t position;
  uint32_t ioposition = 0x00U;
 8000c76:	2300      	movs	r3, #0
 8000c78:	617b      	str	r3, [r7, #20]
  uint32_t iocurrent = 0x00U;
 8000c7a:	2300      	movs	r3, #0
 8000c7c:	613b      	str	r3, [r7, #16]
  uint32_t temp = 0x00U;
 8000c7e:	2300      	movs	r3, #0
 8000c80:	61bb      	str	r3, [r7, #24]
  assert_param(IS_GPIO_PIN(GPIO_Init->Pin));
  assert_param(IS_GPIO_MODE(GPIO_Init->Mode));
  assert_param(IS_GPIO_PULL(GPIO_Init->Pull));

  /* Configure the port pins */
  for(position = 0U; position < GPIO_NUMBER; position++)
 8000c82:	2300      	movs	r3, #0
 8000c84:	61fb      	str	r3, [r7, #28]
 8000c86:	e16b      	b.n	8000f60 <HAL_GPIO_Init+0x2f4>
  {
    /* Get the IO position */
    ioposition = 0x01U << position;
 8000c88:	2201      	movs	r2, #1
 8000c8a:	69fb      	ldr	r3, [r7, #28]
 8000c8c:	fa02 f303 	lsl.w	r3, r2, r3
 8000c90:	617b      	str	r3, [r7, #20]
    /* Get the current IO position */
    iocurrent = (uint32_t)(GPIO_Init->Pin) & ioposition;
 8000c92:	683b      	ldr	r3, [r7, #0]
 8000c94:	681b      	ldr	r3, [r3, #0]
 8000c96:	697a      	ldr	r2, [r7, #20]
 8000c98:	4013      	ands	r3, r2
 8000c9a:	613b      	str	r3, [r7, #16]

    if(iocurrent == ioposition)
 8000c9c:	693a      	ldr	r2, [r7, #16]
 8000c9e:	697b      	ldr	r3, [r7, #20]
 8000ca0:	429a      	cmp	r2, r3
 8000ca2:	f040 815a 	bne.w	8000f5a <HAL_GPIO_Init+0x2ee>
    {
      /*--------------------- GPIO Mode Configuration ------------------------*/
      /* In case of Output or Alternate function mode selection */
      if(((GPIO_Init->Mode & GPIO_MODE) == MODE_OUTPUT) || \
 8000ca6:	683b      	ldr	r3, [r7, #0]
 8000ca8:	685b      	ldr	r3, [r3, #4]
 8000caa:	f003 0303 	and.w	r3, r3, #3
 8000cae:	2b01      	cmp	r3, #1
 8000cb0:	d005      	beq.n	8000cbe <HAL_GPIO_Init+0x52>
          (GPIO_Init->Mode & GPIO_MODE) == MODE_AF)
 8000cb2:	683b      	ldr	r3, [r7, #0]
 8000cb4:	685b      	ldr	r3, [r3, #4]
 8000cb6:	f003 0303 	and.w	r3, r3, #3
      if(((GPIO_Init->Mode & GPIO_MODE) == MODE_OUTPUT) || \
 8000cba:	2b02      	cmp	r3, #2
 8000cbc:	d130      	bne.n	8000d20 <HAL_GPIO_Init+0xb4>
      {
        /* Check the Speed parameter */
        assert_param(IS_GPIO_SPEED(GPIO_Init->Speed));
        /* Configure the IO Speed */
        temp = GPIOx->OSPEEDR; 
 8000cbe:	687b      	ldr	r3, [r7, #4]
 8000cc0:	689b      	ldr	r3, [r3, #8]
 8000cc2:	61bb      	str	r3, [r7, #24]
        temp &= ~(GPIO_OSPEEDER_OSPEEDR0 << (position * 2U));
 8000cc4:	69fb      	ldr	r3, [r7, #28]
 8000cc6:	005b      	lsls	r3, r3, #1
 8000cc8:	2203      	movs	r2, #3
 8000cca:	fa02 f303 	lsl.w	r3, r2, r3
 8000cce:	43db      	mvns	r3, r3
 8000cd0:	69ba      	ldr	r2, [r7, #24]
 8000cd2:	4013      	ands	r3, r2
 8000cd4:	61bb      	str	r3, [r7, #24]
        temp |= (GPIO_Init->Speed << (position * 2U));
 8000cd6:	683b      	ldr	r3, [r7, #0]
 8000cd8:	68da      	ldr	r2, [r3, #12]
 8000cda:	69fb      	ldr	r3, [r7, #28]
 8000cdc:	005b      	lsls	r3, r3, #1
 8000cde:	fa02 f303 	lsl.w	r3, r2, r3
 8000ce2:	69ba      	ldr	r2, [r7, #24]
 8000ce4:	4313      	orrs	r3, r2
 8000ce6:	61bb      	str	r3, [r7, #24]
        GPIOx->OSPEEDR = temp;
 8000ce8:	687b      	ldr	r3, [r7, #4]
 8000cea:	69ba      	ldr	r2, [r7, #24]
 8000cec:	609a      	str	r2, [r3, #8]

        /* Configure the IO Output Type */
        temp = GPIOx->OTYPER;
 8000cee:	687b      	ldr	r3, [r7, #4]
 8000cf0:	685b      	ldr	r3, [r3, #4]
 8000cf2:	61bb      	str	r3, [r7, #24]
        temp &= ~(GPIO_OTYPER_OT_0 << position) ;
 8000cf4:	2201      	movs	r2, #1
 8000cf6:	69fb      	ldr	r3, [r7, #28]
 8000cf8:	fa02 f303 	lsl.w	r3, r2, r3
 8000cfc:	43db      	mvns	r3, r3
 8000cfe:	69ba      	ldr	r2, [r7, #24]
 8000d00:	4013      	ands	r3, r2
 8000d02:	61bb      	str	r3, [r7, #24]
        temp |= (((GPIO_Init->Mode & GPIO_OUTPUT_TYPE) >> 4U) << position);
 8000d04:	683b      	ldr	r3, [r7, #0]
 8000d06:	685b      	ldr	r3, [r3, #4]
 8000d08:	091b      	lsrs	r3, r3, #4
 8000d0a:	f003 0201 	and.w	r2, r3, #1
 8000d0e:	69fb      	ldr	r3, [r7, #28]
 8000d10:	fa02 f303 	lsl.w	r3, r2, r3
 8000d14:	69ba      	ldr	r2, [r7, #24]
 8000d16:	4313      	orrs	r3, r2
 8000d18:	61bb      	str	r3, [r7, #24]
        GPIOx->OTYPER = temp;
 8000d1a:	687b      	ldr	r3, [r7, #4]
 8000d1c:	69ba      	ldr	r2, [r7, #24]
 8000d1e:	605a      	str	r2, [r3, #4]
       }

      if((GPIO_Init->Mode & GPIO_MODE) != MODE_ANALOG)
 8000d20:	683b      	ldr	r3, [r7, #0]
 8000d22:	685b      	ldr	r3, [r3, #4]
 8000d24:	f003 0303 	and.w	r3, r3, #3
 8000d28:	2b03      	cmp	r3, #3
 8000d2a:	d017      	beq.n	8000d5c <HAL_GPIO_Init+0xf0>
      {
        /* Activate the Pull-up or Pull down resistor for the current IO */
        temp = GPIOx->PUPDR;
 8000d2c:	687b      	ldr	r3, [r7, #4]
 8000d2e:	68db      	ldr	r3, [r3, #12]
 8000d30:	61bb      	str	r3, [r7, #24]
        temp &= ~(GPIO_PUPDR_PUPDR0 << (position * 2U));
 8000d32:	69fb      	ldr	r3, [r7, #28]
 8000d34:	005b      	lsls	r3, r3, #1
 8000d36:	2203      	movs	r2, #3
 8000d38:	fa02 f303 	lsl.w	r3, r2, r3
 8000d3c:	43db      	mvns	r3, r3
 8000d3e:	69ba      	ldr	r2, [r7, #24]
 8000d40:	4013      	ands	r3, r2
 8000d42:	61bb      	str	r3, [r7, #24]
        temp |= ((GPIO_Init->Pull) << (position * 2U));
 8000d44:	683b      	ldr	r3, [r7, #0]
 8000d46:	689a      	ldr	r2, [r3, #8]
 8000d48:	69fb      	ldr	r3, [r7, #28]
 8000d4a:	005b      	lsls	r3, r3, #1
 8000d4c:	fa02 f303 	lsl.w	r3, r2, r3
 8000d50:	69ba      	ldr	r2, [r7, #24]
 8000d52:	4313      	orrs	r3, r2
 8000d54:	61bb      	str	r3, [r7, #24]
        GPIOx->PUPDR = temp;
 8000d56:	687b      	ldr	r3, [r7, #4]
 8000d58:	69ba      	ldr	r2, [r7, #24]
 8000d5a:	60da      	str	r2, [r3, #12]
      }

      /* In case of Alternate function mode selection */
      if((GPIO_Init->Mode & GPIO_MODE) == MODE_AF)
 8000d5c:	683b      	ldr	r3, [r7, #0]
 8000d5e:	685b      	ldr	r3, [r3, #4]
 8000d60:	f003 0303 	and.w	r3, r3, #3
 8000d64:	2b02      	cmp	r3, #2
 8000d66:	d123      	bne.n	8000db0 <HAL_GPIO_Init+0x144>
      {
        /* Check the Alternate function parameter */
        assert_param(IS_GPIO_AF(GPIO_Init->Alternate));
        /* Configure Alternate function mapped with the current IO */
        temp = GPIOx->AFR[position >> 3U];
 8000d68:	69fb      	ldr	r3, [r7, #28]
 8000d6a:	08da      	lsrs	r2, r3, #3
 8000d6c:	687b      	ldr	r3, [r7, #4]
 8000d6e:	3208      	adds	r2, #8
 8000d70:	f853 3022 	ldr.w	r3, [r3, r2, lsl #2]
 8000d74:	61bb      	str	r3, [r7, #24]
        temp &= ~(0xFU << ((uint32_t)(position & 0x07U) * 4U)) ;
 8000d76:	69fb      	ldr	r3, [r7, #28]
 8000d78:	f003 0307 	and.w	r3, r3, #7
 8000d7c:	009b      	lsls	r3, r3, #2
 8000d7e:	220f      	movs	r2, #15
 8000d80:	fa02 f303 	lsl.w	r3, r2, r3
 8000d84:	43db      	mvns	r3, r3
 8000d86:	69ba      	ldr	r2, [r7, #24]
 8000d88:	4013      	ands	r3, r2
 8000d8a:	61bb      	str	r3, [r7, #24]
        temp |= ((uint32_t)(GPIO_Init->Alternate) << (((uint32_t)position & 0x07U) * 4U));
 8000d8c:	683b      	ldr	r3, [r7, #0]
 8000d8e:	691a      	ldr	r2, [r3, #16]
 8000d90:	69fb      	ldr	r3, [r7, #28]
 8000d92:	f003 0307 	and.w	r3, r3, #7
 8000d96:	009b      	lsls	r3, r3, #2
 8000d98:	fa02 f303 	lsl.w	r3, r2, r3
 8000d9c:	69ba      	ldr	r2, [r7, #24]
 8000d9e:	4313      	orrs	r3, r2
 8000da0:	61bb      	str	r3, [r7, #24]
        GPIOx->AFR[position >> 3U] = temp;
 8000da2:	69fb      	ldr	r3, [r7, #28]
 8000da4:	08da      	lsrs	r2, r3, #3
 8000da6:	687b      	ldr	r3, [r7, #4]
 8000da8:	3208      	adds	r2, #8
 8000daa:	69b9      	ldr	r1, [r7, #24]
 8000dac:	f843 1022 	str.w	r1, [r3, r2, lsl #2]
      }

      /* Configure IO Direction mode (Input, Output, Alternate or Analog) */
      temp = GPIOx->MODER;
 8000db0:	687b      	ldr	r3, [r7, #4]
 8000db2:	681b      	ldr	r3, [r3, #0]
 8000db4:	61bb      	str	r3, [r7, #24]
      temp &= ~(GPIO_MODER_MODER0 << (position * 2U));
 8000db6:	69fb      	ldr	r3, [r7, #28]
 8000db8:	005b      	lsls	r3, r3, #1
 8000dba:	2203      	movs	r2, #3
 8000dbc:	fa02 f303 	lsl.w	r3, r2, r3
 8000dc0:	43db      	mvns	r3, r3
 8000dc2:	69ba      	ldr	r2, [r7, #24]
 8000dc4:	4013      	ands	r3, r2
 8000dc6:	61bb      	str	r3, [r7, #24]
      temp |= ((GPIO_Init->Mode & GPIO_MODE) << (position * 2U));
 8000dc8:	683b      	ldr	r3, [r7, #0]
 8000dca:	685b      	ldr	r3, [r3, #4]
 8000dcc:	f003 0203 	and.w	r2, r3, #3
 8000dd0:	69fb      	ldr	r3, [r7, #28]
 8000dd2:	005b      	lsls	r3, r3, #1
 8000dd4:	fa02 f303 	lsl.w	r3, r2, r3
 8000dd8:	69ba      	ldr	r2, [r7, #24]
 8000dda:	4313      	orrs	r3, r2
 8000ddc:	61bb      	str	r3, [r7, #24]
      GPIOx->MODER = temp;
 8000dde:	687b      	ldr	r3, [r7, #4]
 8000de0:	69ba      	ldr	r2, [r7, #24]
 8000de2:	601a      	str	r2, [r3, #0]

      /*--------------------- EXTI Mode Configuration ------------------------*/
      /* Configure the External Interrupt or event for the current IO */
      if((GPIO_Init->Mode & EXTI_MODE) == EXTI_MODE)
 8000de4:	683b      	ldr	r3, [r7, #0]
 8000de6:	685b      	ldr	r3, [r3, #4]
 8000de8:	f003 5380 	and.w	r3, r3, #268435456	; 0x10000000
 8000dec:	2b00      	cmp	r3, #0
 8000dee:	f000 80b4 	beq.w	8000f5a <HAL_GPIO_Init+0x2ee>
      {
        /* Enable SYSCFG Clock */
        __HAL_RCC_SYSCFG_CLK_ENABLE();
 8000df2:	2300      	movs	r3, #0
 8000df4:	60fb      	str	r3, [r7, #12]
 8000df6:	4b60      	ldr	r3, [pc, #384]	; (8000f78 <HAL_GPIO_Init+0x30c>)
 8000df8:	6c5b      	ldr	r3, [r3, #68]	; 0x44
 8000dfa:	4a5f      	ldr	r2, [pc, #380]	; (8000f78 <HAL_GPIO_Init+0x30c>)
 8000dfc:	f443 4380 	orr.w	r3, r3, #16384	; 0x4000
 8000e00:	6453      	str	r3, [r2, #68]	; 0x44
 8000e02:	4b5d      	ldr	r3, [pc, #372]	; (8000f78 <HAL_GPIO_Init+0x30c>)
 8000e04:	6c5b      	ldr	r3, [r3, #68]	; 0x44
 8000e06:	f403 4380 	and.w	r3, r3, #16384	; 0x4000
 8000e0a:	60fb      	str	r3, [r7, #12]
 8000e0c:	68fb      	ldr	r3, [r7, #12]

        temp = SYSCFG->EXTICR[position >> 2U];
 8000e0e:	4a5b      	ldr	r2, [pc, #364]	; (8000f7c <HAL_GPIO_Init+0x310>)
 8000e10:	69fb      	ldr	r3, [r7, #28]
 8000e12:	089b      	lsrs	r3, r3, #2
 8000e14:	3302      	adds	r3, #2
 8000e16:	f852 3023 	ldr.w	r3, [r2, r3, lsl #2]
 8000e1a:	61bb      	str	r3, [r7, #24]
        temp &= ~(0x0FU << (4U * (position & 0x03U)));
 8000e1c:	69fb      	ldr	r3, [r7, #28]
 8000e1e:	f003 0303 	and.w	r3, r3, #3
 8000e22:	009b      	lsls	r3, r3, #2
 8000e24:	220f      	movs	r2, #15
 8000e26:	fa02 f303 	lsl.w	r3, r2, r3
 8000e2a:	43db      	mvns	r3, r3
 8000e2c:	69ba      	ldr	r2, [r7, #24]
 8000e2e:	4013      	ands	r3, r2
 8000e30:	61bb      	str	r3, [r7, #24]
        temp |= ((uint32_t)(GPIO_GET_INDEX(GPIOx)) << (4U * (position & 0x03U)));
 8000e32:	687b      	ldr	r3, [r7, #4]
 8000e34:	4a52      	ldr	r2, [pc, #328]	; (8000f80 <HAL_GPIO_Init+0x314>)
 8000e36:	4293      	cmp	r3, r2
 8000e38:	d02b      	beq.n	8000e92 <HAL_GPIO_Init+0x226>
 8000e3a:	687b      	ldr	r3, [r7, #4]
 8000e3c:	4a51      	ldr	r2, [pc, #324]	; (8000f84 <HAL_GPIO_Init+0x318>)
 8000e3e:	4293      	cmp	r3, r2
 8000e40:	d025      	beq.n	8000e8e <HAL_GPIO_Init+0x222>
 8000e42:	687b      	ldr	r3, [r7, #4]
 8000e44:	4a50      	ldr	r2, [pc, #320]	; (8000f88 <HAL_GPIO_Init+0x31c>)
 8000e46:	4293      	cmp	r3, r2
 8000e48:	d01f      	beq.n	8000e8a <HAL_GPIO_Init+0x21e>
 8000e4a:	687b      	ldr	r3, [r7, #4]
 8000e4c:	4a4f      	ldr	r2, [pc, #316]	; (8000f8c <HAL_GPIO_Init+0x320>)
 8000e4e:	4293      	cmp	r3, r2
 8000e50:	d019      	beq.n	8000e86 <HAL_GPIO_Init+0x21a>
 8000e52:	687b      	ldr	r3, [r7, #4]
 8000e54:	4a4e      	ldr	r2, [pc, #312]	; (8000f90 <HAL_GPIO_Init+0x324>)
 8000e56:	4293      	cmp	r3, r2
 8000e58:	d013      	beq.n	8000e82 <HAL_GPIO_Init+0x216>
 8000e5a:	687b      	ldr	r3, [r7, #4]
 8000e5c:	4a4d      	ldr	r2, [pc, #308]	; (8000f94 <HAL_GPIO_Init+0x328>)
 8000e5e:	4293      	cmp	r3, r2
 8000e60:	d00d      	beq.n	8000e7e <HAL_GPIO_Init+0x212>
 8000e62:	687b      	ldr	r3, [r7, #4]
 8000e64:	4a4c      	ldr	r2, [pc, #304]	; (8000f98 <HAL_GPIO_Init+0x32c>)
 8000e66:	4293      	cmp	r3, r2
 8000e68:	d007      	beq.n	8000e7a <HAL_GPIO_Init+0x20e>
 8000e6a:	687b      	ldr	r3, [r7, #4]
 8000e6c:	4a4b      	ldr	r2, [pc, #300]	; (8000f9c <HAL_GPIO_Init+0x330>)
 8000e6e:	4293      	cmp	r3, r2
 8000e70:	d101      	bne.n	8000e76 <HAL_GPIO_Init+0x20a>
 8000e72:	2307      	movs	r3, #7
 8000e74:	e00e      	b.n	8000e94 <HAL_GPIO_Init+0x228>
 8000e76:	2308      	movs	r3, #8
 8000e78:	e00c      	b.n	8000e94 <HAL_GPIO_Init+0x228>
 8000e7a:	2306      	movs	r3, #6
 8000e7c:	e00a      	b.n	8000e94 <HAL_GPIO_Init+0x228>
 8000e7e:	2305      	movs	r3, #5
 8000e80:	e008      	b.n	8000e94 <HAL_GPIO_Init+0x228>
 8000e82:	2304      	movs	r3, #4
 8000e84:	e006      	b.n	8000e94 <HAL_GPIO_Init+0x228>
 8000e86:	2303      	movs	r3, #3
 8000e88:	e004      	b.n	8000e94 <HAL_GPIO_Init+0x228>
 8000e8a:	2302      	movs	r3, #2
 8000e8c:	e002      	b.n	8000e94 <HAL_GPIO_Init+0x228>
 8000e8e:	2301      	movs	r3, #1
 8000e90:	e000      	b.n	8000e94 <HAL_GPIO_Init+0x228>
 8000e92:	2300      	movs	r3, #0
 8000e94:	69fa      	ldr	r2, [r7, #28]
 8000e96:	f002 0203 	and.w	r2, r2, #3
 8000e9a:	0092      	lsls	r2, r2, #2
 8000e9c:	4093      	lsls	r3, r2
 8000e9e:	69ba      	ldr	r2, [r7, #24]
 8000ea0:	4313      	orrs	r3, r2
 8000ea2:	61bb      	str	r3, [r7, #24]
        SYSCFG->EXTICR[position >> 2U] = temp;
 8000ea4:	4935      	ldr	r1, [pc, #212]	; (8000f7c <HAL_GPIO_Init+0x310>)
 8000ea6:	69fb      	ldr	r3, [r7, #28]
 8000ea8:	089b      	lsrs	r3, r3, #2
 8000eaa:	3302      	adds	r3, #2
 8000eac:	69ba      	ldr	r2, [r7, #24]
 8000eae:	f841 2023 	str.w	r2, [r1, r3, lsl #2]

        /* Clear EXTI line configuration */
        temp = EXTI->IMR;
 8000eb2:	4b3b      	ldr	r3, [pc, #236]	; (8000fa0 <HAL_GPIO_Init+0x334>)
 8000eb4:	681b      	ldr	r3, [r3, #0]
 8000eb6:	61bb      	str	r3, [r7, #24]
        temp &= ~((uint32_t)iocurrent);
 8000eb8:	693b      	ldr	r3, [r7, #16]
 8000eba:	43db      	mvns	r3, r3
 8000ebc:	69ba      	ldr	r2, [r7, #24]
 8000ebe:	4013      	ands	r3, r2
 8000ec0:	61bb      	str	r3, [r7, #24]
        if((GPIO_Init->Mode & GPIO_MODE_IT) == GPIO_MODE_IT)
 8000ec2:	683b      	ldr	r3, [r7, #0]
 8000ec4:	685b      	ldr	r3, [r3, #4]
 8000ec6:	f403 3380 	and.w	r3, r3, #65536	; 0x10000
 8000eca:	2b00      	cmp	r3, #0
 8000ecc:	d003      	beq.n	8000ed6 <HAL_GPIO_Init+0x26a>
        {
          temp |= iocurrent;
 8000ece:	69ba      	ldr	r2, [r7, #24]
 8000ed0:	693b      	ldr	r3, [r7, #16]
 8000ed2:	4313      	orrs	r3, r2
 8000ed4:	61bb      	str	r3, [r7, #24]
        }
        EXTI->IMR = temp;
 8000ed6:	4a32      	ldr	r2, [pc, #200]	; (8000fa0 <HAL_GPIO_Init+0x334>)
 8000ed8:	69bb      	ldr	r3, [r7, #24]
 8000eda:	6013      	str	r3, [r2, #0]

        temp = EXTI->EMR;
 8000edc:	4b30      	ldr	r3, [pc, #192]	; (8000fa0 <HAL_GPIO_Init+0x334>)
 8000ede:	685b      	ldr	r3, [r3, #4]
 8000ee0:	61bb      	str	r3, [r7, #24]
        temp &= ~((uint32_t)iocurrent);
 8000ee2:	693b      	ldr	r3, [r7, #16]
 8000ee4:	43db      	mvns	r3, r3
 8000ee6:	69ba      	ldr	r2, [r7, #24]
 8000ee8:	4013      	ands	r3, r2
 8000eea:	61bb      	str	r3, [r7, #24]
        if((GPIO_Init->Mode & GPIO_MODE_EVT) == GPIO_MODE_EVT)
 8000eec:	683b      	ldr	r3, [r7, #0]
 8000eee:	685b      	ldr	r3, [r3, #4]
 8000ef0:	f403 3300 	and.w	r3, r3, #131072	; 0x20000
 8000ef4:	2b00      	cmp	r3, #0
 8000ef6:	d003      	beq.n	8000f00 <HAL_GPIO_Init+0x294>
        {
          temp |= iocurrent;
 8000ef8:	69ba      	ldr	r2, [r7, #24]
 8000efa:	693b      	ldr	r3, [r7, #16]
 8000efc:	4313      	orrs	r3, r2
 8000efe:	61bb      	str	r3, [r7, #24]
        }
        EXTI->EMR = temp;
 8000f00:	4a27      	ldr	r2, [pc, #156]	; (8000fa0 <HAL_GPIO_Init+0x334>)
 8000f02:	69bb      	ldr	r3, [r7, #24]
 8000f04:	6053      	str	r3, [r2, #4]

        /* Clear Rising Falling edge configuration */
        temp = EXTI->RTSR;
 8000f06:	4b26      	ldr	r3, [pc, #152]	; (8000fa0 <HAL_GPIO_Init+0x334>)
 8000f08:	689b      	ldr	r3, [r3, #8]
 8000f0a:	61bb      	str	r3, [r7, #24]
        temp &= ~((uint32_t)iocurrent);
 8000f0c:	693b      	ldr	r3, [r7, #16]
 8000f0e:	43db      	mvns	r3, r3
 8000f10:	69ba      	ldr	r2, [r7, #24]
 8000f12:	4013      	ands	r3, r2
 8000f14:	61bb      	str	r3, [r7, #24]
        if((GPIO_Init->Mode & RISING_EDGE) == RISING_EDGE)
 8000f16:	683b      	ldr	r3, [r7, #0]
 8000f18:	685b      	ldr	r3, [r3, #4]
 8000f1a:	f403 1380 	and.w	r3, r3, #1048576	; 0x100000
 8000f1e:	2b00      	cmp	r3, #0
 8000f20:	d003      	beq.n	8000f2a <HAL_GPIO_Init+0x2be>
        {
          temp |= iocurrent;
 8000f22:	69ba      	ldr	r2, [r7, #24]
 8000f24:	693b      	ldr	r3, [r7, #16]
 8000f26:	4313      	orrs	r3, r2
 8000f28:	61bb      	str	r3, [r7, #24]
        }
        EXTI->RTSR = temp;
 8000f2a:	4a1d      	ldr	r2, [pc, #116]	; (8000fa0 <HAL_GPIO_Init+0x334>)
 8000f2c:	69bb      	ldr	r3, [r7, #24]
 8000f2e:	6093      	str	r3, [r2, #8]

        temp = EXTI->FTSR;
 8000f30:	4b1b      	ldr	r3, [pc, #108]	; (8000fa0 <HAL_GPIO_Init+0x334>)
 8000f32:	68db      	ldr	r3, [r3, #12]
 8000f34:	61bb      	str	r3, [r7, #24]
        temp &= ~((uint32_t)iocurrent);
 8000f36:	693b      	ldr	r3, [r7, #16]
 8000f38:	43db      	mvns	r3, r3
 8000f3a:	69ba      	ldr	r2, [r7, #24]
 8000f3c:	4013      	ands	r3, r2
 8000f3e:	61bb      	str	r3, [r7, #24]
        if((GPIO_Init->Mode & FALLING_EDGE) == FALLING_EDGE)
 8000f40:	683b      	ldr	r3, [r7, #0]
 8000f42:	685b      	ldr	r3, [r3, #4]
 8000f44:	f403 1300 	and.w	r3, r3, #2097152	; 0x200000
 8000f48:	2b00      	cmp	r3, #0
 8000f4a:	d003      	beq.n	8000f54 <HAL_GPIO_Init+0x2e8>
        {
          temp |= iocurrent;
 8000f4c:	69ba      	ldr	r2, [r7, #24]
 8000f4e:	693b      	ldr	r3, [r7, #16]
 8000f50:	4313      	orrs	r3, r2
 8000f52:	61bb      	str	r3, [r7, #24]
        }
        EXTI->FTSR = temp;
 8000f54:	4a12      	ldr	r2, [pc, #72]	; (8000fa0 <HAL_GPIO_Init+0x334>)
 8000f56:	69bb      	ldr	r3, [r7, #24]
 8000f58:	60d3      	str	r3, [r2, #12]
  for(position = 0U; position < GPIO_NUMBER; position++)
 8000f5a:	69fb      	ldr	r3, [r7, #28]
 8000f5c:	3301      	adds	r3, #1
 8000f5e:	61fb      	str	r3, [r7, #28]
 8000f60:	69fb      	ldr	r3, [r7, #28]
 8000f62:	2b0f      	cmp	r3, #15
 8000f64:	f67f ae90 	bls.w	8000c88 <HAL_GPIO_Init+0x1c>
      }
    }
  }
}
 8000f68:	bf00      	nop
 8000f6a:	bf00      	nop
 8000f6c:	3724      	adds	r7, #36	; 0x24
 8000f6e:	46bd      	mov	sp, r7
 8000f70:	f85d 7b04 	ldr.w	r7, [sp], #4
 8000f74:	4770      	bx	lr
 8000f76:	bf00      	nop
 8000f78:	40023800 	.word	0x40023800
 8000f7c:	40013800 	.word	0x40013800
 8000f80:	40020000 	.word	0x40020000
 8000f84:	40020400 	.word	0x40020400
 8000f88:	40020800 	.word	0x40020800
 8000f8c:	40020c00 	.word	0x40020c00
 8000f90:	40021000 	.word	0x40021000
 8000f94:	40021400 	.word	0x40021400
 8000f98:	40021800 	.word	0x40021800
 8000f9c:	40021c00 	.word	0x40021c00
 8000fa0:	40013c00 	.word	0x40013c00

08000fa4 <HAL_GPIO_WritePin>:
  *            @arg GPIO_PIN_RESET: to clear the port pin
  *            @arg GPIO_PIN_SET: to set the port pin
  * @retval None
  */
void HAL_GPIO_WritePin(GPIO_TypeDef* GPIOx, uint16_t GPIO_Pin, GPIO_PinState PinState)
{
 8000fa4:	b480      	push	{r7}
 8000fa6:	b083      	sub	sp, #12
 8000fa8:	af00      	add	r7, sp, #0
 8000faa:	6078      	str	r0, [r7, #4]
 8000fac:	460b      	mov	r3, r1
 8000fae:	807b      	strh	r3, [r7, #2]
 8000fb0:	4613      	mov	r3, r2
 8000fb2:	707b      	strb	r3, [r7, #1]
  /* Check the parameters */
  assert_param(IS_GPIO_PIN(GPIO_Pin));
  assert_param(IS_GPIO_PIN_ACTION(PinState));

  if(PinState != GPIO_PIN_RESET)
 8000fb4:	787b      	ldrb	r3, [r7, #1]
 8000fb6:	2b00      	cmp	r3, #0
 8000fb8:	d003      	beq.n	8000fc2 <HAL_GPIO_WritePin+0x1e>
  {
    GPIOx->BSRR = GPIO_Pin;
 8000fba:	887a      	ldrh	r2, [r7, #2]
 8000fbc:	687b      	ldr	r3, [r7, #4]
 8000fbe:	619a      	str	r2, [r3, #24]
  }
  else
  {
    GPIOx->BSRR = (uint32_t)GPIO_Pin << 16U;
  }
}
 8000fc0:	e003      	b.n	8000fca <HAL_GPIO_WritePin+0x26>
    GPIOx->BSRR = (uint32_t)GPIO_Pin << 16U;
 8000fc2:	887b      	ldrh	r3, [r7, #2]
 8000fc4:	041a      	lsls	r2, r3, #16
 8000fc6:	687b      	ldr	r3, [r7, #4]
 8000fc8:	619a      	str	r2, [r3, #24]
}
 8000fca:	bf00      	nop
 8000fcc:	370c      	adds	r7, #12
 8000fce:	46bd      	mov	sp, r7
 8000fd0:	f85d 7b04 	ldr.w	r7, [sp], #4
 8000fd4:	4770      	bx	lr

08000fd6 <HAL_GPIO_TogglePin>:
  *                      x can be (A..I) to select the GPIO peripheral for STM32F40XX and STM32F427X devices.
  * @param  GPIO_Pin Specifies the pins to be toggled.
  * @retval None
  */
void HAL_GPIO_TogglePin(GPIO_TypeDef* GPIOx, uint16_t GPIO_Pin)
{
 8000fd6:	b480      	push	{r7}
 8000fd8:	b085      	sub	sp, #20
 8000fda:	af00      	add	r7, sp, #0
 8000fdc:	6078      	str	r0, [r7, #4]
 8000fde:	460b      	mov	r3, r1
 8000fe0:	807b      	strh	r3, [r7, #2]

  /* Check the parameters */
  assert_param(IS_GPIO_PIN(GPIO_Pin));

  /* get current Ouput Data Register value */
  odr = GPIOx->ODR;
 8000fe2:	687b      	ldr	r3, [r7, #4]
 8000fe4:	695b      	ldr	r3, [r3, #20]
 8000fe6:	60fb      	str	r3, [r7, #12]

  /* Set selected pins that were at low level, and reset ones that were high */
  GPIOx->BSRR = ((odr & GPIO_Pin) << GPIO_NUMBER) | (~odr & GPIO_Pin);
 8000fe8:	887a      	ldrh	r2, [r7, #2]
 8000fea:	68fb      	ldr	r3, [r7, #12]
 8000fec:	4013      	ands	r3, r2
 8000fee:	041a      	lsls	r2, r3, #16
 8000ff0:	68fb      	ldr	r3, [r7, #12]
 8000ff2:	43d9      	mvns	r1, r3
 8000ff4:	887b      	ldrh	r3, [r7, #2]
 8000ff6:	400b      	ands	r3, r1
 8000ff8:	431a      	orrs	r2, r3
 8000ffa:	687b      	ldr	r3, [r7, #4]
 8000ffc:	619a      	str	r2, [r3, #24]
}
 8000ffe:	bf00      	nop
 8001000:	3714      	adds	r7, #20
 8001002:	46bd      	mov	sp, r7
 8001004:	f85d 7b04 	ldr.w	r7, [sp], #4
 8001008:	4770      	bx	lr
	...

0800100c <HAL_RCC_OscConfig>:
  *         supported by this API. User should request a transition to HSE Off
  *         first and then HSE On or HSE Bypass.
  * @retval HAL status
  */
__weak HAL_StatusTypeDef HAL_RCC_OscConfig(RCC_OscInitTypeDef  *RCC_OscInitStruct)
{
 800100c:	b580      	push	{r7, lr}
 800100e:	b086      	sub	sp, #24
 8001010:	af00      	add	r7, sp, #0
 8001012:	6078      	str	r0, [r7, #4]
  uint32_t tickstart, pll_config;

  /* Check Null pointer */
  if(RCC_OscInitStruct == NULL)
 8001014:	687b      	ldr	r3, [r7, #4]
 8001016:	2b00      	cmp	r3, #0
 8001018:	d101      	bne.n	800101e <HAL_RCC_OscConfig+0x12>
  {
    return HAL_ERROR;
 800101a:	2301      	movs	r3, #1
 800101c:	e264      	b.n	80014e8 <HAL_RCC_OscConfig+0x4dc>
  }

  /* Check the parameters */
  assert_param(IS_RCC_OSCILLATORTYPE(RCC_OscInitStruct->OscillatorType));
  /*------------------------------- HSE Configuration ------------------------*/
  if(((RCC_OscInitStruct->OscillatorType) & RCC_OSCILLATORTYPE_HSE) == RCC_OSCILLATORTYPE_HSE)
 800101e:	687b      	ldr	r3, [r7, #4]
 8001020:	681b      	ldr	r3, [r3, #0]
 8001022:	f003 0301 	and.w	r3, r3, #1
 8001026:	2b00      	cmp	r3, #0
 8001028:	d075      	beq.n	8001116 <HAL_RCC_OscConfig+0x10a>
  {
    /* Check the parameters */
    assert_param(IS_RCC_HSE(RCC_OscInitStruct->HSEState));
    /* When the HSE is used as system clock or clock source for PLL in these cases HSE will not disabled */
    if((__HAL_RCC_GET_SYSCLK_SOURCE() == RCC_CFGR_SWS_HSE) ||\
 800102a:	4ba3      	ldr	r3, [pc, #652]	; (80012b8 <HAL_RCC_OscConfig+0x2ac>)
 800102c:	689b      	ldr	r3, [r3, #8]
 800102e:	f003 030c 	and.w	r3, r3, #12
 8001032:	2b04      	cmp	r3, #4
 8001034:	d00c      	beq.n	8001050 <HAL_RCC_OscConfig+0x44>
      ((__HAL_RCC_GET_SYSCLK_SOURCE() == RCC_CFGR_SWS_PLL) && ((RCC->PLLCFGR & RCC_PLLCFGR_PLLSRC) == RCC_PLLCFGR_PLLSRC_HSE)))
 8001036:	4ba0      	ldr	r3, [pc, #640]	; (80012b8 <HAL_RCC_OscConfig+0x2ac>)
 8001038:	689b      	ldr	r3, [r3, #8]
 800103a:	f003 030c 	and.w	r3, r3, #12
    if((__HAL_RCC_GET_SYSCLK_SOURCE() == RCC_CFGR_SWS_HSE) ||\
 800103e:	2b08      	cmp	r3, #8
 8001040:	d112      	bne.n	8001068 <HAL_RCC_OscConfig+0x5c>
      ((__HAL_RCC_GET_SYSCLK_SOURCE() == RCC_CFGR_SWS_PLL) && ((RCC->PLLCFGR & RCC_PLLCFGR_PLLSRC) == RCC_PLLCFGR_PLLSRC_HSE)))
 8001042:	4b9d      	ldr	r3, [pc, #628]	; (80012b8 <HAL_RCC_OscConfig+0x2ac>)
 8001044:	685b      	ldr	r3, [r3, #4]
 8001046:	f403 0380 	and.w	r3, r3, #4194304	; 0x400000
 800104a:	f5b3 0f80 	cmp.w	r3, #4194304	; 0x400000
 800104e:	d10b      	bne.n	8001068 <HAL_RCC_OscConfig+0x5c>
    {
      if((__HAL_RCC_GET_FLAG(RCC_FLAG_HSERDY) != RESET) && (RCC_OscInitStruct->HSEState == RCC_HSE_OFF))
 8001050:	4b99      	ldr	r3, [pc, #612]	; (80012b8 <HAL_RCC_OscConfig+0x2ac>)
 8001052:	681b      	ldr	r3, [r3, #0]
 8001054:	f403 3300 	and.w	r3, r3, #131072	; 0x20000
 8001058:	2b00      	cmp	r3, #0
 800105a:	d05b      	beq.n	8001114 <HAL_RCC_OscConfig+0x108>
 800105c:	687b      	ldr	r3, [r7, #4]
 800105e:	685b      	ldr	r3, [r3, #4]
 8001060:	2b00      	cmp	r3, #0
 8001062:	d157      	bne.n	8001114 <HAL_RCC_OscConfig+0x108>
      {
        return HAL_ERROR;
 8001064:	2301      	movs	r3, #1
 8001066:	e23f      	b.n	80014e8 <HAL_RCC_OscConfig+0x4dc>
      }
    }
    else
    {
      /* Set the new HSE configuration ---------------------------------------*/
      __HAL_RCC_HSE_CONFIG(RCC_OscInitStruct->HSEState);
 8001068:	687b      	ldr	r3, [r7, #4]
 800106a:	685b      	ldr	r3, [r3, #4]
 800106c:	f5b3 3f80 	cmp.w	r3, #65536	; 0x10000
 8001070:	d106      	bne.n	8001080 <HAL_RCC_OscConfig+0x74>
 8001072:	4b91      	ldr	r3, [pc, #580]	; (80012b8 <HAL_RCC_OscConfig+0x2ac>)
 8001074:	681b      	ldr	r3, [r3, #0]
 8001076:	4a90      	ldr	r2, [pc, #576]	; (80012b8 <HAL_RCC_OscConfig+0x2ac>)
 8001078:	f443 3380 	orr.w	r3, r3, #65536	; 0x10000
 800107c:	6013      	str	r3, [r2, #0]
 800107e:	e01d      	b.n	80010bc <HAL_RCC_OscConfig+0xb0>
 8001080:	687b      	ldr	r3, [r7, #4]
 8001082:	685b      	ldr	r3, [r3, #4]
 8001084:	f5b3 2fa0 	cmp.w	r3, #327680	; 0x50000
 8001088:	d10c      	bne.n	80010a4 <HAL_RCC_OscConfig+0x98>
 800108a:	4b8b      	ldr	r3, [pc, #556]	; (80012b8 <HAL_RCC_OscConfig+0x2ac>)
 800108c:	681b      	ldr	r3, [r3, #0]
 800108e:	4a8a      	ldr	r2, [pc, #552]	; (80012b8 <HAL_RCC_OscConfig+0x2ac>)
 8001090:	f443 2380 	orr.w	r3, r3, #262144	; 0x40000
 8001094:	6013      	str	r3, [r2, #0]
 8001096:	4b88      	ldr	r3, [pc, #544]	; (80012b8 <HAL_RCC_OscConfig+0x2ac>)
 8001098:	681b      	ldr	r3, [r3, #0]
 800109a:	4a87      	ldr	r2, [pc, #540]	; (80012b8 <HAL_RCC_OscConfig+0x2ac>)
 800109c:	f443 3380 	orr.w	r3, r3, #65536	; 0x10000
 80010a0:	6013      	str	r3, [r2, #0]
 80010a2:	e00b      	b.n	80010bc <HAL_RCC_OscConfig+0xb0>
 80010a4:	4b84      	ldr	r3, [pc, #528]	; (80012b8 <HAL_RCC_OscConfig+0x2ac>)
 80010a6:	681b      	ldr	r3, [r3, #0]
 80010a8:	4a83      	ldr	r2, [pc, #524]	; (80012b8 <HAL_RCC_OscConfig+0x2ac>)
 80010aa:	f423 3380 	bic.w	r3, r3, #65536	; 0x10000
 80010ae:	6013      	str	r3, [r2, #0]
 80010b0:	4b81      	ldr	r3, [pc, #516]	; (80012b8 <HAL_RCC_OscConfig+0x2ac>)
 80010b2:	681b      	ldr	r3, [r3, #0]
 80010b4:	4a80      	ldr	r2, [pc, #512]	; (80012b8 <HAL_RCC_OscConfig+0x2ac>)
 80010b6:	f423 2380 	bic.w	r3, r3, #262144	; 0x40000
 80010ba:	6013      	str	r3, [r2, #0]

      /* Check the HSE State */
      if((RCC_OscInitStruct->HSEState) != RCC_HSE_OFF)
 80010bc:	687b      	ldr	r3, [r7, #4]
 80010be:	685b      	ldr	r3, [r3, #4]
 80010c0:	2b00      	cmp	r3, #0
 80010c2:	d013      	beq.n	80010ec <HAL_RCC_OscConfig+0xe0>
      {
        /* Get Start Tick */
        tickstart = HAL_GetTick();
 80010c4:	f7ff fce4 	bl	8000a90 <HAL_GetTick>
 80010c8:	6138      	str	r0, [r7, #16]

        /* Wait till HSE is ready */
        while(__HAL_RCC_GET_FLAG(RCC_FLAG_HSERDY) == RESET)
 80010ca:	e008      	b.n	80010de <HAL_RCC_OscConfig+0xd2>
        {
          if((HAL_GetTick() - tickstart ) > HSE_TIMEOUT_VALUE)
 80010cc:	f7ff fce0 	bl	8000a90 <HAL_GetTick>
 80010d0:	4602      	mov	r2, r0
 80010d2:	693b      	ldr	r3, [r7, #16]
 80010d4:	1ad3      	subs	r3, r2, r3
 80010d6:	2b64      	cmp	r3, #100	; 0x64
 80010d8:	d901      	bls.n	80010de <HAL_RCC_OscConfig+0xd2>
          {
            return HAL_TIMEOUT;
 80010da:	2303      	movs	r3, #3
 80010dc:	e204      	b.n	80014e8 <HAL_RCC_OscConfig+0x4dc>
        while(__HAL_RCC_GET_FLAG(RCC_FLAG_HSERDY) == RESET)
 80010de:	4b76      	ldr	r3, [pc, #472]	; (80012b8 <HAL_RCC_OscConfig+0x2ac>)
 80010e0:	681b      	ldr	r3, [r3, #0]
 80010e2:	f403 3300 	and.w	r3, r3, #131072	; 0x20000
 80010e6:	2b00      	cmp	r3, #0
 80010e8:	d0f0      	beq.n	80010cc <HAL_RCC_OscConfig+0xc0>
 80010ea:	e014      	b.n	8001116 <HAL_RCC_OscConfig+0x10a>
        }
      }
      else
      {
        /* Get Start Tick */
        tickstart = HAL_GetTick();
 80010ec:	f7ff fcd0 	bl	8000a90 <HAL_GetTick>
 80010f0:	6138      	str	r0, [r7, #16]

        /* Wait till HSE is bypassed or disabled */
        while(__HAL_RCC_GET_FLAG(RCC_FLAG_HSERDY) != RESET)
 80010f2:	e008      	b.n	8001106 <HAL_RCC_OscConfig+0xfa>
        {
          if((HAL_GetTick() - tickstart ) > HSE_TIMEOUT_VALUE)
 80010f4:	f7ff fccc 	bl	8000a90 <HAL_GetTick>
 80010f8:	4602      	mov	r2, r0
 80010fa:	693b      	ldr	r3, [r7, #16]
 80010fc:	1ad3      	subs	r3, r2, r3
 80010fe:	2b64      	cmp	r3, #100	; 0x64
 8001100:	d901      	bls.n	8001106 <HAL_RCC_OscConfig+0xfa>
          {
            return HAL_TIMEOUT;
 8001102:	2303      	movs	r3, #3
 8001104:	e1f0      	b.n	80014e8 <HAL_RCC_OscConfig+0x4dc>
        while(__HAL_RCC_GET_FLAG(RCC_FLAG_HSERDY) != RESET)
 8001106:	4b6c      	ldr	r3, [pc, #432]	; (80012b8 <HAL_RCC_OscConfig+0x2ac>)
 8001108:	681b      	ldr	r3, [r3, #0]
 800110a:	f403 3300 	and.w	r3, r3, #131072	; 0x20000
 800110e:	2b00      	cmp	r3, #0
 8001110:	d1f0      	bne.n	80010f4 <HAL_RCC_OscConfig+0xe8>
 8001112:	e000      	b.n	8001116 <HAL_RCC_OscConfig+0x10a>
      if((__HAL_RCC_GET_FLAG(RCC_FLAG_HSERDY) != RESET) && (RCC_OscInitStruct->HSEState == RCC_HSE_OFF))
 8001114:	bf00      	nop
        }
      }
    }
  }
  /*----------------------------- HSI Configuration --------------------------*/
  if(((RCC_OscInitStruct->OscillatorType) & RCC_OSCILLATORTYPE_HSI) == RCC_OSCILLATORTYPE_HSI)
 8001116:	687b      	ldr	r3, [r7, #4]
 8001118:	681b      	ldr	r3, [r3, #0]
 800111a:	f003 0302 	and.w	r3, r3, #2
 800111e:	2b00      	cmp	r3, #0
 8001120:	d063      	beq.n	80011ea <HAL_RCC_OscConfig+0x1de>
    /* Check the parameters */
    assert_param(IS_RCC_HSI(RCC_OscInitStruct->HSIState));
    assert_param(IS_RCC_CALIBRATION_VALUE(RCC_OscInitStruct->HSICalibrationValue));

    /* Check if HSI is used as system clock or as PLL source when PLL is selected as system clock */
    if((__HAL_RCC_GET_SYSCLK_SOURCE() == RCC_CFGR_SWS_HSI) ||\
 8001122:	4b65      	ldr	r3, [pc, #404]	; (80012b8 <HAL_RCC_OscConfig+0x2ac>)
 8001124:	689b      	ldr	r3, [r3, #8]
 8001126:	f003 030c 	and.w	r3, r3, #12
 800112a:	2b00      	cmp	r3, #0
 800112c:	d00b      	beq.n	8001146 <HAL_RCC_OscConfig+0x13a>
      ((__HAL_RCC_GET_SYSCLK_SOURCE() == RCC_CFGR_SWS_PLL) && ((RCC->PLLCFGR & RCC_PLLCFGR_PLLSRC) == RCC_PLLCFGR_PLLSRC_HSI)))
 800112e:	4b62      	ldr	r3, [pc, #392]	; (80012b8 <HAL_RCC_OscConfig+0x2ac>)
 8001130:	689b      	ldr	r3, [r3, #8]
 8001132:	f003 030c 	and.w	r3, r3, #12
    if((__HAL_RCC_GET_SYSCLK_SOURCE() == RCC_CFGR_SWS_HSI) ||\
 8001136:	2b08      	cmp	r3, #8
 8001138:	d11c      	bne.n	8001174 <HAL_RCC_OscConfig+0x168>
      ((__HAL_RCC_GET_SYSCLK_SOURCE() == RCC_CFGR_SWS_PLL) && ((RCC->PLLCFGR & RCC_PLLCFGR_PLLSRC) == RCC_PLLCFGR_PLLSRC_HSI)))
 800113a:	4b5f      	ldr	r3, [pc, #380]	; (80012b8 <HAL_RCC_OscConfig+0x2ac>)
 800113c:	685b      	ldr	r3, [r3, #4]
 800113e:	f403 0380 	and.w	r3, r3, #4194304	; 0x400000
 8001142:	2b00      	cmp	r3, #0
 8001144:	d116      	bne.n	8001174 <HAL_RCC_OscConfig+0x168>
    {
      /* When HSI is used as system clock it will not disabled */
      if((__HAL_RCC_GET_FLAG(RCC_FLAG_HSIRDY) != RESET) && (RCC_OscInitStruct->HSIState != RCC_HSI_ON))
 8001146:	4b5c      	ldr	r3, [pc, #368]	; (80012b8 <HAL_RCC_OscConfig+0x2ac>)
 8001148:	681b      	ldr	r3, [r3, #0]
 800114a:	f003 0302 	and.w	r3, r3, #2
 800114e:	2b00      	cmp	r3, #0
 8001150:	d005      	beq.n	800115e <HAL_RCC_OscConfig+0x152>
 8001152:	687b      	ldr	r3, [r7, #4]
 8001154:	68db      	ldr	r3, [r3, #12]
 8001156:	2b01      	cmp	r3, #1
 8001158:	d001      	beq.n	800115e <HAL_RCC_OscConfig+0x152>
      {
        return HAL_ERROR;
 800115a:	2301      	movs	r3, #1
 800115c:	e1c4      	b.n	80014e8 <HAL_RCC_OscConfig+0x4dc>
      }
      /* Otherwise, just the calibration is allowed */
      else
      {
        /* Adjusts the Internal High Speed oscillator (HSI) calibration value.*/
        __HAL_RCC_HSI_CALIBRATIONVALUE_ADJUST(RCC_OscInitStruct->HSICalibrationValue);
 800115e:	4b56      	ldr	r3, [pc, #344]	; (80012b8 <HAL_RCC_OscConfig+0x2ac>)
 8001160:	681b      	ldr	r3, [r3, #0]
 8001162:	f023 02f8 	bic.w	r2, r3, #248	; 0xf8
 8001166:	687b      	ldr	r3, [r7, #4]
 8001168:	691b      	ldr	r3, [r3, #16]
 800116a:	00db      	lsls	r3, r3, #3
 800116c:	4952      	ldr	r1, [pc, #328]	; (80012b8 <HAL_RCC_OscConfig+0x2ac>)
 800116e:	4313      	orrs	r3, r2
 8001170:	600b      	str	r3, [r1, #0]
      if((__HAL_RCC_GET_FLAG(RCC_FLAG_HSIRDY) != RESET) && (RCC_OscInitStruct->HSIState != RCC_HSI_ON))
 8001172:	e03a      	b.n	80011ea <HAL_RCC_OscConfig+0x1de>
      }
    }
    else
    {
      /* Check the HSI State */
      if((RCC_OscInitStruct->HSIState)!= RCC_HSI_OFF)
 8001174:	687b      	ldr	r3, [r7, #4]
 8001176:	68db      	ldr	r3, [r3, #12]
 8001178:	2b00      	cmp	r3, #0
 800117a:	d020      	beq.n	80011be <HAL_RCC_OscConfig+0x1b2>
      {
        /* Enable the Internal High Speed oscillator (HSI). */
        __HAL_RCC_HSI_ENABLE();
 800117c:	4b4f      	ldr	r3, [pc, #316]	; (80012bc <HAL_RCC_OscConfig+0x2b0>)
 800117e:	2201      	movs	r2, #1
 8001180:	601a      	str	r2, [r3, #0]

        /* Get Start Tick*/
        tickstart = HAL_GetTick();
 8001182:	f7ff fc85 	bl	8000a90 <HAL_GetTick>
 8001186:	6138      	str	r0, [r7, #16]

        /* Wait till HSI is ready */
        while(__HAL_RCC_GET_FLAG(RCC_FLAG_HSIRDY) == RESET)
 8001188:	e008      	b.n	800119c <HAL_RCC_OscConfig+0x190>
        {
          if((HAL_GetTick() - tickstart ) > HSI_TIMEOUT_VALUE)
 800118a:	f7ff fc81 	bl	8000a90 <HAL_GetTick>
 800118e:	4602      	mov	r2, r0
 8001190:	693b      	ldr	r3, [r7, #16]
 8001192:	1ad3      	subs	r3, r2, r3
 8001194:	2b02      	cmp	r3, #2
 8001196:	d901      	bls.n	800119c <HAL_RCC_OscConfig+0x190>
          {
            return HAL_TIMEOUT;
 8001198:	2303      	movs	r3, #3
 800119a:	e1a5      	b.n	80014e8 <HAL_RCC_OscConfig+0x4dc>
        while(__HAL_RCC_GET_FLAG(RCC_FLAG_HSIRDY) == RESET)
 800119c:	4b46      	ldr	r3, [pc, #280]	; (80012b8 <HAL_RCC_OscConfig+0x2ac>)
 800119e:	681b      	ldr	r3, [r3, #0]
 80011a0:	f003 0302 	and.w	r3, r3, #2
 80011a4:	2b00      	cmp	r3, #0
 80011a6:	d0f0      	beq.n	800118a <HAL_RCC_OscConfig+0x17e>
          }
        }

        /* Adjusts the Internal High Speed oscillator (HSI) calibration value. */
        __HAL_RCC_HSI_CALIBRATIONVALUE_ADJUST(RCC_OscInitStruct->HSICalibrationValue);
 80011a8:	4b43      	ldr	r3, [pc, #268]	; (80012b8 <HAL_RCC_OscConfig+0x2ac>)
 80011aa:	681b      	ldr	r3, [r3, #0]
 80011ac:	f023 02f8 	bic.w	r2, r3, #248	; 0xf8
 80011b0:	687b      	ldr	r3, [r7, #4]
 80011b2:	691b      	ldr	r3, [r3, #16]
 80011b4:	00db      	lsls	r3, r3, #3
 80011b6:	4940      	ldr	r1, [pc, #256]	; (80012b8 <HAL_RCC_OscConfig+0x2ac>)
 80011b8:	4313      	orrs	r3, r2
 80011ba:	600b      	str	r3, [r1, #0]
 80011bc:	e015      	b.n	80011ea <HAL_RCC_OscConfig+0x1de>
      }
      else
      {
        /* Disable the Internal High Speed oscillator (HSI). */
        __HAL_RCC_HSI_DISABLE();
 80011be:	4b3f      	ldr	r3, [pc, #252]	; (80012bc <HAL_RCC_OscConfig+0x2b0>)
 80011c0:	2200      	movs	r2, #0
 80011c2:	601a      	str	r2, [r3, #0]

        /* Get Start Tick*/
        tickstart = HAL_GetTick();
 80011c4:	f7ff fc64 	bl	8000a90 <HAL_GetTick>
 80011c8:	6138      	str	r0, [r7, #16]

        /* Wait till HSI is ready */
        while(__HAL_RCC_GET_FLAG(RCC_FLAG_HSIRDY) != RESET)
 80011ca:	e008      	b.n	80011de <HAL_RCC_OscConfig+0x1d2>
        {
          if((HAL_GetTick() - tickstart ) > HSI_TIMEOUT_VALUE)
 80011cc:	f7ff fc60 	bl	8000a90 <HAL_GetTick>
 80011d0:	4602      	mov	r2, r0
 80011d2:	693b      	ldr	r3, [r7, #16]
 80011d4:	1ad3      	subs	r3, r2, r3
 80011d6:	2b02      	cmp	r3, #2
 80011d8:	d901      	bls.n	80011de <HAL_RCC_OscConfig+0x1d2>
          {
            return HAL_TIMEOUT;
 80011da:	2303      	movs	r3, #3
 80011dc:	e184      	b.n	80014e8 <HAL_RCC_OscConfig+0x4dc>
        while(__HAL_RCC_GET_FLAG(RCC_FLAG_HSIRDY) != RESET)
 80011de:	4b36      	ldr	r3, [pc, #216]	; (80012b8 <HAL_RCC_OscConfig+0x2ac>)
 80011e0:	681b      	ldr	r3, [r3, #0]
 80011e2:	f003 0302 	and.w	r3, r3, #2
 80011e6:	2b00      	cmp	r3, #0
 80011e8:	d1f0      	bne.n	80011cc <HAL_RCC_OscConfig+0x1c0>
        }
      }
    }
  }
  /*------------------------------ LSI Configuration -------------------------*/
  if(((RCC_OscInitStruct->OscillatorType) & RCC_OSCILLATORTYPE_LSI) == RCC_OSCILLATORTYPE_LSI)
 80011ea:	687b      	ldr	r3, [r7, #4]
 80011ec:	681b      	ldr	r3, [r3, #0]
 80011ee:	f003 0308 	and.w	r3, r3, #8
 80011f2:	2b00      	cmp	r3, #0
 80011f4:	d030      	beq.n	8001258 <HAL_RCC_OscConfig+0x24c>
  {
    /* Check the parameters */
    assert_param(IS_RCC_LSI(RCC_OscInitStruct->LSIState));

    /* Check the LSI State */
    if((RCC_OscInitStruct->LSIState)!= RCC_LSI_OFF)
 80011f6:	687b      	ldr	r3, [r7, #4]
 80011f8:	695b      	ldr	r3, [r3, #20]
 80011fa:	2b00      	cmp	r3, #0
 80011fc:	d016      	beq.n	800122c <HAL_RCC_OscConfig+0x220>
    {
      /* Enable the Internal Low Speed oscillator (LSI). */
      __HAL_RCC_LSI_ENABLE();
 80011fe:	4b30      	ldr	r3, [pc, #192]	; (80012c0 <HAL_RCC_OscConfig+0x2b4>)
 8001200:	2201      	movs	r2, #1
 8001202:	601a      	str	r2, [r3, #0]

      /* Get Start Tick*/
      tickstart = HAL_GetTick();
 8001204:	f7ff fc44 	bl	8000a90 <HAL_GetTick>
 8001208:	6138      	str	r0, [r7, #16]

      /* Wait till LSI is ready */
      while(__HAL_RCC_GET_FLAG(RCC_FLAG_LSIRDY) == RESET)
 800120a:	e008      	b.n	800121e <HAL_RCC_OscConfig+0x212>
      {
        if((HAL_GetTick() - tickstart ) > LSI_TIMEOUT_VALUE)
 800120c:	f7ff fc40 	bl	8000a90 <HAL_GetTick>
 8001210:	4602      	mov	r2, r0
 8001212:	693b      	ldr	r3, [r7, #16]
 8001214:	1ad3      	subs	r3, r2, r3
 8001216:	2b02      	cmp	r3, #2
 8001218:	d901      	bls.n	800121e <HAL_RCC_OscConfig+0x212>
        {
          return HAL_TIMEOUT;
 800121a:	2303      	movs	r3, #3
 800121c:	e164      	b.n	80014e8 <HAL_RCC_OscConfig+0x4dc>
      while(__HAL_RCC_GET_FLAG(RCC_FLAG_LSIRDY) == RESET)
 800121e:	4b26      	ldr	r3, [pc, #152]	; (80012b8 <HAL_RCC_OscConfig+0x2ac>)
 8001220:	6f5b      	ldr	r3, [r3, #116]	; 0x74
 8001222:	f003 0302 	and.w	r3, r3, #2
 8001226:	2b00      	cmp	r3, #0
 8001228:	d0f0      	beq.n	800120c <HAL_RCC_OscConfig+0x200>
 800122a:	e015      	b.n	8001258 <HAL_RCC_OscConfig+0x24c>
      }
    }
    else
    {
      /* Disable the Internal Low Speed oscillator (LSI). */
      __HAL_RCC_LSI_DISABLE();
 800122c:	4b24      	ldr	r3, [pc, #144]	; (80012c0 <HAL_RCC_OscConfig+0x2b4>)
 800122e:	2200      	movs	r2, #0
 8001230:	601a      	str	r2, [r3, #0]

      /* Get Start Tick */
      tickstart = HAL_GetTick();
 8001232:	f7ff fc2d 	bl	8000a90 <HAL_GetTick>
 8001236:	6138      	str	r0, [r7, #16]

      /* Wait till LSI is ready */
      while(__HAL_RCC_GET_FLAG(RCC_FLAG_LSIRDY) != RESET)
 8001238:	e008      	b.n	800124c <HAL_RCC_OscConfig+0x240>
      {
        if((HAL_GetTick() - tickstart ) > LSI_TIMEOUT_VALUE)
 800123a:	f7ff fc29 	bl	8000a90 <HAL_GetTick>
 800123e:	4602      	mov	r2, r0
 8001240:	693b      	ldr	r3, [r7, #16]
 8001242:	1ad3      	subs	r3, r2, r3
 8001244:	2b02      	cmp	r3, #2
 8001246:	d901      	bls.n	800124c <HAL_RCC_OscConfig+0x240>
        {
          return HAL_TIMEOUT;
 8001248:	2303      	movs	r3, #3
 800124a:	e14d      	b.n	80014e8 <HAL_RCC_OscConfig+0x4dc>
      while(__HAL_RCC_GET_FLAG(RCC_FLAG_LSIRDY) != RESET)
 800124c:	4b1a      	ldr	r3, [pc, #104]	; (80012b8 <HAL_RCC_OscConfig+0x2ac>)
 800124e:	6f5b      	ldr	r3, [r3, #116]	; 0x74
 8001250:	f003 0302 	and.w	r3, r3, #2
 8001254:	2b00      	cmp	r3, #0
 8001256:	d1f0      	bne.n	800123a <HAL_RCC_OscConfig+0x22e>
        }
      }
    }
  }
  /*------------------------------ LSE Configuration -------------------------*/
  if(((RCC_OscInitStruct->OscillatorType) & RCC_OSCILLATORTYPE_LSE) == RCC_OSCILLATORTYPE_LSE)
 8001258:	687b      	ldr	r3, [r7, #4]
 800125a:	681b      	ldr	r3, [r3, #0]
 800125c:	f003 0304 	and.w	r3, r3, #4
 8001260:	2b00      	cmp	r3, #0
 8001262:	f000 80a0 	beq.w	80013a6 <HAL_RCC_OscConfig+0x39a>
  {
    FlagStatus       pwrclkchanged = RESET;
 8001266:	2300      	movs	r3, #0
 8001268:	75fb      	strb	r3, [r7, #23]
    /* Check the parameters */
    assert_param(IS_RCC_LSE(RCC_OscInitStruct->LSEState));

    /* Update LSE configuration in Backup Domain control register    */
    /* Requires to enable write access to Backup Domain of necessary */
    if(__HAL_RCC_PWR_IS_CLK_DISABLED())
 800126a:	4b13      	ldr	r3, [pc, #76]	; (80012b8 <HAL_RCC_OscConfig+0x2ac>)
 800126c:	6c1b      	ldr	r3, [r3, #64]	; 0x40
 800126e:	f003 5380 	and.w	r3, r3, #268435456	; 0x10000000
 8001272:	2b00      	cmp	r3, #0
 8001274:	d10f      	bne.n	8001296 <HAL_RCC_OscConfig+0x28a>
    {
      __HAL_RCC_PWR_CLK_ENABLE();
 8001276:	2300      	movs	r3, #0
 8001278:	60bb      	str	r3, [r7, #8]
 800127a:	4b0f      	ldr	r3, [pc, #60]	; (80012b8 <HAL_RCC_OscConfig+0x2ac>)
 800127c:	6c1b      	ldr	r3, [r3, #64]	; 0x40
 800127e:	4a0e      	ldr	r2, [pc, #56]	; (80012b8 <HAL_RCC_OscConfig+0x2ac>)
 8001280:	f043 5380 	orr.w	r3, r3, #268435456	; 0x10000000
 8001284:	6413      	str	r3, [r2, #64]	; 0x40
 8001286:	4b0c      	ldr	r3, [pc, #48]	; (80012b8 <HAL_RCC_OscConfig+0x2ac>)
 8001288:	6c1b      	ldr	r3, [r3, #64]	; 0x40
 800128a:	f003 5380 	and.w	r3, r3, #268435456	; 0x10000000
 800128e:	60bb      	str	r3, [r7, #8]
 8001290:	68bb      	ldr	r3, [r7, #8]
      pwrclkchanged = SET;
 8001292:	2301      	movs	r3, #1
 8001294:	75fb      	strb	r3, [r7, #23]
    }

    if(HAL_IS_BIT_CLR(PWR->CR, PWR_CR_DBP))
 8001296:	4b0b      	ldr	r3, [pc, #44]	; (80012c4 <HAL_RCC_OscConfig+0x2b8>)
 8001298:	681b      	ldr	r3, [r3, #0]
 800129a:	f403 7380 	and.w	r3, r3, #256	; 0x100
 800129e:	2b00      	cmp	r3, #0
 80012a0:	d121      	bne.n	80012e6 <HAL_RCC_OscConfig+0x2da>
    {
      /* Enable write access to Backup domain */
      SET_BIT(PWR->CR, PWR_CR_DBP);
 80012a2:	4b08      	ldr	r3, [pc, #32]	; (80012c4 <HAL_RCC_OscConfig+0x2b8>)
 80012a4:	681b      	ldr	r3, [r3, #0]
 80012a6:	4a07      	ldr	r2, [pc, #28]	; (80012c4 <HAL_RCC_OscConfig+0x2b8>)
 80012a8:	f443 7380 	orr.w	r3, r3, #256	; 0x100
 80012ac:	6013      	str	r3, [r2, #0]

      /* Wait for Backup domain Write protection disable */
      tickstart = HAL_GetTick();
 80012ae:	f7ff fbef 	bl	8000a90 <HAL_GetTick>
 80012b2:	6138      	str	r0, [r7, #16]

      while(HAL_IS_BIT_CLR(PWR->CR, PWR_CR_DBP))
 80012b4:	e011      	b.n	80012da <HAL_RCC_OscConfig+0x2ce>
 80012b6:	bf00      	nop
 80012b8:	40023800 	.word	0x40023800
 80012bc:	42470000 	.word	0x42470000
 80012c0:	42470e80 	.word	0x42470e80
 80012c4:	40007000 	.word	0x40007000
      {
        if((HAL_GetTick() - tickstart) > RCC_DBP_TIMEOUT_VALUE)
 80012c8:	f7ff fbe2 	bl	8000a90 <HAL_GetTick>
 80012cc:	4602      	mov	r2, r0
 80012ce:	693b      	ldr	r3, [r7, #16]
 80012d0:	1ad3      	subs	r3, r2, r3
 80012d2:	2b02      	cmp	r3, #2
 80012d4:	d901      	bls.n	80012da <HAL_RCC_OscConfig+0x2ce>
        {
          return HAL_TIMEOUT;
 80012d6:	2303      	movs	r3, #3
 80012d8:	e106      	b.n	80014e8 <HAL_RCC_OscConfig+0x4dc>
      while(HAL_IS_BIT_CLR(PWR->CR, PWR_CR_DBP))
 80012da:	4b85      	ldr	r3, [pc, #532]	; (80014f0 <HAL_RCC_OscConfig+0x4e4>)
 80012dc:	681b      	ldr	r3, [r3, #0]
 80012de:	f403 7380 	and.w	r3, r3, #256	; 0x100
 80012e2:	2b00      	cmp	r3, #0
 80012e4:	d0f0      	beq.n	80012c8 <HAL_RCC_OscConfig+0x2bc>
        }
      }
    }

    /* Set the new LSE configuration -----------------------------------------*/
    __HAL_RCC_LSE_CONFIG(RCC_OscInitStruct->LSEState);
 80012e6:	687b      	ldr	r3, [r7, #4]
 80012e8:	689b      	ldr	r3, [r3, #8]
 80012ea:	2b01      	cmp	r3, #1
 80012ec:	d106      	bne.n	80012fc <HAL_RCC_OscConfig+0x2f0>
 80012ee:	4b81      	ldr	r3, [pc, #516]	; (80014f4 <HAL_RCC_OscConfig+0x4e8>)
 80012f0:	6f1b      	ldr	r3, [r3, #112]	; 0x70
 80012f2:	4a80      	ldr	r2, [pc, #512]	; (80014f4 <HAL_RCC_OscConfig+0x4e8>)
 80012f4:	f043 0301 	orr.w	r3, r3, #1
 80012f8:	6713      	str	r3, [r2, #112]	; 0x70
 80012fa:	e01c      	b.n	8001336 <HAL_RCC_OscConfig+0x32a>
 80012fc:	687b      	ldr	r3, [r7, #4]
 80012fe:	689b      	ldr	r3, [r3, #8]
 8001300:	2b05      	cmp	r3, #5
 8001302:	d10c      	bne.n	800131e <HAL_RCC_OscConfig+0x312>
 8001304:	4b7b      	ldr	r3, [pc, #492]	; (80014f4 <HAL_RCC_OscConfig+0x4e8>)
 8001306:	6f1b      	ldr	r3, [r3, #112]	; 0x70
 8001308:	4a7a      	ldr	r2, [pc, #488]	; (80014f4 <HAL_RCC_OscConfig+0x4e8>)
 800130a:	f043 0304 	orr.w	r3, r3, #4
 800130e:	6713      	str	r3, [r2, #112]	; 0x70
 8001310:	4b78      	ldr	r3, [pc, #480]	; (80014f4 <HAL_RCC_OscConfig+0x4e8>)
 8001312:	6f1b      	ldr	r3, [r3, #112]	; 0x70
 8001314:	4a77      	ldr	r2, [pc, #476]	; (80014f4 <HAL_RCC_OscConfig+0x4e8>)
 8001316:	f043 0301 	orr.w	r3, r3, #1
 800131a:	6713      	str	r3, [r2, #112]	; 0x70
 800131c:	e00b      	b.n	8001336 <HAL_RCC_OscConfig+0x32a>
 800131e:	4b75      	ldr	r3, [pc, #468]	; (80014f4 <HAL_RCC_OscConfig+0x4e8>)
 8001320:	6f1b      	ldr	r3, [r3, #112]	; 0x70
 8001322:	4a74      	ldr	r2, [pc, #464]	; (80014f4 <HAL_RCC_OscConfig+0x4e8>)
 8001324:	f023 0301 	bic.w	r3, r3, #1
 8001328:	6713      	str	r3, [r2, #112]	; 0x70
 800132a:	4b72      	ldr	r3, [pc, #456]	; (80014f4 <HAL_RCC_OscConfig+0x4e8>)
 800132c:	6f1b      	ldr	r3, [r3, #112]	; 0x70
 800132e:	4a71      	ldr	r2, [pc, #452]	; (80014f4 <HAL_RCC_OscConfig+0x4e8>)
 8001330:	f023 0304 	bic.w	r3, r3, #4
 8001334:	6713      	str	r3, [r2, #112]	; 0x70
    /* Check the LSE State */
    if((RCC_OscInitStruct->LSEState) != RCC_LSE_OFF)
 8001336:	687b      	ldr	r3, [r7, #4]
 8001338:	689b      	ldr	r3, [r3, #8]
 800133a:	2b00      	cmp	r3, #0
 800133c:	d015      	beq.n	800136a <HAL_RCC_OscConfig+0x35e>
    {
      /* Get Start Tick*/
      tickstart = HAL_GetTick();
 800133e:	f7ff fba7 	bl	8000a90 <HAL_GetTick>
 8001342:	6138      	str	r0, [r7, #16]

      /* Wait till LSE is ready */
      while(__HAL_RCC_GET_FLAG(RCC_FLAG_LSERDY) == RESET)
 8001344:	e00a      	b.n	800135c <HAL_RCC_OscConfig+0x350>
      {
        if((HAL_GetTick() - tickstart ) > RCC_LSE_TIMEOUT_VALUE)
 8001346:	f7ff fba3 	bl	8000a90 <HAL_GetTick>
 800134a:	4602      	mov	r2, r0
 800134c:	693b      	ldr	r3, [r7, #16]
 800134e:	1ad3      	subs	r3, r2, r3
 8001350:	f241 3288 	movw	r2, #5000	; 0x1388
 8001354:	4293      	cmp	r3, r2
 8001356:	d901      	bls.n	800135c <HAL_RCC_OscConfig+0x350>
        {
          return HAL_TIMEOUT;
 8001358:	2303      	movs	r3, #3
 800135a:	e0c5      	b.n	80014e8 <HAL_RCC_OscConfig+0x4dc>
      while(__HAL_RCC_GET_FLAG(RCC_FLAG_LSERDY) == RESET)
 800135c:	4b65      	ldr	r3, [pc, #404]	; (80014f4 <HAL_RCC_OscConfig+0x4e8>)
 800135e:	6f1b      	ldr	r3, [r3, #112]	; 0x70
 8001360:	f003 0302 	and.w	r3, r3, #2
 8001364:	2b00      	cmp	r3, #0
 8001366:	d0ee      	beq.n	8001346 <HAL_RCC_OscConfig+0x33a>
 8001368:	e014      	b.n	8001394 <HAL_RCC_OscConfig+0x388>
      }
    }
    else
    {
      /* Get Start Tick */
      tickstart = HAL_GetTick();
 800136a:	f7ff fb91 	bl	8000a90 <HAL_GetTick>
 800136e:	6138      	str	r0, [r7, #16]

      /* Wait till LSE is ready */
      while(__HAL_RCC_GET_FLAG(RCC_FLAG_LSERDY) != RESET)
 8001370:	e00a      	b.n	8001388 <HAL_RCC_OscConfig+0x37c>
      {
        if((HAL_GetTick() - tickstart ) > RCC_LSE_TIMEOUT_VALUE)
 8001372:	f7ff fb8d 	bl	8000a90 <HAL_GetTick>
 8001376:	4602      	mov	r2, r0
 8001378:	693b      	ldr	r3, [r7, #16]
 800137a:	1ad3      	subs	r3, r2, r3
 800137c:	f241 3288 	movw	r2, #5000	; 0x1388
 8001380:	4293      	cmp	r3, r2
 8001382:	d901      	bls.n	8001388 <HAL_RCC_OscConfig+0x37c>
        {
          return HAL_TIMEOUT;
 8001384:	2303      	movs	r3, #3
 8001386:	e0af      	b.n	80014e8 <HAL_RCC_OscConfig+0x4dc>
      while(__HAL_RCC_GET_FLAG(RCC_FLAG_LSERDY) != RESET)
 8001388:	4b5a      	ldr	r3, [pc, #360]	; (80014f4 <HAL_RCC_OscConfig+0x4e8>)
 800138a:	6f1b      	ldr	r3, [r3, #112]	; 0x70
 800138c:	f003 0302 	and.w	r3, r3, #2
 8001390:	2b00      	cmp	r3, #0
 8001392:	d1ee      	bne.n	8001372 <HAL_RCC_OscConfig+0x366>
        }
      }
    }

    /* Restore clock configuration if changed */
    if(pwrclkchanged == SET)
 8001394:	7dfb      	ldrb	r3, [r7, #23]
 8001396:	2b01      	cmp	r3, #1
 8001398:	d105      	bne.n	80013a6 <HAL_RCC_OscConfig+0x39a>
    {
      __HAL_RCC_PWR_CLK_DISABLE();
 800139a:	4b56      	ldr	r3, [pc, #344]	; (80014f4 <HAL_RCC_OscConfig+0x4e8>)
 800139c:	6c1b      	ldr	r3, [r3, #64]	; 0x40
 800139e:	4a55      	ldr	r2, [pc, #340]	; (80014f4 <HAL_RCC_OscConfig+0x4e8>)
 80013a0:	f023 5380 	bic.w	r3, r3, #268435456	; 0x10000000
 80013a4:	6413      	str	r3, [r2, #64]	; 0x40
    }
  }
  /*-------------------------------- PLL Configuration -----------------------*/
  /* Check the parameters */
  assert_param(IS_RCC_PLL(RCC_OscInitStruct->PLL.PLLState));
  if ((RCC_OscInitStruct->PLL.PLLState) != RCC_PLL_NONE)
 80013a6:	687b      	ldr	r3, [r7, #4]
 80013a8:	699b      	ldr	r3, [r3, #24]
 80013aa:	2b00      	cmp	r3, #0
 80013ac:	f000 809b 	beq.w	80014e6 <HAL_RCC_OscConfig+0x4da>
  {
    /* Check if the PLL is used as system clock or not */
    if(__HAL_RCC_GET_SYSCLK_SOURCE() != RCC_CFGR_SWS_PLL)
 80013b0:	4b50      	ldr	r3, [pc, #320]	; (80014f4 <HAL_RCC_OscConfig+0x4e8>)
 80013b2:	689b      	ldr	r3, [r3, #8]
 80013b4:	f003 030c 	and.w	r3, r3, #12
 80013b8:	2b08      	cmp	r3, #8
 80013ba:	d05c      	beq.n	8001476 <HAL_RCC_OscConfig+0x46a>
    {
      if((RCC_OscInitStruct->PLL.PLLState) == RCC_PLL_ON)
 80013bc:	687b      	ldr	r3, [r7, #4]
 80013be:	699b      	ldr	r3, [r3, #24]
 80013c0:	2b02      	cmp	r3, #2
 80013c2:	d141      	bne.n	8001448 <HAL_RCC_OscConfig+0x43c>
        assert_param(IS_RCC_PLLN_VALUE(RCC_OscInitStruct->PLL.PLLN));
        assert_param(IS_RCC_PLLP_VALUE(RCC_OscInitStruct->PLL.PLLP));
        assert_param(IS_RCC_PLLQ_VALUE(RCC_OscInitStruct->PLL.PLLQ));

        /* Disable the main PLL. */
        __HAL_RCC_PLL_DISABLE();
 80013c4:	4b4c      	ldr	r3, [pc, #304]	; (80014f8 <HAL_RCC_OscConfig+0x4ec>)
 80013c6:	2200      	movs	r2, #0
 80013c8:	601a      	str	r2, [r3, #0]

        /* Get Start Tick */
        tickstart = HAL_GetTick();
 80013ca:	f7ff fb61 	bl	8000a90 <HAL_GetTick>
 80013ce:	6138      	str	r0, [r7, #16]

        /* Wait till PLL is ready */
        while(__HAL_RCC_GET_FLAG(RCC_FLAG_PLLRDY) != RESET)
 80013d0:	e008      	b.n	80013e4 <HAL_RCC_OscConfig+0x3d8>
        {
          if((HAL_GetTick() - tickstart ) > PLL_TIMEOUT_VALUE)
 80013d2:	f7ff fb5d 	bl	8000a90 <HAL_GetTick>
 80013d6:	4602      	mov	r2, r0
 80013d8:	693b      	ldr	r3, [r7, #16]
 80013da:	1ad3      	subs	r3, r2, r3
 80013dc:	2b02      	cmp	r3, #2
 80013de:	d901      	bls.n	80013e4 <HAL_RCC_OscConfig+0x3d8>
          {
            return HAL_TIMEOUT;
 80013e0:	2303      	movs	r3, #3
 80013e2:	e081      	b.n	80014e8 <HAL_RCC_OscConfig+0x4dc>
        while(__HAL_RCC_GET_FLAG(RCC_FLAG_PLLRDY) != RESET)
 80013e4:	4b43      	ldr	r3, [pc, #268]	; (80014f4 <HAL_RCC_OscConfig+0x4e8>)
 80013e6:	681b      	ldr	r3, [r3, #0]
 80013e8:	f003 7300 	and.w	r3, r3, #33554432	; 0x2000000
 80013ec:	2b00      	cmp	r3, #0
 80013ee:	d1f0      	bne.n	80013d2 <HAL_RCC_OscConfig+0x3c6>
          }
        }

        /* Configure the main PLL clock source, multiplication and division factors. */
        WRITE_REG(RCC->PLLCFGR, (RCC_OscInitStruct->PLL.PLLSource                                            | \
 80013f0:	687b      	ldr	r3, [r7, #4]
 80013f2:	69da      	ldr	r2, [r3, #28]
 80013f4:	687b      	ldr	r3, [r7, #4]
 80013f6:	6a1b      	ldr	r3, [r3, #32]
 80013f8:	431a      	orrs	r2, r3
 80013fa:	687b      	ldr	r3, [r7, #4]
 80013fc:	6a5b      	ldr	r3, [r3, #36]	; 0x24
 80013fe:	019b      	lsls	r3, r3, #6
 8001400:	431a      	orrs	r2, r3
 8001402:	687b      	ldr	r3, [r7, #4]
 8001404:	6a9b      	ldr	r3, [r3, #40]	; 0x28
 8001406:	085b      	lsrs	r3, r3, #1
 8001408:	3b01      	subs	r3, #1
 800140a:	041b      	lsls	r3, r3, #16
 800140c:	431a      	orrs	r2, r3
 800140e:	687b      	ldr	r3, [r7, #4]
 8001410:	6adb      	ldr	r3, [r3, #44]	; 0x2c
 8001412:	061b      	lsls	r3, r3, #24
 8001414:	4937      	ldr	r1, [pc, #220]	; (80014f4 <HAL_RCC_OscConfig+0x4e8>)
 8001416:	4313      	orrs	r3, r2
 8001418:	604b      	str	r3, [r1, #4]
                                 RCC_OscInitStruct->PLL.PLLM                                                 | \
                                 (RCC_OscInitStruct->PLL.PLLN << RCC_PLLCFGR_PLLN_Pos)             | \
                                 (((RCC_OscInitStruct->PLL.PLLP >> 1U) - 1U) << RCC_PLLCFGR_PLLP_Pos) | \
                                 (RCC_OscInitStruct->PLL.PLLQ << RCC_PLLCFGR_PLLQ_Pos)));
        /* Enable the main PLL. */
        __HAL_RCC_PLL_ENABLE();
 800141a:	4b37      	ldr	r3, [pc, #220]	; (80014f8 <HAL_RCC_OscConfig+0x4ec>)
 800141c:	2201      	movs	r2, #1
 800141e:	601a      	str	r2, [r3, #0]

        /* Get Start Tick */
        tickstart = HAL_GetTick();
 8001420:	f7ff fb36 	bl	8000a90 <HAL_GetTick>
 8001424:	6138      	str	r0, [r7, #16]

        /* Wait till PLL is ready */
        while(__HAL_RCC_GET_FLAG(RCC_FLAG_PLLRDY) == RESET)
 8001426:	e008      	b.n	800143a <HAL_RCC_OscConfig+0x42e>
        {
          if((HAL_GetTick() - tickstart ) > PLL_TIMEOUT_VALUE)
 8001428:	f7ff fb32 	bl	8000a90 <HAL_GetTick>
 800142c:	4602      	mov	r2, r0
 800142e:	693b      	ldr	r3, [r7, #16]
 8001430:	1ad3      	subs	r3, r2, r3
 8001432:	2b02      	cmp	r3, #2
 8001434:	d901      	bls.n	800143a <HAL_RCC_OscConfig+0x42e>
          {
            return HAL_TIMEOUT;
 8001436:	2303      	movs	r3, #3
 8001438:	e056      	b.n	80014e8 <HAL_RCC_OscConfig+0x4dc>
        while(__HAL_RCC_GET_FLAG(RCC_FLAG_PLLRDY) == RESET)
 800143a:	4b2e      	ldr	r3, [pc, #184]	; (80014f4 <HAL_RCC_OscConfig+0x4e8>)
 800143c:	681b      	ldr	r3, [r3, #0]
 800143e:	f003 7300 	and.w	r3, r3, #33554432	; 0x2000000
 8001442:	2b00      	cmp	r3, #0
 8001444:	d0f0      	beq.n	8001428 <HAL_RCC_OscConfig+0x41c>
 8001446:	e04e      	b.n	80014e6 <HAL_RCC_OscConfig+0x4da>
        }
      }
      else
      {
        /* Disable the main PLL. */
        __HAL_RCC_PLL_DISABLE();
 8001448:	4b2b      	ldr	r3, [pc, #172]	; (80014f8 <HAL_RCC_OscConfig+0x4ec>)
 800144a:	2200      	movs	r2, #0
 800144c:	601a      	str	r2, [r3, #0]

        /* Get Start Tick */
        tickstart = HAL_GetTick();
 800144e:	f7ff fb1f 	bl	8000a90 <HAL_GetTick>
 8001452:	6138      	str	r0, [r7, #16]

        /* Wait till PLL is ready */
        while(__HAL_RCC_GET_FLAG(RCC_FLAG_PLLRDY) != RESET)
 8001454:	e008      	b.n	8001468 <HAL_RCC_OscConfig+0x45c>
        {
          if((HAL_GetTick() - tickstart ) > PLL_TIMEOUT_VALUE)
 8001456:	f7ff fb1b 	bl	8000a90 <HAL_GetTick>
 800145a:	4602      	mov	r2, r0
 800145c:	693b      	ldr	r3, [r7, #16]
 800145e:	1ad3      	subs	r3, r2, r3
 8001460:	2b02      	cmp	r3, #2
 8001462:	d901      	bls.n	8001468 <HAL_RCC_OscConfig+0x45c>
          {
            return HAL_TIMEOUT;
 8001464:	2303      	movs	r3, #3
 8001466:	e03f      	b.n	80014e8 <HAL_RCC_OscConfig+0x4dc>
        while(__HAL_RCC_GET_FLAG(RCC_FLAG_PLLRDY) != RESET)
 8001468:	4b22      	ldr	r3, [pc, #136]	; (80014f4 <HAL_RCC_OscConfig+0x4e8>)
 800146a:	681b      	ldr	r3, [r3, #0]
 800146c:	f003 7300 	and.w	r3, r3, #33554432	; 0x2000000
 8001470:	2b00      	cmp	r3, #0
 8001472:	d1f0      	bne.n	8001456 <HAL_RCC_OscConfig+0x44a>
 8001474:	e037      	b.n	80014e6 <HAL_RCC_OscConfig+0x4da>
      }
    }
    else
    {
      /* Check if there is a request to disable the PLL used as System clock source */
      if((RCC_OscInitStruct->PLL.PLLState) == RCC_PLL_OFF)
 8001476:	687b      	ldr	r3, [r7, #4]
 8001478:	699b      	ldr	r3, [r3, #24]
 800147a:	2b01      	cmp	r3, #1
 800147c:	d101      	bne.n	8001482 <HAL_RCC_OscConfig+0x476>
      {
        return HAL_ERROR;
 800147e:	2301      	movs	r3, #1
 8001480:	e032      	b.n	80014e8 <HAL_RCC_OscConfig+0x4dc>
      }
      else
      {
        /* Do not return HAL_ERROR if request repeats the current configuration */
        pll_config = RCC->PLLCFGR;
 8001482:	4b1c      	ldr	r3, [pc, #112]	; (80014f4 <HAL_RCC_OscConfig+0x4e8>)
 8001484:	685b      	ldr	r3, [r3, #4]
 8001486:	60fb      	str	r3, [r7, #12]
            (READ_BIT(pll_config, RCC_PLLCFGR_PLLN) != (RCC_OscInitStruct->PLL.PLLN) << RCC_PLLCFGR_PLLN_Pos) ||
            (READ_BIT(pll_config, RCC_PLLCFGR_PLLP) != (((RCC_OscInitStruct->PLL.PLLP >> 1U) - 1U)) << RCC_PLLCFGR_PLLP_Pos) ||
            (READ_BIT(pll_config, RCC_PLLCFGR_PLLQ) != (RCC_OscInitStruct->PLL.PLLQ << RCC_PLLCFGR_PLLQ_Pos)) ||
            (READ_BIT(pll_config, RCC_PLLCFGR_PLLR) != (RCC_OscInitStruct->PLL.PLLR << RCC_PLLCFGR_PLLR_Pos)))
#else
        if (((RCC_OscInitStruct->PLL.PLLState) == RCC_PLL_OFF) ||
 8001488:	687b      	ldr	r3, [r7, #4]
 800148a:	699b      	ldr	r3, [r3, #24]
 800148c:	2b01      	cmp	r3, #1
 800148e:	d028      	beq.n	80014e2 <HAL_RCC_OscConfig+0x4d6>
            (READ_BIT(pll_config, RCC_PLLCFGR_PLLSRC) != RCC_OscInitStruct->PLL.PLLSource) ||
 8001490:	68fb      	ldr	r3, [r7, #12]
 8001492:	f403 0280 	and.w	r2, r3, #4194304	; 0x400000
 8001496:	687b      	ldr	r3, [r7, #4]
 8001498:	69db      	ldr	r3, [r3, #28]
        if (((RCC_OscInitStruct->PLL.PLLState) == RCC_PLL_OFF) ||
 800149a:	429a      	cmp	r2, r3
 800149c:	d121      	bne.n	80014e2 <HAL_RCC_OscConfig+0x4d6>
            (READ_BIT(pll_config, RCC_PLLCFGR_PLLM) != (RCC_OscInitStruct->PLL.PLLM) << RCC_PLLCFGR_PLLM_Pos) ||
 800149e:	68fb      	ldr	r3, [r7, #12]
 80014a0:	f003 023f 	and.w	r2, r3, #63	; 0x3f
 80014a4:	687b      	ldr	r3, [r7, #4]
 80014a6:	6a1b      	ldr	r3, [r3, #32]
            (READ_BIT(pll_config, RCC_PLLCFGR_PLLSRC) != RCC_OscInitStruct->PLL.PLLSource) ||
 80014a8:	429a      	cmp	r2, r3
 80014aa:	d11a      	bne.n	80014e2 <HAL_RCC_OscConfig+0x4d6>
            (READ_BIT(pll_config, RCC_PLLCFGR_PLLN) != (RCC_OscInitStruct->PLL.PLLN) << RCC_PLLCFGR_PLLN_Pos) ||
 80014ac:	68fa      	ldr	r2, [r7, #12]
 80014ae:	f647 73c0 	movw	r3, #32704	; 0x7fc0
 80014b2:	4013      	ands	r3, r2
 80014b4:	687a      	ldr	r2, [r7, #4]
 80014b6:	6a52      	ldr	r2, [r2, #36]	; 0x24
 80014b8:	0192      	lsls	r2, r2, #6
            (READ_BIT(pll_config, RCC_PLLCFGR_PLLM) != (RCC_OscInitStruct->PLL.PLLM) << RCC_PLLCFGR_PLLM_Pos) ||
 80014ba:	4293      	cmp	r3, r2
 80014bc:	d111      	bne.n	80014e2 <HAL_RCC_OscConfig+0x4d6>
            (READ_BIT(pll_config, RCC_PLLCFGR_PLLP) != (((RCC_OscInitStruct->PLL.PLLP >> 1U) - 1U)) << RCC_PLLCFGR_PLLP_Pos) ||
 80014be:	68fb      	ldr	r3, [r7, #12]
 80014c0:	f403 3240 	and.w	r2, r3, #196608	; 0x30000
 80014c4:	687b      	ldr	r3, [r7, #4]
 80014c6:	6a9b      	ldr	r3, [r3, #40]	; 0x28
 80014c8:	085b      	lsrs	r3, r3, #1
 80014ca:	3b01      	subs	r3, #1
 80014cc:	041b      	lsls	r3, r3, #16
            (READ_BIT(pll_config, RCC_PLLCFGR_PLLN) != (RCC_OscInitStruct->PLL.PLLN) << RCC_PLLCFGR_PLLN_Pos) ||
 80014ce:	429a      	cmp	r2, r3
 80014d0:	d107      	bne.n	80014e2 <HAL_RCC_OscConfig+0x4d6>
            (READ_BIT(pll_config, RCC_PLLCFGR_PLLQ) != (RCC_OscInitStruct->PLL.PLLQ << RCC_PLLCFGR_PLLQ_Pos)))
 80014d2:	68fb      	ldr	r3, [r7, #12]
 80014d4:	f003 6270 	and.w	r2, r3, #251658240	; 0xf000000
 80014d8:	687b      	ldr	r3, [r7, #4]
 80014da:	6adb      	ldr	r3, [r3, #44]	; 0x2c
 80014dc:	061b      	lsls	r3, r3, #24
            (READ_BIT(pll_config, RCC_PLLCFGR_PLLP) != (((RCC_OscInitStruct->PLL.PLLP >> 1U) - 1U)) << RCC_PLLCFGR_PLLP_Pos) ||
 80014de:	429a      	cmp	r2, r3
 80014e0:	d001      	beq.n	80014e6 <HAL_RCC_OscConfig+0x4da>
#endif
        {
          return HAL_ERROR;
 80014e2:	2301      	movs	r3, #1
 80014e4:	e000      	b.n	80014e8 <HAL_RCC_OscConfig+0x4dc>
        }
      }
    }
  }
  return HAL_OK;
 80014e6:	2300      	movs	r3, #0
}
 80014e8:	4618      	mov	r0, r3
 80014ea:	3718      	adds	r7, #24
 80014ec:	46bd      	mov	sp, r7
 80014ee:	bd80      	pop	{r7, pc}
 80014f0:	40007000 	.word	0x40007000
 80014f4:	40023800 	.word	0x40023800
 80014f8:	42470060 	.word	0x42470060

080014fc <HAL_RCC_ClockConfig>:
  *         HPRE[3:0] bits to ensure that HCLK not exceed the maximum allowed frequency
  *         (for more details refer to section above "Initialization/de-initialization functions")
  * @retval None
  */
HAL_StatusTypeDef HAL_RCC_ClockConfig(RCC_ClkInitTypeDef  *RCC_ClkInitStruct, uint32_t FLatency)
{
 80014fc:	b580      	push	{r7, lr}
 80014fe:	b084      	sub	sp, #16
 8001500:	af00      	add	r7, sp, #0
 8001502:	6078      	str	r0, [r7, #4]
 8001504:	6039      	str	r1, [r7, #0]
  uint32_t tickstart;

  /* Check Null pointer */
  if(RCC_ClkInitStruct == NULL)
 8001506:	687b      	ldr	r3, [r7, #4]
 8001508:	2b00      	cmp	r3, #0
 800150a:	d101      	bne.n	8001510 <HAL_RCC_ClockConfig+0x14>
  {
    return HAL_ERROR;
 800150c:	2301      	movs	r3, #1
 800150e:	e0cc      	b.n	80016aa <HAL_RCC_ClockConfig+0x1ae>
  /* To correctly read data from FLASH memory, the number of wait states (LATENCY)
    must be correctly programmed according to the frequency of the CPU clock
    (HCLK) and the supply voltage of the device. */

  /* Increasing the number of wait states because of higher CPU frequency */
  if(FLatency > __HAL_FLASH_GET_LATENCY())
 8001510:	4b68      	ldr	r3, [pc, #416]	; (80016b4 <HAL_RCC_ClockConfig+0x1b8>)
 8001512:	681b      	ldr	r3, [r3, #0]
 8001514:	f003 0307 	and.w	r3, r3, #7
 8001518:	683a      	ldr	r2, [r7, #0]
 800151a:	429a      	cmp	r2, r3
 800151c:	d90c      	bls.n	8001538 <HAL_RCC_ClockConfig+0x3c>
  {
    /* Program the new number of wait states to the LATENCY bits in the FLASH_ACR register */
    __HAL_FLASH_SET_LATENCY(FLatency);
 800151e:	4b65      	ldr	r3, [pc, #404]	; (80016b4 <HAL_RCC_ClockConfig+0x1b8>)
 8001520:	683a      	ldr	r2, [r7, #0]
 8001522:	b2d2      	uxtb	r2, r2
 8001524:	701a      	strb	r2, [r3, #0]

    /* Check that the new number of wait states is taken into account to access the Flash
    memory by reading the FLASH_ACR register */
    if(__HAL_FLASH_GET_LATENCY() != FLatency)
 8001526:	4b63      	ldr	r3, [pc, #396]	; (80016b4 <HAL_RCC_ClockConfig+0x1b8>)
 8001528:	681b      	ldr	r3, [r3, #0]
 800152a:	f003 0307 	and.w	r3, r3, #7
 800152e:	683a      	ldr	r2, [r7, #0]
 8001530:	429a      	cmp	r2, r3
 8001532:	d001      	beq.n	8001538 <HAL_RCC_ClockConfig+0x3c>
    {
      return HAL_ERROR;
 8001534:	2301      	movs	r3, #1
 8001536:	e0b8      	b.n	80016aa <HAL_RCC_ClockConfig+0x1ae>
    }
  }

  /*-------------------------- HCLK Configuration --------------------------*/
  if(((RCC_ClkInitStruct->ClockType) & RCC_CLOCKTYPE_HCLK) == RCC_CLOCKTYPE_HCLK)
 8001538:	687b      	ldr	r3, [r7, #4]
 800153a:	681b      	ldr	r3, [r3, #0]
 800153c:	f003 0302 	and.w	r3, r3, #2
 8001540:	2b00      	cmp	r3, #0
 8001542:	d020      	beq.n	8001586 <HAL_RCC_ClockConfig+0x8a>
  {
    /* Set the highest APBx dividers in order to ensure that we do not go through
       a non-spec phase whatever we decrease or increase HCLK. */
    if(((RCC_ClkInitStruct->ClockType) & RCC_CLOCKTYPE_PCLK1) == RCC_CLOCKTYPE_PCLK1)
 8001544:	687b      	ldr	r3, [r7, #4]
 8001546:	681b      	ldr	r3, [r3, #0]
 8001548:	f003 0304 	and.w	r3, r3, #4
 800154c:	2b00      	cmp	r3, #0
 800154e:	d005      	beq.n	800155c <HAL_RCC_ClockConfig+0x60>
    {
      MODIFY_REG(RCC->CFGR, RCC_CFGR_PPRE1, RCC_HCLK_DIV16);
 8001550:	4b59      	ldr	r3, [pc, #356]	; (80016b8 <HAL_RCC_ClockConfig+0x1bc>)
 8001552:	689b      	ldr	r3, [r3, #8]
 8001554:	4a58      	ldr	r2, [pc, #352]	; (80016b8 <HAL_RCC_ClockConfig+0x1bc>)
 8001556:	f443 53e0 	orr.w	r3, r3, #7168	; 0x1c00
 800155a:	6093      	str	r3, [r2, #8]
    }

    if(((RCC_ClkInitStruct->ClockType) & RCC_CLOCKTYPE_PCLK2) == RCC_CLOCKTYPE_PCLK2)
 800155c:	687b      	ldr	r3, [r7, #4]
 800155e:	681b      	ldr	r3, [r3, #0]
 8001560:	f003 0308 	and.w	r3, r3, #8
 8001564:	2b00      	cmp	r3, #0
 8001566:	d005      	beq.n	8001574 <HAL_RCC_ClockConfig+0x78>
    {
      MODIFY_REG(RCC->CFGR, RCC_CFGR_PPRE2, (RCC_HCLK_DIV16 << 3));
 8001568:	4b53      	ldr	r3, [pc, #332]	; (80016b8 <HAL_RCC_ClockConfig+0x1bc>)
 800156a:	689b      	ldr	r3, [r3, #8]
 800156c:	4a52      	ldr	r2, [pc, #328]	; (80016b8 <HAL_RCC_ClockConfig+0x1bc>)
 800156e:	f443 4360 	orr.w	r3, r3, #57344	; 0xe000
 8001572:	6093      	str	r3, [r2, #8]
    }

    assert_param(IS_RCC_HCLK(RCC_ClkInitStruct->AHBCLKDivider));
    MODIFY_REG(RCC->CFGR, RCC_CFGR_HPRE, RCC_ClkInitStruct->AHBCLKDivider);
 8001574:	4b50      	ldr	r3, [pc, #320]	; (80016b8 <HAL_RCC_ClockConfig+0x1bc>)
 8001576:	689b      	ldr	r3, [r3, #8]
 8001578:	f023 02f0 	bic.w	r2, r3, #240	; 0xf0
 800157c:	687b      	ldr	r3, [r7, #4]
 800157e:	689b      	ldr	r3, [r3, #8]
 8001580:	494d      	ldr	r1, [pc, #308]	; (80016b8 <HAL_RCC_ClockConfig+0x1bc>)
 8001582:	4313      	orrs	r3, r2
 8001584:	608b      	str	r3, [r1, #8]
  }

  /*------------------------- SYSCLK Configuration ---------------------------*/
  if(((RCC_ClkInitStruct->ClockType) & RCC_CLOCKTYPE_SYSCLK) == RCC_CLOCKTYPE_SYSCLK)
 8001586:	687b      	ldr	r3, [r7, #4]
 8001588:	681b      	ldr	r3, [r3, #0]
 800158a:	f003 0301 	and.w	r3, r3, #1
 800158e:	2b00      	cmp	r3, #0
 8001590:	d044      	beq.n	800161c <HAL_RCC_ClockConfig+0x120>
  {
    assert_param(IS_RCC_SYSCLKSOURCE(RCC_ClkInitStruct->SYSCLKSource));

    /* HSE is selected as System Clock Source */
    if(RCC_ClkInitStruct->SYSCLKSource == RCC_SYSCLKSOURCE_HSE)
 8001592:	687b      	ldr	r3, [r7, #4]
 8001594:	685b      	ldr	r3, [r3, #4]
 8001596:	2b01      	cmp	r3, #1
 8001598:	d107      	bne.n	80015aa <HAL_RCC_ClockConfig+0xae>
    {
      /* Check the HSE ready flag */
      if(__HAL_RCC_GET_FLAG(RCC_FLAG_HSERDY) == RESET)
 800159a:	4b47      	ldr	r3, [pc, #284]	; (80016b8 <HAL_RCC_ClockConfig+0x1bc>)
 800159c:	681b      	ldr	r3, [r3, #0]
 800159e:	f403 3300 	and.w	r3, r3, #131072	; 0x20000
 80015a2:	2b00      	cmp	r3, #0
 80015a4:	d119      	bne.n	80015da <HAL_RCC_ClockConfig+0xde>
      {
        return HAL_ERROR;
 80015a6:	2301      	movs	r3, #1
 80015a8:	e07f      	b.n	80016aa <HAL_RCC_ClockConfig+0x1ae>
      }
    }
    /* PLL is selected as System Clock Source */
    else if((RCC_ClkInitStruct->SYSCLKSource == RCC_SYSCLKSOURCE_PLLCLK)   ||
 80015aa:	687b      	ldr	r3, [r7, #4]
 80015ac:	685b      	ldr	r3, [r3, #4]
 80015ae:	2b02      	cmp	r3, #2
 80015b0:	d003      	beq.n	80015ba <HAL_RCC_ClockConfig+0xbe>
            (RCC_ClkInitStruct->SYSCLKSource == RCC_SYSCLKSOURCE_PLLRCLK))
 80015b2:	687b      	ldr	r3, [r7, #4]
 80015b4:	685b      	ldr	r3, [r3, #4]
    else if((RCC_ClkInitStruct->SYSCLKSource == RCC_SYSCLKSOURCE_PLLCLK)   ||
 80015b6:	2b03      	cmp	r3, #3
 80015b8:	d107      	bne.n	80015ca <HAL_RCC_ClockConfig+0xce>
    {
      /* Check the PLL ready flag */
      if(__HAL_RCC_GET_FLAG(RCC_FLAG_PLLRDY) == RESET)
 80015ba:	4b3f      	ldr	r3, [pc, #252]	; (80016b8 <HAL_RCC_ClockConfig+0x1bc>)
 80015bc:	681b      	ldr	r3, [r3, #0]
 80015be:	f003 7300 	and.w	r3, r3, #33554432	; 0x2000000
 80015c2:	2b00      	cmp	r3, #0
 80015c4:	d109      	bne.n	80015da <HAL_RCC_ClockConfig+0xde>
      {
        return HAL_ERROR;
 80015c6:	2301      	movs	r3, #1
 80015c8:	e06f      	b.n	80016aa <HAL_RCC_ClockConfig+0x1ae>
    }
    /* HSI is selected as System Clock Source */
    else
    {
      /* Check the HSI ready flag */
      if(__HAL_RCC_GET_FLAG(RCC_FLAG_HSIRDY) == RESET)
 80015ca:	4b3b      	ldr	r3, [pc, #236]	; (80016b8 <HAL_RCC_ClockConfig+0x1bc>)
 80015cc:	681b      	ldr	r3, [r3, #0]
 80015ce:	f003 0302 	and.w	r3, r3, #2
 80015d2:	2b00      	cmp	r3, #0
 80015d4:	d101      	bne.n	80015da <HAL_RCC_ClockConfig+0xde>
      {
        return HAL_ERROR;
 80015d6:	2301      	movs	r3, #1
 80015d8:	e067      	b.n	80016aa <HAL_RCC_ClockConfig+0x1ae>
      }
    }

    __HAL_RCC_SYSCLK_CONFIG(RCC_ClkInitStruct->SYSCLKSource);
 80015da:	4b37      	ldr	r3, [pc, #220]	; (80016b8 <HAL_RCC_ClockConfig+0x1bc>)
 80015dc:	689b      	ldr	r3, [r3, #8]
 80015de:	f023 0203 	bic.w	r2, r3, #3
 80015e2:	687b      	ldr	r3, [r7, #4]
 80015e4:	685b      	ldr	r3, [r3, #4]
 80015e6:	4934      	ldr	r1, [pc, #208]	; (80016b8 <HAL_RCC_ClockConfig+0x1bc>)
 80015e8:	4313      	orrs	r3, r2
 80015ea:	608b      	str	r3, [r1, #8]

    /* Get Start Tick */
    tickstart = HAL_GetTick();
 80015ec:	f7ff fa50 	bl	8000a90 <HAL_GetTick>
 80015f0:	60f8      	str	r0, [r7, #12]

    while (__HAL_RCC_GET_SYSCLK_SOURCE() != (RCC_ClkInitStruct->SYSCLKSource << RCC_CFGR_SWS_Pos))
 80015f2:	e00a      	b.n	800160a <HAL_RCC_ClockConfig+0x10e>
    {
      if ((HAL_GetTick() - tickstart) > CLOCKSWITCH_TIMEOUT_VALUE)
 80015f4:	f7ff fa4c 	bl	8000a90 <HAL_GetTick>
 80015f8:	4602      	mov	r2, r0
 80015fa:	68fb      	ldr	r3, [r7, #12]
 80015fc:	1ad3      	subs	r3, r2, r3
 80015fe:	f241 3288 	movw	r2, #5000	; 0x1388
 8001602:	4293      	cmp	r3, r2
 8001604:	d901      	bls.n	800160a <HAL_RCC_ClockConfig+0x10e>
      {
        return HAL_TIMEOUT;
 8001606:	2303      	movs	r3, #3
 8001608:	e04f      	b.n	80016aa <HAL_RCC_ClockConfig+0x1ae>
    while (__HAL_RCC_GET_SYSCLK_SOURCE() != (RCC_ClkInitStruct->SYSCLKSource << RCC_CFGR_SWS_Pos))
 800160a:	4b2b      	ldr	r3, [pc, #172]	; (80016b8 <HAL_RCC_ClockConfig+0x1bc>)
 800160c:	689b      	ldr	r3, [r3, #8]
 800160e:	f003 020c 	and.w	r2, r3, #12
 8001612:	687b      	ldr	r3, [r7, #4]
 8001614:	685b      	ldr	r3, [r3, #4]
 8001616:	009b      	lsls	r3, r3, #2
 8001618:	429a      	cmp	r2, r3
 800161a:	d1eb      	bne.n	80015f4 <HAL_RCC_ClockConfig+0xf8>
      }
    }
  }

  /* Decreasing the number of wait states because of lower CPU frequency */
  if(FLatency < __HAL_FLASH_GET_LATENCY())
 800161c:	4b25      	ldr	r3, [pc, #148]	; (80016b4 <HAL_RCC_ClockConfig+0x1b8>)
 800161e:	681b      	ldr	r3, [r3, #0]
 8001620:	f003 0307 	and.w	r3, r3, #7
 8001624:	683a      	ldr	r2, [r7, #0]
 8001626:	429a      	cmp	r2, r3
 8001628:	d20c      	bcs.n	8001644 <HAL_RCC_ClockConfig+0x148>
  {
     /* Program the new number of wait states to the LATENCY bits in the FLASH_ACR register */
    __HAL_FLASH_SET_LATENCY(FLatency);
 800162a:	4b22      	ldr	r3, [pc, #136]	; (80016b4 <HAL_RCC_ClockConfig+0x1b8>)
 800162c:	683a      	ldr	r2, [r7, #0]
 800162e:	b2d2      	uxtb	r2, r2
 8001630:	701a      	strb	r2, [r3, #0]

    /* Check that the new number of wait states is taken into account to access the Flash
    memory by reading the FLASH_ACR register */
    if(__HAL_FLASH_GET_LATENCY() != FLatency)
 8001632:	4b20      	ldr	r3, [pc, #128]	; (80016b4 <HAL_RCC_ClockConfig+0x1b8>)
 8001634:	681b      	ldr	r3, [r3, #0]
 8001636:	f003 0307 	and.w	r3, r3, #7
 800163a:	683a      	ldr	r2, [r7, #0]
 800163c:	429a      	cmp	r2, r3
 800163e:	d001      	beq.n	8001644 <HAL_RCC_ClockConfig+0x148>
    {
      return HAL_ERROR;
 8001640:	2301      	movs	r3, #1
 8001642:	e032      	b.n	80016aa <HAL_RCC_ClockConfig+0x1ae>
    }
  }

  /*-------------------------- PCLK1 Configuration ---------------------------*/
  if(((RCC_ClkInitStruct->ClockType) & RCC_CLOCKTYPE_PCLK1) == RCC_CLOCKTYPE_PCLK1)
 8001644:	687b      	ldr	r3, [r7, #4]
 8001646:	681b      	ldr	r3, [r3, #0]
 8001648:	f003 0304 	and.w	r3, r3, #4
 800164c:	2b00      	cmp	r3, #0
 800164e:	d008      	beq.n	8001662 <HAL_RCC_ClockConfig+0x166>
  {
    assert_param(IS_RCC_PCLK(RCC_ClkInitStruct->APB1CLKDivider));
    MODIFY_REG(RCC->CFGR, RCC_CFGR_PPRE1, RCC_ClkInitStruct->APB1CLKDivider);
 8001650:	4b19      	ldr	r3, [pc, #100]	; (80016b8 <HAL_RCC_ClockConfig+0x1bc>)
 8001652:	689b      	ldr	r3, [r3, #8]
 8001654:	f423 52e0 	bic.w	r2, r3, #7168	; 0x1c00
 8001658:	687b      	ldr	r3, [r7, #4]
 800165a:	68db      	ldr	r3, [r3, #12]
 800165c:	4916      	ldr	r1, [pc, #88]	; (80016b8 <HAL_RCC_ClockConfig+0x1bc>)
 800165e:	4313      	orrs	r3, r2
 8001660:	608b      	str	r3, [r1, #8]
  }

  /*-------------------------- PCLK2 Configuration ---------------------------*/
  if(((RCC_ClkInitStruct->ClockType) & RCC_CLOCKTYPE_PCLK2) == RCC_CLOCKTYPE_PCLK2)
 8001662:	687b      	ldr	r3, [r7, #4]
 8001664:	681b      	ldr	r3, [r3, #0]
 8001666:	f003 0308 	and.w	r3, r3, #8
 800166a:	2b00      	cmp	r3, #0
 800166c:	d009      	beq.n	8001682 <HAL_RCC_ClockConfig+0x186>
  {
    assert_param(IS_RCC_PCLK(RCC_ClkInitStruct->APB2CLKDivider));
    MODIFY_REG(RCC->CFGR, RCC_CFGR_PPRE2, ((RCC_ClkInitStruct->APB2CLKDivider) << 3U));
 800166e:	4b12      	ldr	r3, [pc, #72]	; (80016b8 <HAL_RCC_ClockConfig+0x1bc>)
 8001670:	689b      	ldr	r3, [r3, #8]
 8001672:	f423 4260 	bic.w	r2, r3, #57344	; 0xe000
 8001676:	687b      	ldr	r3, [r7, #4]
 8001678:	691b      	ldr	r3, [r3, #16]
 800167a:	00db      	lsls	r3, r3, #3
 800167c:	490e      	ldr	r1, [pc, #56]	; (80016b8 <HAL_RCC_ClockConfig+0x1bc>)
 800167e:	4313      	orrs	r3, r2
 8001680:	608b      	str	r3, [r1, #8]
  }

  /* Update the SystemCoreClock global variable */
  SystemCoreClock = HAL_RCC_GetSysClockFreq() >> AHBPrescTable[(RCC->CFGR & RCC_CFGR_HPRE)>> RCC_CFGR_HPRE_Pos];
 8001682:	f000 f821 	bl	80016c8 <HAL_RCC_GetSysClockFreq>
 8001686:	4602      	mov	r2, r0
 8001688:	4b0b      	ldr	r3, [pc, #44]	; (80016b8 <HAL_RCC_ClockConfig+0x1bc>)
 800168a:	689b      	ldr	r3, [r3, #8]
 800168c:	091b      	lsrs	r3, r3, #4
 800168e:	f003 030f 	and.w	r3, r3, #15
 8001692:	490a      	ldr	r1, [pc, #40]	; (80016bc <HAL_RCC_ClockConfig+0x1c0>)
 8001694:	5ccb      	ldrb	r3, [r1, r3]
 8001696:	fa22 f303 	lsr.w	r3, r2, r3
 800169a:	4a09      	ldr	r2, [pc, #36]	; (80016c0 <HAL_RCC_ClockConfig+0x1c4>)
 800169c:	6013      	str	r3, [r2, #0]

  /* Configure the source of time base considering new system clocks settings */
  HAL_InitTick (uwTickPrio);
 800169e:	4b09      	ldr	r3, [pc, #36]	; (80016c4 <HAL_RCC_ClockConfig+0x1c8>)
 80016a0:	681b      	ldr	r3, [r3, #0]
 80016a2:	4618      	mov	r0, r3
 80016a4:	f7ff f908 	bl	80008b8 <HAL_InitTick>

  return HAL_OK;
 80016a8:	2300      	movs	r3, #0
}
 80016aa:	4618      	mov	r0, r3
 80016ac:	3710      	adds	r7, #16
 80016ae:	46bd      	mov	sp, r7
 80016b0:	bd80      	pop	{r7, pc}
 80016b2:	bf00      	nop
 80016b4:	40023c00 	.word	0x40023c00
 80016b8:	40023800 	.word	0x40023800
 80016bc:	0800648c 	.word	0x0800648c
 80016c0:	20000000 	.word	0x20000000
 80016c4:	20000004 	.word	0x20000004

080016c8 <HAL_RCC_GetSysClockFreq>:
  *
  *
  * @retval SYSCLK frequency
  */
__weak uint32_t HAL_RCC_GetSysClockFreq(void)
{
 80016c8:	e92d 43b0 	stmdb	sp!, {r4, r5, r7, r8, r9, lr}
 80016cc:	b084      	sub	sp, #16
 80016ce:	af00      	add	r7, sp, #0
  uint32_t pllm = 0U, pllvco = 0U, pllp = 0U;
 80016d0:	2300      	movs	r3, #0
 80016d2:	607b      	str	r3, [r7, #4]
 80016d4:	2300      	movs	r3, #0
 80016d6:	60fb      	str	r3, [r7, #12]
 80016d8:	2300      	movs	r3, #0
 80016da:	603b      	str	r3, [r7, #0]
  uint32_t sysclockfreq = 0U;
 80016dc:	2300      	movs	r3, #0
 80016de:	60bb      	str	r3, [r7, #8]

  /* Get SYSCLK source -------------------------------------------------------*/
  switch (RCC->CFGR & RCC_CFGR_SWS)
 80016e0:	4b67      	ldr	r3, [pc, #412]	; (8001880 <HAL_RCC_GetSysClockFreq+0x1b8>)
 80016e2:	689b      	ldr	r3, [r3, #8]
 80016e4:	f003 030c 	and.w	r3, r3, #12
 80016e8:	2b08      	cmp	r3, #8
 80016ea:	d00d      	beq.n	8001708 <HAL_RCC_GetSysClockFreq+0x40>
 80016ec:	2b08      	cmp	r3, #8
 80016ee:	f200 80bd 	bhi.w	800186c <HAL_RCC_GetSysClockFreq+0x1a4>
 80016f2:	2b00      	cmp	r3, #0
 80016f4:	d002      	beq.n	80016fc <HAL_RCC_GetSysClockFreq+0x34>
 80016f6:	2b04      	cmp	r3, #4
 80016f8:	d003      	beq.n	8001702 <HAL_RCC_GetSysClockFreq+0x3a>
 80016fa:	e0b7      	b.n	800186c <HAL_RCC_GetSysClockFreq+0x1a4>
  {
    case RCC_CFGR_SWS_HSI:  /* HSI used as system clock source */
    {
      sysclockfreq = HSI_VALUE;
 80016fc:	4b61      	ldr	r3, [pc, #388]	; (8001884 <HAL_RCC_GetSysClockFreq+0x1bc>)
 80016fe:	60bb      	str	r3, [r7, #8]
       break;
 8001700:	e0b7      	b.n	8001872 <HAL_RCC_GetSysClockFreq+0x1aa>
    }
    case RCC_CFGR_SWS_HSE:  /* HSE used as system clock  source */
    {
      sysclockfreq = HSE_VALUE;
 8001702:	4b61      	ldr	r3, [pc, #388]	; (8001888 <HAL_RCC_GetSysClockFreq+0x1c0>)
 8001704:	60bb      	str	r3, [r7, #8]
      break;
 8001706:	e0b4      	b.n	8001872 <HAL_RCC_GetSysClockFreq+0x1aa>
    }
    case RCC_CFGR_SWS_PLL:  /* PLL used as system clock  source */
    {
      /* PLL_VCO = (HSE_VALUE or HSI_VALUE / PLLM) * PLLN
      SYSCLK = PLL_VCO / PLLP */
      pllm = RCC->PLLCFGR & RCC_PLLCFGR_PLLM;
 8001708:	4b5d      	ldr	r3, [pc, #372]	; (8001880 <HAL_RCC_GetSysClockFreq+0x1b8>)
 800170a:	685b      	ldr	r3, [r3, #4]
 800170c:	f003 033f 	and.w	r3, r3, #63	; 0x3f
 8001710:	607b      	str	r3, [r7, #4]
      if(__HAL_RCC_GET_PLL_OSCSOURCE() != RCC_PLLSOURCE_HSI)
 8001712:	4b5b      	ldr	r3, [pc, #364]	; (8001880 <HAL_RCC_GetSysClockFreq+0x1b8>)
 8001714:	685b      	ldr	r3, [r3, #4]
 8001716:	f403 0380 	and.w	r3, r3, #4194304	; 0x400000
 800171a:	2b00      	cmp	r3, #0
 800171c:	d04d      	beq.n	80017ba <HAL_RCC_GetSysClockFreq+0xf2>
      {
        /* HSE used as PLL clock source */
        pllvco = (uint32_t) ((((uint64_t) HSE_VALUE * ((uint64_t) ((RCC->PLLCFGR & RCC_PLLCFGR_PLLN) >> RCC_PLLCFGR_PLLN_Pos)))) / (uint64_t)pllm);
 800171e:	4b58      	ldr	r3, [pc, #352]	; (8001880 <HAL_RCC_GetSysClockFreq+0x1b8>)
 8001720:	685b      	ldr	r3, [r3, #4]
 8001722:	099b      	lsrs	r3, r3, #6
 8001724:	461a      	mov	r2, r3
 8001726:	f04f 0300 	mov.w	r3, #0
 800172a:	f240 10ff 	movw	r0, #511	; 0x1ff
 800172e:	f04f 0100 	mov.w	r1, #0
 8001732:	ea02 0800 	and.w	r8, r2, r0
 8001736:	ea03 0901 	and.w	r9, r3, r1
 800173a:	4640      	mov	r0, r8
 800173c:	4649      	mov	r1, r9
 800173e:	f04f 0200 	mov.w	r2, #0
 8001742:	f04f 0300 	mov.w	r3, #0
 8001746:	014b      	lsls	r3, r1, #5
 8001748:	ea43 63d0 	orr.w	r3, r3, r0, lsr #27
 800174c:	0142      	lsls	r2, r0, #5
 800174e:	4610      	mov	r0, r2
 8001750:	4619      	mov	r1, r3
 8001752:	ebb0 0008 	subs.w	r0, r0, r8
 8001756:	eb61 0109 	sbc.w	r1, r1, r9
 800175a:	f04f 0200 	mov.w	r2, #0
 800175e:	f04f 0300 	mov.w	r3, #0
 8001762:	018b      	lsls	r3, r1, #6
 8001764:	ea43 6390 	orr.w	r3, r3, r0, lsr #26
 8001768:	0182      	lsls	r2, r0, #6
 800176a:	1a12      	subs	r2, r2, r0
 800176c:	eb63 0301 	sbc.w	r3, r3, r1
 8001770:	f04f 0000 	mov.w	r0, #0
 8001774:	f04f 0100 	mov.w	r1, #0
 8001778:	00d9      	lsls	r1, r3, #3
 800177a:	ea41 7152 	orr.w	r1, r1, r2, lsr #29
 800177e:	00d0      	lsls	r0, r2, #3
 8001780:	4602      	mov	r2, r0
 8001782:	460b      	mov	r3, r1
 8001784:	eb12 0208 	adds.w	r2, r2, r8
 8001788:	eb43 0309 	adc.w	r3, r3, r9
 800178c:	f04f 0000 	mov.w	r0, #0
 8001790:	f04f 0100 	mov.w	r1, #0
 8001794:	0259      	lsls	r1, r3, #9
 8001796:	ea41 51d2 	orr.w	r1, r1, r2, lsr #23
 800179a:	0250      	lsls	r0, r2, #9
 800179c:	4602      	mov	r2, r0
 800179e:	460b      	mov	r3, r1
 80017a0:	4610      	mov	r0, r2
 80017a2:	4619      	mov	r1, r3
 80017a4:	687b      	ldr	r3, [r7, #4]
 80017a6:	461a      	mov	r2, r3
 80017a8:	f04f 0300 	mov.w	r3, #0
 80017ac:	f7fe fd5a 	bl	8000264 <__aeabi_uldivmod>
 80017b0:	4602      	mov	r2, r0
 80017b2:	460b      	mov	r3, r1
 80017b4:	4613      	mov	r3, r2
 80017b6:	60fb      	str	r3, [r7, #12]
 80017b8:	e04a      	b.n	8001850 <HAL_RCC_GetSysClockFreq+0x188>
      }
      else
      {
        /* HSI used as PLL clock source */
        pllvco = (uint32_t) ((((uint64_t) HSI_VALUE * ((uint64_t) ((RCC->PLLCFGR & RCC_PLLCFGR_PLLN) >> RCC_PLLCFGR_PLLN_Pos)))) / (uint64_t)pllm);
 80017ba:	4b31      	ldr	r3, [pc, #196]	; (8001880 <HAL_RCC_GetSysClockFreq+0x1b8>)
 80017bc:	685b      	ldr	r3, [r3, #4]
 80017be:	099b      	lsrs	r3, r3, #6
 80017c0:	461a      	mov	r2, r3
 80017c2:	f04f 0300 	mov.w	r3, #0
 80017c6:	f240 10ff 	movw	r0, #511	; 0x1ff
 80017ca:	f04f 0100 	mov.w	r1, #0
 80017ce:	ea02 0400 	and.w	r4, r2, r0
 80017d2:	ea03 0501 	and.w	r5, r3, r1
 80017d6:	4620      	mov	r0, r4
 80017d8:	4629      	mov	r1, r5
 80017da:	f04f 0200 	mov.w	r2, #0
 80017de:	f04f 0300 	mov.w	r3, #0
 80017e2:	014b      	lsls	r3, r1, #5
 80017e4:	ea43 63d0 	orr.w	r3, r3, r0, lsr #27
 80017e8:	0142      	lsls	r2, r0, #5
 80017ea:	4610      	mov	r0, r2
 80017ec:	4619      	mov	r1, r3
 80017ee:	1b00      	subs	r0, r0, r4
 80017f0:	eb61 0105 	sbc.w	r1, r1, r5
 80017f4:	f04f 0200 	mov.w	r2, #0
 80017f8:	f04f 0300 	mov.w	r3, #0
 80017fc:	018b      	lsls	r3, r1, #6
 80017fe:	ea43 6390 	orr.w	r3, r3, r0, lsr #26
 8001802:	0182      	lsls	r2, r0, #6
 8001804:	1a12      	subs	r2, r2, r0
 8001806:	eb63 0301 	sbc.w	r3, r3, r1
 800180a:	f04f 0000 	mov.w	r0, #0
 800180e:	f04f 0100 	mov.w	r1, #0
 8001812:	00d9      	lsls	r1, r3, #3
 8001814:	ea41 7152 	orr.w	r1, r1, r2, lsr #29
 8001818:	00d0      	lsls	r0, r2, #3
 800181a:	4602      	mov	r2, r0
 800181c:	460b      	mov	r3, r1
 800181e:	1912      	adds	r2, r2, r4
 8001820:	eb45 0303 	adc.w	r3, r5, r3
 8001824:	f04f 0000 	mov.w	r0, #0
 8001828:	f04f 0100 	mov.w	r1, #0
 800182c:	0299      	lsls	r1, r3, #10
 800182e:	ea41 5192 	orr.w	r1, r1, r2, lsr #22
 8001832:	0290      	lsls	r0, r2, #10
 8001834:	4602      	mov	r2, r0
 8001836:	460b      	mov	r3, r1
 8001838:	4610      	mov	r0, r2
 800183a:	4619      	mov	r1, r3
 800183c:	687b      	ldr	r3, [r7, #4]
 800183e:	461a      	mov	r2, r3
 8001840:	f04f 0300 	mov.w	r3, #0
 8001844:	f7fe fd0e 	bl	8000264 <__aeabi_uldivmod>
 8001848:	4602      	mov	r2, r0
 800184a:	460b      	mov	r3, r1
 800184c:	4613      	mov	r3, r2
 800184e:	60fb      	str	r3, [r7, #12]
      }
      pllp = ((((RCC->PLLCFGR & RCC_PLLCFGR_PLLP) >> RCC_PLLCFGR_PLLP_Pos) + 1U) *2U);
 8001850:	4b0b      	ldr	r3, [pc, #44]	; (8001880 <HAL_RCC_GetSysClockFreq+0x1b8>)
 8001852:	685b      	ldr	r3, [r3, #4]
 8001854:	0c1b      	lsrs	r3, r3, #16
 8001856:	f003 0303 	and.w	r3, r3, #3
 800185a:	3301      	adds	r3, #1
 800185c:	005b      	lsls	r3, r3, #1
 800185e:	603b      	str	r3, [r7, #0]

      sysclockfreq = pllvco/pllp;
 8001860:	68fa      	ldr	r2, [r7, #12]
 8001862:	683b      	ldr	r3, [r7, #0]
 8001864:	fbb2 f3f3 	udiv	r3, r2, r3
 8001868:	60bb      	str	r3, [r7, #8]
      break;
 800186a:	e002      	b.n	8001872 <HAL_RCC_GetSysClockFreq+0x1aa>
    }
    default:
    {
      sysclockfreq = HSI_VALUE;
 800186c:	4b05      	ldr	r3, [pc, #20]	; (8001884 <HAL_RCC_GetSysClockFreq+0x1bc>)
 800186e:	60bb      	str	r3, [r7, #8]
      break;
 8001870:	bf00      	nop
    }
  }
  return sysclockfreq;
 8001872:	68bb      	ldr	r3, [r7, #8]
}
 8001874:	4618      	mov	r0, r3
 8001876:	3710      	adds	r7, #16
 8001878:	46bd      	mov	sp, r7
 800187a:	e8bd 83b0 	ldmia.w	sp!, {r4, r5, r7, r8, r9, pc}
 800187e:	bf00      	nop
 8001880:	40023800 	.word	0x40023800
 8001884:	00f42400 	.word	0x00f42400
 8001888:	007a1200 	.word	0x007a1200

0800188c <HAL_RCC_GetHCLKFreq>:
  * @note   The SystemCoreClock CMSIS variable is used to store System Clock Frequency
  *         and updated within this function
  * @retval HCLK frequency
  */
uint32_t HAL_RCC_GetHCLKFreq(void)
{
 800188c:	b480      	push	{r7}
 800188e:	af00      	add	r7, sp, #0
  return SystemCoreClock;
 8001890:	4b03      	ldr	r3, [pc, #12]	; (80018a0 <HAL_RCC_GetHCLKFreq+0x14>)
 8001892:	681b      	ldr	r3, [r3, #0]
}
 8001894:	4618      	mov	r0, r3
 8001896:	46bd      	mov	sp, r7
 8001898:	f85d 7b04 	ldr.w	r7, [sp], #4
 800189c:	4770      	bx	lr
 800189e:	bf00      	nop
 80018a0:	20000000 	.word	0x20000000

080018a4 <HAL_RCC_GetPCLK1Freq>:
  * @note   Each time PCLK1 changes, this function must be called to update the
  *         right PCLK1 value. Otherwise, any configuration based on this function will be incorrect.
  * @retval PCLK1 frequency
  */
uint32_t HAL_RCC_GetPCLK1Freq(void)
{
 80018a4:	b580      	push	{r7, lr}
 80018a6:	af00      	add	r7, sp, #0
  /* Get HCLK source and Compute PCLK1 frequency ---------------------------*/
  return (HAL_RCC_GetHCLKFreq() >> APBPrescTable[(RCC->CFGR & RCC_CFGR_PPRE1)>> RCC_CFGR_PPRE1_Pos]);
 80018a8:	f7ff fff0 	bl	800188c <HAL_RCC_GetHCLKFreq>
 80018ac:	4602      	mov	r2, r0
 80018ae:	4b05      	ldr	r3, [pc, #20]	; (80018c4 <HAL_RCC_GetPCLK1Freq+0x20>)
 80018b0:	689b      	ldr	r3, [r3, #8]
 80018b2:	0a9b      	lsrs	r3, r3, #10
 80018b4:	f003 0307 	and.w	r3, r3, #7
 80018b8:	4903      	ldr	r1, [pc, #12]	; (80018c8 <HAL_RCC_GetPCLK1Freq+0x24>)
 80018ba:	5ccb      	ldrb	r3, [r1, r3]
 80018bc:	fa22 f303 	lsr.w	r3, r2, r3
}
 80018c0:	4618      	mov	r0, r3
 80018c2:	bd80      	pop	{r7, pc}
 80018c4:	40023800 	.word	0x40023800
 80018c8:	0800649c 	.word	0x0800649c

080018cc <HAL_RCC_GetClockConfig>:
  * will be configured.
  * @param  pFLatency Pointer on the Flash Latency.
  * @retval None
  */
void HAL_RCC_GetClockConfig(RCC_ClkInitTypeDef  *RCC_ClkInitStruct, uint32_t *pFLatency)
{
 80018cc:	b480      	push	{r7}
 80018ce:	b083      	sub	sp, #12
 80018d0:	af00      	add	r7, sp, #0
 80018d2:	6078      	str	r0, [r7, #4]
 80018d4:	6039      	str	r1, [r7, #0]
  /* Set all possible values for the Clock type parameter --------------------*/
  RCC_ClkInitStruct->ClockType = RCC_CLOCKTYPE_SYSCLK | RCC_CLOCKTYPE_HCLK | RCC_CLOCKTYPE_PCLK1 | RCC_CLOCKTYPE_PCLK2;
 80018d6:	687b      	ldr	r3, [r7, #4]
 80018d8:	220f      	movs	r2, #15
 80018da:	601a      	str	r2, [r3, #0]

  /* Get the SYSCLK configuration --------------------------------------------*/
  RCC_ClkInitStruct->SYSCLKSource = (uint32_t)(RCC->CFGR & RCC_CFGR_SW);
 80018dc:	4b12      	ldr	r3, [pc, #72]	; (8001928 <HAL_RCC_GetClockConfig+0x5c>)
 80018de:	689b      	ldr	r3, [r3, #8]
 80018e0:	f003 0203 	and.w	r2, r3, #3
 80018e4:	687b      	ldr	r3, [r7, #4]
 80018e6:	605a      	str	r2, [r3, #4]

  /* Get the HCLK configuration ----------------------------------------------*/
  RCC_ClkInitStruct->AHBCLKDivider = (uint32_t)(RCC->CFGR & RCC_CFGR_HPRE);
 80018e8:	4b0f      	ldr	r3, [pc, #60]	; (8001928 <HAL_RCC_GetClockConfig+0x5c>)
 80018ea:	689b      	ldr	r3, [r3, #8]
 80018ec:	f003 02f0 	and.w	r2, r3, #240	; 0xf0
 80018f0:	687b      	ldr	r3, [r7, #4]
 80018f2:	609a      	str	r2, [r3, #8]

  /* Get the APB1 configuration ----------------------------------------------*/
  RCC_ClkInitStruct->APB1CLKDivider = (uint32_t)(RCC->CFGR & RCC_CFGR_PPRE1);
 80018f4:	4b0c      	ldr	r3, [pc, #48]	; (8001928 <HAL_RCC_GetClockConfig+0x5c>)
 80018f6:	689b      	ldr	r3, [r3, #8]
 80018f8:	f403 52e0 	and.w	r2, r3, #7168	; 0x1c00
 80018fc:	687b      	ldr	r3, [r7, #4]
 80018fe:	60da      	str	r2, [r3, #12]

  /* Get the APB2 configuration ----------------------------------------------*/
  RCC_ClkInitStruct->APB2CLKDivider = (uint32_t)((RCC->CFGR & RCC_CFGR_PPRE2) >> 3U);
 8001900:	4b09      	ldr	r3, [pc, #36]	; (8001928 <HAL_RCC_GetClockConfig+0x5c>)
 8001902:	689b      	ldr	r3, [r3, #8]
 8001904:	08db      	lsrs	r3, r3, #3
 8001906:	f403 52e0 	and.w	r2, r3, #7168	; 0x1c00
 800190a:	687b      	ldr	r3, [r7, #4]
 800190c:	611a      	str	r2, [r3, #16]

  /* Get the Flash Wait State (Latency) configuration ------------------------*/
  *pFLatency = (uint32_t)(FLASH->ACR & FLASH_ACR_LATENCY);
 800190e:	4b07      	ldr	r3, [pc, #28]	; (800192c <HAL_RCC_GetClockConfig+0x60>)
 8001910:	681b      	ldr	r3, [r3, #0]
 8001912:	f003 0207 	and.w	r2, r3, #7
 8001916:	683b      	ldr	r3, [r7, #0]
 8001918:	601a      	str	r2, [r3, #0]
}
 800191a:	bf00      	nop
 800191c:	370c      	adds	r7, #12
 800191e:	46bd      	mov	sp, r7
 8001920:	f85d 7b04 	ldr.w	r7, [sp], #4
 8001924:	4770      	bx	lr
 8001926:	bf00      	nop
 8001928:	40023800 	.word	0x40023800
 800192c:	40023c00 	.word	0x40023c00

08001930 <HAL_TIM_Base_Init>:
  *         Ex: call @ref HAL_TIM_Base_DeInit() before HAL_TIM_Base_Init()
  * @param  htim TIM Base handle
  * @retval HAL status
  */
HAL_StatusTypeDef HAL_TIM_Base_Init(TIM_HandleTypeDef *htim)
{
 8001930:	b580      	push	{r7, lr}
 8001932:	b082      	sub	sp, #8
 8001934:	af00      	add	r7, sp, #0
 8001936:	6078      	str	r0, [r7, #4]
  /* Check the TIM handle allocation */
  if (htim == NULL)
 8001938:	687b      	ldr	r3, [r7, #4]
 800193a:	2b00      	cmp	r3, #0
 800193c:	d101      	bne.n	8001942 <HAL_TIM_Base_Init+0x12>
  {
    return HAL_ERROR;
 800193e:	2301      	movs	r3, #1
 8001940:	e041      	b.n	80019c6 <HAL_TIM_Base_Init+0x96>
  assert_param(IS_TIM_INSTANCE(htim->Instance));
  assert_param(IS_TIM_COUNTER_MODE(htim->Init.CounterMode));
  assert_param(IS_TIM_CLOCKDIVISION_DIV(htim->Init.ClockDivision));
  assert_param(IS_TIM_AUTORELOAD_PRELOAD(htim->Init.AutoReloadPreload));

  if (htim->State == HAL_TIM_STATE_RESET)
 8001942:	687b      	ldr	r3, [r7, #4]
 8001944:	f893 303d 	ldrb.w	r3, [r3, #61]	; 0x3d
 8001948:	b2db      	uxtb	r3, r3
 800194a:	2b00      	cmp	r3, #0
 800194c:	d106      	bne.n	800195c <HAL_TIM_Base_Init+0x2c>
  {
    /* Allocate lock resource and initialize it */
    htim->Lock = HAL_UNLOCKED;
 800194e:	687b      	ldr	r3, [r7, #4]
 8001950:	2200      	movs	r2, #0
 8001952:	f883 203c 	strb.w	r2, [r3, #60]	; 0x3c
    }
    /* Init the low level hardware : GPIO, CLOCK, NVIC */
    htim->Base_MspInitCallback(htim);
#else
    /* Init the low level hardware : GPIO, CLOCK, NVIC */
    HAL_TIM_Base_MspInit(htim);
 8001956:	6878      	ldr	r0, [r7, #4]
 8001958:	f000 f839 	bl	80019ce <HAL_TIM_Base_MspInit>
#endif /* USE_HAL_TIM_REGISTER_CALLBACKS */
  }

  /* Set the TIM state */
  htim->State = HAL_TIM_STATE_BUSY;
 800195c:	687b      	ldr	r3, [r7, #4]
 800195e:	2202      	movs	r2, #2
 8001960:	f883 203d 	strb.w	r2, [r3, #61]	; 0x3d

  /* Set the Time Base configuration */
  TIM_Base_SetConfig(htim->Instance, &htim->Init);
 8001964:	687b      	ldr	r3, [r7, #4]
 8001966:	681a      	ldr	r2, [r3, #0]
 8001968:	687b      	ldr	r3, [r7, #4]
 800196a:	3304      	adds	r3, #4
 800196c:	4619      	mov	r1, r3
 800196e:	4610      	mov	r0, r2
 8001970:	f000 f9d8 	bl	8001d24 <TIM_Base_SetConfig>

  /* Initialize the DMA burst operation state */
  htim->DMABurstState = HAL_DMA_BURST_STATE_READY;
 8001974:	687b      	ldr	r3, [r7, #4]
 8001976:	2201      	movs	r2, #1
 8001978:	f883 2046 	strb.w	r2, [r3, #70]	; 0x46

  /* Initialize the TIM channels state */
  TIM_CHANNEL_STATE_SET_ALL(htim, HAL_TIM_CHANNEL_STATE_READY);
 800197c:	687b      	ldr	r3, [r7, #4]
 800197e:	2201      	movs	r2, #1
 8001980:	f883 203e 	strb.w	r2, [r3, #62]	; 0x3e
 8001984:	687b      	ldr	r3, [r7, #4]
 8001986:	2201      	movs	r2, #1
 8001988:	f883 203f 	strb.w	r2, [r3, #63]	; 0x3f
 800198c:	687b      	ldr	r3, [r7, #4]
 800198e:	2201      	movs	r2, #1
 8001990:	f883 2040 	strb.w	r2, [r3, #64]	; 0x40
 8001994:	687b      	ldr	r3, [r7, #4]
 8001996:	2201      	movs	r2, #1
 8001998:	f883 2041 	strb.w	r2, [r3, #65]	; 0x41
  TIM_CHANNEL_N_STATE_SET_ALL(htim, HAL_TIM_CHANNEL_STATE_READY);
 800199c:	687b      	ldr	r3, [r7, #4]
 800199e:	2201      	movs	r2, #1
 80019a0:	f883 2042 	strb.w	r2, [r3, #66]	; 0x42
 80019a4:	687b      	ldr	r3, [r7, #4]
 80019a6:	2201      	movs	r2, #1
 80019a8:	f883 2043 	strb.w	r2, [r3, #67]	; 0x43
 80019ac:	687b      	ldr	r3, [r7, #4]
 80019ae:	2201      	movs	r2, #1
 80019b0:	f883 2044 	strb.w	r2, [r3, #68]	; 0x44
 80019b4:	687b      	ldr	r3, [r7, #4]
 80019b6:	2201      	movs	r2, #1
 80019b8:	f883 2045 	strb.w	r2, [r3, #69]	; 0x45

  /* Initialize the TIM state*/
  htim->State = HAL_TIM_STATE_READY;
 80019bc:	687b      	ldr	r3, [r7, #4]
 80019be:	2201      	movs	r2, #1
 80019c0:	f883 203d 	strb.w	r2, [r3, #61]	; 0x3d

  return HAL_OK;
 80019c4:	2300      	movs	r3, #0
}
 80019c6:	4618      	mov	r0, r3
 80019c8:	3708      	adds	r7, #8
 80019ca:	46bd      	mov	sp, r7
 80019cc:	bd80      	pop	{r7, pc}

080019ce <HAL_TIM_Base_MspInit>:
  * @brief  Initializes the TIM Base MSP.
  * @param  htim TIM Base handle
  * @retval None
  */
__weak void HAL_TIM_Base_MspInit(TIM_HandleTypeDef *htim)
{
 80019ce:	b480      	push	{r7}
 80019d0:	b083      	sub	sp, #12
 80019d2:	af00      	add	r7, sp, #0
 80019d4:	6078      	str	r0, [r7, #4]
  UNUSED(htim);

  /* NOTE : This function should not be modified, when the callback is needed,
            the HAL_TIM_Base_MspInit could be implemented in the user file
   */
}
 80019d6:	bf00      	nop
 80019d8:	370c      	adds	r7, #12
 80019da:	46bd      	mov	sp, r7
 80019dc:	f85d 7b04 	ldr.w	r7, [sp], #4
 80019e0:	4770      	bx	lr
	...

080019e4 <HAL_TIM_Base_Start_IT>:
  * @brief  Starts the TIM Base generation in interrupt mode.
  * @param  htim TIM Base handle
  * @retval HAL status
  */
HAL_StatusTypeDef HAL_TIM_Base_Start_IT(TIM_HandleTypeDef *htim)
{
 80019e4:	b480      	push	{r7}
 80019e6:	b085      	sub	sp, #20
 80019e8:	af00      	add	r7, sp, #0
 80019ea:	6078      	str	r0, [r7, #4]

  /* Check the parameters */
  assert_param(IS_TIM_INSTANCE(htim->Instance));

  /* Check the TIM state */
  if (htim->State != HAL_TIM_STATE_READY)
 80019ec:	687b      	ldr	r3, [r7, #4]
 80019ee:	f893 303d 	ldrb.w	r3, [r3, #61]	; 0x3d
 80019f2:	b2db      	uxtb	r3, r3
 80019f4:	2b01      	cmp	r3, #1
 80019f6:	d001      	beq.n	80019fc <HAL_TIM_Base_Start_IT+0x18>
  {
    return HAL_ERROR;
 80019f8:	2301      	movs	r3, #1
 80019fa:	e04e      	b.n	8001a9a <HAL_TIM_Base_Start_IT+0xb6>
  }

  /* Set the TIM state */
  htim->State = HAL_TIM_STATE_BUSY;
 80019fc:	687b      	ldr	r3, [r7, #4]
 80019fe:	2202      	movs	r2, #2
 8001a00:	f883 203d 	strb.w	r2, [r3, #61]	; 0x3d

  /* Enable the TIM Update interrupt */
  __HAL_TIM_ENABLE_IT(htim, TIM_IT_UPDATE);
 8001a04:	687b      	ldr	r3, [r7, #4]
 8001a06:	681b      	ldr	r3, [r3, #0]
 8001a08:	68da      	ldr	r2, [r3, #12]
 8001a0a:	687b      	ldr	r3, [r7, #4]
 8001a0c:	681b      	ldr	r3, [r3, #0]
 8001a0e:	f042 0201 	orr.w	r2, r2, #1
 8001a12:	60da      	str	r2, [r3, #12]

  /* Enable the Peripheral, except in trigger mode where enable is automatically done with trigger */
  if (IS_TIM_SLAVE_INSTANCE(htim->Instance))
 8001a14:	687b      	ldr	r3, [r7, #4]
 8001a16:	681b      	ldr	r3, [r3, #0]
 8001a18:	4a23      	ldr	r2, [pc, #140]	; (8001aa8 <HAL_TIM_Base_Start_IT+0xc4>)
 8001a1a:	4293      	cmp	r3, r2
 8001a1c:	d022      	beq.n	8001a64 <HAL_TIM_Base_Start_IT+0x80>
 8001a1e:	687b      	ldr	r3, [r7, #4]
 8001a20:	681b      	ldr	r3, [r3, #0]
 8001a22:	f1b3 4f80 	cmp.w	r3, #1073741824	; 0x40000000
 8001a26:	d01d      	beq.n	8001a64 <HAL_TIM_Base_Start_IT+0x80>
 8001a28:	687b      	ldr	r3, [r7, #4]
 8001a2a:	681b      	ldr	r3, [r3, #0]
 8001a2c:	4a1f      	ldr	r2, [pc, #124]	; (8001aac <HAL_TIM_Base_Start_IT+0xc8>)
 8001a2e:	4293      	cmp	r3, r2
 8001a30:	d018      	beq.n	8001a64 <HAL_TIM_Base_Start_IT+0x80>
 8001a32:	687b      	ldr	r3, [r7, #4]
 8001a34:	681b      	ldr	r3, [r3, #0]
 8001a36:	4a1e      	ldr	r2, [pc, #120]	; (8001ab0 <HAL_TIM_Base_Start_IT+0xcc>)
 8001a38:	4293      	cmp	r3, r2
 8001a3a:	d013      	beq.n	8001a64 <HAL_TIM_Base_Start_IT+0x80>
 8001a3c:	687b      	ldr	r3, [r7, #4]
 8001a3e:	681b      	ldr	r3, [r3, #0]
 8001a40:	4a1c      	ldr	r2, [pc, #112]	; (8001ab4 <HAL_TIM_Base_Start_IT+0xd0>)
 8001a42:	4293      	cmp	r3, r2
 8001a44:	d00e      	beq.n	8001a64 <HAL_TIM_Base_Start_IT+0x80>
 8001a46:	687b      	ldr	r3, [r7, #4]
 8001a48:	681b      	ldr	r3, [r3, #0]
 8001a4a:	4a1b      	ldr	r2, [pc, #108]	; (8001ab8 <HAL_TIM_Base_Start_IT+0xd4>)
 8001a4c:	4293      	cmp	r3, r2
 8001a4e:	d009      	beq.n	8001a64 <HAL_TIM_Base_Start_IT+0x80>
 8001a50:	687b      	ldr	r3, [r7, #4]
 8001a52:	681b      	ldr	r3, [r3, #0]
 8001a54:	4a19      	ldr	r2, [pc, #100]	; (8001abc <HAL_TIM_Base_Start_IT+0xd8>)
 8001a56:	4293      	cmp	r3, r2
 8001a58:	d004      	beq.n	8001a64 <HAL_TIM_Base_Start_IT+0x80>
 8001a5a:	687b      	ldr	r3, [r7, #4]
 8001a5c:	681b      	ldr	r3, [r3, #0]
 8001a5e:	4a18      	ldr	r2, [pc, #96]	; (8001ac0 <HAL_TIM_Base_Start_IT+0xdc>)
 8001a60:	4293      	cmp	r3, r2
 8001a62:	d111      	bne.n	8001a88 <HAL_TIM_Base_Start_IT+0xa4>
  {
    tmpsmcr = htim->Instance->SMCR & TIM_SMCR_SMS;
 8001a64:	687b      	ldr	r3, [r7, #4]
 8001a66:	681b      	ldr	r3, [r3, #0]
 8001a68:	689b      	ldr	r3, [r3, #8]
 8001a6a:	f003 0307 	and.w	r3, r3, #7
 8001a6e:	60fb      	str	r3, [r7, #12]
    if (!IS_TIM_SLAVEMODE_TRIGGER_ENABLED(tmpsmcr))
 8001a70:	68fb      	ldr	r3, [r7, #12]
 8001a72:	2b06      	cmp	r3, #6
 8001a74:	d010      	beq.n	8001a98 <HAL_TIM_Base_Start_IT+0xb4>
    {
      __HAL_TIM_ENABLE(htim);
 8001a76:	687b      	ldr	r3, [r7, #4]
 8001a78:	681b      	ldr	r3, [r3, #0]
 8001a7a:	681a      	ldr	r2, [r3, #0]
 8001a7c:	687b      	ldr	r3, [r7, #4]
 8001a7e:	681b      	ldr	r3, [r3, #0]
 8001a80:	f042 0201 	orr.w	r2, r2, #1
 8001a84:	601a      	str	r2, [r3, #0]
    if (!IS_TIM_SLAVEMODE_TRIGGER_ENABLED(tmpsmcr))
 8001a86:	e007      	b.n	8001a98 <HAL_TIM_Base_Start_IT+0xb4>
    }
  }
  else
  {
    __HAL_TIM_ENABLE(htim);
 8001a88:	687b      	ldr	r3, [r7, #4]
 8001a8a:	681b      	ldr	r3, [r3, #0]
 8001a8c:	681a      	ldr	r2, [r3, #0]
 8001a8e:	687b      	ldr	r3, [r7, #4]
 8001a90:	681b      	ldr	r3, [r3, #0]
 8001a92:	f042 0201 	orr.w	r2, r2, #1
 8001a96:	601a      	str	r2, [r3, #0]
  }

  /* Return function status */
  return HAL_OK;
 8001a98:	2300      	movs	r3, #0
}
 8001a9a:	4618      	mov	r0, r3
 8001a9c:	3714      	adds	r7, #20
 8001a9e:	46bd      	mov	sp, r7
 8001aa0:	f85d 7b04 	ldr.w	r7, [sp], #4
 8001aa4:	4770      	bx	lr
 8001aa6:	bf00      	nop
 8001aa8:	40010000 	.word	0x40010000
 8001aac:	40000400 	.word	0x40000400
 8001ab0:	40000800 	.word	0x40000800
 8001ab4:	40000c00 	.word	0x40000c00
 8001ab8:	40010400 	.word	0x40010400
 8001abc:	40014000 	.word	0x40014000
 8001ac0:	40001800 	.word	0x40001800

08001ac4 <HAL_TIM_IRQHandler>:
  * @brief  This function handles TIM interrupts requests.
  * @param  htim TIM  handle
  * @retval None
  */
void HAL_TIM_IRQHandler(TIM_HandleTypeDef *htim)
{
 8001ac4:	b580      	push	{r7, lr}
 8001ac6:	b082      	sub	sp, #8
 8001ac8:	af00      	add	r7, sp, #0
 8001aca:	6078      	str	r0, [r7, #4]
  /* Capture compare 1 event */
  if (__HAL_TIM_GET_FLAG(htim, TIM_FLAG_CC1) != RESET)
 8001acc:	687b      	ldr	r3, [r7, #4]
 8001ace:	681b      	ldr	r3, [r3, #0]
 8001ad0:	691b      	ldr	r3, [r3, #16]
 8001ad2:	f003 0302 	and.w	r3, r3, #2
 8001ad6:	2b02      	cmp	r3, #2
 8001ad8:	d122      	bne.n	8001b20 <HAL_TIM_IRQHandler+0x5c>
  {
    if (__HAL_TIM_GET_IT_SOURCE(htim, TIM_IT_CC1) != RESET)
 8001ada:	687b      	ldr	r3, [r7, #4]
 8001adc:	681b      	ldr	r3, [r3, #0]
 8001ade:	68db      	ldr	r3, [r3, #12]
 8001ae0:	f003 0302 	and.w	r3, r3, #2
 8001ae4:	2b02      	cmp	r3, #2
 8001ae6:	d11b      	bne.n	8001b20 <HAL_TIM_IRQHandler+0x5c>
    {
      {
        __HAL_TIM_CLEAR_IT(htim, TIM_IT_CC1);
 8001ae8:	687b      	ldr	r3, [r7, #4]
 8001aea:	681b      	ldr	r3, [r3, #0]
 8001aec:	f06f 0202 	mvn.w	r2, #2
 8001af0:	611a      	str	r2, [r3, #16]
        htim->Channel = HAL_TIM_ACTIVE_CHANNEL_1;
 8001af2:	687b      	ldr	r3, [r7, #4]
 8001af4:	2201      	movs	r2, #1
 8001af6:	771a      	strb	r2, [r3, #28]

        /* Input capture event */
        if ((htim->Instance->CCMR1 & TIM_CCMR1_CC1S) != 0x00U)
 8001af8:	687b      	ldr	r3, [r7, #4]
 8001afa:	681b      	ldr	r3, [r3, #0]
 8001afc:	699b      	ldr	r3, [r3, #24]
 8001afe:	f003 0303 	and.w	r3, r3, #3
 8001b02:	2b00      	cmp	r3, #0
 8001b04:	d003      	beq.n	8001b0e <HAL_TIM_IRQHandler+0x4a>
        {
#if (USE_HAL_TIM_REGISTER_CALLBACKS == 1)
          htim->IC_CaptureCallback(htim);
#else
          HAL_TIM_IC_CaptureCallback(htim);
 8001b06:	6878      	ldr	r0, [r7, #4]
 8001b08:	f000 f8ee 	bl	8001ce8 <HAL_TIM_IC_CaptureCallback>
 8001b0c:	e005      	b.n	8001b1a <HAL_TIM_IRQHandler+0x56>
        {
#if (USE_HAL_TIM_REGISTER_CALLBACKS == 1)
          htim->OC_DelayElapsedCallback(htim);
          htim->PWM_PulseFinishedCallback(htim);
#else
          HAL_TIM_OC_DelayElapsedCallback(htim);
 8001b0e:	6878      	ldr	r0, [r7, #4]
 8001b10:	f000 f8e0 	bl	8001cd4 <HAL_TIM_OC_DelayElapsedCallback>
          HAL_TIM_PWM_PulseFinishedCallback(htim);
 8001b14:	6878      	ldr	r0, [r7, #4]
 8001b16:	f000 f8f1 	bl	8001cfc <HAL_TIM_PWM_PulseFinishedCallback>
#endif /* USE_HAL_TIM_REGISTER_CALLBACKS */
        }
        htim->Channel = HAL_TIM_ACTIVE_CHANNEL_CLEARED;
 8001b1a:	687b      	ldr	r3, [r7, #4]
 8001b1c:	2200      	movs	r2, #0
 8001b1e:	771a      	strb	r2, [r3, #28]
      }
    }
  }
  /* Capture compare 2 event */
  if (__HAL_TIM_GET_FLAG(htim, TIM_FLAG_CC2) != RESET)
 8001b20:	687b      	ldr	r3, [r7, #4]
 8001b22:	681b      	ldr	r3, [r3, #0]
 8001b24:	691b      	ldr	r3, [r3, #16]
 8001b26:	f003 0304 	and.w	r3, r3, #4
 8001b2a:	2b04      	cmp	r3, #4
 8001b2c:	d122      	bne.n	8001b74 <HAL_TIM_IRQHandler+0xb0>
  {
    if (__HAL_TIM_GET_IT_SOURCE(htim, TIM_IT_CC2) != RESET)
 8001b2e:	687b      	ldr	r3, [r7, #4]
 8001b30:	681b      	ldr	r3, [r3, #0]
 8001b32:	68db      	ldr	r3, [r3, #12]
 8001b34:	f003 0304 	and.w	r3, r3, #4
 8001b38:	2b04      	cmp	r3, #4
 8001b3a:	d11b      	bne.n	8001b74 <HAL_TIM_IRQHandler+0xb0>
    {
      __HAL_TIM_CLEAR_IT(htim, TIM_IT_CC2);
 8001b3c:	687b      	ldr	r3, [r7, #4]
 8001b3e:	681b      	ldr	r3, [r3, #0]
 8001b40:	f06f 0204 	mvn.w	r2, #4
 8001b44:	611a      	str	r2, [r3, #16]
      htim->Channel = HAL_TIM_ACTIVE_CHANNEL_2;
 8001b46:	687b      	ldr	r3, [r7, #4]
 8001b48:	2202      	movs	r2, #2
 8001b4a:	771a      	strb	r2, [r3, #28]
      /* Input capture event */
      if ((htim->Instance->CCMR1 & TIM_CCMR1_CC2S) != 0x00U)
 8001b4c:	687b      	ldr	r3, [r7, #4]
 8001b4e:	681b      	ldr	r3, [r3, #0]
 8001b50:	699b      	ldr	r3, [r3, #24]
 8001b52:	f403 7340 	and.w	r3, r3, #768	; 0x300
 8001b56:	2b00      	cmp	r3, #0
 8001b58:	d003      	beq.n	8001b62 <HAL_TIM_IRQHandler+0x9e>
      {
#if (USE_HAL_TIM_REGISTER_CALLBACKS == 1)
        htim->IC_CaptureCallback(htim);
#else
        HAL_TIM_IC_CaptureCallback(htim);
 8001b5a:	6878      	ldr	r0, [r7, #4]
 8001b5c:	f000 f8c4 	bl	8001ce8 <HAL_TIM_IC_CaptureCallback>
 8001b60:	e005      	b.n	8001b6e <HAL_TIM_IRQHandler+0xaa>
      {
#if (USE_HAL_TIM_REGISTER_CALLBACKS == 1)
        htim->OC_DelayElapsedCallback(htim);
        htim->PWM_PulseFinishedCallback(htim);
#else
        HAL_TIM_OC_DelayElapsedCallback(htim);
 8001b62:	6878      	ldr	r0, [r7, #4]
 8001b64:	f000 f8b6 	bl	8001cd4 <HAL_TIM_OC_DelayElapsedCallback>
        HAL_TIM_PWM_PulseFinishedCallback(htim);
 8001b68:	6878      	ldr	r0, [r7, #4]
 8001b6a:	f000 f8c7 	bl	8001cfc <HAL_TIM_PWM_PulseFinishedCallback>
#endif /* USE_HAL_TIM_REGISTER_CALLBACKS */
      }
      htim->Channel = HAL_TIM_ACTIVE_CHANNEL_CLEARED;
 8001b6e:	687b      	ldr	r3, [r7, #4]
 8001b70:	2200      	movs	r2, #0
 8001b72:	771a      	strb	r2, [r3, #28]
    }
  }
  /* Capture compare 3 event */
  if (__HAL_TIM_GET_FLAG(htim, TIM_FLAG_CC3) != RESET)
 8001b74:	687b      	ldr	r3, [r7, #4]
 8001b76:	681b      	ldr	r3, [r3, #0]
 8001b78:	691b      	ldr	r3, [r3, #16]
 8001b7a:	f003 0308 	and.w	r3, r3, #8
 8001b7e:	2b08      	cmp	r3, #8
 8001b80:	d122      	bne.n	8001bc8 <HAL_TIM_IRQHandler+0x104>
  {
    if (__HAL_TIM_GET_IT_SOURCE(htim, TIM_IT_CC3) != RESET)
 8001b82:	687b      	ldr	r3, [r7, #4]
 8001b84:	681b      	ldr	r3, [r3, #0]
 8001b86:	68db      	ldr	r3, [r3, #12]
 8001b88:	f003 0308 	and.w	r3, r3, #8
 8001b8c:	2b08      	cmp	r3, #8
 8001b8e:	d11b      	bne.n	8001bc8 <HAL_TIM_IRQHandler+0x104>
    {
      __HAL_TIM_CLEAR_IT(htim, TIM_IT_CC3);
 8001b90:	687b      	ldr	r3, [r7, #4]
 8001b92:	681b      	ldr	r3, [r3, #0]
 8001b94:	f06f 0208 	mvn.w	r2, #8
 8001b98:	611a      	str	r2, [r3, #16]
      htim->Channel = HAL_TIM_ACTIVE_CHANNEL_3;
 8001b9a:	687b      	ldr	r3, [r7, #4]
 8001b9c:	2204      	movs	r2, #4
 8001b9e:	771a      	strb	r2, [r3, #28]
      /* Input capture event */
      if ((htim->Instance->CCMR2 & TIM_CCMR2_CC3S) != 0x00U)
 8001ba0:	687b      	ldr	r3, [r7, #4]
 8001ba2:	681b      	ldr	r3, [r3, #0]
 8001ba4:	69db      	ldr	r3, [r3, #28]
 8001ba6:	f003 0303 	and.w	r3, r3, #3
 8001baa:	2b00      	cmp	r3, #0
 8001bac:	d003      	beq.n	8001bb6 <HAL_TIM_IRQHandler+0xf2>
      {
#if (USE_HAL_TIM_REGISTER_CALLBACKS == 1)
        htim->IC_CaptureCallback(htim);
#else
        HAL_TIM_IC_CaptureCallback(htim);
 8001bae:	6878      	ldr	r0, [r7, #4]
 8001bb0:	f000 f89a 	bl	8001ce8 <HAL_TIM_IC_CaptureCallback>
 8001bb4:	e005      	b.n	8001bc2 <HAL_TIM_IRQHandler+0xfe>
      {
#if (USE_HAL_TIM_REGISTER_CALLBACKS == 1)
        htim->OC_DelayElapsedCallback(htim);
        htim->PWM_PulseFinishedCallback(htim);
#else
        HAL_TIM_OC_DelayElapsedCallback(htim);
 8001bb6:	6878      	ldr	r0, [r7, #4]
 8001bb8:	f000 f88c 	bl	8001cd4 <HAL_TIM_OC_DelayElapsedCallback>
        HAL_TIM_PWM_PulseFinishedCallback(htim);
 8001bbc:	6878      	ldr	r0, [r7, #4]
 8001bbe:	f000 f89d 	bl	8001cfc <HAL_TIM_PWM_PulseFinishedCallback>
#endif /* USE_HAL_TIM_REGISTER_CALLBACKS */
      }
      htim->Channel = HAL_TIM_ACTIVE_CHANNEL_CLEARED;
 8001bc2:	687b      	ldr	r3, [r7, #4]
 8001bc4:	2200      	movs	r2, #0
 8001bc6:	771a      	strb	r2, [r3, #28]
    }
  }
  /* Capture compare 4 event */
  if (__HAL_TIM_GET_FLAG(htim, TIM_FLAG_CC4) != RESET)
 8001bc8:	687b      	ldr	r3, [r7, #4]
 8001bca:	681b      	ldr	r3, [r3, #0]
 8001bcc:	691b      	ldr	r3, [r3, #16]
 8001bce:	f003 0310 	and.w	r3, r3, #16
 8001bd2:	2b10      	cmp	r3, #16
 8001bd4:	d122      	bne.n	8001c1c <HAL_TIM_IRQHandler+0x158>
  {
    if (__HAL_TIM_GET_IT_SOURCE(htim, TIM_IT_CC4) != RESET)
 8001bd6:	687b      	ldr	r3, [r7, #4]
 8001bd8:	681b      	ldr	r3, [r3, #0]
 8001bda:	68db      	ldr	r3, [r3, #12]
 8001bdc:	f003 0310 	and.w	r3, r3, #16
 8001be0:	2b10      	cmp	r3, #16
 8001be2:	d11b      	bne.n	8001c1c <HAL_TIM_IRQHandler+0x158>
    {
      __HAL_TIM_CLEAR_IT(htim, TIM_IT_CC4);
 8001be4:	687b      	ldr	r3, [r7, #4]
 8001be6:	681b      	ldr	r3, [r3, #0]
 8001be8:	f06f 0210 	mvn.w	r2, #16
 8001bec:	611a      	str	r2, [r3, #16]
      htim->Channel = HAL_TIM_ACTIVE_CHANNEL_4;
 8001bee:	687b      	ldr	r3, [r7, #4]
 8001bf0:	2208      	movs	r2, #8
 8001bf2:	771a      	strb	r2, [r3, #28]
      /* Input capture event */
      if ((htim->Instance->CCMR2 & TIM_CCMR2_CC4S) != 0x00U)
 8001bf4:	687b      	ldr	r3, [r7, #4]
 8001bf6:	681b      	ldr	r3, [r3, #0]
 8001bf8:	69db      	ldr	r3, [r3, #28]
 8001bfa:	f403 7340 	and.w	r3, r3, #768	; 0x300
 8001bfe:	2b00      	cmp	r3, #0
 8001c00:	d003      	beq.n	8001c0a <HAL_TIM_IRQHandler+0x146>
      {
#if (USE_HAL_TIM_REGISTER_CALLBACKS == 1)
        htim->IC_CaptureCallback(htim);
#else
        HAL_TIM_IC_CaptureCallback(htim);
 8001c02:	6878      	ldr	r0, [r7, #4]
 8001c04:	f000 f870 	bl	8001ce8 <HAL_TIM_IC_CaptureCallback>
 8001c08:	e005      	b.n	8001c16 <HAL_TIM_IRQHandler+0x152>
      {
#if (USE_HAL_TIM_REGISTER_CALLBACKS == 1)
        htim->OC_DelayElapsedCallback(htim);
        htim->PWM_PulseFinishedCallback(htim);
#else
        HAL_TIM_OC_DelayElapsedCallback(htim);
 8001c0a:	6878      	ldr	r0, [r7, #4]
 8001c0c:	f000 f862 	bl	8001cd4 <HAL_TIM_OC_DelayElapsedCallback>
        HAL_TIM_PWM_PulseFinishedCallback(htim);
 8001c10:	6878      	ldr	r0, [r7, #4]
 8001c12:	f000 f873 	bl	8001cfc <HAL_TIM_PWM_PulseFinishedCallback>
#endif /* USE_HAL_TIM_REGISTER_CALLBACKS */
      }
      htim->Channel = HAL_TIM_ACTIVE_CHANNEL_CLEARED;
 8001c16:	687b      	ldr	r3, [r7, #4]
 8001c18:	2200      	movs	r2, #0
 8001c1a:	771a      	strb	r2, [r3, #28]
    }
  }
  /* TIM Update event */
  if (__HAL_TIM_GET_FLAG(htim, TIM_FLAG_UPDATE) != RESET)
 8001c1c:	687b      	ldr	r3, [r7, #4]
 8001c1e:	681b      	ldr	r3, [r3, #0]
 8001c20:	691b      	ldr	r3, [r3, #16]
 8001c22:	f003 0301 	and.w	r3, r3, #1
 8001c26:	2b01      	cmp	r3, #1
 8001c28:	d10e      	bne.n	8001c48 <HAL_TIM_IRQHandler+0x184>
  {
    if (__HAL_TIM_GET_IT_SOURCE(htim, TIM_IT_UPDATE) != RESET)
 8001c2a:	687b      	ldr	r3, [r7, #4]
 8001c2c:	681b      	ldr	r3, [r3, #0]
 8001c2e:	68db      	ldr	r3, [r3, #12]
 8001c30:	f003 0301 	and.w	r3, r3, #1
 8001c34:	2b01      	cmp	r3, #1
 8001c36:	d107      	bne.n	8001c48 <HAL_TIM_IRQHandler+0x184>
    {
      __HAL_TIM_CLEAR_IT(htim, TIM_IT_UPDATE);
 8001c38:	687b      	ldr	r3, [r7, #4]
 8001c3a:	681b      	ldr	r3, [r3, #0]
 8001c3c:	f06f 0201 	mvn.w	r2, #1
 8001c40:	611a      	str	r2, [r3, #16]
#if (USE_HAL_TIM_REGISTER_CALLBACKS == 1)
      htim->PeriodElapsedCallback(htim);
#else
      HAL_TIM_PeriodElapsedCallback(htim);
 8001c42:	6878      	ldr	r0, [r7, #4]
 8001c44:	f7fe fdf8 	bl	8000838 <HAL_TIM_PeriodElapsedCallback>
#endif /* USE_HAL_TIM_REGISTER_CALLBACKS */
    }
  }
  /* TIM Break input event */
  if (__HAL_TIM_GET_FLAG(htim, TIM_FLAG_BREAK) != RESET)
 8001c48:	687b      	ldr	r3, [r7, #4]
 8001c4a:	681b      	ldr	r3, [r3, #0]
 8001c4c:	691b      	ldr	r3, [r3, #16]
 8001c4e:	f003 0380 	and.w	r3, r3, #128	; 0x80
 8001c52:	2b80      	cmp	r3, #128	; 0x80
 8001c54:	d10e      	bne.n	8001c74 <HAL_TIM_IRQHandler+0x1b0>
  {
    if (__HAL_TIM_GET_IT_SOURCE(htim, TIM_IT_BREAK) != RESET)
 8001c56:	687b      	ldr	r3, [r7, #4]
 8001c58:	681b      	ldr	r3, [r3, #0]
 8001c5a:	68db      	ldr	r3, [r3, #12]
 8001c5c:	f003 0380 	and.w	r3, r3, #128	; 0x80
 8001c60:	2b80      	cmp	r3, #128	; 0x80
 8001c62:	d107      	bne.n	8001c74 <HAL_TIM_IRQHandler+0x1b0>
    {
      __HAL_TIM_CLEAR_IT(htim, TIM_IT_BREAK);
 8001c64:	687b      	ldr	r3, [r7, #4]
 8001c66:	681b      	ldr	r3, [r3, #0]
 8001c68:	f06f 0280 	mvn.w	r2, #128	; 0x80
 8001c6c:	611a      	str	r2, [r3, #16]
#if (USE_HAL_TIM_REGISTER_CALLBACKS == 1)
      htim->BreakCallback(htim);
#else
      HAL_TIMEx_BreakCallback(htim);
 8001c6e:	6878      	ldr	r0, [r7, #4]
 8001c70:	f000 f902 	bl	8001e78 <HAL_TIMEx_BreakCallback>
#endif /* USE_HAL_TIM_REGISTER_CALLBACKS */
    }
  }
  /* TIM Trigger detection event */
  if (__HAL_TIM_GET_FLAG(htim, TIM_FLAG_TRIGGER) != RESET)
 8001c74:	687b      	ldr	r3, [r7, #4]
 8001c76:	681b      	ldr	r3, [r3, #0]
 8001c78:	691b      	ldr	r3, [r3, #16]
 8001c7a:	f003 0340 	and.w	r3, r3, #64	; 0x40
 8001c7e:	2b40      	cmp	r3, #64	; 0x40
 8001c80:	d10e      	bne.n	8001ca0 <HAL_TIM_IRQHandler+0x1dc>
  {
    if (__HAL_TIM_GET_IT_SOURCE(htim, TIM_IT_TRIGGER) != RESET)
 8001c82:	687b      	ldr	r3, [r7, #4]
 8001c84:	681b      	ldr	r3, [r3, #0]
 8001c86:	68db      	ldr	r3, [r3, #12]
 8001c88:	f003 0340 	and.w	r3, r3, #64	; 0x40
 8001c8c:	2b40      	cmp	r3, #64	; 0x40
 8001c8e:	d107      	bne.n	8001ca0 <HAL_TIM_IRQHandler+0x1dc>
    {
      __HAL_TIM_CLEAR_IT(htim, TIM_IT_TRIGGER);
 8001c90:	687b      	ldr	r3, [r7, #4]
 8001c92:	681b      	ldr	r3, [r3, #0]
 8001c94:	f06f 0240 	mvn.w	r2, #64	; 0x40
 8001c98:	611a      	str	r2, [r3, #16]
#if (USE_HAL_TIM_REGISTER_CALLBACKS == 1)
      htim->TriggerCallback(htim);
#else
      HAL_TIM_TriggerCallback(htim);
 8001c9a:	6878      	ldr	r0, [r7, #4]
 8001c9c:	f000 f838 	bl	8001d10 <HAL_TIM_TriggerCallback>
#endif /* USE_HAL_TIM_REGISTER_CALLBACKS */
    }
  }
  /* TIM commutation event */
  if (__HAL_TIM_GET_FLAG(htim, TIM_FLAG_COM) != RESET)
 8001ca0:	687b      	ldr	r3, [r7, #4]
 8001ca2:	681b      	ldr	r3, [r3, #0]
 8001ca4:	691b      	ldr	r3, [r3, #16]
 8001ca6:	f003 0320 	and.w	r3, r3, #32
 8001caa:	2b20      	cmp	r3, #32
 8001cac:	d10e      	bne.n	8001ccc <HAL_TIM_IRQHandler+0x208>
  {
    if (__HAL_TIM_GET_IT_SOURCE(htim, TIM_IT_COM) != RESET)
 8001cae:	687b      	ldr	r3, [r7, #4]
 8001cb0:	681b      	ldr	r3, [r3, #0]
 8001cb2:	68db      	ldr	r3, [r3, #12]
 8001cb4:	f003 0320 	and.w	r3, r3, #32
 8001cb8:	2b20      	cmp	r3, #32
 8001cba:	d107      	bne.n	8001ccc <HAL_TIM_IRQHandler+0x208>
    {
      __HAL_TIM_CLEAR_IT(htim, TIM_FLAG_COM);
 8001cbc:	687b      	ldr	r3, [r7, #4]
 8001cbe:	681b      	ldr	r3, [r3, #0]
 8001cc0:	f06f 0220 	mvn.w	r2, #32
 8001cc4:	611a      	str	r2, [r3, #16]
#if (USE_HAL_TIM_REGISTER_CALLBACKS == 1)
      htim->CommutationCallback(htim);
#else
      HAL_TIMEx_CommutCallback(htim);
 8001cc6:	6878      	ldr	r0, [r7, #4]
 8001cc8:	f000 f8cc 	bl	8001e64 <HAL_TIMEx_CommutCallback>
#endif /* USE_HAL_TIM_REGISTER_CALLBACKS */
    }
  }
}
 8001ccc:	bf00      	nop
 8001cce:	3708      	adds	r7, #8
 8001cd0:	46bd      	mov	sp, r7
 8001cd2:	bd80      	pop	{r7, pc}

08001cd4 <HAL_TIM_OC_DelayElapsedCallback>:
  * @brief  Output Compare callback in non-blocking mode
  * @param  htim TIM OC handle
  * @retval None
  */
__weak void HAL_TIM_OC_DelayElapsedCallback(TIM_HandleTypeDef *htim)
{
 8001cd4:	b480      	push	{r7}
 8001cd6:	b083      	sub	sp, #12
 8001cd8:	af00      	add	r7, sp, #0
 8001cda:	6078      	str	r0, [r7, #4]
  UNUSED(htim);

  /* NOTE : This function should not be modified, when the callback is needed,
            the HAL_TIM_OC_DelayElapsedCallback could be implemented in the user file
   */
}
 8001cdc:	bf00      	nop
 8001cde:	370c      	adds	r7, #12
 8001ce0:	46bd      	mov	sp, r7
 8001ce2:	f85d 7b04 	ldr.w	r7, [sp], #4
 8001ce6:	4770      	bx	lr

08001ce8 <HAL_TIM_IC_CaptureCallback>:
  * @brief  Input Capture callback in non-blocking mode
  * @param  htim TIM IC handle
  * @retval None
  */
__weak void HAL_TIM_IC_CaptureCallback(TIM_HandleTypeDef *htim)
{
 8001ce8:	b480      	push	{r7}
 8001cea:	b083      	sub	sp, #12
 8001cec:	af00      	add	r7, sp, #0
 8001cee:	6078      	str	r0, [r7, #4]
  UNUSED(htim);

  /* NOTE : This function should not be modified, when the callback is needed,
            the HAL_TIM_IC_CaptureCallback could be implemented in the user file
   */
}
 8001cf0:	bf00      	nop
 8001cf2:	370c      	adds	r7, #12
 8001cf4:	46bd      	mov	sp, r7
 8001cf6:	f85d 7b04 	ldr.w	r7, [sp], #4
 8001cfa:	4770      	bx	lr

08001cfc <HAL_TIM_PWM_PulseFinishedCallback>:
  * @brief  PWM Pulse finished callback in non-blocking mode
  * @param  htim TIM handle
  * @retval None
  */
__weak void HAL_TIM_PWM_PulseFinishedCallback(TIM_HandleTypeDef *htim)
{
 8001cfc:	b480      	push	{r7}
 8001cfe:	b083      	sub	sp, #12
 8001d00:	af00      	add	r7, sp, #0
 8001d02:	6078      	str	r0, [r7, #4]
  UNUSED(htim);

  /* NOTE : This function should not be modified, when the callback is needed,
            the HAL_TIM_PWM_PulseFinishedCallback could be implemented in the user file
   */
}
 8001d04:	bf00      	nop
 8001d06:	370c      	adds	r7, #12
 8001d08:	46bd      	mov	sp, r7
 8001d0a:	f85d 7b04 	ldr.w	r7, [sp], #4
 8001d0e:	4770      	bx	lr

08001d10 <HAL_TIM_TriggerCallback>:
  * @brief  Hall Trigger detection callback in non-blocking mode
  * @param  htim TIM handle
  * @retval None
  */
__weak void HAL_TIM_TriggerCallback(TIM_HandleTypeDef *htim)
{
 8001d10:	b480      	push	{r7}
 8001d12:	b083      	sub	sp, #12
 8001d14:	af00      	add	r7, sp, #0
 8001d16:	6078      	str	r0, [r7, #4]
  UNUSED(htim);

  /* NOTE : This function should not be modified, when the callback is needed,
            the HAL_TIM_TriggerCallback could be implemented in the user file
   */
}
 8001d18:	bf00      	nop
 8001d1a:	370c      	adds	r7, #12
 8001d1c:	46bd      	mov	sp, r7
 8001d1e:	f85d 7b04 	ldr.w	r7, [sp], #4
 8001d22:	4770      	bx	lr

08001d24 <TIM_Base_SetConfig>:
  * @param  TIMx TIM peripheral
  * @param  Structure TIM Base configuration structure
  * @retval None
  */
void TIM_Base_SetConfig(TIM_TypeDef *TIMx, TIM_Base_InitTypeDef *Structure)
{
 8001d24:	b480      	push	{r7}
 8001d26:	b085      	sub	sp, #20
 8001d28:	af00      	add	r7, sp, #0
 8001d2a:	6078      	str	r0, [r7, #4]
 8001d2c:	6039      	str	r1, [r7, #0]
  uint32_t tmpcr1;
  tmpcr1 = TIMx->CR1;
 8001d2e:	687b      	ldr	r3, [r7, #4]
 8001d30:	681b      	ldr	r3, [r3, #0]
 8001d32:	60fb      	str	r3, [r7, #12]

  /* Set TIM Time Base Unit parameters ---------------------------------------*/
  if (IS_TIM_COUNTER_MODE_SELECT_INSTANCE(TIMx))
 8001d34:	687b      	ldr	r3, [r7, #4]
 8001d36:	4a40      	ldr	r2, [pc, #256]	; (8001e38 <TIM_Base_SetConfig+0x114>)
 8001d38:	4293      	cmp	r3, r2
 8001d3a:	d013      	beq.n	8001d64 <TIM_Base_SetConfig+0x40>
 8001d3c:	687b      	ldr	r3, [r7, #4]
 8001d3e:	f1b3 4f80 	cmp.w	r3, #1073741824	; 0x40000000
 8001d42:	d00f      	beq.n	8001d64 <TIM_Base_SetConfig+0x40>
 8001d44:	687b      	ldr	r3, [r7, #4]
 8001d46:	4a3d      	ldr	r2, [pc, #244]	; (8001e3c <TIM_Base_SetConfig+0x118>)
 8001d48:	4293      	cmp	r3, r2
 8001d4a:	d00b      	beq.n	8001d64 <TIM_Base_SetConfig+0x40>
 8001d4c:	687b      	ldr	r3, [r7, #4]
 8001d4e:	4a3c      	ldr	r2, [pc, #240]	; (8001e40 <TIM_Base_SetConfig+0x11c>)
 8001d50:	4293      	cmp	r3, r2
 8001d52:	d007      	beq.n	8001d64 <TIM_Base_SetConfig+0x40>
 8001d54:	687b      	ldr	r3, [r7, #4]
 8001d56:	4a3b      	ldr	r2, [pc, #236]	; (8001e44 <TIM_Base_SetConfig+0x120>)
 8001d58:	4293      	cmp	r3, r2
 8001d5a:	d003      	beq.n	8001d64 <TIM_Base_SetConfig+0x40>
 8001d5c:	687b      	ldr	r3, [r7, #4]
 8001d5e:	4a3a      	ldr	r2, [pc, #232]	; (8001e48 <TIM_Base_SetConfig+0x124>)
 8001d60:	4293      	cmp	r3, r2
 8001d62:	d108      	bne.n	8001d76 <TIM_Base_SetConfig+0x52>
  {
    /* Select the Counter Mode */
    tmpcr1 &= ~(TIM_CR1_DIR | TIM_CR1_CMS);
 8001d64:	68fb      	ldr	r3, [r7, #12]
 8001d66:	f023 0370 	bic.w	r3, r3, #112	; 0x70
 8001d6a:	60fb      	str	r3, [r7, #12]
    tmpcr1 |= Structure->CounterMode;
 8001d6c:	683b      	ldr	r3, [r7, #0]
 8001d6e:	685b      	ldr	r3, [r3, #4]
 8001d70:	68fa      	ldr	r2, [r7, #12]
 8001d72:	4313      	orrs	r3, r2
 8001d74:	60fb      	str	r3, [r7, #12]
  }

  if (IS_TIM_CLOCK_DIVISION_INSTANCE(TIMx))
 8001d76:	687b      	ldr	r3, [r7, #4]
 8001d78:	4a2f      	ldr	r2, [pc, #188]	; (8001e38 <TIM_Base_SetConfig+0x114>)
 8001d7a:	4293      	cmp	r3, r2
 8001d7c:	d02b      	beq.n	8001dd6 <TIM_Base_SetConfig+0xb2>
 8001d7e:	687b      	ldr	r3, [r7, #4]
 8001d80:	f1b3 4f80 	cmp.w	r3, #1073741824	; 0x40000000
 8001d84:	d027      	beq.n	8001dd6 <TIM_Base_SetConfig+0xb2>
 8001d86:	687b      	ldr	r3, [r7, #4]
 8001d88:	4a2c      	ldr	r2, [pc, #176]	; (8001e3c <TIM_Base_SetConfig+0x118>)
 8001d8a:	4293      	cmp	r3, r2
 8001d8c:	d023      	beq.n	8001dd6 <TIM_Base_SetConfig+0xb2>
 8001d8e:	687b      	ldr	r3, [r7, #4]
 8001d90:	4a2b      	ldr	r2, [pc, #172]	; (8001e40 <TIM_Base_SetConfig+0x11c>)
 8001d92:	4293      	cmp	r3, r2
 8001d94:	d01f      	beq.n	8001dd6 <TIM_Base_SetConfig+0xb2>
 8001d96:	687b      	ldr	r3, [r7, #4]
 8001d98:	4a2a      	ldr	r2, [pc, #168]	; (8001e44 <TIM_Base_SetConfig+0x120>)
 8001d9a:	4293      	cmp	r3, r2
 8001d9c:	d01b      	beq.n	8001dd6 <TIM_Base_SetConfig+0xb2>
 8001d9e:	687b      	ldr	r3, [r7, #4]
 8001da0:	4a29      	ldr	r2, [pc, #164]	; (8001e48 <TIM_Base_SetConfig+0x124>)
 8001da2:	4293      	cmp	r3, r2
 8001da4:	d017      	beq.n	8001dd6 <TIM_Base_SetConfig+0xb2>
 8001da6:	687b      	ldr	r3, [r7, #4]
 8001da8:	4a28      	ldr	r2, [pc, #160]	; (8001e4c <TIM_Base_SetConfig+0x128>)
 8001daa:	4293      	cmp	r3, r2
 8001dac:	d013      	beq.n	8001dd6 <TIM_Base_SetConfig+0xb2>
 8001dae:	687b      	ldr	r3, [r7, #4]
 8001db0:	4a27      	ldr	r2, [pc, #156]	; (8001e50 <TIM_Base_SetConfig+0x12c>)
 8001db2:	4293      	cmp	r3, r2
 8001db4:	d00f      	beq.n	8001dd6 <TIM_Base_SetConfig+0xb2>
 8001db6:	687b      	ldr	r3, [r7, #4]
 8001db8:	4a26      	ldr	r2, [pc, #152]	; (8001e54 <TIM_Base_SetConfig+0x130>)
 8001dba:	4293      	cmp	r3, r2
 8001dbc:	d00b      	beq.n	8001dd6 <TIM_Base_SetConfig+0xb2>
 8001dbe:	687b      	ldr	r3, [r7, #4]
 8001dc0:	4a25      	ldr	r2, [pc, #148]	; (8001e58 <TIM_Base_SetConfig+0x134>)
 8001dc2:	4293      	cmp	r3, r2
 8001dc4:	d007      	beq.n	8001dd6 <TIM_Base_SetConfig+0xb2>
 8001dc6:	687b      	ldr	r3, [r7, #4]
 8001dc8:	4a24      	ldr	r2, [pc, #144]	; (8001e5c <TIM_Base_SetConfig+0x138>)
 8001dca:	4293      	cmp	r3, r2
 8001dcc:	d003      	beq.n	8001dd6 <TIM_Base_SetConfig+0xb2>
 8001dce:	687b      	ldr	r3, [r7, #4]
 8001dd0:	4a23      	ldr	r2, [pc, #140]	; (8001e60 <TIM_Base_SetConfig+0x13c>)
 8001dd2:	4293      	cmp	r3, r2
 8001dd4:	d108      	bne.n	8001de8 <TIM_Base_SetConfig+0xc4>
  {
    /* Set the clock division */
    tmpcr1 &= ~TIM_CR1_CKD;
 8001dd6:	68fb      	ldr	r3, [r7, #12]
 8001dd8:	f423 7340 	bic.w	r3, r3, #768	; 0x300
 8001ddc:	60fb      	str	r3, [r7, #12]
    tmpcr1 |= (uint32_t)Structure->ClockDivision;
 8001dde:	683b      	ldr	r3, [r7, #0]
 8001de0:	68db      	ldr	r3, [r3, #12]
 8001de2:	68fa      	ldr	r2, [r7, #12]
 8001de4:	4313      	orrs	r3, r2
 8001de6:	60fb      	str	r3, [r7, #12]
  }

  /* Set the auto-reload preload */
  MODIFY_REG(tmpcr1, TIM_CR1_ARPE, Structure->AutoReloadPreload);
 8001de8:	68fb      	ldr	r3, [r7, #12]
 8001dea:	f023 0280 	bic.w	r2, r3, #128	; 0x80
 8001dee:	683b      	ldr	r3, [r7, #0]
 8001df0:	695b      	ldr	r3, [r3, #20]
 8001df2:	4313      	orrs	r3, r2
 8001df4:	60fb      	str	r3, [r7, #12]

  TIMx->CR1 = tmpcr1;
 8001df6:	687b      	ldr	r3, [r7, #4]
 8001df8:	68fa      	ldr	r2, [r7, #12]
 8001dfa:	601a      	str	r2, [r3, #0]

  /* Set the Autoreload value */
  TIMx->ARR = (uint32_t)Structure->Period ;
 8001dfc:	683b      	ldr	r3, [r7, #0]
 8001dfe:	689a      	ldr	r2, [r3, #8]
 8001e00:	687b      	ldr	r3, [r7, #4]
 8001e02:	62da      	str	r2, [r3, #44]	; 0x2c

  /* Set the Prescaler value */
  TIMx->PSC = Structure->Prescaler;
 8001e04:	683b      	ldr	r3, [r7, #0]
 8001e06:	681a      	ldr	r2, [r3, #0]
 8001e08:	687b      	ldr	r3, [r7, #4]
 8001e0a:	629a      	str	r2, [r3, #40]	; 0x28

  if (IS_TIM_REPETITION_COUNTER_INSTANCE(TIMx))
 8001e0c:	687b      	ldr	r3, [r7, #4]
 8001e0e:	4a0a      	ldr	r2, [pc, #40]	; (8001e38 <TIM_Base_SetConfig+0x114>)
 8001e10:	4293      	cmp	r3, r2
 8001e12:	d003      	beq.n	8001e1c <TIM_Base_SetConfig+0xf8>
 8001e14:	687b      	ldr	r3, [r7, #4]
 8001e16:	4a0c      	ldr	r2, [pc, #48]	; (8001e48 <TIM_Base_SetConfig+0x124>)
 8001e18:	4293      	cmp	r3, r2
 8001e1a:	d103      	bne.n	8001e24 <TIM_Base_SetConfig+0x100>
  {
    /* Set the Repetition Counter value */
    TIMx->RCR = Structure->RepetitionCounter;
 8001e1c:	683b      	ldr	r3, [r7, #0]
 8001e1e:	691a      	ldr	r2, [r3, #16]
 8001e20:	687b      	ldr	r3, [r7, #4]
 8001e22:	631a      	str	r2, [r3, #48]	; 0x30
  }

  /* Generate an update event to reload the Prescaler
     and the repetition counter (only for advanced timer) value immediately */
  TIMx->EGR = TIM_EGR_UG;
 8001e24:	687b      	ldr	r3, [r7, #4]
 8001e26:	2201      	movs	r2, #1
 8001e28:	615a      	str	r2, [r3, #20]
}
 8001e2a:	bf00      	nop
 8001e2c:	3714      	adds	r7, #20
 8001e2e:	46bd      	mov	sp, r7
 8001e30:	f85d 7b04 	ldr.w	r7, [sp], #4
 8001e34:	4770      	bx	lr
 8001e36:	bf00      	nop
 8001e38:	40010000 	.word	0x40010000
 8001e3c:	40000400 	.word	0x40000400
 8001e40:	40000800 	.word	0x40000800
 8001e44:	40000c00 	.word	0x40000c00
 8001e48:	40010400 	.word	0x40010400
 8001e4c:	40014000 	.word	0x40014000
 8001e50:	40014400 	.word	0x40014400
 8001e54:	40014800 	.word	0x40014800
 8001e58:	40001800 	.word	0x40001800
 8001e5c:	40001c00 	.word	0x40001c00
 8001e60:	40002000 	.word	0x40002000

08001e64 <HAL_TIMEx_CommutCallback>:
  * @brief  Hall commutation changed callback in non-blocking mode
  * @param  htim TIM handle
  * @retval None
  */
__weak void HAL_TIMEx_CommutCallback(TIM_HandleTypeDef *htim)
{
 8001e64:	b480      	push	{r7}
 8001e66:	b083      	sub	sp, #12
 8001e68:	af00      	add	r7, sp, #0
 8001e6a:	6078      	str	r0, [r7, #4]
  UNUSED(htim);

  /* NOTE : This function should not be modified, when the callback is needed,
            the HAL_TIMEx_CommutCallback could be implemented in the user file
   */
}
 8001e6c:	bf00      	nop
 8001e6e:	370c      	adds	r7, #12
 8001e70:	46bd      	mov	sp, r7
 8001e72:	f85d 7b04 	ldr.w	r7, [sp], #4
 8001e76:	4770      	bx	lr

08001e78 <HAL_TIMEx_BreakCallback>:
  * @brief  Hall Break detection callback in non-blocking mode
  * @param  htim TIM handle
  * @retval None
  */
__weak void HAL_TIMEx_BreakCallback(TIM_HandleTypeDef *htim)
{
 8001e78:	b480      	push	{r7}
 8001e7a:	b083      	sub	sp, #12
 8001e7c:	af00      	add	r7, sp, #0
 8001e7e:	6078      	str	r0, [r7, #4]
  UNUSED(htim);

  /* NOTE : This function should not be modified, when the callback is needed,
            the HAL_TIMEx_BreakCallback could be implemented in the user file
   */
}
 8001e80:	bf00      	nop
 8001e82:	370c      	adds	r7, #12
 8001e84:	46bd      	mov	sp, r7
 8001e86:	f85d 7b04 	ldr.w	r7, [sp], #4
 8001e8a:	4770      	bx	lr

08001e8c <vListInitialise>:
/*-----------------------------------------------------------
* PUBLIC LIST API documented in list.h
*----------------------------------------------------------*/

void vListInitialise( List_t * const pxList )
{
 8001e8c:	b480      	push	{r7}
 8001e8e:	b083      	sub	sp, #12
 8001e90:	af00      	add	r7, sp, #0
 8001e92:	6078      	str	r0, [r7, #4]
    /* The list structure contains a list item which is used to mark the
     * end of the list.  To initialise the list the list end is inserted
     * as the only list entry. */
    pxList->pxIndex = ( ListItem_t * ) &( pxList->xListEnd ); /*lint !e826 !e740 !e9087 The mini list structure is used as the list end to save RAM.  This is checked and valid. */
 8001e94:	687b      	ldr	r3, [r7, #4]
 8001e96:	f103 0208 	add.w	r2, r3, #8
 8001e9a:	687b      	ldr	r3, [r7, #4]
 8001e9c:	605a      	str	r2, [r3, #4]

    /* The list end value is the highest possible value in the list to
     * ensure it remains at the end of the list. */
    pxList->xListEnd.xItemValue = portMAX_DELAY;
 8001e9e:	687b      	ldr	r3, [r7, #4]
 8001ea0:	f04f 32ff 	mov.w	r2, #4294967295
 8001ea4:	609a      	str	r2, [r3, #8]

    /* The list end next and previous pointers point to itself so we know
     * when the list is empty. */
    pxList->xListEnd.pxNext = ( ListItem_t * ) &( pxList->xListEnd );     /*lint !e826 !e740 !e9087 The mini list structure is used as the list end to save RAM.  This is checked and valid. */
 8001ea6:	687b      	ldr	r3, [r7, #4]
 8001ea8:	f103 0208 	add.w	r2, r3, #8
 8001eac:	687b      	ldr	r3, [r7, #4]
 8001eae:	60da      	str	r2, [r3, #12]
    pxList->xListEnd.pxPrevious = ( ListItem_t * ) &( pxList->xListEnd ); /*lint !e826 !e740 !e9087 The mini list structure is used as the list end to save RAM.  This is checked and valid. */
 8001eb0:	687b      	ldr	r3, [r7, #4]
 8001eb2:	f103 0208 	add.w	r2, r3, #8
 8001eb6:	687b      	ldr	r3, [r7, #4]
 8001eb8:	611a      	str	r2, [r3, #16]

    pxList->uxNumberOfItems = ( UBaseType_t ) 0U;
 8001eba:	687b      	ldr	r3, [r7, #4]
 8001ebc:	2200      	movs	r2, #0
 8001ebe:	601a      	str	r2, [r3, #0]

    /* Write known values into the list if
     * configUSE_LIST_DATA_INTEGRITY_CHECK_BYTES is set to 1. */
    listSET_LIST_INTEGRITY_CHECK_1_VALUE( pxList );
    listSET_LIST_INTEGRITY_CHECK_2_VALUE( pxList );
}
 8001ec0:	bf00      	nop
 8001ec2:	370c      	adds	r7, #12
 8001ec4:	46bd      	mov	sp, r7
 8001ec6:	f85d 7b04 	ldr.w	r7, [sp], #4
 8001eca:	4770      	bx	lr

08001ecc <vListInitialiseItem>:
/*-----------------------------------------------------------*/

void vListInitialiseItem( ListItem_t * const pxItem )
{
 8001ecc:	b480      	push	{r7}
 8001ece:	b083      	sub	sp, #12
 8001ed0:	af00      	add	r7, sp, #0
 8001ed2:	6078      	str	r0, [r7, #4]
    /* Make sure the list item is not recorded as being on a list. */
    pxItem->pxContainer = NULL;
 8001ed4:	687b      	ldr	r3, [r7, #4]
 8001ed6:	2200      	movs	r2, #0
 8001ed8:	611a      	str	r2, [r3, #16]

    /* Write known values into the list item if
     * configUSE_LIST_DATA_INTEGRITY_CHECK_BYTES is set to 1. */
    listSET_FIRST_LIST_ITEM_INTEGRITY_CHECK_VALUE( pxItem );
    listSET_SECOND_LIST_ITEM_INTEGRITY_CHECK_VALUE( pxItem );
}
 8001eda:	bf00      	nop
 8001edc:	370c      	adds	r7, #12
 8001ede:	46bd      	mov	sp, r7
 8001ee0:	f85d 7b04 	ldr.w	r7, [sp], #4
 8001ee4:	4770      	bx	lr

08001ee6 <vListInsertEnd>:
/*-----------------------------------------------------------*/

void vListInsertEnd( List_t * const pxList,
                     ListItem_t * const pxNewListItem )
{
 8001ee6:	b480      	push	{r7}
 8001ee8:	b085      	sub	sp, #20
 8001eea:	af00      	add	r7, sp, #0
 8001eec:	6078      	str	r0, [r7, #4]
 8001eee:	6039      	str	r1, [r7, #0]
    ListItem_t * const pxIndex = pxList->pxIndex;
 8001ef0:	687b      	ldr	r3, [r7, #4]
 8001ef2:	685b      	ldr	r3, [r3, #4]
 8001ef4:	60fb      	str	r3, [r7, #12]
    listTEST_LIST_ITEM_INTEGRITY( pxNewListItem );

    /* Insert a new list item into pxList, but rather than sort the list,
     * makes the new list item the last item to be removed by a call to
     * listGET_OWNER_OF_NEXT_ENTRY(). */
