
007Led_task_priority.elf:     file format elf32-littlearm

Sections:
Idx Name          Size      VMA       LMA       File off  Algn
  0 .isr_vector   00000188  08000000  08000000  00010000  2**0
                  CONTENTS, ALLOC, LOAD, READONLY, DATA
  1 .text         000065c8  08000190  08000190  00010190  2**4
                  CONTENTS, ALLOC, LOAD, READONLY, CODE
  2 .rodata       00000134  08006758  08006758  00016758  2**2
                  CONTENTS, ALLOC, LOAD, READONLY, DATA
  3 .ARM.extab    00000000  0800688c  0800688c  00020014  2**0
                  CONTENTS
  4 .ARM          00000008  0800688c  0800688c  0001688c  2**2
                  CONTENTS, ALLOC, LOAD, READONLY, DATA
  5 .preinit_array 00000000  08006894  08006894  00020014  2**0
                  CONTENTS, ALLOC, LOAD, DATA
  6 .init_array   00000004  08006894  08006894  00016894  2**2
                  CONTENTS, ALLOC, LOAD, DATA
  7 .fini_array   00000004  08006898  08006898  00016898  2**2
                  CONTENTS, ALLOC, LOAD, DATA
  8 .data         00000014  20000000  0800689c  00020000  2**2
                  CONTENTS, ALLOC, LOAD, DATA
  9 .bss          000144a4  20000014  080068b0  00020014  2**2
                  ALLOC
 10 ._user_heap_stack 00000600  200144b8  080068b0  000244b8  2**0
                  ALLOC
 11 .ARM.attributes 00000030  00000000  00000000  00020014  2**0
                  CONTENTS, READONLY
 12 .debug_info   0001a383  00000000  00000000  00020044  2**0
                  CONTENTS, READONLY, DEBUGGING, OCTETS
 13 .debug_abbrev 000035f0  00000000  00000000  0003a3c7  2**0
                  CONTENTS, READONLY, DEBUGGING, OCTETS
 14 .debug_aranges 00001378  00000000  00000000  0003d9b8  2**3
                  CONTENTS, READONLY, DEBUGGING, OCTETS
 15 .debug_ranges 000011e0  00000000  00000000  0003ed30  2**3
                  CONTENTS, READONLY, DEBUGGING, OCTETS
 16 .debug_macro  00023d96  00000000  00000000  0003ff10  2**0
                  CONTENTS, READONLY, DEBUGGING, OCTETS
 17 .debug_line   00016fe3  00000000  00000000  00063ca6  2**0
                  CONTENTS, READONLY, DEBUGGING, OCTETS
 18 .debug_str    000d7547  00000000  00000000  0007ac89  2**0
                  CONTENTS, READONLY, DEBUGGING, OCTETS
 19 .comment      00000053  00000000  00000000  001521d0  2**0
                  CONTENTS, READONLY
 20 .debug_frame  000050d0  00000000  00000000  00152224  2**2
                  CONTENTS, READONLY, DEBUGGING, OCTETS

Disassembly of section .text:

08000190 <__do_global_dtors_aux>:
 8000190:	b510      	push	{r4, lr}
 8000192:	4c05      	ldr	r4, [pc, #20]	; (80001a8 <__do_global_dtors_aux+0x18>)
 8000194:	7823      	ldrb	r3, [r4, #0]
 8000196:	b933      	cbnz	r3, 80001a6 <__do_global_dtors_aux+0x16>
 8000198:	4b04      	ldr	r3, [pc, #16]	; (80001ac <__do_global_dtors_aux+0x1c>)
 800019a:	b113      	cbz	r3, 80001a2 <__do_global_dtors_aux+0x12>
 800019c:	4804      	ldr	r0, [pc, #16]	; (80001b0 <__do_global_dtors_aux+0x20>)
 800019e:	f3af 8000 	nop.w
 80001a2:	2301      	movs	r3, #1
 80001a4:	7023      	strb	r3, [r4, #0]
 80001a6:	bd10      	pop	{r4, pc}
 80001a8:	20000014 	.word	0x20000014
 80001ac:	00000000 	.word	0x00000000
 80001b0:	08006740 	.word	0x08006740

080001b4 <frame_dummy>:
 80001b4:	b508      	push	{r3, lr}
 80001b6:	4b03      	ldr	r3, [pc, #12]	; (80001c4 <frame_dummy+0x10>)
 80001b8:	b11b      	cbz	r3, 80001c2 <frame_dummy+0xe>
 80001ba:	4903      	ldr	r1, [pc, #12]	; (80001c8 <frame_dummy+0x14>)
 80001bc:	4803      	ldr	r0, [pc, #12]	; (80001cc <frame_dummy+0x18>)
 80001be:	f3af 8000 	nop.w
 80001c2:	bd08      	pop	{r3, pc}
 80001c4:	00000000 	.word	0x00000000
 80001c8:	20000018 	.word	0x20000018
 80001cc:	08006740 	.word	0x08006740

080001d0 <SEGGER_RTT_ASM_WriteSkipNoLock>:
        //   R4 <Rem>
        //   R5 pRing->pBuffer
        //   R6 pRing (Points to active struct SEGGER_RTT_BUFFER_DOWN)
        //   R7 WrOff
        //
        PUSH     {R4-R7}
 80001d0:	b4f0      	push	{r4, r5, r6, r7}
        ADD      R3,R0,R0, LSL #+1
 80001d2:	eb00 0340 	add.w	r3, r0, r0, lsl #1
        LDR.W    R0,=_SEGGER_RTT                 // pRing = &_SEGGER_RTT.aUp[BufferIndex];
 80001d6:	f8df 0088 	ldr.w	r0, [pc, #136]	; 8000260 <_Case3+0x6>
        ADD      R0,R0,R3, LSL #+3
 80001da:	eb00 00c3 	add.w	r0, r0, r3, lsl #3
        ADD      R6,R0,#+24
 80001de:	f100 0618 	add.w	r6, r0, #24
        LDR      R0,[R6, #+16]                   // RdOff = pRing->RdOff;
 80001e2:	6930      	ldr	r0, [r6, #16]
        LDR      R7,[R6, #+12]                   // WrOff = pRing->WrOff;
 80001e4:	68f7      	ldr	r7, [r6, #12]
        LDR      R5,[R6, #+4]                    // pRing->pBuffer
 80001e6:	6875      	ldr	r5, [r6, #4]
        CMP      R7,R0
 80001e8:	4287      	cmp	r7, r0
        BCC.N    _CheckCase4                     // if (RdOff <= WrOff) {                           => Case 1), 2) or 3)
 80001ea:	d332      	bcc.n	8000252 <_CheckCase4>
        //
        // Handling for case 1, later on identical to case 4
        //
        LDR      R3,[R6, #+8]                    //  Avail = pRing->SizeOfBuffer - WrOff - 1u;      => Space until wrap-around (assume 1 byte not usable for case that RdOff == 0)
 80001ec:	68b3      	ldr	r3, [r6, #8]
        SUBS     R4,R3,R7                        // <Rem> (Used in case we jump into case 2 afterwards)
 80001ee:	1bdc      	subs	r4, r3, r7
        SUBS     R3,R4,#+1                       // <Avail>
 80001f0:	1e63      	subs	r3, r4, #1
        CMP      R3,R2
 80001f2:	4293      	cmp	r3, r2
        BCC.N    _CheckCase2                     // if (Avail >= NumBytes) {  => Case 1)?
 80001f4:	d314      	bcc.n	8000220 <_CheckCase2>

080001f6 <_Case4>:
_Case4:
        ADDS     R5,R7,R5                        // pBuffer += WrOff
 80001f6:	197d      	adds	r5, r7, r5
        ADDS     R0,R2,R7                        // v = WrOff + NumBytes
 80001f8:	19d0      	adds	r0, r2, r7
 80001fa:	bf00      	nop

080001fc <_LoopCopyStraight>:
        // 2x unrolling for the copy loop that is used most of the time
        // This is a special optimization for small SystemView packets and makes them even faster
        //
        _ALIGN(2)
_LoopCopyStraight:                               // memcpy(pRing->pBuffer + WrOff, pData, NumBytes);
        LDRB     R3,[R1], #+1
 80001fc:	f811 3b01 	ldrb.w	r3, [r1], #1
        STRB     R3,[R5], #+1                    // *pDest++ = *pSrc++
 8000200:	f805 3b01 	strb.w	r3, [r5], #1
        SUBS     R2,R2,#+1
 8000204:	3a01      	subs	r2, #1
        BEQ      _CSDone
 8000206:	d005      	beq.n	8000214 <_CSDone>
        LDRB     R3,[R1], #+1
 8000208:	f811 3b01 	ldrb.w	r3, [r1], #1
        STRB     R3,[R5], #+1                    // *pDest++ = *pSrc++
 800020c:	f805 3b01 	strb.w	r3, [r5], #1
        SUBS     R2,R2,#+1
 8000210:	3a01      	subs	r2, #1
        BNE      _LoopCopyStraight
 8000212:	d1f3      	bne.n	80001fc <_LoopCopyStraight>

08000214 <_CSDone>:
_CSDone:
#if _CORE_NEEDS_DMB                              // Do not slow down cores that do not need a DMB instruction here
        DMB                                      // Cortex-M7 may delay memory writes and also change the order in which the writes happen. Therefore, make sure that all buffer writes are finished, before updating the <WrOff> in the struct
 8000214:	f3bf 8f5f 	dmb	sy
#endif
        STR      R0,[R6, #+12]                   // pRing->WrOff = WrOff + NumBytes;
 8000218:	60f0      	str	r0, [r6, #12]
        MOVS     R0,#+1
 800021a:	2001      	movs	r0, #1
        POP      {R4-R7}
 800021c:	bcf0      	pop	{r4, r5, r6, r7}
        BX       LR                              // Return 1
 800021e:	4770      	bx	lr

08000220 <_CheckCase2>:
_CheckCase2:
        ADDS     R0,R0,R3                        // Avail += RdOff; => Space incl. wrap-around
 8000220:	18c0      	adds	r0, r0, r3
        CMP      R0,R2
 8000222:	4290      	cmp	r0, r2
        BCC.N    _Case3                          // if (Avail >= NumBytes) {           => Case 2? => If not, we have case 3) (does not fit)
 8000224:	d319      	bcc.n	800025a <_Case3>
        //
        // Handling for case 2
        //
        ADDS     R0,R7,R5                        // v = pRing->pBuffer + WrOff => Do not change pRing->pBuffer here because 2nd chunk needs org. value
 8000226:	1978      	adds	r0, r7, r5
        SUBS     R2,R2,R4                        // NumBytes -= Rem;  (Rem = pRing->SizeOfBuffer - WrOff; => Space until end of buffer)
 8000228:	1b12      	subs	r2, r2, r4

0800022a <_LoopCopyBeforeWrapAround>:
_LoopCopyBeforeWrapAround:                       // memcpy(pRing->pBuffer + WrOff, pData, Rem); => Copy 1st chunk
        LDRB     R3,[R1], #+1
 800022a:	f811 3b01 	ldrb.w	r3, [r1], #1
        STRB     R3,[R0], #+1                    // *pDest++ = *pSrc++
 800022e:	f800 3b01 	strb.w	r3, [r0], #1
        SUBS     R4,R4,#+1
 8000232:	3c01      	subs	r4, #1
        BNE      _LoopCopyBeforeWrapAround
 8000234:	d1f9      	bne.n	800022a <_LoopCopyBeforeWrapAround>
        // Special case: First check that assumed RdOff == 0 calculated that last element before wrap-around could not be used
        // But 2nd check (considering space until wrap-around and until RdOff) revealed that RdOff is not 0, so we can use the last element
        // In this case, we may use a copy straight until buffer end anyway without needing to copy 2 chunks
        // Therefore, check if 2nd memcpy is necessary at all
        //
        ADDS     R4,R2,#+0                       // Save <NumBytes> (needed as counter in loop but must be written to <WrOff> after the loop). Also use this inst to update the flags to skip 2nd loop if possible
 8000236:	1c14      	adds	r4, r2, #0
        BEQ.N    _No2ChunkNeeded                 // if (NumBytes) {
 8000238:	d005      	beq.n	8000246 <_No2ChunkNeeded>

0800023a <_LoopCopyAfterWrapAround>:
_LoopCopyAfterWrapAround:                        // memcpy(pRing->pBuffer, pData + Rem, NumBytes);
        LDRB     R3,[R1], #+1                    // pData already points to the next src byte due to copy loop increment before this loop
 800023a:	f811 3b01 	ldrb.w	r3, [r1], #1
        STRB     R3,[R5], #+1                    // *pDest++ = *pSrc++
 800023e:	f805 3b01 	strb.w	r3, [r5], #1
        SUBS     R2,R2,#+1
 8000242:	3a01      	subs	r2, #1
        BNE      _LoopCopyAfterWrapAround
 8000244:	d1f9      	bne.n	800023a <_LoopCopyAfterWrapAround>

08000246 <_No2ChunkNeeded>:
_No2ChunkNeeded:
#if _CORE_NEEDS_DMB                              // Do not slow down cores that do not need a DMB instruction here
        DMB                                      // Cortex-M7 may delay memory writes and also change the order in which the writes happen. Therefore, make sure that all buffer writes are finished, before updating the <WrOff> in the struct
 8000246:	f3bf 8f5f 	dmb	sy
#endif
        STR      R4,[R6, #+12]                   // pRing->WrOff = NumBytes; => Must be written after copying data because J-Link may read control block asynchronously while writing into buffer
 800024a:	60f4      	str	r4, [r6, #12]
        MOVS     R0,#+1
 800024c:	2001      	movs	r0, #1
        POP      {R4-R7}
 800024e:	bcf0      	pop	{r4, r5, r6, r7}
        BX       LR                              // Return 1
 8000250:	4770      	bx	lr

08000252 <_CheckCase4>:
_CheckCase4:
        SUBS     R0,R0,R7
 8000252:	1bc0      	subs	r0, r0, r7
        SUBS     R0,R0,#+1                       // Avail = RdOff - WrOff - 1u;
 8000254:	3801      	subs	r0, #1
        CMP      R0,R2
 8000256:	4290      	cmp	r0, r2
        BCS.N    _Case4                          // if (Avail >= NumBytes) {      => Case 4) == 1) ? => If not, we have case 5) == 3) (does not fit)
 8000258:	d2cd      	bcs.n	80001f6 <_Case4>

0800025a <_Case3>:
_Case3:
        MOVS     R0,#+0
 800025a:	2000      	movs	r0, #0
        POP      {R4-R7}
 800025c:	bcf0      	pop	{r4, r5, r6, r7}
        BX       LR                              // Return 0
 800025e:	4770      	bx	lr
        LDR.W    R0,=_SEGGER_RTT                 // pRing = &_SEGGER_RTT.aUp[BufferIndex];
 8000260:	20014410 	.word	0x20014410

08000264 <__aeabi_uldivmod>:
 8000264:	b953      	cbnz	r3, 800027c <__aeabi_uldivmod+0x18>
 8000266:	b94a      	cbnz	r2, 800027c <__aeabi_uldivmod+0x18>
 8000268:	2900      	cmp	r1, #0
 800026a:	bf08      	it	eq
 800026c:	2800      	cmpeq	r0, #0
 800026e:	bf1c      	itt	ne
 8000270:	f04f 31ff 	movne.w	r1, #4294967295
 8000274:	f04f 30ff 	movne.w	r0, #4294967295
 8000278:	f000 b96e 	b.w	8000558 <__aeabi_idiv0>
 800027c:	f1ad 0c08 	sub.w	ip, sp, #8
 8000280:	e96d ce04 	strd	ip, lr, [sp, #-16]!
 8000284:	f000 f806 	bl	8000294 <__udivmoddi4>
 8000288:	f8dd e004 	ldr.w	lr, [sp, #4]
 800028c:	e9dd 2302 	ldrd	r2, r3, [sp, #8]
 8000290:	b004      	add	sp, #16
 8000292:	4770      	bx	lr

08000294 <__udivmoddi4>:
 8000294:	e92d 47f0 	stmdb	sp!, {r4, r5, r6, r7, r8, r9, sl, lr}
 8000298:	9d08      	ldr	r5, [sp, #32]
 800029a:	4604      	mov	r4, r0
 800029c:	468c      	mov	ip, r1
 800029e:	2b00      	cmp	r3, #0
 80002a0:	f040 8083 	bne.w	80003aa <__udivmoddi4+0x116>
 80002a4:	428a      	cmp	r2, r1
 80002a6:	4617      	mov	r7, r2
 80002a8:	d947      	bls.n	800033a <__udivmoddi4+0xa6>
 80002aa:	fab2 f282 	clz	r2, r2
 80002ae:	b142      	cbz	r2, 80002c2 <__udivmoddi4+0x2e>
 80002b0:	f1c2 0020 	rsb	r0, r2, #32
 80002b4:	fa24 f000 	lsr.w	r0, r4, r0
 80002b8:	4091      	lsls	r1, r2
 80002ba:	4097      	lsls	r7, r2
 80002bc:	ea40 0c01 	orr.w	ip, r0, r1
 80002c0:	4094      	lsls	r4, r2
 80002c2:	ea4f 4817 	mov.w	r8, r7, lsr #16
 80002c6:	0c23      	lsrs	r3, r4, #16
 80002c8:	fbbc f6f8 	udiv	r6, ip, r8
 80002cc:	fa1f fe87 	uxth.w	lr, r7
 80002d0:	fb08 c116 	mls	r1, r8, r6, ip
 80002d4:	ea43 4301 	orr.w	r3, r3, r1, lsl #16
 80002d8:	fb06 f10e 	mul.w	r1, r6, lr
 80002dc:	4299      	cmp	r1, r3
 80002de:	d909      	bls.n	80002f4 <__udivmoddi4+0x60>
 80002e0:	18fb      	adds	r3, r7, r3
 80002e2:	f106 30ff 	add.w	r0, r6, #4294967295
 80002e6:	f080 8119 	bcs.w	800051c <__udivmoddi4+0x288>
 80002ea:	4299      	cmp	r1, r3
 80002ec:	f240 8116 	bls.w	800051c <__udivmoddi4+0x288>
 80002f0:	3e02      	subs	r6, #2
 80002f2:	443b      	add	r3, r7
 80002f4:	1a5b      	subs	r3, r3, r1
 80002f6:	b2a4      	uxth	r4, r4
 80002f8:	fbb3 f0f8 	udiv	r0, r3, r8
 80002fc:	fb08 3310 	mls	r3, r8, r0, r3
 8000300:	ea44 4403 	orr.w	r4, r4, r3, lsl #16
 8000304:	fb00 fe0e 	mul.w	lr, r0, lr
 8000308:	45a6      	cmp	lr, r4
 800030a:	d909      	bls.n	8000320 <__udivmoddi4+0x8c>
 800030c:	193c      	adds	r4, r7, r4
 800030e:	f100 33ff 	add.w	r3, r0, #4294967295
 8000312:	f080 8105 	bcs.w	8000520 <__udivmoddi4+0x28c>
 8000316:	45a6      	cmp	lr, r4
 8000318:	f240 8102 	bls.w	8000520 <__udivmoddi4+0x28c>
 800031c:	3802      	subs	r0, #2
 800031e:	443c      	add	r4, r7
 8000320:	ea40 4006 	orr.w	r0, r0, r6, lsl #16
 8000324:	eba4 040e 	sub.w	r4, r4, lr
 8000328:	2600      	movs	r6, #0
 800032a:	b11d      	cbz	r5, 8000334 <__udivmoddi4+0xa0>
 800032c:	40d4      	lsrs	r4, r2
 800032e:	2300      	movs	r3, #0
 8000330:	e9c5 4300 	strd	r4, r3, [r5]
 8000334:	4631      	mov	r1, r6
 8000336:	e8bd 87f0 	ldmia.w	sp!, {r4, r5, r6, r7, r8, r9, sl, pc}
 800033a:	b902      	cbnz	r2, 800033e <__udivmoddi4+0xaa>
 800033c:	deff      	udf	#255	; 0xff
 800033e:	fab2 f282 	clz	r2, r2
 8000342:	2a00      	cmp	r2, #0
 8000344:	d150      	bne.n	80003e8 <__udivmoddi4+0x154>
 8000346:	1bcb      	subs	r3, r1, r7
 8000348:	ea4f 4e17 	mov.w	lr, r7, lsr #16
 800034c:	fa1f f887 	uxth.w	r8, r7
 8000350:	2601      	movs	r6, #1
 8000352:	fbb3 fcfe 	udiv	ip, r3, lr
 8000356:	0c21      	lsrs	r1, r4, #16
 8000358:	fb0e 331c 	mls	r3, lr, ip, r3
 800035c:	ea41 4103 	orr.w	r1, r1, r3, lsl #16
 8000360:	fb08 f30c 	mul.w	r3, r8, ip
 8000364:	428b      	cmp	r3, r1
 8000366:	d907      	bls.n	8000378 <__udivmoddi4+0xe4>
 8000368:	1879      	adds	r1, r7, r1
 800036a:	f10c 30ff 	add.w	r0, ip, #4294967295
 800036e:	d202      	bcs.n	8000376 <__udivmoddi4+0xe2>
 8000370:	428b      	cmp	r3, r1
 8000372:	f200 80e9 	bhi.w	8000548 <__udivmoddi4+0x2b4>
 8000376:	4684      	mov	ip, r0
 8000378:	1ac9      	subs	r1, r1, r3
 800037a:	b2a3      	uxth	r3, r4
 800037c:	fbb1 f0fe 	udiv	r0, r1, lr
 8000380:	fb0e 1110 	mls	r1, lr, r0, r1
 8000384:	ea43 4401 	orr.w	r4, r3, r1, lsl #16
 8000388:	fb08 f800 	mul.w	r8, r8, r0
 800038c:	45a0      	cmp	r8, r4
 800038e:	d907      	bls.n	80003a0 <__udivmoddi4+0x10c>
 8000390:	193c      	adds	r4, r7, r4
 8000392:	f100 33ff 	add.w	r3, r0, #4294967295
 8000396:	d202      	bcs.n	800039e <__udivmoddi4+0x10a>
 8000398:	45a0      	cmp	r8, r4
 800039a:	f200 80d9 	bhi.w	8000550 <__udivmoddi4+0x2bc>
 800039e:	4618      	mov	r0, r3
 80003a0:	eba4 0408 	sub.w	r4, r4, r8
 80003a4:	ea40 400c 	orr.w	r0, r0, ip, lsl #16
 80003a8:	e7bf      	b.n	800032a <__udivmoddi4+0x96>
 80003aa:	428b      	cmp	r3, r1
 80003ac:	d909      	bls.n	80003c2 <__udivmoddi4+0x12e>
 80003ae:	2d00      	cmp	r5, #0
 80003b0:	f000 80b1 	beq.w	8000516 <__udivmoddi4+0x282>
 80003b4:	2600      	movs	r6, #0
 80003b6:	e9c5 0100 	strd	r0, r1, [r5]
 80003ba:	4630      	mov	r0, r6
 80003bc:	4631      	mov	r1, r6
 80003be:	e8bd 87f0 	ldmia.w	sp!, {r4, r5, r6, r7, r8, r9, sl, pc}
 80003c2:	fab3 f683 	clz	r6, r3
 80003c6:	2e00      	cmp	r6, #0
 80003c8:	d14a      	bne.n	8000460 <__udivmoddi4+0x1cc>
 80003ca:	428b      	cmp	r3, r1
 80003cc:	d302      	bcc.n	80003d4 <__udivmoddi4+0x140>
 80003ce:	4282      	cmp	r2, r0
 80003d0:	f200 80b8 	bhi.w	8000544 <__udivmoddi4+0x2b0>
 80003d4:	1a84      	subs	r4, r0, r2
 80003d6:	eb61 0103 	sbc.w	r1, r1, r3
 80003da:	2001      	movs	r0, #1
 80003dc:	468c      	mov	ip, r1
 80003de:	2d00      	cmp	r5, #0
 80003e0:	d0a8      	beq.n	8000334 <__udivmoddi4+0xa0>
 80003e2:	e9c5 4c00 	strd	r4, ip, [r5]
 80003e6:	e7a5      	b.n	8000334 <__udivmoddi4+0xa0>
 80003e8:	f1c2 0320 	rsb	r3, r2, #32
 80003ec:	fa20 f603 	lsr.w	r6, r0, r3
 80003f0:	4097      	lsls	r7, r2
 80003f2:	fa01 f002 	lsl.w	r0, r1, r2
 80003f6:	ea4f 4e17 	mov.w	lr, r7, lsr #16
 80003fa:	40d9      	lsrs	r1, r3
 80003fc:	4330      	orrs	r0, r6
 80003fe:	0c03      	lsrs	r3, r0, #16
 8000400:	fbb1 f6fe 	udiv	r6, r1, lr
 8000404:	fa1f f887 	uxth.w	r8, r7
 8000408:	fb0e 1116 	mls	r1, lr, r6, r1
 800040c:	ea43 4301 	orr.w	r3, r3, r1, lsl #16
 8000410:	fb06 f108 	mul.w	r1, r6, r8
 8000414:	4299      	cmp	r1, r3
 8000416:	fa04 f402 	lsl.w	r4, r4, r2
 800041a:	d909      	bls.n	8000430 <__udivmoddi4+0x19c>
 800041c:	18fb      	adds	r3, r7, r3
 800041e:	f106 3cff 	add.w	ip, r6, #4294967295
 8000422:	f080 808d 	bcs.w	8000540 <__udivmoddi4+0x2ac>
 8000426:	4299      	cmp	r1, r3
 8000428:	f240 808a 	bls.w	8000540 <__udivmoddi4+0x2ac>
 800042c:	3e02      	subs	r6, #2
 800042e:	443b      	add	r3, r7
 8000430:	1a5b      	subs	r3, r3, r1
 8000432:	b281      	uxth	r1, r0
 8000434:	fbb3 f0fe 	udiv	r0, r3, lr
 8000438:	fb0e 3310 	mls	r3, lr, r0, r3
 800043c:	ea41 4103 	orr.w	r1, r1, r3, lsl #16
 8000440:	fb00 f308 	mul.w	r3, r0, r8
 8000444:	428b      	cmp	r3, r1
 8000446:	d907      	bls.n	8000458 <__udivmoddi4+0x1c4>
 8000448:	1879      	adds	r1, r7, r1
 800044a:	f100 3cff 	add.w	ip, r0, #4294967295
 800044e:	d273      	bcs.n	8000538 <__udivmoddi4+0x2a4>
 8000450:	428b      	cmp	r3, r1
 8000452:	d971      	bls.n	8000538 <__udivmoddi4+0x2a4>
 8000454:	3802      	subs	r0, #2
 8000456:	4439      	add	r1, r7
 8000458:	1acb      	subs	r3, r1, r3
 800045a:	ea40 4606 	orr.w	r6, r0, r6, lsl #16
 800045e:	e778      	b.n	8000352 <__udivmoddi4+0xbe>
 8000460:	f1c6 0c20 	rsb	ip, r6, #32
 8000464:	fa03 f406 	lsl.w	r4, r3, r6
 8000468:	fa22 f30c 	lsr.w	r3, r2, ip
 800046c:	431c      	orrs	r4, r3
 800046e:	fa20 f70c 	lsr.w	r7, r0, ip
 8000472:	fa01 f306 	lsl.w	r3, r1, r6
 8000476:	ea4f 4e14 	mov.w	lr, r4, lsr #16
 800047a:	fa21 f10c 	lsr.w	r1, r1, ip
 800047e:	431f      	orrs	r7, r3
 8000480:	0c3b      	lsrs	r3, r7, #16
 8000482:	fbb1 f9fe 	udiv	r9, r1, lr
 8000486:	fa1f f884 	uxth.w	r8, r4
 800048a:	fb0e 1119 	mls	r1, lr, r9, r1
 800048e:	ea43 4101 	orr.w	r1, r3, r1, lsl #16
 8000492:	fb09 fa08 	mul.w	sl, r9, r8
 8000496:	458a      	cmp	sl, r1
 8000498:	fa02 f206 	lsl.w	r2, r2, r6
 800049c:	fa00 f306 	lsl.w	r3, r0, r6
 80004a0:	d908      	bls.n	80004b4 <__udivmoddi4+0x220>
 80004a2:	1861      	adds	r1, r4, r1
 80004a4:	f109 30ff 	add.w	r0, r9, #4294967295
 80004a8:	d248      	bcs.n	800053c <__udivmoddi4+0x2a8>
 80004aa:	458a      	cmp	sl, r1
 80004ac:	d946      	bls.n	800053c <__udivmoddi4+0x2a8>
 80004ae:	f1a9 0902 	sub.w	r9, r9, #2
 80004b2:	4421      	add	r1, r4
 80004b4:	eba1 010a 	sub.w	r1, r1, sl
 80004b8:	b2bf      	uxth	r7, r7
 80004ba:	fbb1 f0fe 	udiv	r0, r1, lr
 80004be:	fb0e 1110 	mls	r1, lr, r0, r1
 80004c2:	ea47 4701 	orr.w	r7, r7, r1, lsl #16
 80004c6:	fb00 f808 	mul.w	r8, r0, r8
 80004ca:	45b8      	cmp	r8, r7
 80004cc:	d907      	bls.n	80004de <__udivmoddi4+0x24a>
 80004ce:	19e7      	adds	r7, r4, r7
 80004d0:	f100 31ff 	add.w	r1, r0, #4294967295
 80004d4:	d22e      	bcs.n	8000534 <__udivmoddi4+0x2a0>
 80004d6:	45b8      	cmp	r8, r7
 80004d8:	d92c      	bls.n	8000534 <__udivmoddi4+0x2a0>
 80004da:	3802      	subs	r0, #2
 80004dc:	4427      	add	r7, r4
 80004de:	ea40 4009 	orr.w	r0, r0, r9, lsl #16
 80004e2:	eba7 0708 	sub.w	r7, r7, r8
 80004e6:	fba0 8902 	umull	r8, r9, r0, r2
 80004ea:	454f      	cmp	r7, r9
 80004ec:	46c6      	mov	lr, r8
 80004ee:	4649      	mov	r1, r9
 80004f0:	d31a      	bcc.n	8000528 <__udivmoddi4+0x294>
 80004f2:	d017      	beq.n	8000524 <__udivmoddi4+0x290>
 80004f4:	b15d      	cbz	r5, 800050e <__udivmoddi4+0x27a>
 80004f6:	ebb3 020e 	subs.w	r2, r3, lr
 80004fa:	eb67 0701 	sbc.w	r7, r7, r1
 80004fe:	fa07 fc0c 	lsl.w	ip, r7, ip
 8000502:	40f2      	lsrs	r2, r6
 8000504:	ea4c 0202 	orr.w	r2, ip, r2
 8000508:	40f7      	lsrs	r7, r6
 800050a:	e9c5 2700 	strd	r2, r7, [r5]
 800050e:	2600      	movs	r6, #0
 8000510:	4631      	mov	r1, r6
 8000512:	e8bd 87f0 	ldmia.w	sp!, {r4, r5, r6, r7, r8, r9, sl, pc}
 8000516:	462e      	mov	r6, r5
 8000518:	4628      	mov	r0, r5
 800051a:	e70b      	b.n	8000334 <__udivmoddi4+0xa0>
 800051c:	4606      	mov	r6, r0
 800051e:	e6e9      	b.n	80002f4 <__udivmoddi4+0x60>
 8000520:	4618      	mov	r0, r3
 8000522:	e6fd      	b.n	8000320 <__udivmoddi4+0x8c>
 8000524:	4543      	cmp	r3, r8
 8000526:	d2e5      	bcs.n	80004f4 <__udivmoddi4+0x260>
 8000528:	ebb8 0e02 	subs.w	lr, r8, r2
 800052c:	eb69 0104 	sbc.w	r1, r9, r4
 8000530:	3801      	subs	r0, #1
 8000532:	e7df      	b.n	80004f4 <__udivmoddi4+0x260>
 8000534:	4608      	mov	r0, r1
 8000536:	e7d2      	b.n	80004de <__udivmoddi4+0x24a>
 8000538:	4660      	mov	r0, ip
 800053a:	e78d      	b.n	8000458 <__udivmoddi4+0x1c4>
 800053c:	4681      	mov	r9, r0
 800053e:	e7b9      	b.n	80004b4 <__udivmoddi4+0x220>
 8000540:	4666      	mov	r6, ip
 8000542:	e775      	b.n	8000430 <__udivmoddi4+0x19c>
 8000544:	4630      	mov	r0, r6
 8000546:	e74a      	b.n	80003de <__udivmoddi4+0x14a>
 8000548:	f1ac 0c02 	sub.w	ip, ip, #2
 800054c:	4439      	add	r1, r7
 800054e:	e713      	b.n	8000378 <__udivmoddi4+0xe4>
 8000550:	3802      	subs	r0, #2
 8000552:	443c      	add	r4, r7
 8000554:	e724      	b.n	80003a0 <__udivmoddi4+0x10c>
 8000556:	bf00      	nop

08000558 <__aeabi_idiv0>:
 8000558:	4770      	bx	lr
 800055a:	bf00      	nop

0800055c <MX_GPIO_Init>:
/* USER CODE END 1 */

/** Configure pins
*/
void MX_GPIO_Init(void)
{
 800055c:	b580      	push	{r7, lr}
 800055e:	b088      	sub	sp, #32
 8000560:	af00      	add	r7, sp, #0

  GPIO_InitTypeDef GPIO_InitStruct = {0};
 8000562:	f107 030c 	add.w	r3, r7, #12
 8000566:	2200      	movs	r2, #0
 8000568:	601a      	str	r2, [r3, #0]
 800056a:	605a      	str	r2, [r3, #4]
 800056c:	609a      	str	r2, [r3, #8]
 800056e:	60da      	str	r2, [r3, #12]
 8000570:	611a      	str	r2, [r3, #16]

  /* GPIO Ports Clock Enable */
  __HAL_RCC_GPIOA_CLK_ENABLE();
 8000572:	2300      	movs	r3, #0
 8000574:	60bb      	str	r3, [r7, #8]
 8000576:	4b23      	ldr	r3, [pc, #140]	; (8000604 <MX_GPIO_Init+0xa8>)
 8000578:	6b1b      	ldr	r3, [r3, #48]	; 0x30
 800057a:	4a22      	ldr	r2, [pc, #136]	; (8000604 <MX_GPIO_Init+0xa8>)
 800057c:	f043 0301 	orr.w	r3, r3, #1
 8000580:	6313      	str	r3, [r2, #48]	; 0x30
 8000582:	4b20      	ldr	r3, [pc, #128]	; (8000604 <MX_GPIO_Init+0xa8>)
 8000584:	6b1b      	ldr	r3, [r3, #48]	; 0x30
 8000586:	f003 0301 	and.w	r3, r3, #1
 800058a:	60bb      	str	r3, [r7, #8]
 800058c:	68bb      	ldr	r3, [r7, #8]
  __HAL_RCC_GPIOD_CLK_ENABLE();
 800058e:	2300      	movs	r3, #0
 8000590:	607b      	str	r3, [r7, #4]
 8000592:	4b1c      	ldr	r3, [pc, #112]	; (8000604 <MX_GPIO_Init+0xa8>)
 8000594:	6b1b      	ldr	r3, [r3, #48]	; 0x30
 8000596:	4a1b      	ldr	r2, [pc, #108]	; (8000604 <MX_GPIO_Init+0xa8>)
 8000598:	f043 0308 	orr.w	r3, r3, #8
 800059c:	6313      	str	r3, [r2, #48]	; 0x30
 800059e:	4b19      	ldr	r3, [pc, #100]	; (8000604 <MX_GPIO_Init+0xa8>)
 80005a0:	6b1b      	ldr	r3, [r3, #48]	; 0x30
 80005a2:	f003 0308 	and.w	r3, r3, #8
 80005a6:	607b      	str	r3, [r7, #4]
 80005a8:	687b      	ldr	r3, [r7, #4]

  /*Configure GPIO pin Output Level */
  HAL_GPIO_WritePin(GPIOD, LD4_Pin|LD3_Pin|LD5_Pin|LD6_Pin, GPIO_PIN_RESET);
 80005aa:	2200      	movs	r2, #0
 80005ac:	f44f 4170 	mov.w	r1, #61440	; 0xf000
 80005b0:	4815      	ldr	r0, [pc, #84]	; (8000608 <MX_GPIO_Init+0xac>)
 80005b2:	f000 fda7 	bl	8001104 <HAL_GPIO_WritePin>

  /*Configure GPIO pin : PtPin */
  GPIO_InitStruct.Pin = button_Pin;
 80005b6:	2301      	movs	r3, #1
 80005b8:	60fb      	str	r3, [r7, #12]
  GPIO_InitStruct.Mode = GPIO_MODE_IT_FALLING;
 80005ba:	4b14      	ldr	r3, [pc, #80]	; (800060c <MX_GPIO_Init+0xb0>)
 80005bc:	613b      	str	r3, [r7, #16]
  GPIO_InitStruct.Pull = GPIO_NOPULL;
 80005be:	2300      	movs	r3, #0
 80005c0:	617b      	str	r3, [r7, #20]
  HAL_GPIO_Init(button_GPIO_Port, &GPIO_InitStruct);
 80005c2:	f107 030c 	add.w	r3, r7, #12
 80005c6:	4619      	mov	r1, r3
 80005c8:	4811      	ldr	r0, [pc, #68]	; (8000610 <MX_GPIO_Init+0xb4>)
 80005ca:	f000 fbff 	bl	8000dcc <HAL_GPIO_Init>

  /*Configure GPIO pins : PDPin PDPin PDPin PDPin */
  GPIO_InitStruct.Pin = LD4_Pin|LD3_Pin|LD5_Pin|LD6_Pin;
 80005ce:	f44f 4370 	mov.w	r3, #61440	; 0xf000
 80005d2:	60fb      	str	r3, [r7, #12]
  GPIO_InitStruct.Mode = GPIO_MODE_OUTPUT_PP;
 80005d4:	2301      	movs	r3, #1
 80005d6:	613b      	str	r3, [r7, #16]
  GPIO_InitStruct.Pull = GPIO_NOPULL;
 80005d8:	2300      	movs	r3, #0
 80005da:	617b      	str	r3, [r7, #20]
  GPIO_InitStruct.Speed = GPIO_SPEED_FREQ_LOW;
 80005dc:	2300      	movs	r3, #0
 80005de:	61bb      	str	r3, [r7, #24]
  HAL_GPIO_Init(GPIOD, &GPIO_InitStruct);
 80005e0:	f107 030c 	add.w	r3, r7, #12
 80005e4:	4619      	mov	r1, r3
 80005e6:	4808      	ldr	r0, [pc, #32]	; (8000608 <MX_GPIO_Init+0xac>)
 80005e8:	f000 fbf0 	bl	8000dcc <HAL_GPIO_Init>

  /* EXTI interrupt init*/
  HAL_NVIC_SetPriority(EXTI0_IRQn, 6, 0);
 80005ec:	2200      	movs	r2, #0
 80005ee:	2106      	movs	r1, #6
 80005f0:	2006      	movs	r0, #6
 80005f2:	f000 fbc1 	bl	8000d78 <HAL_NVIC_SetPriority>
  HAL_NVIC_EnableIRQ(EXTI0_IRQn);
 80005f6:	2006      	movs	r0, #6
 80005f8:	f000 fbda 	bl	8000db0 <HAL_NVIC_EnableIRQ>

}
 80005fc:	bf00      	nop
 80005fe:	3720      	adds	r7, #32
 8000600:	46bd      	mov	sp, r7
 8000602:	bd80      	pop	{r7, pc}
 8000604:	40023800 	.word	0x40023800
 8000608:	40020c00 	.word	0x40020c00
 800060c:	10210000 	.word	0x10210000
 8000610:	40020000 	.word	0x40020000

08000614 <main>:
/**
  * @brief  The application entry point.
  * @retval int
  */
int main(void)
{
 8000614:	b580      	push	{r7, lr}
 8000616:	b086      	sub	sp, #24
 8000618:	af02      	add	r7, sp, #8
  /* USER CODE END 1 */

  /* MCU Configuration--------------------------------------------------------*/

  /* Reset of all peripherals, Initializes the Flash interface and the Systick. */
  HAL_Init();
 800061a:	f000 fa8f 	bl	8000b3c <HAL_Init>
  /* USER CODE BEGIN Init */

  /* USER CODE END Init */

  /* Configure the system clock */
  SystemClock_Config();
 800061e:	f000 f875 	bl	800070c <SystemClock_Config>
  /* USER CODE BEGIN SysInit */

  /* USER CODE END SysInit */

  /* Initialize all configured peripherals */
  MX_GPIO_Init();
 8000622:	f7ff ff9b 	bl	800055c <MX_GPIO_Init>
  /* USER CODE BEGIN 2 */
  DWT_CTRL |= (1 << 0);
 8000626:	4b2e      	ldr	r3, [pc, #184]	; (80006e0 <main+0xcc>)
 8000628:	681b      	ldr	r3, [r3, #0]
 800062a:	4a2d      	ldr	r2, [pc, #180]	; (80006e0 <main+0xcc>)
 800062c:	f043 0301 	orr.w	r3, r3, #1
 8000630:	6013      	str	r3, [r2, #0]
  SEGGER_SYSVIEW_Conf();
 8000632:	f004 faaf 	bl	8004b94 <SEGGER_SYSVIEW_Conf>
  SEGGER_SYSVIEW_Start();
 8000636:	f005 fa6f 	bl	8005b18 <SEGGER_SYSVIEW_Start>

  status = xTaskCreate(LED1_handler, "TASK-LED1", 200, NULL, 1, &hTask1);
 800063a:	4b2a      	ldr	r3, [pc, #168]	; (80006e4 <main+0xd0>)
 800063c:	9301      	str	r3, [sp, #4]
 800063e:	2301      	movs	r3, #1
 8000640:	9300      	str	r3, [sp, #0]
 8000642:	2300      	movs	r3, #0
 8000644:	22c8      	movs	r2, #200	; 0xc8
 8000646:	4928      	ldr	r1, [pc, #160]	; (80006e8 <main+0xd4>)
 8000648:	4828      	ldr	r0, [pc, #160]	; (80006ec <main+0xd8>)
 800064a:	f002 fb01 	bl	8002c50 <xTaskCreate>
 800064e:	60f8      	str	r0, [r7, #12]
  configASSERT(status== pdPASS);
 8000650:	68fb      	ldr	r3, [r7, #12]
 8000652:	2b01      	cmp	r3, #1
 8000654:	d00a      	beq.n	800066c <main+0x58>

    portFORCE_INLINE static void vPortRaiseBASEPRI( void )
    {
        uint32_t ulNewBASEPRI;

        __asm volatile
 8000656:	f04f 0350 	mov.w	r3, #80	; 0x50
 800065a:	f383 8811 	msr	BASEPRI, r3
 800065e:	f3bf 8f6f 	isb	sy
 8000662:	f3bf 8f4f 	dsb	sy
 8000666:	60bb      	str	r3, [r7, #8]
            "	msr basepri, %0											\n"\
            "	isb														\n"\
            "	dsb														\n"\
            : "=r" ( ulNewBASEPRI ) : "i" ( configMAX_SYSCALL_INTERRUPT_PRIORITY ) : "memory"
        );
    }
 8000668:	bf00      	nop
 800066a:	e7fe      	b.n	800066a <main+0x56>

  hNextTask = hTask1;
 800066c:	4b1d      	ldr	r3, [pc, #116]	; (80006e4 <main+0xd0>)
 800066e:	681b      	ldr	r3, [r3, #0]
 8000670:	4a1f      	ldr	r2, [pc, #124]	; (80006f0 <main+0xdc>)
 8000672:	6013      	str	r3, [r2, #0]

  status = xTaskCreate(LED2_handler, "TASK-LED2", 200, NULL, 2, &hTask2);
 8000674:	4b1f      	ldr	r3, [pc, #124]	; (80006f4 <main+0xe0>)
 8000676:	9301      	str	r3, [sp, #4]
 8000678:	2302      	movs	r3, #2
 800067a:	9300      	str	r3, [sp, #0]
 800067c:	2300      	movs	r3, #0
 800067e:	22c8      	movs	r2, #200	; 0xc8
 8000680:	491d      	ldr	r1, [pc, #116]	; (80006f8 <main+0xe4>)
 8000682:	481e      	ldr	r0, [pc, #120]	; (80006fc <main+0xe8>)
 8000684:	f002 fae4 	bl	8002c50 <xTaskCreate>
 8000688:	60f8      	str	r0, [r7, #12]
  configASSERT(status== pdPASS);
 800068a:	68fb      	ldr	r3, [r7, #12]
 800068c:	2b01      	cmp	r3, #1
 800068e:	d00a      	beq.n	80006a6 <main+0x92>
        __asm volatile
 8000690:	f04f 0350 	mov.w	r3, #80	; 0x50
 8000694:	f383 8811 	msr	BASEPRI, r3
 8000698:	f3bf 8f6f 	isb	sy
 800069c:	f3bf 8f4f 	dsb	sy
 80006a0:	607b      	str	r3, [r7, #4]
    }
 80006a2:	bf00      	nop
 80006a4:	e7fe      	b.n	80006a4 <main+0x90>

  status = xTaskCreate(LED3_handler, "TASK-LED3", 200, NULL, 3, &hTask3);
 80006a6:	4b16      	ldr	r3, [pc, #88]	; (8000700 <main+0xec>)
 80006a8:	9301      	str	r3, [sp, #4]
 80006aa:	2303      	movs	r3, #3
 80006ac:	9300      	str	r3, [sp, #0]
 80006ae:	2300      	movs	r3, #0
 80006b0:	22c8      	movs	r2, #200	; 0xc8
 80006b2:	4914      	ldr	r1, [pc, #80]	; (8000704 <main+0xf0>)
 80006b4:	4814      	ldr	r0, [pc, #80]	; (8000708 <main+0xf4>)
 80006b6:	f002 facb 	bl	8002c50 <xTaskCreate>
 80006ba:	60f8      	str	r0, [r7, #12]
  configASSERT(status== pdPASS);
 80006bc:	68fb      	ldr	r3, [r7, #12]
 80006be:	2b01      	cmp	r3, #1
 80006c0:	d00a      	beq.n	80006d8 <main+0xc4>
        __asm volatile
 80006c2:	f04f 0350 	mov.w	r3, #80	; 0x50
 80006c6:	f383 8811 	msr	BASEPRI, r3
 80006ca:	f3bf 8f6f 	isb	sy
 80006ce:	f3bf 8f4f 	dsb	sy
 80006d2:	603b      	str	r3, [r7, #0]
    }
 80006d4:	bf00      	nop
 80006d6:	e7fe      	b.n	80006d6 <main+0xc2>
/*
  status = xTaskCreate(Button_handler, "TASK Button", 200, NULL, 5, &hTaskButton);
  configASSERT(status== pdPASS);
*/
  //start FreeRTOS scheduler
  vTaskStartScheduler(); //
 80006d8:	f002 fcf8 	bl	80030cc <vTaskStartScheduler>
  /* USER CODE END 2 */

  /* Infinite loop */
  /* USER CODE BEGIN WHILE */
  while (1)
 80006dc:	e7fe      	b.n	80006dc <main+0xc8>
 80006de:	bf00      	nop
 80006e0:	e0001000 	.word	0xe0001000
 80006e4:	20014378 	.word	0x20014378
 80006e8:	08006758 	.word	0x08006758
 80006ec:	080008b5 	.word	0x080008b5
 80006f0:	20000030 	.word	0x20000030
 80006f4:	2001437c 	.word	0x2001437c
 80006f8:	08006764 	.word	0x08006764
 80006fc:	080008d9 	.word	0x080008d9
 8000700:	20014380 	.word	0x20014380
 8000704:	08006770 	.word	0x08006770
 8000708:	080008fd 	.word	0x080008fd

0800070c <SystemClock_Config>:
/**
  * @brief System Clock Configuration
  * @retval None
  */
void SystemClock_Config(void)
{
 800070c:	b580      	push	{r7, lr}
 800070e:	b094      	sub	sp, #80	; 0x50
 8000710:	af00      	add	r7, sp, #0
  RCC_OscInitTypeDef RCC_OscInitStruct = {0};
 8000712:	f107 0320 	add.w	r3, r7, #32
 8000716:	2230      	movs	r2, #48	; 0x30
 8000718:	2100      	movs	r1, #0
 800071a:	4618      	mov	r0, r3
 800071c:	f006 f808 	bl	8006730 <memset>
  RCC_ClkInitTypeDef RCC_ClkInitStruct = {0};
 8000720:	f107 030c 	add.w	r3, r7, #12
 8000724:	2200      	movs	r2, #0
 8000726:	601a      	str	r2, [r3, #0]
 8000728:	605a      	str	r2, [r3, #4]
 800072a:	609a      	str	r2, [r3, #8]
 800072c:	60da      	str	r2, [r3, #12]
 800072e:	611a      	str	r2, [r3, #16]

  /** Configure the main internal regulator output voltage
  */
  __HAL_RCC_PWR_CLK_ENABLE();
 8000730:	2300      	movs	r3, #0
 8000732:	60bb      	str	r3, [r7, #8]
 8000734:	4b28      	ldr	r3, [pc, #160]	; (80007d8 <SystemClock_Config+0xcc>)
 8000736:	6c1b      	ldr	r3, [r3, #64]	; 0x40
 8000738:	4a27      	ldr	r2, [pc, #156]	; (80007d8 <SystemClock_Config+0xcc>)
 800073a:	f043 5380 	orr.w	r3, r3, #268435456	; 0x10000000
 800073e:	6413      	str	r3, [r2, #64]	; 0x40
 8000740:	4b25      	ldr	r3, [pc, #148]	; (80007d8 <SystemClock_Config+0xcc>)
 8000742:	6c1b      	ldr	r3, [r3, #64]	; 0x40
 8000744:	f003 5380 	and.w	r3, r3, #268435456	; 0x10000000
 8000748:	60bb      	str	r3, [r7, #8]
 800074a:	68bb      	ldr	r3, [r7, #8]
  __HAL_PWR_VOLTAGESCALING_CONFIG(PWR_REGULATOR_VOLTAGE_SCALE1);
 800074c:	2300      	movs	r3, #0
 800074e:	607b      	str	r3, [r7, #4]
 8000750:	4b22      	ldr	r3, [pc, #136]	; (80007dc <SystemClock_Config+0xd0>)
 8000752:	681b      	ldr	r3, [r3, #0]
 8000754:	4a21      	ldr	r2, [pc, #132]	; (80007dc <SystemClock_Config+0xd0>)
 8000756:	f443 4380 	orr.w	r3, r3, #16384	; 0x4000
 800075a:	6013      	str	r3, [r2, #0]
 800075c:	4b1f      	ldr	r3, [pc, #124]	; (80007dc <SystemClock_Config+0xd0>)
 800075e:	681b      	ldr	r3, [r3, #0]
 8000760:	f403 4380 	and.w	r3, r3, #16384	; 0x4000
 8000764:	607b      	str	r3, [r7, #4]
 8000766:	687b      	ldr	r3, [r7, #4]
  /** Initializes the RCC Oscillators according to the specified parameters
  * in the RCC_OscInitTypeDef structure.
  */
  RCC_OscInitStruct.OscillatorType = RCC_OSCILLATORTYPE_HSI;
 8000768:	2302      	movs	r3, #2
 800076a:	623b      	str	r3, [r7, #32]
  RCC_OscInitStruct.HSIState = RCC_HSI_ON;
 800076c:	2301      	movs	r3, #1
 800076e:	62fb      	str	r3, [r7, #44]	; 0x2c
  RCC_OscInitStruct.HSICalibrationValue = RCC_HSICALIBRATION_DEFAULT;
 8000770:	2310      	movs	r3, #16
 8000772:	633b      	str	r3, [r7, #48]	; 0x30
  RCC_OscInitStruct.PLL.PLLState = RCC_PLL_ON;
 8000774:	2302      	movs	r3, #2
 8000776:	63bb      	str	r3, [r7, #56]	; 0x38
  RCC_OscInitStruct.PLL.PLLSource = RCC_PLLSOURCE_HSI;
 8000778:	2300      	movs	r3, #0
 800077a:	63fb      	str	r3, [r7, #60]	; 0x3c
  RCC_OscInitStruct.PLL.PLLM = 8;
 800077c:	2308      	movs	r3, #8
 800077e:	643b      	str	r3, [r7, #64]	; 0x40
  RCC_OscInitStruct.PLL.PLLN = 50;
 8000780:	2332      	movs	r3, #50	; 0x32
 8000782:	647b      	str	r3, [r7, #68]	; 0x44
  RCC_OscInitStruct.PLL.PLLP = RCC_PLLP_DIV4;
 8000784:	2304      	movs	r3, #4
 8000786:	64bb      	str	r3, [r7, #72]	; 0x48
  RCC_OscInitStruct.PLL.PLLQ = 7;
 8000788:	2307      	movs	r3, #7
 800078a:	64fb      	str	r3, [r7, #76]	; 0x4c
  if (HAL_RCC_OscConfig(&RCC_OscInitStruct) != HAL_OK)
 800078c:	f107 0320 	add.w	r3, r7, #32
 8000790:	4618      	mov	r0, r3
 8000792:	f000 fd0f 	bl	80011b4 <HAL_RCC_OscConfig>
 8000796:	4603      	mov	r3, r0
 8000798:	2b00      	cmp	r3, #0
 800079a:	d001      	beq.n	80007a0 <SystemClock_Config+0x94>
  {
    Error_Handler();
 800079c:	f000 f8e0 	bl	8000960 <Error_Handler>
  }
  /** Initializes the CPU, AHB and APB buses clocks
  */
  RCC_ClkInitStruct.ClockType = RCC_CLOCKTYPE_HCLK|RCC_CLOCKTYPE_SYSCLK
 80007a0:	230f      	movs	r3, #15
 80007a2:	60fb      	str	r3, [r7, #12]
                              |RCC_CLOCKTYPE_PCLK1|RCC_CLOCKTYPE_PCLK2;
  RCC_ClkInitStruct.SYSCLKSource = RCC_SYSCLKSOURCE_PLLCLK;
 80007a4:	2302      	movs	r3, #2
 80007a6:	613b      	str	r3, [r7, #16]
  RCC_ClkInitStruct.AHBCLKDivider = RCC_SYSCLK_DIV1;
 80007a8:	2300      	movs	r3, #0
 80007aa:	617b      	str	r3, [r7, #20]
  RCC_ClkInitStruct.APB1CLKDivider = RCC_HCLK_DIV4;
 80007ac:	f44f 53a0 	mov.w	r3, #5120	; 0x1400
 80007b0:	61bb      	str	r3, [r7, #24]
  RCC_ClkInitStruct.APB2CLKDivider = RCC_HCLK_DIV2;
 80007b2:	f44f 5380 	mov.w	r3, #4096	; 0x1000
 80007b6:	61fb      	str	r3, [r7, #28]

  if (HAL_RCC_ClockConfig(&RCC_ClkInitStruct, FLASH_LATENCY_0) != HAL_OK)
 80007b8:	f107 030c 	add.w	r3, r7, #12
 80007bc:	2100      	movs	r1, #0
 80007be:	4618      	mov	r0, r3
 80007c0:	f000 ff70 	bl	80016a4 <HAL_RCC_ClockConfig>
 80007c4:	4603      	mov	r3, r0
 80007c6:	2b00      	cmp	r3, #0
 80007c8:	d001      	beq.n	80007ce <SystemClock_Config+0xc2>
  {
    Error_Handler();
 80007ca:	f000 f8c9 	bl	8000960 <Error_Handler>
  }
}
 80007ce:	bf00      	nop
 80007d0:	3750      	adds	r7, #80	; 0x50
 80007d2:	46bd      	mov	sp, r7
 80007d4:	bd80      	pop	{r7, pc}
 80007d6:	bf00      	nop
 80007d8:	40023800 	.word	0x40023800
 80007dc:	40007000 	.word	0x40007000

080007e0 <Switch_priority>:

/* USER CODE BEGIN 4 */
void Switch_priority(void)
{
 80007e0:	b580      	push	{r7, lr}
 80007e2:	b088      	sub	sp, #32
 80007e4:	af00      	add	r7, sp, #0
	UBaseType_t p1,p2,p3;
	xTaskHandle t1,t2,t3,curr;

	BaseType_t switch_priority = 0;
 80007e6:	2300      	movs	r3, #0
 80007e8:	61fb      	str	r3, [r7, #28]

	portENTER_CRITICAL();
 80007ea:	f003 fe9b 	bl	8004524 <vPortEnterCritical>
	if(status_button)
 80007ee:	4b2d      	ldr	r3, [pc, #180]	; (80008a4 <Switch_priority+0xc4>)
 80007f0:	681b      	ldr	r3, [r3, #0]
 80007f2:	2b00      	cmp	r3, #0
 80007f4:	d004      	beq.n	8000800 <Switch_priority+0x20>
	{
		status_button = 0;
 80007f6:	4b2b      	ldr	r3, [pc, #172]	; (80008a4 <Switch_priority+0xc4>)
 80007f8:	2200      	movs	r2, #0
 80007fa:	601a      	str	r2, [r3, #0]
		switch_priority = 1;
 80007fc:	2301      	movs	r3, #1
 80007fe:	61fb      	str	r3, [r7, #28]
	}
	portEXIT_CRITICAL();
 8000800:	f003 fec0 	bl	8004584 <vPortExitCritical>

	if(switch_priority)
 8000804:	69fb      	ldr	r3, [r7, #28]
 8000806:	2b00      	cmp	r3, #0
 8000808:	d047      	beq.n	800089a <Switch_priority+0xba>
	{
		t1 = hTask1;
 800080a:	4b27      	ldr	r3, [pc, #156]	; (80008a8 <Switch_priority+0xc8>)
 800080c:	681b      	ldr	r3, [r3, #0]
 800080e:	61bb      	str	r3, [r7, #24]
		t2 = hTask2;
 8000810:	4b26      	ldr	r3, [pc, #152]	; (80008ac <Switch_priority+0xcc>)
 8000812:	681b      	ldr	r3, [r3, #0]
 8000814:	617b      	str	r3, [r7, #20]
		t3 = hTask3;
 8000816:	4b26      	ldr	r3, [pc, #152]	; (80008b0 <Switch_priority+0xd0>)
 8000818:	681b      	ldr	r3, [r3, #0]
 800081a:	613b      	str	r3, [r7, #16]



		p1 = uxTaskPriorityGet(t1);
 800081c:	69b8      	ldr	r0, [r7, #24]
 800081e:	f002 fb7b 	bl	8002f18 <uxTaskPriorityGet>
 8000822:	60f8      	str	r0, [r7, #12]
		p2 = uxTaskPriorityGet(t2);
 8000824:	6978      	ldr	r0, [r7, #20]
 8000826:	f002 fb77 	bl	8002f18 <uxTaskPriorityGet>
 800082a:	60b8      	str	r0, [r7, #8]
		p3 = uxTaskPriorityGet(t3);
 800082c:	6938      	ldr	r0, [r7, #16]
 800082e:	f002 fb73 	bl	8002f18 <uxTaskPriorityGet>
 8000832:	6078      	str	r0, [r7, #4]

		curr = xTaskGetCurrentTaskHandle();
 8000834:	f003 f894 	bl	8003960 <xTaskGetCurrentTaskHandle>
 8000838:	6038      	str	r0, [r7, #0]

		if(curr == t1)
 800083a:	683a      	ldr	r2, [r7, #0]
 800083c:	69bb      	ldr	r3, [r7, #24]
 800083e:	429a      	cmp	r2, r3
 8000840:	d10b      	bne.n	800085a <Switch_priority+0x7a>
		{
			vTaskPrioritySet(t1,p2);
 8000842:	68b9      	ldr	r1, [r7, #8]
 8000844:	69b8      	ldr	r0, [r7, #24]
 8000846:	f002 fb81 	bl	8002f4c <vTaskPrioritySet>
			vTaskPrioritySet(t2,p3);
 800084a:	6879      	ldr	r1, [r7, #4]
 800084c:	6978      	ldr	r0, [r7, #20]
 800084e:	f002 fb7d 	bl	8002f4c <vTaskPrioritySet>
			vTaskPrioritySet(t3,p1);
 8000852:	68f9      	ldr	r1, [r7, #12]
 8000854:	6938      	ldr	r0, [r7, #16]
 8000856:	f002 fb79 	bl	8002f4c <vTaskPrioritySet>
		}
		if(curr == t2)
 800085a:	683a      	ldr	r2, [r7, #0]
 800085c:	697b      	ldr	r3, [r7, #20]
 800085e:	429a      	cmp	r2, r3
 8000860:	d10b      	bne.n	800087a <Switch_priority+0x9a>
		{
			vTaskPrioritySet(t2,p3);
 8000862:	6879      	ldr	r1, [r7, #4]
 8000864:	6978      	ldr	r0, [r7, #20]
 8000866:	f002 fb71 	bl	8002f4c <vTaskPrioritySet>
			vTaskPrioritySet(t3,p1);
 800086a:	68f9      	ldr	r1, [r7, #12]
 800086c:	6938      	ldr	r0, [r7, #16]
 800086e:	f002 fb6d 	bl	8002f4c <vTaskPrioritySet>
			vTaskPrioritySet(t1,p2);
 8000872:	68b9      	ldr	r1, [r7, #8]
 8000874:	69b8      	ldr	r0, [r7, #24]
 8000876:	f002 fb69 	bl	8002f4c <vTaskPrioritySet>
		}
		if(curr == t3)
 800087a:	683a      	ldr	r2, [r7, #0]
 800087c:	693b      	ldr	r3, [r7, #16]
 800087e:	429a      	cmp	r2, r3
 8000880:	d10b      	bne.n	800089a <Switch_priority+0xba>
		{
			vTaskPrioritySet(t3,p1);
 8000882:	68f9      	ldr	r1, [r7, #12]
 8000884:	6938      	ldr	r0, [r7, #16]
 8000886:	f002 fb61 	bl	8002f4c <vTaskPrioritySet>
			vTaskPrioritySet(t1,p2);
 800088a:	68b9      	ldr	r1, [r7, #8]
 800088c:	69b8      	ldr	r0, [r7, #24]
 800088e:	f002 fb5d 	bl	8002f4c <vTaskPrioritySet>
			vTaskPrioritySet(t2,p3);
 8000892:	6879      	ldr	r1, [r7, #4]
 8000894:	6978      	ldr	r0, [r7, #20]
 8000896:	f002 fb59 	bl	8002f4c <vTaskPrioritySet>
		}

	}
}
 800089a:	bf00      	nop
 800089c:	3720      	adds	r7, #32
 800089e:	46bd      	mov	sp, r7
 80008a0:	bd80      	pop	{r7, pc}
 80008a2:	bf00      	nop
 80008a4:	20000034 	.word	0x20000034
 80008a8:	20014378 	.word	0x20014378
 80008ac:	2001437c 	.word	0x2001437c
 80008b0:	20014380 	.word	0x20014380

080008b4 <LED1_handler>:



static void LED1_handler(void* parameters)
{
 80008b4:	b580      	push	{r7, lr}
 80008b6:	b082      	sub	sp, #8
 80008b8:	af00      	add	r7, sp, #0
 80008ba:	6078      	str	r0, [r7, #4]
	while(1)
	{
		HAL_GPIO_TogglePin(GPIOD, LD3_Pin);
 80008bc:	f44f 5100 	mov.w	r1, #8192	; 0x2000
 80008c0:	4804      	ldr	r0, [pc, #16]	; (80008d4 <LED1_handler+0x20>)
 80008c2:	f000 fc38 	bl	8001136 <HAL_GPIO_TogglePin>
		HAL_Delay(50);
 80008c6:	2032      	movs	r0, #50	; 0x32
 80008c8:	f000 f97a 	bl	8000bc0 <HAL_Delay>
		Switch_priority();
 80008cc:	f7ff ff88 	bl	80007e0 <Switch_priority>
		HAL_GPIO_TogglePin(GPIOD, LD3_Pin);
 80008d0:	e7f4      	b.n	80008bc <LED1_handler+0x8>
 80008d2:	bf00      	nop
 80008d4:	40020c00 	.word	0x40020c00

080008d8 <LED2_handler>:
	}
}

static void LED2_handler(void* parameters)
{
 80008d8:	b580      	push	{r7, lr}
 80008da:	b082      	sub	sp, #8
 80008dc:	af00      	add	r7, sp, #0
 80008de:	6078      	str	r0, [r7, #4]
	while(1)
	{
		HAL_GPIO_TogglePin(GPIOD, LD4_Pin);
 80008e0:	f44f 5180 	mov.w	r1, #4096	; 0x1000
 80008e4:	4804      	ldr	r0, [pc, #16]	; (80008f8 <LED2_handler+0x20>)
 80008e6:	f000 fc26 	bl	8001136 <HAL_GPIO_TogglePin>
		HAL_Delay(100);
 80008ea:	2064      	movs	r0, #100	; 0x64
 80008ec:	f000 f968 	bl	8000bc0 <HAL_Delay>
		Switch_priority();
 80008f0:	f7ff ff76 	bl	80007e0 <Switch_priority>
		HAL_GPIO_TogglePin(GPIOD, LD4_Pin);
 80008f4:	e7f4      	b.n	80008e0 <LED2_handler+0x8>
 80008f6:	bf00      	nop
 80008f8:	40020c00 	.word	0x40020c00

080008fc <LED3_handler>:
	}
}

static void LED3_handler(void* parameters)
{
 80008fc:	b580      	push	{r7, lr}
 80008fe:	b082      	sub	sp, #8
 8000900:	af00      	add	r7, sp, #0
 8000902:	6078      	str	r0, [r7, #4]
	while(1)
	{
		HAL_GPIO_TogglePin(GPIOD, LD5_Pin);
 8000904:	f44f 4180 	mov.w	r1, #16384	; 0x4000
 8000908:	4804      	ldr	r0, [pc, #16]	; (800091c <LED3_handler+0x20>)
 800090a:	f000 fc14 	bl	8001136 <HAL_GPIO_TogglePin>
		HAL_Delay(200);
 800090e:	20c8      	movs	r0, #200	; 0xc8
 8000910:	f000 f956 	bl	8000bc0 <HAL_Delay>
		Switch_priority();
 8000914:	f7ff ff64 	bl	80007e0 <Switch_priority>
		HAL_GPIO_TogglePin(GPIOD, LD5_Pin);
 8000918:	e7f4      	b.n	8000904 <LED3_handler+0x8>
 800091a:	bf00      	nop
 800091c:	40020c00 	.word	0x40020c00

08000920 <button_interrupt_handler>:
	}
}


extern void button_interrupt_handler(void)
{
 8000920:	b580      	push	{r7, lr}
 8000922:	af00      	add	r7, sp, #0
	traceISR_ENTER();
 8000924:	f005 fbc0 	bl	80060a8 <SEGGER_SYSVIEW_RecordEnterISR>
	status_button = 1;
 8000928:	4b03      	ldr	r3, [pc, #12]	; (8000938 <button_interrupt_handler+0x18>)
 800092a:	2201      	movs	r2, #1
 800092c:	601a      	str	r2, [r3, #0]
	traceISR_EXIT();
 800092e:	f005 fbfd 	bl	800612c <SEGGER_SYSVIEW_RecordExitISR>
}
 8000932:	bf00      	nop
 8000934:	bd80      	pop	{r7, pc}
 8000936:	bf00      	nop
 8000938:	20000034 	.word	0x20000034

0800093c <HAL_TIM_PeriodElapsedCallback>:
  * a global variable "uwTick" used as application time base.
  * @param  htim : TIM handle
  * @retval None
  */
void HAL_TIM_PeriodElapsedCallback(TIM_HandleTypeDef *htim)
{
 800093c:	b580      	push	{r7, lr}
 800093e:	b082      	sub	sp, #8
 8000940:	af00      	add	r7, sp, #0
 8000942:	6078      	str	r0, [r7, #4]
  /* USER CODE BEGIN Callback 0 */

  /* USER CODE END Callback 0 */
  if (htim->Instance == TIM6) {
 8000944:	687b      	ldr	r3, [r7, #4]
 8000946:	681b      	ldr	r3, [r3, #0]
 8000948:	4a04      	ldr	r2, [pc, #16]	; (800095c <HAL_TIM_PeriodElapsedCallback+0x20>)
 800094a:	4293      	cmp	r3, r2
 800094c:	d101      	bne.n	8000952 <HAL_TIM_PeriodElapsedCallback+0x16>
    HAL_IncTick();
 800094e:	f000 f917 	bl	8000b80 <HAL_IncTick>
  }
  /* USER CODE BEGIN Callback 1 */

  /* USER CODE END Callback 1 */
}
 8000952:	bf00      	nop
 8000954:	3708      	adds	r7, #8
 8000956:	46bd      	mov	sp, r7
 8000958:	bd80      	pop	{r7, pc}
 800095a:	bf00      	nop
 800095c:	40001000 	.word	0x40001000

08000960 <Error_Handler>:
/**
  * @brief  This function is executed in case of error occurrence.
  * @retval None
  */
void Error_Handler(void)
{
 8000960:	b480      	push	{r7}
 8000962:	af00      	add	r7, sp, #0
  \details Disables IRQ interrupts by setting the I-bit in the CPSR.
           Can only be executed in Privileged modes.
 */
__STATIC_FORCEINLINE void __disable_irq(void)
{
  __ASM volatile ("cpsid i" : : : "memory");
 8000964:	b672      	cpsid	i
}
 8000966:	bf00      	nop
  /* USER CODE BEGIN Error_Handler_Debug */
  /* User can add his own implementation to report the HAL error return state */
  __disable_irq();
  while (1)
 8000968:	e7fe      	b.n	8000968 <Error_Handler+0x8>
	...

0800096c <HAL_MspInit>:
/* USER CODE END 0 */
/**
  * Initializes the Global MSP.
  */
void HAL_MspInit(void)
{
 800096c:	b580      	push	{r7, lr}
 800096e:	b082      	sub	sp, #8
 8000970:	af00      	add	r7, sp, #0
  /* USER CODE BEGIN MspInit 0 */

  /* USER CODE END MspInit 0 */

  __HAL_RCC_SYSCFG_CLK_ENABLE();
 8000972:	2300      	movs	r3, #0
 8000974:	607b      	str	r3, [r7, #4]
 8000976:	4b10      	ldr	r3, [pc, #64]	; (80009b8 <HAL_MspInit+0x4c>)
 8000978:	6c5b      	ldr	r3, [r3, #68]	; 0x44
 800097a:	4a0f      	ldr	r2, [pc, #60]	; (80009b8 <HAL_MspInit+0x4c>)
 800097c:	f443 4380 	orr.w	r3, r3, #16384	; 0x4000
 8000980:	6453      	str	r3, [r2, #68]	; 0x44
 8000982:	4b0d      	ldr	r3, [pc, #52]	; (80009b8 <HAL_MspInit+0x4c>)
 8000984:	6c5b      	ldr	r3, [r3, #68]	; 0x44
 8000986:	f403 4380 	and.w	r3, r3, #16384	; 0x4000
 800098a:	607b      	str	r3, [r7, #4]
 800098c:	687b      	ldr	r3, [r7, #4]
  __HAL_RCC_PWR_CLK_ENABLE();
 800098e:	2300      	movs	r3, #0
 8000990:	603b      	str	r3, [r7, #0]
 8000992:	4b09      	ldr	r3, [pc, #36]	; (80009b8 <HAL_MspInit+0x4c>)
 8000994:	6c1b      	ldr	r3, [r3, #64]	; 0x40
 8000996:	4a08      	ldr	r2, [pc, #32]	; (80009b8 <HAL_MspInit+0x4c>)
 8000998:	f043 5380 	orr.w	r3, r3, #268435456	; 0x10000000
 800099c:	6413      	str	r3, [r2, #64]	; 0x40
 800099e:	4b06      	ldr	r3, [pc, #24]	; (80009b8 <HAL_MspInit+0x4c>)
 80009a0:	6c1b      	ldr	r3, [r3, #64]	; 0x40
 80009a2:	f003 5380 	and.w	r3, r3, #268435456	; 0x10000000
 80009a6:	603b      	str	r3, [r7, #0]
 80009a8:	683b      	ldr	r3, [r7, #0]

  /* System interrupt init*/

  /* USER CODE BEGIN MspInit 1 */
  vInitPrioGroupValue();
 80009aa:	f003 fd3d 	bl	8004428 <vInitPrioGroupValue>
  /* USER CODE END MspInit 1 */
}
 80009ae:	bf00      	nop
 80009b0:	3708      	adds	r7, #8
 80009b2:	46bd      	mov	sp, r7
 80009b4:	bd80      	pop	{r7, pc}
 80009b6:	bf00      	nop
 80009b8:	40023800 	.word	0x40023800

080009bc <HAL_InitTick>:
  *         reset by HAL_Init() or at any time when clock is configured, by HAL_RCC_ClockConfig().
  * @param  TickPriority: Tick interrupt priority.
  * @retval HAL status
  */
HAL_StatusTypeDef HAL_InitTick(uint32_t TickPriority)
{
 80009bc:	b580      	push	{r7, lr}
 80009be:	b08c      	sub	sp, #48	; 0x30
 80009c0:	af00      	add	r7, sp, #0
 80009c2:	6078      	str	r0, [r7, #4]
  RCC_ClkInitTypeDef    clkconfig;
  uint32_t              uwTimclock = 0;
 80009c4:	2300      	movs	r3, #0
 80009c6:	62fb      	str	r3, [r7, #44]	; 0x2c
  uint32_t              uwPrescalerValue = 0;
 80009c8:	2300      	movs	r3, #0
 80009ca:	62bb      	str	r3, [r7, #40]	; 0x28
  uint32_t              pFLatency;
  /*Configure the TIM6 IRQ priority */
  HAL_NVIC_SetPriority(TIM6_DAC_IRQn, TickPriority ,0);
 80009cc:	2200      	movs	r2, #0
 80009ce:	6879      	ldr	r1, [r7, #4]
 80009d0:	2036      	movs	r0, #54	; 0x36
 80009d2:	f000 f9d1 	bl	8000d78 <HAL_NVIC_SetPriority>

  /* Enable the TIM6 global Interrupt */
  HAL_NVIC_EnableIRQ(TIM6_DAC_IRQn);
 80009d6:	2036      	movs	r0, #54	; 0x36
 80009d8:	f000 f9ea 	bl	8000db0 <HAL_NVIC_EnableIRQ>
  /* Enable TIM6 clock */
  __HAL_RCC_TIM6_CLK_ENABLE();
 80009dc:	2300      	movs	r3, #0
 80009de:	60fb      	str	r3, [r7, #12]
 80009e0:	4b1f      	ldr	r3, [pc, #124]	; (8000a60 <HAL_InitTick+0xa4>)
 80009e2:	6c1b      	ldr	r3, [r3, #64]	; 0x40
 80009e4:	4a1e      	ldr	r2, [pc, #120]	; (8000a60 <HAL_InitTick+0xa4>)
 80009e6:	f043 0310 	orr.w	r3, r3, #16
 80009ea:	6413      	str	r3, [r2, #64]	; 0x40
 80009ec:	4b1c      	ldr	r3, [pc, #112]	; (8000a60 <HAL_InitTick+0xa4>)
 80009ee:	6c1b      	ldr	r3, [r3, #64]	; 0x40
 80009f0:	f003 0310 	and.w	r3, r3, #16
 80009f4:	60fb      	str	r3, [r7, #12]
 80009f6:	68fb      	ldr	r3, [r7, #12]

  /* Get clock configuration */
  HAL_RCC_GetClockConfig(&clkconfig, &pFLatency);
 80009f8:	f107 0210 	add.w	r2, r7, #16
 80009fc:	f107 0314 	add.w	r3, r7, #20
 8000a00:	4611      	mov	r1, r2
 8000a02:	4618      	mov	r0, r3
 8000a04:	f001 f836 	bl	8001a74 <HAL_RCC_GetClockConfig>

  /* Compute TIM6 clock */
  uwTimclock = 2*HAL_RCC_GetPCLK1Freq();
 8000a08:	f001 f820 	bl	8001a4c <HAL_RCC_GetPCLK1Freq>
 8000a0c:	4603      	mov	r3, r0
 8000a0e:	005b      	lsls	r3, r3, #1
 8000a10:	62fb      	str	r3, [r7, #44]	; 0x2c
  /* Compute the prescaler value to have TIM6 counter clock equal to 1MHz */
  uwPrescalerValue = (uint32_t) ((uwTimclock / 1000000U) - 1U);
 8000a12:	6afb      	ldr	r3, [r7, #44]	; 0x2c
 8000a14:	4a13      	ldr	r2, [pc, #76]	; (8000a64 <HAL_InitTick+0xa8>)
 8000a16:	fba2 2303 	umull	r2, r3, r2, r3
 8000a1a:	0c9b      	lsrs	r3, r3, #18
 8000a1c:	3b01      	subs	r3, #1
 8000a1e:	62bb      	str	r3, [r7, #40]	; 0x28

  /* Initialize TIM6 */
  htim6.Instance = TIM6;
 8000a20:	4b11      	ldr	r3, [pc, #68]	; (8000a68 <HAL_InitTick+0xac>)
 8000a22:	4a12      	ldr	r2, [pc, #72]	; (8000a6c <HAL_InitTick+0xb0>)
 8000a24:	601a      	str	r2, [r3, #0]
  + Period = [(TIM6CLK/1000) - 1]. to have a (1/1000) s time base.
  + Prescaler = (uwTimclock/1000000 - 1) to have a 1MHz counter clock.
  + ClockDivision = 0
  + Counter direction = Up
  */
  htim6.Init.Period = (1000000U / 1000U) - 1U;
 8000a26:	4b10      	ldr	r3, [pc, #64]	; (8000a68 <HAL_InitTick+0xac>)
 8000a28:	f240 32e7 	movw	r2, #999	; 0x3e7
 8000a2c:	60da      	str	r2, [r3, #12]
  htim6.Init.Prescaler = uwPrescalerValue;
 8000a2e:	4a0e      	ldr	r2, [pc, #56]	; (8000a68 <HAL_InitTick+0xac>)
 8000a30:	6abb      	ldr	r3, [r7, #40]	; 0x28
 8000a32:	6053      	str	r3, [r2, #4]
  htim6.Init.ClockDivision = 0;
 8000a34:	4b0c      	ldr	r3, [pc, #48]	; (8000a68 <HAL_InitTick+0xac>)
 8000a36:	2200      	movs	r2, #0
 8000a38:	611a      	str	r2, [r3, #16]
  htim6.Init.CounterMode = TIM_COUNTERMODE_UP;
 8000a3a:	4b0b      	ldr	r3, [pc, #44]	; (8000a68 <HAL_InitTick+0xac>)
 8000a3c:	2200      	movs	r2, #0
 8000a3e:	609a      	str	r2, [r3, #8]
  if(HAL_TIM_Base_Init(&htim6) == HAL_OK)
 8000a40:	4809      	ldr	r0, [pc, #36]	; (8000a68 <HAL_InitTick+0xac>)
 8000a42:	f001 f849 	bl	8001ad8 <HAL_TIM_Base_Init>
 8000a46:	4603      	mov	r3, r0
 8000a48:	2b00      	cmp	r3, #0
 8000a4a:	d104      	bne.n	8000a56 <HAL_InitTick+0x9a>
  {
    /* Start the TIM time Base generation in interrupt mode */
    return HAL_TIM_Base_Start_IT(&htim6);
 8000a4c:	4806      	ldr	r0, [pc, #24]	; (8000a68 <HAL_InitTick+0xac>)
 8000a4e:	f001 f89d 	bl	8001b8c <HAL_TIM_Base_Start_IT>
 8000a52:	4603      	mov	r3, r0
 8000a54:	e000      	b.n	8000a58 <HAL_InitTick+0x9c>
  }

  /* Return function status */
  return HAL_ERROR;
 8000a56:	2301      	movs	r3, #1
}
 8000a58:	4618      	mov	r0, r3
 8000a5a:	3730      	adds	r7, #48	; 0x30
 8000a5c:	46bd      	mov	sp, r7
 8000a5e:	bd80      	pop	{r7, pc}
 8000a60:	40023800 	.word	0x40023800
 8000a64:	431bde83 	.word	0x431bde83
 8000a68:	20014384 	.word	0x20014384
 8000a6c:	40001000 	.word	0x40001000

08000a70 <NMI_Handler>:
/******************************************************************************/
/**
  * @brief This function handles Non maskable interrupt.
  */
void NMI_Handler(void)
{
 8000a70:	b480      	push	{r7}
 8000a72:	af00      	add	r7, sp, #0
  /* USER CODE BEGIN NonMaskableInt_IRQn 0 */

  /* USER CODE END NonMaskableInt_IRQn 0 */
  /* USER CODE BEGIN NonMaskableInt_IRQn 1 */
  while (1)
 8000a74:	e7fe      	b.n	8000a74 <NMI_Handler+0x4>

08000a76 <HardFault_Handler>:

/**
  * @brief This function handles Hard fault interrupt.
  */
void HardFault_Handler(void)
{
 8000a76:	b480      	push	{r7}
 8000a78:	af00      	add	r7, sp, #0
  /* USER CODE BEGIN HardFault_IRQn 0 */

  /* USER CODE END HardFault_IRQn 0 */
  while (1)
 8000a7a:	e7fe      	b.n	8000a7a <HardFault_Handler+0x4>

08000a7c <MemManage_Handler>:

/**
  * @brief This function handles Memory management fault.
  */
void MemManage_Handler(void)
{
 8000a7c:	b480      	push	{r7}
 8000a7e:	af00      	add	r7, sp, #0
  /* USER CODE BEGIN MemoryManagement_IRQn 0 */

  /* USER CODE END MemoryManagement_IRQn 0 */
  while (1)
 8000a80:	e7fe      	b.n	8000a80 <MemManage_Handler+0x4>

08000a82 <BusFault_Handler>:

/**
  * @brief This function handles Pre-fetch fault, memory access fault.
  */
void BusFault_Handler(void)
{
 8000a82:	b480      	push	{r7}
 8000a84:	af00      	add	r7, sp, #0
  /* USER CODE BEGIN BusFault_IRQn 0 */

  /* USER CODE END BusFault_IRQn 0 */
  while (1)
 8000a86:	e7fe      	b.n	8000a86 <BusFault_Handler+0x4>

08000a88 <UsageFault_Handler>:

/**
  * @brief This function handles Undefined instruction or illegal state.
  */
void UsageFault_Handler(void)
{
 8000a88:	b480      	push	{r7}
 8000a8a:	af00      	add	r7, sp, #0
  /* USER CODE BEGIN UsageFault_IRQn 0 */

  /* USER CODE END UsageFault_IRQn 0 */
  while (1)
 8000a8c:	e7fe      	b.n	8000a8c <UsageFault_Handler+0x4>

08000a8e <DebugMon_Handler>:

/**
  * @brief This function handles Debug monitor.
  */
void DebugMon_Handler(void)
{
 8000a8e:	b480      	push	{r7}
 8000a90:	af00      	add	r7, sp, #0

  /* USER CODE END DebugMonitor_IRQn 0 */
  /* USER CODE BEGIN DebugMonitor_IRQn 1 */

  /* USER CODE END DebugMonitor_IRQn 1 */
}
 8000a92:	bf00      	nop
 8000a94:	46bd      	mov	sp, r7
 8000a96:	f85d 7b04 	ldr.w	r7, [sp], #4
 8000a9a:	4770      	bx	lr

08000a9c <EXTI0_IRQHandler>:

/**
  * @brief This function handles EXTI line0 interrupt.
  */
void EXTI0_IRQHandler(void)
{
 8000a9c:	b580      	push	{r7, lr}
 8000a9e:	af00      	add	r7, sp, #0
  /* USER CODE BEGIN EXTI0_IRQn 0 */

  button_interrupt_handler();
 8000aa0:	f7ff ff3e 	bl	8000920 <button_interrupt_handler>
  /* USER CODE END EXTI0_IRQn 0 */
  HAL_GPIO_EXTI_IRQHandler(GPIO_PIN_0);
 8000aa4:	2001      	movs	r0, #1
 8000aa6:	f000 fb61 	bl	800116c <HAL_GPIO_EXTI_IRQHandler>
  /* USER CODE BEGIN EXTI0_IRQn 1 */

  /* USER CODE END EXTI0_IRQn 1 */
}
 8000aaa:	bf00      	nop
 8000aac:	bd80      	pop	{r7, pc}
	...

08000ab0 <TIM6_DAC_IRQHandler>:

/**
  * @brief This function handles TIM6 global interrupt, DAC1 and DAC2 underrun error interrupts.
  */
void TIM6_DAC_IRQHandler(void)
{
 8000ab0:	b580      	push	{r7, lr}
 8000ab2:	af00      	add	r7, sp, #0
  /* USER CODE BEGIN TIM6_DAC_IRQn 0 */

  /* USER CODE END TIM6_DAC_IRQn 0 */
  HAL_TIM_IRQHandler(&htim6);
 8000ab4:	4802      	ldr	r0, [pc, #8]	; (8000ac0 <TIM6_DAC_IRQHandler+0x10>)
 8000ab6:	f001 f8d9 	bl	8001c6c <HAL_TIM_IRQHandler>
  /* USER CODE BEGIN TIM6_DAC_IRQn 1 */

  /* USER CODE END TIM6_DAC_IRQn 1 */
}
 8000aba:	bf00      	nop
 8000abc:	bd80      	pop	{r7, pc}
 8000abe:	bf00      	nop
 8000ac0:	20014384 	.word	0x20014384

08000ac4 <SystemInit>:
  *         configuration.
  * @param  None
  * @retval None
  */
void SystemInit(void)
{
 8000ac4:	b480      	push	{r7}
 8000ac6:	af00      	add	r7, sp, #0
  /* FPU settings ------------------------------------------------------------*/
  #if (__FPU_PRESENT == 1) && (__FPU_USED == 1)
    SCB->CPACR |= ((3UL << 10*2)|(3UL << 11*2));  /* set CP10 and CP11 Full Access */
 8000ac8:	4b06      	ldr	r3, [pc, #24]	; (8000ae4 <SystemInit+0x20>)
 8000aca:	f8d3 3088 	ldr.w	r3, [r3, #136]	; 0x88
 8000ace:	4a05      	ldr	r2, [pc, #20]	; (8000ae4 <SystemInit+0x20>)
 8000ad0:	f443 0370 	orr.w	r3, r3, #15728640	; 0xf00000
 8000ad4:	f8c2 3088 	str.w	r3, [r2, #136]	; 0x88

  /* Configure the Vector Table location -------------------------------------*/
#if defined(USER_VECT_TAB_ADDRESS)
  SCB->VTOR = VECT_TAB_BASE_ADDRESS | VECT_TAB_OFFSET; /* Vector Table Relocation in Internal SRAM */
#endif /* USER_VECT_TAB_ADDRESS */
}
 8000ad8:	bf00      	nop
 8000ada:	46bd      	mov	sp, r7
 8000adc:	f85d 7b04 	ldr.w	r7, [sp], #4
 8000ae0:	4770      	bx	lr
 8000ae2:	bf00      	nop
 8000ae4:	e000ed00 	.word	0xe000ed00

08000ae8 <Reset_Handler>:

    .section  .text.Reset_Handler
  .weak  Reset_Handler
  .type  Reset_Handler, %function
Reset_Handler:  
  ldr   sp, =_estack     /* set stack pointer */
 8000ae8:	f8df d034 	ldr.w	sp, [pc, #52]	; 8000b20 <LoopFillZerobss+0x12>

/* Copy the data segment initializers from flash to SRAM */  
  ldr r0, =_sdata
 8000aec:	480d      	ldr	r0, [pc, #52]	; (8000b24 <LoopFillZerobss+0x16>)
  ldr r1, =_edata
 8000aee:	490e      	ldr	r1, [pc, #56]	; (8000b28 <LoopFillZerobss+0x1a>)
  ldr r2, =_sidata
 8000af0:	4a0e      	ldr	r2, [pc, #56]	; (8000b2c <LoopFillZerobss+0x1e>)
  movs r3, #0
 8000af2:	2300      	movs	r3, #0
  b LoopCopyDataInit
 8000af4:	e002      	b.n	8000afc <LoopCopyDataInit>

08000af6 <CopyDataInit>:

CopyDataInit:
  ldr r4, [r2, r3]
 8000af6:	58d4      	ldr	r4, [r2, r3]
  str r4, [r0, r3]
 8000af8:	50c4      	str	r4, [r0, r3]
  adds r3, r3, #4
 8000afa:	3304      	adds	r3, #4

08000afc <LoopCopyDataInit>:

LoopCopyDataInit:
  adds r4, r0, r3
 8000afc:	18c4      	adds	r4, r0, r3
  cmp r4, r1
 8000afe:	428c      	cmp	r4, r1
  bcc CopyDataInit
 8000b00:	d3f9      	bcc.n	8000af6 <CopyDataInit>
  
/* Zero fill the bss segment. */
  ldr r2, =_sbss
 8000b02:	4a0b      	ldr	r2, [pc, #44]	; (8000b30 <LoopFillZerobss+0x22>)
  ldr r4, =_ebss
 8000b04:	4c0b      	ldr	r4, [pc, #44]	; (8000b34 <LoopFillZerobss+0x26>)
  movs r3, #0
 8000b06:	2300      	movs	r3, #0
  b LoopFillZerobss
 8000b08:	e001      	b.n	8000b0e <LoopFillZerobss>

08000b0a <FillZerobss>:

FillZerobss:
  str  r3, [r2]
 8000b0a:	6013      	str	r3, [r2, #0]
  adds r2, r2, #4
 8000b0c:	3204      	adds	r2, #4

08000b0e <LoopFillZerobss>:

LoopFillZerobss:
  cmp r2, r4
 8000b0e:	42a2      	cmp	r2, r4
  bcc FillZerobss
 8000b10:	d3fb      	bcc.n	8000b0a <FillZerobss>

/* Call the clock system intitialization function.*/
  bl  SystemInit   
 8000b12:	f7ff ffd7 	bl	8000ac4 <SystemInit>
/* Call static constructors */
    bl __libc_init_array
 8000b16:	f005 fdcb 	bl	80066b0 <__libc_init_array>
/* Call the application's entry point.*/
  bl  main
 8000b1a:	f7ff fd7b 	bl	8000614 <main>
  bx  lr    
 8000b1e:	4770      	bx	lr
  ldr   sp, =_estack     /* set stack pointer */
 8000b20:	20020000 	.word	0x20020000
  ldr r0, =_sdata
 8000b24:	20000000 	.word	0x20000000
  ldr r1, =_edata
 8000b28:	20000014 	.word	0x20000014
  ldr r2, =_sidata
 8000b2c:	0800689c 	.word	0x0800689c
  ldr r2, =_sbss
 8000b30:	20000014 	.word	0x20000014
  ldr r4, =_ebss
 8000b34:	200144b8 	.word	0x200144b8

08000b38 <ADC_IRQHandler>:
 * @retval None       
*/
    .section  .text.Default_Handler,"ax",%progbits
Default_Handler:
Infinite_Loop:
  b  Infinite_Loop
 8000b38:	e7fe      	b.n	8000b38 <ADC_IRQHandler>
	...

08000b3c <HAL_Init>:
  *         need to ensure that the SysTick time base is always set to 1 millisecond
  *         to have correct HAL operation.
  * @retval HAL status
  */
HAL_StatusTypeDef HAL_Init(void)
{
 8000b3c:	b580      	push	{r7, lr}
 8000b3e:	af00      	add	r7, sp, #0
  /* Configure Flash prefetch, Instruction cache, Data cache */ 
#if (INSTRUCTION_CACHE_ENABLE != 0U)
  __HAL_FLASH_INSTRUCTION_CACHE_ENABLE();
 8000b40:	4b0e      	ldr	r3, [pc, #56]	; (8000b7c <HAL_Init+0x40>)
 8000b42:	681b      	ldr	r3, [r3, #0]
 8000b44:	4a0d      	ldr	r2, [pc, #52]	; (8000b7c <HAL_Init+0x40>)
 8000b46:	f443 7300 	orr.w	r3, r3, #512	; 0x200
 8000b4a:	6013      	str	r3, [r2, #0]
#endif /* INSTRUCTION_CACHE_ENABLE */

#if (DATA_CACHE_ENABLE != 0U)
  __HAL_FLASH_DATA_CACHE_ENABLE();
 8000b4c:	4b0b      	ldr	r3, [pc, #44]	; (8000b7c <HAL_Init+0x40>)
 8000b4e:	681b      	ldr	r3, [r3, #0]
 8000b50:	4a0a      	ldr	r2, [pc, #40]	; (8000b7c <HAL_Init+0x40>)
 8000b52:	f443 6380 	orr.w	r3, r3, #1024	; 0x400
 8000b56:	6013      	str	r3, [r2, #0]
#endif /* DATA_CACHE_ENABLE */

#if (PREFETCH_ENABLE != 0U)
  __HAL_FLASH_PREFETCH_BUFFER_ENABLE();
 8000b58:	4b08      	ldr	r3, [pc, #32]	; (8000b7c <HAL_Init+0x40>)
 8000b5a:	681b      	ldr	r3, [r3, #0]
 8000b5c:	4a07      	ldr	r2, [pc, #28]	; (8000b7c <HAL_Init+0x40>)
 8000b5e:	f443 7380 	orr.w	r3, r3, #256	; 0x100
 8000b62:	6013      	str	r3, [r2, #0]
#endif /* PREFETCH_ENABLE */

  /* Set Interrupt Group Priority */
  HAL_NVIC_SetPriorityGrouping(NVIC_PRIORITYGROUP_4);
 8000b64:	2003      	movs	r0, #3
 8000b66:	f000 f8fc 	bl	8000d62 <HAL_NVIC_SetPriorityGrouping>

  /* Use systick as time base source and configure 1ms tick (default clock after Reset is HSI) */
  HAL_InitTick(TICK_INT_PRIORITY);
 8000b6a:	2000      	movs	r0, #0
 8000b6c:	f7ff ff26 	bl	80009bc <HAL_InitTick>

  /* Init the low level hardware */
  HAL_MspInit();
 8000b70:	f7ff fefc 	bl	800096c <HAL_MspInit>

  /* Return function status */
  return HAL_OK;
 8000b74:	2300      	movs	r3, #0
}
 8000b76:	4618      	mov	r0, r3
 8000b78:	bd80      	pop	{r7, pc}
 8000b7a:	bf00      	nop
 8000b7c:	40023c00 	.word	0x40023c00

08000b80 <HAL_IncTick>:
 * @note This function is declared as __weak to be overwritten in case of other 
  *      implementations in user file.
  * @retval None
  */
__weak void HAL_IncTick(void)
{
 8000b80:	b480      	push	{r7}
 8000b82:	af00      	add	r7, sp, #0
  uwTick += uwTickFreq;
 8000b84:	4b06      	ldr	r3, [pc, #24]	; (8000ba0 <HAL_IncTick+0x20>)
 8000b86:	781b      	ldrb	r3, [r3, #0]
 8000b88:	461a      	mov	r2, r3
 8000b8a:	4b06      	ldr	r3, [pc, #24]	; (8000ba4 <HAL_IncTick+0x24>)
 8000b8c:	681b      	ldr	r3, [r3, #0]
 8000b8e:	4413      	add	r3, r2
 8000b90:	4a04      	ldr	r2, [pc, #16]	; (8000ba4 <HAL_IncTick+0x24>)
 8000b92:	6013      	str	r3, [r2, #0]
}
 8000b94:	bf00      	nop
 8000b96:	46bd      	mov	sp, r7
 8000b98:	f85d 7b04 	ldr.w	r7, [sp], #4
 8000b9c:	4770      	bx	lr
 8000b9e:	bf00      	nop
 8000ba0:	20000008 	.word	0x20000008
 8000ba4:	200143cc 	.word	0x200143cc

08000ba8 <HAL_GetTick>:
  * @note This function is declared as __weak to be overwritten in case of other 
  *       implementations in user file.
  * @retval tick value
  */
__weak uint32_t HAL_GetTick(void)
{
 8000ba8:	b480      	push	{r7}
 8000baa:	af00      	add	r7, sp, #0
  return uwTick;
 8000bac:	4b03      	ldr	r3, [pc, #12]	; (8000bbc <HAL_GetTick+0x14>)
 8000bae:	681b      	ldr	r3, [r3, #0]
}
 8000bb0:	4618      	mov	r0, r3
 8000bb2:	46bd      	mov	sp, r7
 8000bb4:	f85d 7b04 	ldr.w	r7, [sp], #4
 8000bb8:	4770      	bx	lr
 8000bba:	bf00      	nop
 8000bbc:	200143cc 	.word	0x200143cc

08000bc0 <HAL_Delay>:
  *       implementations in user file.
  * @param Delay specifies the delay time length, in milliseconds.
  * @retval None
  */
__weak void HAL_Delay(uint32_t Delay)
{
 8000bc0:	b580      	push	{r7, lr}
 8000bc2:	b084      	sub	sp, #16
 8000bc4:	af00      	add	r7, sp, #0
 8000bc6:	6078      	str	r0, [r7, #4]
  uint32_t tickstart = HAL_GetTick();
 8000bc8:	f7ff ffee 	bl	8000ba8 <HAL_GetTick>
 8000bcc:	60b8      	str	r0, [r7, #8]
  uint32_t wait = Delay;
 8000bce:	687b      	ldr	r3, [r7, #4]
 8000bd0:	60fb      	str	r3, [r7, #12]

  /* Add a freq to guarantee minimum wait */
  if (wait < HAL_MAX_DELAY)
 8000bd2:	68fb      	ldr	r3, [r7, #12]
 8000bd4:	f1b3 3fff 	cmp.w	r3, #4294967295
 8000bd8:	d005      	beq.n	8000be6 <HAL_Delay+0x26>
  {
    wait += (uint32_t)(uwTickFreq);
 8000bda:	4b0a      	ldr	r3, [pc, #40]	; (8000c04 <HAL_Delay+0x44>)
 8000bdc:	781b      	ldrb	r3, [r3, #0]
 8000bde:	461a      	mov	r2, r3
 8000be0:	68fb      	ldr	r3, [r7, #12]
 8000be2:	4413      	add	r3, r2
 8000be4:	60fb      	str	r3, [r7, #12]
  }

  while((HAL_GetTick() - tickstart) < wait)
 8000be6:	bf00      	nop
 8000be8:	f7ff ffde 	bl	8000ba8 <HAL_GetTick>
 8000bec:	4602      	mov	r2, r0
 8000bee:	68bb      	ldr	r3, [r7, #8]
 8000bf0:	1ad3      	subs	r3, r2, r3
 8000bf2:	68fa      	ldr	r2, [r7, #12]
 8000bf4:	429a      	cmp	r2, r3
 8000bf6:	d8f7      	bhi.n	8000be8 <HAL_Delay+0x28>
  {
  }
}
 8000bf8:	bf00      	nop
 8000bfa:	bf00      	nop
 8000bfc:	3710      	adds	r7, #16
 8000bfe:	46bd      	mov	sp, r7
 8000c00:	bd80      	pop	{r7, pc}
 8000c02:	bf00      	nop
 8000c04:	20000008 	.word	0x20000008

08000c08 <__NVIC_SetPriorityGrouping>:
           In case of a conflict between priority grouping and available
           priority bits (__NVIC_PRIO_BITS), the smallest possible priority group is set.
  \param [in]      PriorityGroup  Priority grouping field.
 */
__STATIC_INLINE void __NVIC_SetPriorityGrouping(uint32_t PriorityGroup)
{
 8000c08:	b480      	push	{r7}
 8000c0a:	b085      	sub	sp, #20
 8000c0c:	af00      	add	r7, sp, #0
 8000c0e:	6078      	str	r0, [r7, #4]
  uint32_t reg_value;
  uint32_t PriorityGroupTmp = (PriorityGroup & (uint32_t)0x07UL);             /* only values 0..7 are used          */
 8000c10:	687b      	ldr	r3, [r7, #4]
 8000c12:	f003 0307 	and.w	r3, r3, #7
 8000c16:	60fb      	str	r3, [r7, #12]

  reg_value  =  SCB->AIRCR;                                                   /* read old register configuration    */
 8000c18:	4b0c      	ldr	r3, [pc, #48]	; (8000c4c <__NVIC_SetPriorityGrouping+0x44>)
 8000c1a:	68db      	ldr	r3, [r3, #12]
 8000c1c:	60bb      	str	r3, [r7, #8]
  reg_value &= ~((uint32_t)(SCB_AIRCR_VECTKEY_Msk | SCB_AIRCR_PRIGROUP_Msk)); /* clear bits to change               */
 8000c1e:	68ba      	ldr	r2, [r7, #8]
 8000c20:	f64f 03ff 	movw	r3, #63743	; 0xf8ff
 8000c24:	4013      	ands	r3, r2
 8000c26:	60bb      	str	r3, [r7, #8]
  reg_value  =  (reg_value                                   |
                ((uint32_t)0x5FAUL << SCB_AIRCR_VECTKEY_Pos) |
                (PriorityGroupTmp << SCB_AIRCR_PRIGROUP_Pos)  );              /* Insert write key and priority group */
 8000c28:	68fb      	ldr	r3, [r7, #12]
 8000c2a:	021a      	lsls	r2, r3, #8
                ((uint32_t)0x5FAUL << SCB_AIRCR_VECTKEY_Pos) |
 8000c2c:	68bb      	ldr	r3, [r7, #8]
 8000c2e:	4313      	orrs	r3, r2
  reg_value  =  (reg_value                                   |
 8000c30:	f043 63bf 	orr.w	r3, r3, #100139008	; 0x5f80000
 8000c34:	f443 3300 	orr.w	r3, r3, #131072	; 0x20000
 8000c38:	60bb      	str	r3, [r7, #8]
  SCB->AIRCR =  reg_value;
 8000c3a:	4a04      	ldr	r2, [pc, #16]	; (8000c4c <__NVIC_SetPriorityGrouping+0x44>)
 8000c3c:	68bb      	ldr	r3, [r7, #8]
 8000c3e:	60d3      	str	r3, [r2, #12]
}
 8000c40:	bf00      	nop
 8000c42:	3714      	adds	r7, #20
 8000c44:	46bd      	mov	sp, r7
 8000c46:	f85d 7b04 	ldr.w	r7, [sp], #4
 8000c4a:	4770      	bx	lr
 8000c4c:	e000ed00 	.word	0xe000ed00

08000c50 <__NVIC_GetPriorityGrouping>:
  \brief   Get Priority Grouping
  \details Reads the priority grouping field from the NVIC Interrupt Controller.
  \return                Priority grouping field (SCB->AIRCR [10:8] PRIGROUP field).
 */
__STATIC_INLINE uint32_t __NVIC_GetPriorityGrouping(void)
{
 8000c50:	b480      	push	{r7}
 8000c52:	af00      	add	r7, sp, #0
  return ((uint32_t)((SCB->AIRCR & SCB_AIRCR_PRIGROUP_Msk) >> SCB_AIRCR_PRIGROUP_Pos));
 8000c54:	4b04      	ldr	r3, [pc, #16]	; (8000c68 <__NVIC_GetPriorityGrouping+0x18>)
 8000c56:	68db      	ldr	r3, [r3, #12]
 8000c58:	0a1b      	lsrs	r3, r3, #8
 8000c5a:	f003 0307 	and.w	r3, r3, #7
}
 8000c5e:	4618      	mov	r0, r3
 8000c60:	46bd      	mov	sp, r7
 8000c62:	f85d 7b04 	ldr.w	r7, [sp], #4
 8000c66:	4770      	bx	lr
 8000c68:	e000ed00 	.word	0xe000ed00

08000c6c <__NVIC_EnableIRQ>:
  \details Enables a device specific interrupt in the NVIC interrupt controller.
  \param [in]      IRQn  Device specific interrupt number.
  \note    IRQn must not be negative.
 */
__STATIC_INLINE void __NVIC_EnableIRQ(IRQn_Type IRQn)
{
 8000c6c:	b480      	push	{r7}
 8000c6e:	b083      	sub	sp, #12
 8000c70:	af00      	add	r7, sp, #0
 8000c72:	4603      	mov	r3, r0
 8000c74:	71fb      	strb	r3, [r7, #7]
  if ((int32_t)(IRQn) >= 0)
 8000c76:	f997 3007 	ldrsb.w	r3, [r7, #7]
 8000c7a:	2b00      	cmp	r3, #0
 8000c7c:	db0b      	blt.n	8000c96 <__NVIC_EnableIRQ+0x2a>
  {
    NVIC->ISER[(((uint32_t)IRQn) >> 5UL)] = (uint32_t)(1UL << (((uint32_t)IRQn) & 0x1FUL));
 8000c7e:	79fb      	ldrb	r3, [r7, #7]
 8000c80:	f003 021f 	and.w	r2, r3, #31
 8000c84:	4907      	ldr	r1, [pc, #28]	; (8000ca4 <__NVIC_EnableIRQ+0x38>)
 8000c86:	f997 3007 	ldrsb.w	r3, [r7, #7]
 8000c8a:	095b      	lsrs	r3, r3, #5
 8000c8c:	2001      	movs	r0, #1
 8000c8e:	fa00 f202 	lsl.w	r2, r0, r2
 8000c92:	f841 2023 	str.w	r2, [r1, r3, lsl #2]
  }
}
 8000c96:	bf00      	nop
 8000c98:	370c      	adds	r7, #12
 8000c9a:	46bd      	mov	sp, r7
 8000c9c:	f85d 7b04 	ldr.w	r7, [sp], #4
 8000ca0:	4770      	bx	lr
 8000ca2:	bf00      	nop
 8000ca4:	e000e100 	.word	0xe000e100

08000ca8 <__NVIC_SetPriority>:
  \param [in]      IRQn  Interrupt number.
  \param [in]  priority  Priority to set.
  \note    The priority cannot be set for every processor exception.
 */
__STATIC_INLINE void __NVIC_SetPriority(IRQn_Type IRQn, uint32_t priority)
{
 8000ca8:	b480      	push	{r7}
 8000caa:	b083      	sub	sp, #12
 8000cac:	af00      	add	r7, sp, #0
 8000cae:	4603      	mov	r3, r0
 8000cb0:	6039      	str	r1, [r7, #0]
 8000cb2:	71fb      	strb	r3, [r7, #7]
  if ((int32_t)(IRQn) >= 0)
 8000cb4:	f997 3007 	ldrsb.w	r3, [r7, #7]
 8000cb8:	2b00      	cmp	r3, #0
 8000cba:	db0a      	blt.n	8000cd2 <__NVIC_SetPriority+0x2a>
  {
    NVIC->IP[((uint32_t)IRQn)]               = (uint8_t)((priority << (8U - __NVIC_PRIO_BITS)) & (uint32_t)0xFFUL);
 8000cbc:	683b      	ldr	r3, [r7, #0]
 8000cbe:	b2da      	uxtb	r2, r3
 8000cc0:	490c      	ldr	r1, [pc, #48]	; (8000cf4 <__NVIC_SetPriority+0x4c>)
 8000cc2:	f997 3007 	ldrsb.w	r3, [r7, #7]
 8000cc6:	0112      	lsls	r2, r2, #4
 8000cc8:	b2d2      	uxtb	r2, r2
 8000cca:	440b      	add	r3, r1
 8000ccc:	f883 2300 	strb.w	r2, [r3, #768]	; 0x300
  }
  else
  {
    SCB->SHP[(((uint32_t)IRQn) & 0xFUL)-4UL] = (uint8_t)((priority << (8U - __NVIC_PRIO_BITS)) & (uint32_t)0xFFUL);
  }
}
 8000cd0:	e00a      	b.n	8000ce8 <__NVIC_SetPriority+0x40>
    SCB->SHP[(((uint32_t)IRQn) & 0xFUL)-4UL] = (uint8_t)((priority << (8U - __NVIC_PRIO_BITS)) & (uint32_t)0xFFUL);
 8000cd2:	683b      	ldr	r3, [r7, #0]
 8000cd4:	b2da      	uxtb	r2, r3
 8000cd6:	4908      	ldr	r1, [pc, #32]	; (8000cf8 <__NVIC_SetPriority+0x50>)
 8000cd8:	79fb      	ldrb	r3, [r7, #7]
 8000cda:	f003 030f 	and.w	r3, r3, #15
 8000cde:	3b04      	subs	r3, #4
 8000ce0:	0112      	lsls	r2, r2, #4
 8000ce2:	b2d2      	uxtb	r2, r2
 8000ce4:	440b      	add	r3, r1
 8000ce6:	761a      	strb	r2, [r3, #24]
}
 8000ce8:	bf00      	nop
 8000cea:	370c      	adds	r7, #12
 8000cec:	46bd      	mov	sp, r7
 8000cee:	f85d 7b04 	ldr.w	r7, [sp], #4
 8000cf2:	4770      	bx	lr
 8000cf4:	e000e100 	.word	0xe000e100
 8000cf8:	e000ed00 	.word	0xe000ed00

08000cfc <NVIC_EncodePriority>:
  \param [in]   PreemptPriority  Preemptive priority value (starting from 0).
  \param [in]       SubPriority  Subpriority value (starting from 0).
  \return                        Encoded priority. Value can be used in the function \ref NVIC_SetPriority().
 */
__STATIC_INLINE uint32_t NVIC_EncodePriority (uint32_t PriorityGroup, uint32_t PreemptPriority, uint32_t SubPriority)
{
 8000cfc:	b480      	push	{r7}
 8000cfe:	b089      	sub	sp, #36	; 0x24
 8000d00:	af00      	add	r7, sp, #0
 8000d02:	60f8      	str	r0, [r7, #12]
 8000d04:	60b9      	str	r1, [r7, #8]
 8000d06:	607a      	str	r2, [r7, #4]
  uint32_t PriorityGroupTmp = (PriorityGroup & (uint32_t)0x07UL);   /* only values 0..7 are used          */
 8000d08:	68fb      	ldr	r3, [r7, #12]
 8000d0a:	f003 0307 	and.w	r3, r3, #7
 8000d0e:	61fb      	str	r3, [r7, #28]
  uint32_t PreemptPriorityBits;
  uint32_t SubPriorityBits;

  PreemptPriorityBits = ((7UL - PriorityGroupTmp) > (uint32_t)(__NVIC_PRIO_BITS)) ? (uint32_t)(__NVIC_PRIO_BITS) : (uint32_t)(7UL - PriorityGroupTmp);
 8000d10:	69fb      	ldr	r3, [r7, #28]
 8000d12:	f1c3 0307 	rsb	r3, r3, #7
 8000d16:	2b04      	cmp	r3, #4
 8000d18:	bf28      	it	cs
 8000d1a:	2304      	movcs	r3, #4
 8000d1c:	61bb      	str	r3, [r7, #24]
  SubPriorityBits     = ((PriorityGroupTmp + (uint32_t)(__NVIC_PRIO_BITS)) < (uint32_t)7UL) ? (uint32_t)0UL : (uint32_t)((PriorityGroupTmp - 7UL) + (uint32_t)(__NVIC_PRIO_BITS));
 8000d1e:	69fb      	ldr	r3, [r7, #28]
 8000d20:	3304      	adds	r3, #4
 8000d22:	2b06      	cmp	r3, #6
 8000d24:	d902      	bls.n	8000d2c <NVIC_EncodePriority+0x30>
 8000d26:	69fb      	ldr	r3, [r7, #28]
 8000d28:	3b03      	subs	r3, #3
 8000d2a:	e000      	b.n	8000d2e <NVIC_EncodePriority+0x32>
 8000d2c:	2300      	movs	r3, #0
 8000d2e:	617b      	str	r3, [r7, #20]

  return (
           ((PreemptPriority & (uint32_t)((1UL << (PreemptPriorityBits)) - 1UL)) << SubPriorityBits) |
 8000d30:	f04f 32ff 	mov.w	r2, #4294967295
 8000d34:	69bb      	ldr	r3, [r7, #24]
 8000d36:	fa02 f303 	lsl.w	r3, r2, r3
 8000d3a:	43da      	mvns	r2, r3
 8000d3c:	68bb      	ldr	r3, [r7, #8]
 8000d3e:	401a      	ands	r2, r3
 8000d40:	697b      	ldr	r3, [r7, #20]
 8000d42:	409a      	lsls	r2, r3
           ((SubPriority     & (uint32_t)((1UL << (SubPriorityBits    )) - 1UL)))
 8000d44:	f04f 31ff 	mov.w	r1, #4294967295
 8000d48:	697b      	ldr	r3, [r7, #20]
 8000d4a:	fa01 f303 	lsl.w	r3, r1, r3
 8000d4e:	43d9      	mvns	r1, r3
 8000d50:	687b      	ldr	r3, [r7, #4]
 8000d52:	400b      	ands	r3, r1
           ((PreemptPriority & (uint32_t)((1UL << (PreemptPriorityBits)) - 1UL)) << SubPriorityBits) |
 8000d54:	4313      	orrs	r3, r2
         );
}
 8000d56:	4618      	mov	r0, r3
 8000d58:	3724      	adds	r7, #36	; 0x24
 8000d5a:	46bd      	mov	sp, r7
 8000d5c:	f85d 7b04 	ldr.w	r7, [sp], #4
 8000d60:	4770      	bx	lr

08000d62 <HAL_NVIC_SetPriorityGrouping>:
  * @note   When the NVIC_PriorityGroup_0 is selected, IRQ preemption is no more possible. 
  *         The pending IRQ priority will be managed only by the subpriority. 
  * @retval None
  */
void HAL_NVIC_SetPriorityGrouping(uint32_t PriorityGroup)
{
 8000d62:	b580      	push	{r7, lr}
 8000d64:	b082      	sub	sp, #8
 8000d66:	af00      	add	r7, sp, #0
 8000d68:	6078      	str	r0, [r7, #4]
  /* Check the parameters */
  assert_param(IS_NVIC_PRIORITY_GROUP(PriorityGroup));
  
  /* Set the PRIGROUP[10:8] bits according to the PriorityGroup parameter value */
  NVIC_SetPriorityGrouping(PriorityGroup);
 8000d6a:	6878      	ldr	r0, [r7, #4]
 8000d6c:	f7ff ff4c 	bl	8000c08 <__NVIC_SetPriorityGrouping>
}
 8000d70:	bf00      	nop
 8000d72:	3708      	adds	r7, #8
 8000d74:	46bd      	mov	sp, r7
 8000d76:	bd80      	pop	{r7, pc}

08000d78 <HAL_NVIC_SetPriority>:
  *         This parameter can be a value between 0 and 15
  *         A lower priority value indicates a higher priority.          
  * @retval None
  */
void HAL_NVIC_SetPriority(IRQn_Type IRQn, uint32_t PreemptPriority, uint32_t SubPriority)
{ 
 8000d78:	b580      	push	{r7, lr}
 8000d7a:	b086      	sub	sp, #24
 8000d7c:	af00      	add	r7, sp, #0
 8000d7e:	4603      	mov	r3, r0
 8000d80:	60b9      	str	r1, [r7, #8]
 8000d82:	607a      	str	r2, [r7, #4]
 8000d84:	73fb      	strb	r3, [r7, #15]
  uint32_t prioritygroup = 0x00U;
 8000d86:	2300      	movs	r3, #0
 8000d88:	617b      	str	r3, [r7, #20]
  
  /* Check the parameters */
  assert_param(IS_NVIC_SUB_PRIORITY(SubPriority));
  assert_param(IS_NVIC_PREEMPTION_PRIORITY(PreemptPriority));
  
  prioritygroup = NVIC_GetPriorityGrouping();
 8000d8a:	f7ff ff61 	bl	8000c50 <__NVIC_GetPriorityGrouping>
 8000d8e:	6178      	str	r0, [r7, #20]
  
  NVIC_SetPriority(IRQn, NVIC_EncodePriority(prioritygroup, PreemptPriority, SubPriority));
 8000d90:	687a      	ldr	r2, [r7, #4]
 8000d92:	68b9      	ldr	r1, [r7, #8]
 8000d94:	6978      	ldr	r0, [r7, #20]
 8000d96:	f7ff ffb1 	bl	8000cfc <NVIC_EncodePriority>
 8000d9a:	4602      	mov	r2, r0
 8000d9c:	f997 300f 	ldrsb.w	r3, [r7, #15]
 8000da0:	4611      	mov	r1, r2
 8000da2:	4618      	mov	r0, r3
 8000da4:	f7ff ff80 	bl	8000ca8 <__NVIC_SetPriority>
}
 8000da8:	bf00      	nop
 8000daa:	3718      	adds	r7, #24
 8000dac:	46bd      	mov	sp, r7
 8000dae:	bd80      	pop	{r7, pc}

08000db0 <HAL_NVIC_EnableIRQ>:
  *         This parameter can be an enumerator of IRQn_Type enumeration
  *         (For the complete STM32 Devices IRQ Channels list, please refer to the appropriate CMSIS device file (stm32f4xxxx.h))
  * @retval None
  */
void HAL_NVIC_EnableIRQ(IRQn_Type IRQn)
{
 8000db0:	b580      	push	{r7, lr}
 8000db2:	b082      	sub	sp, #8
 8000db4:	af00      	add	r7, sp, #0
 8000db6:	4603      	mov	r3, r0
 8000db8:	71fb      	strb	r3, [r7, #7]
  /* Check the parameters */
  assert_param(IS_NVIC_DEVICE_IRQ(IRQn));
  
  /* Enable interrupt */
  NVIC_EnableIRQ(IRQn);
 8000dba:	f997 3007 	ldrsb.w	r3, [r7, #7]
 8000dbe:	4618      	mov	r0, r3
 8000dc0:	f7ff ff54 	bl	8000c6c <__NVIC_EnableIRQ>
}
 8000dc4:	bf00      	nop
 8000dc6:	3708      	adds	r7, #8
 8000dc8:	46bd      	mov	sp, r7
 8000dca:	bd80      	pop	{r7, pc}

08000dcc <HAL_GPIO_Init>:
  * @param  GPIO_Init pointer to a GPIO_InitTypeDef structure that contains
  *         the configuration information for the specified GPIO peripheral.
  * @retval None
  */
void HAL_GPIO_Init(GPIO_TypeDef  *GPIOx, GPIO_InitTypeDef *GPIO_Init)
{
 8000dcc:	b480      	push	{r7}
 8000dce:	b089      	sub	sp, #36	; 0x24
 8000dd0:	af00      	add	r7, sp, #0
 8000dd2:	6078      	str	r0, [r7, #4]
 8000dd4:	6039      	str	r1, [r7, #0]
  uint32_t position;
  uint32_t ioposition = 0x00U;
 8000dd6:	2300      	movs	r3, #0
 8000dd8:	617b      	str	r3, [r7, #20]
  uint32_t iocurrent = 0x00U;
 8000dda:	2300      	movs	r3, #0
 8000ddc:	613b      	str	r3, [r7, #16]
  uint32_t temp = 0x00U;
 8000dde:	2300      	movs	r3, #0
 8000de0:	61bb      	str	r3, [r7, #24]
  assert_param(IS_GPIO_PIN(GPIO_Init->Pin));
  assert_param(IS_GPIO_MODE(GPIO_Init->Mode));
  assert_param(IS_GPIO_PULL(GPIO_Init->Pull));

  /* Configure the port pins */
  for(position = 0U; position < GPIO_NUMBER; position++)
 8000de2:	2300      	movs	r3, #0
 8000de4:	61fb      	str	r3, [r7, #28]
 8000de6:	e16b      	b.n	80010c0 <HAL_GPIO_Init+0x2f4>
  {
    /* Get the IO position */
    ioposition = 0x01U << position;
 8000de8:	2201      	movs	r2, #1
 8000dea:	69fb      	ldr	r3, [r7, #28]
 8000dec:	fa02 f303 	lsl.w	r3, r2, r3
 8000df0:	617b      	str	r3, [r7, #20]
    /* Get the current IO position */
    iocurrent = (uint32_t)(GPIO_Init->Pin) & ioposition;
 8000df2:	683b      	ldr	r3, [r7, #0]
 8000df4:	681b      	ldr	r3, [r3, #0]
 8000df6:	697a      	ldr	r2, [r7, #20]
 8000df8:	4013      	ands	r3, r2
 8000dfa:	613b      	str	r3, [r7, #16]

    if(iocurrent == ioposition)
 8000dfc:	693a      	ldr	r2, [r7, #16]
 8000dfe:	697b      	ldr	r3, [r7, #20]
 8000e00:	429a      	cmp	r2, r3
 8000e02:	f040 815a 	bne.w	80010ba <HAL_GPIO_Init+0x2ee>
    {
      /*--------------------- GPIO Mode Configuration ------------------------*/
      /* In case of Output or Alternate function mode selection */
      if(((GPIO_Init->Mode & GPIO_MODE) == MODE_OUTPUT) || \
 8000e06:	683b      	ldr	r3, [r7, #0]
 8000e08:	685b      	ldr	r3, [r3, #4]
 8000e0a:	f003 0303 	and.w	r3, r3, #3
 8000e0e:	2b01      	cmp	r3, #1
 8000e10:	d005      	beq.n	8000e1e <HAL_GPIO_Init+0x52>
          (GPIO_Init->Mode & GPIO_MODE) == MODE_AF)
 8000e12:	683b      	ldr	r3, [r7, #0]
 8000e14:	685b      	ldr	r3, [r3, #4]
 8000e16:	f003 0303 	and.w	r3, r3, #3
      if(((GPIO_Init->Mode & GPIO_MODE) == MODE_OUTPUT) || \
 8000e1a:	2b02      	cmp	r3, #2
 8000e1c:	d130      	bne.n	8000e80 <HAL_GPIO_Init+0xb4>
      {
        /* Check the Speed parameter */
        assert_param(IS_GPIO_SPEED(GPIO_Init->Speed));
        /* Configure the IO Speed */
        temp = GPIOx->OSPEEDR; 
 8000e1e:	687b      	ldr	r3, [r7, #4]
 8000e20:	689b      	ldr	r3, [r3, #8]
 8000e22:	61bb      	str	r3, [r7, #24]
        temp &= ~(GPIO_OSPEEDER_OSPEEDR0 << (position * 2U));
 8000e24:	69fb      	ldr	r3, [r7, #28]
 8000e26:	005b      	lsls	r3, r3, #1
 8000e28:	2203      	movs	r2, #3
 8000e2a:	fa02 f303 	lsl.w	r3, r2, r3
 8000e2e:	43db      	mvns	r3, r3
 8000e30:	69ba      	ldr	r2, [r7, #24]
 8000e32:	4013      	ands	r3, r2
 8000e34:	61bb      	str	r3, [r7, #24]
        temp |= (GPIO_Init->Speed << (position * 2U));
 8000e36:	683b      	ldr	r3, [r7, #0]
 8000e38:	68da      	ldr	r2, [r3, #12]
 8000e3a:	69fb      	ldr	r3, [r7, #28]
 8000e3c:	005b      	lsls	r3, r3, #1
 8000e3e:	fa02 f303 	lsl.w	r3, r2, r3
 8000e42:	69ba      	ldr	r2, [r7, #24]
 8000e44:	4313      	orrs	r3, r2
 8000e46:	61bb      	str	r3, [r7, #24]
        GPIOx->OSPEEDR = temp;
 8000e48:	687b      	ldr	r3, [r7, #4]
 8000e4a:	69ba      	ldr	r2, [r7, #24]
 8000e4c:	609a      	str	r2, [r3, #8]

        /* Configure the IO Output Type */
        temp = GPIOx->OTYPER;
 8000e4e:	687b      	ldr	r3, [r7, #4]
 8000e50:	685b      	ldr	r3, [r3, #4]
 8000e52:	61bb      	str	r3, [r7, #24]
        temp &= ~(GPIO_OTYPER_OT_0 << position) ;
 8000e54:	2201      	movs	r2, #1
 8000e56:	69fb      	ldr	r3, [r7, #28]
 8000e58:	fa02 f303 	lsl.w	r3, r2, r3
 8000e5c:	43db      	mvns	r3, r3
 8000e5e:	69ba      	ldr	r2, [r7, #24]
 8000e60:	4013      	ands	r3, r2
 8000e62:	61bb      	str	r3, [r7, #24]
        temp |= (((GPIO_Init->Mode & GPIO_OUTPUT_TYPE) >> 4U) << position);
 8000e64:	683b      	ldr	r3, [r7, #0]
 8000e66:	685b      	ldr	r3, [r3, #4]
 8000e68:	091b      	lsrs	r3, r3, #4
 8000e6a:	f003 0201 	and.w	r2, r3, #1
 8000e6e:	69fb      	ldr	r3, [r7, #28]
 8000e70:	fa02 f303 	lsl.w	r3, r2, r3
 8000e74:	69ba      	ldr	r2, [r7, #24]
 8000e76:	4313      	orrs	r3, r2
 8000e78:	61bb      	str	r3, [r7, #24]
        GPIOx->OTYPER = temp;
 8000e7a:	687b      	ldr	r3, [r7, #4]
 8000e7c:	69ba      	ldr	r2, [r7, #24]
 8000e7e:	605a      	str	r2, [r3, #4]
       }

      if((GPIO_Init->Mode & GPIO_MODE) != MODE_ANALOG)
 8000e80:	683b      	ldr	r3, [r7, #0]
 8000e82:	685b      	ldr	r3, [r3, #4]
 8000e84:	f003 0303 	and.w	r3, r3, #3
 8000e88:	2b03      	cmp	r3, #3
 8000e8a:	d017      	beq.n	8000ebc <HAL_GPIO_Init+0xf0>
      {
        /* Activate the Pull-up or Pull down resistor for the current IO */
        temp = GPIOx->PUPDR;
 8000e8c:	687b      	ldr	r3, [r7, #4]
 8000e8e:	68db      	ldr	r3, [r3, #12]
 8000e90:	61bb      	str	r3, [r7, #24]
        temp &= ~(GPIO_PUPDR_PUPDR0 << (position * 2U));
 8000e92:	69fb      	ldr	r3, [r7, #28]
 8000e94:	005b      	lsls	r3, r3, #1
 8000e96:	2203      	movs	r2, #3
 8000e98:	fa02 f303 	lsl.w	r3, r2, r3
 8000e9c:	43db      	mvns	r3, r3
 8000e9e:	69ba      	ldr	r2, [r7, #24]
 8000ea0:	4013      	ands	r3, r2
 8000ea2:	61bb      	str	r3, [r7, #24]
        temp |= ((GPIO_Init->Pull) << (position * 2U));
 8000ea4:	683b      	ldr	r3, [r7, #0]
 8000ea6:	689a      	ldr	r2, [r3, #8]
 8000ea8:	69fb      	ldr	r3, [r7, #28]
 8000eaa:	005b      	lsls	r3, r3, #1
 8000eac:	fa02 f303 	lsl.w	r3, r2, r3
 8000eb0:	69ba      	ldr	r2, [r7, #24]
 8000eb2:	4313      	orrs	r3, r2
 8000eb4:	61bb      	str	r3, [r7, #24]
        GPIOx->PUPDR = temp;
 8000eb6:	687b      	ldr	r3, [r7, #4]
 8000eb8:	69ba      	ldr	r2, [r7, #24]
 8000eba:	60da      	str	r2, [r3, #12]
      }

      /* In case of Alternate function mode selection */
      if((GPIO_Init->Mode & GPIO_MODE) == MODE_AF)
 8000ebc:	683b      	ldr	r3, [r7, #0]
 8000ebe:	685b      	ldr	r3, [r3, #4]
 8000ec0:	f003 0303 	and.w	r3, r3, #3
 8000ec4:	2b02      	cmp	r3, #2
 8000ec6:	d123      	bne.n	8000f10 <HAL_GPIO_Init+0x144>
      {
        /* Check the Alternate function parameter */
        assert_param(IS_GPIO_AF(GPIO_Init->Alternate));
        /* Configure Alternate function mapped with the current IO */
        temp = GPIOx->AFR[position >> 3U];
 8000ec8:	69fb      	ldr	r3, [r7, #28]
 8000eca:	08da      	lsrs	r2, r3, #3
 8000ecc:	687b      	ldr	r3, [r7, #4]
 8000ece:	3208      	adds	r2, #8
 8000ed0:	f853 3022 	ldr.w	r3, [r3, r2, lsl #2]
 8000ed4:	61bb      	str	r3, [r7, #24]
        temp &= ~(0xFU << ((uint32_t)(position & 0x07U) * 4U)) ;
 8000ed6:	69fb      	ldr	r3, [r7, #28]
 8000ed8:	f003 0307 	and.w	r3, r3, #7
 8000edc:	009b      	lsls	r3, r3, #2
 8000ede:	220f      	movs	r2, #15
 8000ee0:	fa02 f303 	lsl.w	r3, r2, r3
 8000ee4:	43db      	mvns	r3, r3
 8000ee6:	69ba      	ldr	r2, [r7, #24]
 8000ee8:	4013      	ands	r3, r2
 8000eea:	61bb      	str	r3, [r7, #24]
        temp |= ((uint32_t)(GPIO_Init->Alternate) << (((uint32_t)position & 0x07U) * 4U));
 8000eec:	683b      	ldr	r3, [r7, #0]
 8000eee:	691a      	ldr	r2, [r3, #16]
 8000ef0:	69fb      	ldr	r3, [r7, #28]
 8000ef2:	f003 0307 	and.w	r3, r3, #7
 8000ef6:	009b      	lsls	r3, r3, #2
 8000ef8:	fa02 f303 	lsl.w	r3, r2, r3
 8000efc:	69ba      	ldr	r2, [r7, #24]
 8000efe:	4313      	orrs	r3, r2
 8000f00:	61bb      	str	r3, [r7, #24]
        GPIOx->AFR[position >> 3U] = temp;
 8000f02:	69fb      	ldr	r3, [r7, #28]
 8000f04:	08da      	lsrs	r2, r3, #3
 8000f06:	687b      	ldr	r3, [r7, #4]
 8000f08:	3208      	adds	r2, #8
 8000f0a:	69b9      	ldr	r1, [r7, #24]
 8000f0c:	f843 1022 	str.w	r1, [r3, r2, lsl #2]
      }

      /* Configure IO Direction mode (Input, Output, Alternate or Analog) */
      temp = GPIOx->MODER;
 8000f10:	687b      	ldr	r3, [r7, #4]
 8000f12:	681b      	ldr	r3, [r3, #0]
 8000f14:	61bb      	str	r3, [r7, #24]
      temp &= ~(GPIO_MODER_MODER0 << (position * 2U));
 8000f16:	69fb      	ldr	r3, [r7, #28]
 8000f18:	005b      	lsls	r3, r3, #1
 8000f1a:	2203      	movs	r2, #3
 8000f1c:	fa02 f303 	lsl.w	r3, r2, r3
 8000f20:	43db      	mvns	r3, r3
 8000f22:	69ba      	ldr	r2, [r7, #24]
 8000f24:	4013      	ands	r3, r2
 8000f26:	61bb      	str	r3, [r7, #24]
      temp |= ((GPIO_Init->Mode & GPIO_MODE) << (position * 2U));
 8000f28:	683b      	ldr	r3, [r7, #0]
 8000f2a:	685b      	ldr	r3, [r3, #4]
 8000f2c:	f003 0203 	and.w	r2, r3, #3
 8000f30:	69fb      	ldr	r3, [r7, #28]
 8000f32:	005b      	lsls	r3, r3, #1
 8000f34:	fa02 f303 	lsl.w	r3, r2, r3
 8000f38:	69ba      	ldr	r2, [r7, #24]
 8000f3a:	4313      	orrs	r3, r2
 8000f3c:	61bb      	str	r3, [r7, #24]
      GPIOx->MODER = temp;
 8000f3e:	687b      	ldr	r3, [r7, #4]
 8000f40:	69ba      	ldr	r2, [r7, #24]
 8000f42:	601a      	str	r2, [r3, #0]

      /*--------------------- EXTI Mode Configuration ------------------------*/
      /* Configure the External Interrupt or event for the current IO */
      if((GPIO_Init->Mode & EXTI_MODE) == EXTI_MODE)
 8000f44:	683b      	ldr	r3, [r7, #0]
 8000f46:	685b      	ldr	r3, [r3, #4]
 8000f48:	f003 5380 	and.w	r3, r3, #268435456	; 0x10000000
 8000f4c:	2b00      	cmp	r3, #0
 8000f4e:	f000 80b4 	beq.w	80010ba <HAL_GPIO_Init+0x2ee>
      {
        /* Enable SYSCFG Clock */
        __HAL_RCC_SYSCFG_CLK_ENABLE();
 8000f52:	2300      	movs	r3, #0
 8000f54:	60fb      	str	r3, [r7, #12]
 8000f56:	4b60      	ldr	r3, [pc, #384]	; (80010d8 <HAL_GPIO_Init+0x30c>)
 8000f58:	6c5b      	ldr	r3, [r3, #68]	; 0x44
 8000f5a:	4a5f      	ldr	r2, [pc, #380]	; (80010d8 <HAL_GPIO_Init+0x30c>)
 8000f5c:	f443 4380 	orr.w	r3, r3, #16384	; 0x4000
 8000f60:	6453      	str	r3, [r2, #68]	; 0x44
 8000f62:	4b5d      	ldr	r3, [pc, #372]	; (80010d8 <HAL_GPIO_Init+0x30c>)
 8000f64:	6c5b      	ldr	r3, [r3, #68]	; 0x44
 8000f66:	f403 4380 	and.w	r3, r3, #16384	; 0x4000
 8000f6a:	60fb      	str	r3, [r7, #12]
 8000f6c:	68fb      	ldr	r3, [r7, #12]

        temp = SYSCFG->EXTICR[position >> 2U];
 8000f6e:	4a5b      	ldr	r2, [pc, #364]	; (80010dc <HAL_GPIO_Init+0x310>)
 8000f70:	69fb      	ldr	r3, [r7, #28]
 8000f72:	089b      	lsrs	r3, r3, #2
 8000f74:	3302      	adds	r3, #2
 8000f76:	f852 3023 	ldr.w	r3, [r2, r3, lsl #2]
 8000f7a:	61bb      	str	r3, [r7, #24]
        temp &= ~(0x0FU << (4U * (position & 0x03U)));
 8000f7c:	69fb      	ldr	r3, [r7, #28]
 8000f7e:	f003 0303 	and.w	r3, r3, #3
 8000f82:	009b      	lsls	r3, r3, #2
 8000f84:	220f      	movs	r2, #15
 8000f86:	fa02 f303 	lsl.w	r3, r2, r3
 8000f8a:	43db      	mvns	r3, r3
 8000f8c:	69ba      	ldr	r2, [r7, #24]
 8000f8e:	4013      	ands	r3, r2
 8000f90:	61bb      	str	r3, [r7, #24]
        temp |= ((uint32_t)(GPIO_GET_INDEX(GPIOx)) << (4U * (position & 0x03U)));
 8000f92:	687b      	ldr	r3, [r7, #4]
 8000f94:	4a52      	ldr	r2, [pc, #328]	; (80010e0 <HAL_GPIO_Init+0x314>)
 8000f96:	4293      	cmp	r3, r2
 8000f98:	d02b      	beq.n	8000ff2 <HAL_GPIO_Init+0x226>
 8000f9a:	687b      	ldr	r3, [r7, #4]
 8000f9c:	4a51      	ldr	r2, [pc, #324]	; (80010e4 <HAL_GPIO_Init+0x318>)
 8000f9e:	4293      	cmp	r3, r2
 8000fa0:	d025      	beq.n	8000fee <HAL_GPIO_Init+0x222>
 8000fa2:	687b      	ldr	r3, [r7, #4]
 8000fa4:	4a50      	ldr	r2, [pc, #320]	; (80010e8 <HAL_GPIO_Init+0x31c>)
 8000fa6:	4293      	cmp	r3, r2
 8000fa8:	d01f      	beq.n	8000fea <HAL_GPIO_Init+0x21e>
 8000faa:	687b      	ldr	r3, [r7, #4]
 8000fac:	4a4f      	ldr	r2, [pc, #316]	; (80010ec <HAL_GPIO_Init+0x320>)
 8000fae:	4293      	cmp	r3, r2
 8000fb0:	d019      	beq.n	8000fe6 <HAL_GPIO_Init+0x21a>
 8000fb2:	687b      	ldr	r3, [r7, #4]
 8000fb4:	4a4e      	ldr	r2, [pc, #312]	; (80010f0 <HAL_GPIO_Init+0x324>)
 8000fb6:	4293      	cmp	r3, r2
 8000fb8:	d013      	beq.n	8000fe2 <HAL_GPIO_Init+0x216>
 8000fba:	687b      	ldr	r3, [r7, #4]
 8000fbc:	4a4d      	ldr	r2, [pc, #308]	; (80010f4 <HAL_GPIO_Init+0x328>)
 8000fbe:	4293      	cmp	r3, r2
 8000fc0:	d00d      	beq.n	8000fde <HAL_GPIO_Init+0x212>
 8000fc2:	687b      	ldr	r3, [r7, #4]
 8000fc4:	4a4c      	ldr	r2, [pc, #304]	; (80010f8 <HAL_GPIO_Init+0x32c>)
 8000fc6:	4293      	cmp	r3, r2
 8000fc8:	d007      	beq.n	8000fda <HAL_GPIO_Init+0x20e>
 8000fca:	687b      	ldr	r3, [r7, #4]
 8000fcc:	4a4b      	ldr	r2, [pc, #300]	; (80010fc <HAL_GPIO_Init+0x330>)
 8000fce:	4293      	cmp	r3, r2
 8000fd0:	d101      	bne.n	8000fd6 <HAL_GPIO_Init+0x20a>
 8000fd2:	2307      	movs	r3, #7
 8000fd4:	e00e      	b.n	8000ff4 <HAL_GPIO_Init+0x228>
 8000fd6:	2308      	movs	r3, #8
 8000fd8:	e00c      	b.n	8000ff4 <HAL_GPIO_Init+0x228>
 8000fda:	2306      	movs	r3, #6
 8000fdc:	e00a      	b.n	8000ff4 <HAL_GPIO_Init+0x228>
 8000fde:	2305      	movs	r3, #5
 8000fe0:	e008      	b.n	8000ff4 <HAL_GPIO_Init+0x228>
 8000fe2:	2304      	movs	r3, #4
 8000fe4:	e006      	b.n	8000ff4 <HAL_GPIO_Init+0x228>
 8000fe6:	2303      	movs	r3, #3
 8000fe8:	e004      	b.n	8000ff4 <HAL_GPIO_Init+0x228>
 8000fea:	2302      	movs	r3, #2
 8000fec:	e002      	b.n	8000ff4 <HAL_GPIO_Init+0x228>
 8000fee:	2301      	movs	r3, #1
 8000ff0:	e000      	b.n	8000ff4 <HAL_GPIO_Init+0x228>
 8000ff2:	2300      	movs	r3, #0
 8000ff4:	69fa      	ldr	r2, [r7, #28]
 8000ff6:	f002 0203 	and.w	r2, r2, #3
 8000ffa:	0092      	lsls	r2, r2, #2
 8000ffc:	4093      	lsls	r3, r2
 8000ffe:	69ba      	ldr	r2, [r7, #24]
 8001000:	4313      	orrs	r3, r2
 8001002:	61bb      	str	r3, [r7, #24]
        SYSCFG->EXTICR[position >> 2U] = temp;
 8001004:	4935      	ldr	r1, [pc, #212]	; (80010dc <HAL_GPIO_Init+0x310>)
 8001006:	69fb      	ldr	r3, [r7, #28]
 8001008:	089b      	lsrs	r3, r3, #2
 800100a:	3302      	adds	r3, #2
 800100c:	69ba      	ldr	r2, [r7, #24]
 800100e:	f841 2023 	str.w	r2, [r1, r3, lsl #2]

        /* Clear EXTI line configuration */
        temp = EXTI->IMR;
 8001012:	4b3b      	ldr	r3, [pc, #236]	; (8001100 <HAL_GPIO_Init+0x334>)
 8001014:	681b      	ldr	r3, [r3, #0]
 8001016:	61bb      	str	r3, [r7, #24]
        temp &= ~((uint32_t)iocurrent);
 8001018:	693b      	ldr	r3, [r7, #16]
 800101a:	43db      	mvns	r3, r3
 800101c:	69ba      	ldr	r2, [r7, #24]
 800101e:	4013      	ands	r3, r2
 8001020:	61bb      	str	r3, [r7, #24]
        if((GPIO_Init->Mode & GPIO_MODE_IT) == GPIO_MODE_IT)
 8001022:	683b      	ldr	r3, [r7, #0]
 8001024:	685b      	ldr	r3, [r3, #4]
 8001026:	f403 3380 	and.w	r3, r3, #65536	; 0x10000
 800102a:	2b00      	cmp	r3, #0
 800102c:	d003      	beq.n	8001036 <HAL_GPIO_Init+0x26a>
        {
          temp |= iocurrent;
 800102e:	69ba      	ldr	r2, [r7, #24]
 8001030:	693b      	ldr	r3, [r7, #16]
 8001032:	4313      	orrs	r3, r2
 8001034:	61bb      	str	r3, [r7, #24]
        }
        EXTI->IMR = temp;
 8001036:	4a32      	ldr	r2, [pc, #200]	; (8001100 <HAL_GPIO_Init+0x334>)
 8001038:	69bb      	ldr	r3, [r7, #24]
 800103a:	6013      	str	r3, [r2, #0]

        temp = EXTI->EMR;
 800103c:	4b30      	ldr	r3, [pc, #192]	; (8001100 <HAL_GPIO_Init+0x334>)
 800103e:	685b      	ldr	r3, [r3, #4]
 8001040:	61bb      	str	r3, [r7, #24]
        temp &= ~((uint32_t)iocurrent);
 8001042:	693b      	ldr	r3, [r7, #16]
 8001044:	43db      	mvns	r3, r3
 8001046:	69ba      	ldr	r2, [r7, #24]
 8001048:	4013      	ands	r3, r2
 800104a:	61bb      	str	r3, [r7, #24]
        if((GPIO_Init->Mode & GPIO_MODE_EVT) == GPIO_MODE_EVT)
 800104c:	683b      	ldr	r3, [r7, #0]
 800104e:	685b      	ldr	r3, [r3, #4]
 8001050:	f403 3300 	and.w	r3, r3, #131072	; 0x20000
 8001054:	2b00      	cmp	r3, #0
 8001056:	d003      	beq.n	8001060 <HAL_GPIO_Init+0x294>
        {
          temp |= iocurrent;
 8001058:	69ba      	ldr	r2, [r7, #24]
 800105a:	693b      	ldr	r3, [r7, #16]
 800105c:	4313      	orrs	r3, r2
 800105e:	61bb      	str	r3, [r7, #24]
        }
        EXTI->EMR = temp;
 8001060:	4a27      	ldr	r2, [pc, #156]	; (8001100 <HAL_GPIO_Init+0x334>)
 8001062:	69bb      	ldr	r3, [r7, #24]
 8001064:	6053      	str	r3, [r2, #4]

        /* Clear Rising Falling edge configuration */
        temp = EXTI->RTSR;
 8001066:	4b26      	ldr	r3, [pc, #152]	; (8001100 <HAL_GPIO_Init+0x334>)
 8001068:	689b      	ldr	r3, [r3, #8]
 800106a:	61bb      	str	r3, [r7, #24]
        temp &= ~((uint32_t)iocurrent);
 800106c:	693b      	ldr	r3, [r7, #16]
 800106e:	43db      	mvns	r3, r3
 8001070:	69ba      	ldr	r2, [r7, #24]
 8001072:	4013      	ands	r3, r2
 8001074:	61bb      	str	r3, [r7, #24]
        if((GPIO_Init->Mode & RISING_EDGE) == RISING_EDGE)
 8001076:	683b      	ldr	r3, [r7, #0]
 8001078:	685b      	ldr	r3, [r3, #4]
 800107a:	f403 1380 	and.w	r3, r3, #1048576	; 0x100000
 800107e:	2b00      	cmp	r3, #0
 8001080:	d003      	beq.n	800108a <HAL_GPIO_Init+0x2be>
        {
          temp |= iocurrent;
 8001082:	69ba      	ldr	r2, [r7, #24]
 8001084:	693b      	ldr	r3, [r7, #16]
 8001086:	4313      	orrs	r3, r2
 8001088:	61bb      	str	r3, [r7, #24]
        }
        EXTI->RTSR = temp;
 800108a:	4a1d      	ldr	r2, [pc, #116]	; (8001100 <HAL_GPIO_Init+0x334>)
 800108c:	69bb      	ldr	r3, [r7, #24]
 800108e:	6093      	str	r3, [r2, #8]

        temp = EXTI->FTSR;
 8001090:	4b1b      	ldr	r3, [pc, #108]	; (8001100 <HAL_GPIO_Init+0x334>)
 8001092:	68db      	ldr	r3, [r3, #12]
 8001094:	61bb      	str	r3, [r7, #24]
        temp &= ~((uint32_t)iocurrent);
 8001096:	693b      	ldr	r3, [r7, #16]
 8001098:	43db      	mvns	r3, r3
 800109a:	69ba      	ldr	r2, [r7, #24]
 800109c:	4013      	ands	r3, r2
 800109e:	61bb      	str	r3, [r7, #24]
        if((GPIO_Init->Mode & FALLING_EDGE) == FALLING_EDGE)
 80010a0:	683b      	ldr	r3, [r7, #0]
 80010a2:	685b      	ldr	r3, [r3, #4]
 80010a4:	f403 1300 	and.w	r3, r3, #2097152	; 0x200000
 80010a8:	2b00      	cmp	r3, #0
 80010aa:	d003      	beq.n	80010b4 <HAL_GPIO_Init+0x2e8>
        {
          temp |= iocurrent;
 80010ac:	69ba      	ldr	r2, [r7, #24]
 80010ae:	693b      	ldr	r3, [r7, #16]
 80010b0:	4313      	orrs	r3, r2
 80010b2:	61bb      	str	r3, [r7, #24]
        }
        EXTI->FTSR = temp;
 80010b4:	4a12      	ldr	r2, [pc, #72]	; (8001100 <HAL_GPIO_Init+0x334>)
 80010b6:	69bb      	ldr	r3, [r7, #24]
 80010b8:	60d3      	str	r3, [r2, #12]
  for(position = 0U; position < GPIO_NUMBER; position++)
 80010ba:	69fb      	ldr	r3, [r7, #28]
 80010bc:	3301      	adds	r3, #1
 80010be:	61fb      	str	r3, [r7, #28]
 80010c0:	69fb      	ldr	r3, [r7, #28]
 80010c2:	2b0f      	cmp	r3, #15
 80010c4:	f67f ae90 	bls.w	8000de8 <HAL_GPIO_Init+0x1c>
      }
    }
  }
}
 80010c8:	bf00      	nop
 80010ca:	bf00      	nop
 80010cc:	3724      	adds	r7, #36	; 0x24
 80010ce:	46bd      	mov	sp, r7
 80010d0:	f85d 7b04 	ldr.w	r7, [sp], #4
 80010d4:	4770      	bx	lr
 80010d6:	bf00      	nop
 80010d8:	40023800 	.word	0x40023800
 80010dc:	40013800 	.word	0x40013800
 80010e0:	40020000 	.word	0x40020000
 80010e4:	40020400 	.word	0x40020400
 80010e8:	40020800 	.word	0x40020800
 80010ec:	40020c00 	.word	0x40020c00
 80010f0:	40021000 	.word	0x40021000
 80010f4:	40021400 	.word	0x40021400
 80010f8:	40021800 	.word	0x40021800
 80010fc:	40021c00 	.word	0x40021c00
 8001100:	40013c00 	.word	0x40013c00

08001104 <HAL_GPIO_WritePin>:
  *            @arg GPIO_PIN_RESET: to clear the port pin
  *            @arg GPIO_PIN_SET: to set the port pin
  * @retval None
  */
void HAL_GPIO_WritePin(GPIO_TypeDef* GPIOx, uint16_t GPIO_Pin, GPIO_PinState PinState)
{
 8001104:	b480      	push	{r7}
 8001106:	b083      	sub	sp, #12
 8001108:	af00      	add	r7, sp, #0
 800110a:	6078      	str	r0, [r7, #4]
 800110c:	460b      	mov	r3, r1
 800110e:	807b      	strh	r3, [r7, #2]
 8001110:	4613      	mov	r3, r2
 8001112:	707b      	strb	r3, [r7, #1]
  /* Check the parameters */
  assert_param(IS_GPIO_PIN(GPIO_Pin));
  assert_param(IS_GPIO_PIN_ACTION(PinState));

  if(PinState != GPIO_PIN_RESET)
 8001114:	787b      	ldrb	r3, [r7, #1]
 8001116:	2b00      	cmp	r3, #0
 8001118:	d003      	beq.n	8001122 <HAL_GPIO_WritePin+0x1e>
  {
    GPIOx->BSRR = GPIO_Pin;
 800111a:	887a      	ldrh	r2, [r7, #2]
 800111c:	687b      	ldr	r3, [r7, #4]
 800111e:	619a      	str	r2, [r3, #24]
  }
  else
  {
    GPIOx->BSRR = (uint32_t)GPIO_Pin << 16U;
  }
}
 8001120:	e003      	b.n	800112a <HAL_GPIO_WritePin+0x26>
    GPIOx->BSRR = (uint32_t)GPIO_Pin << 16U;
 8001122:	887b      	ldrh	r3, [r7, #2]
 8001124:	041a      	lsls	r2, r3, #16
 8001126:	687b      	ldr	r3, [r7, #4]
 8001128:	619a      	str	r2, [r3, #24]
}
 800112a:	bf00      	nop
 800112c:	370c      	adds	r7, #12
 800112e:	46bd      	mov	sp, r7
 8001130:	f85d 7b04 	ldr.w	r7, [sp], #4
 8001134:	4770      	bx	lr

08001136 <HAL_GPIO_TogglePin>:
  *                      x can be (A..I) to select the GPIO peripheral for STM32F40XX and STM32F427X devices.
  * @param  GPIO_Pin Specifies the pins to be toggled.
  * @retval None
  */
void HAL_GPIO_TogglePin(GPIO_TypeDef* GPIOx, uint16_t GPIO_Pin)
{
 8001136:	b480      	push	{r7}
 8001138:	b085      	sub	sp, #20
 800113a:	af00      	add	r7, sp, #0
 800113c:	6078      	str	r0, [r7, #4]
 800113e:	460b      	mov	r3, r1
 8001140:	807b      	strh	r3, [r7, #2]

  /* Check the parameters */
  assert_param(IS_GPIO_PIN(GPIO_Pin));

  /* get current Ouput Data Register value */
  odr = GPIOx->ODR;
 8001142:	687b      	ldr	r3, [r7, #4]
 8001144:	695b      	ldr	r3, [r3, #20]
 8001146:	60fb      	str	r3, [r7, #12]

  /* Set selected pins that were at low level, and reset ones that were high */
  GPIOx->BSRR = ((odr & GPIO_Pin) << GPIO_NUMBER) | (~odr & GPIO_Pin);
 8001148:	887a      	ldrh	r2, [r7, #2]
 800114a:	68fb      	ldr	r3, [r7, #12]
 800114c:	4013      	ands	r3, r2
 800114e:	041a      	lsls	r2, r3, #16
 8001150:	68fb      	ldr	r3, [r7, #12]
 8001152:	43d9      	mvns	r1, r3
 8001154:	887b      	ldrh	r3, [r7, #2]
 8001156:	400b      	ands	r3, r1
 8001158:	431a      	orrs	r2, r3
 800115a:	687b      	ldr	r3, [r7, #4]
 800115c:	619a      	str	r2, [r3, #24]
}
 800115e:	bf00      	nop
 8001160:	3714      	adds	r7, #20
 8001162:	46bd      	mov	sp, r7
 8001164:	f85d 7b04 	ldr.w	r7, [sp], #4
 8001168:	4770      	bx	lr
	...

0800116c <HAL_GPIO_EXTI_IRQHandler>:
  * @brief  This function handles EXTI interrupt request.
  * @param  GPIO_Pin Specifies the pins connected EXTI line
  * @retval None
  */
void HAL_GPIO_EXTI_IRQHandler(uint16_t GPIO_Pin)
{
 800116c:	b580      	push	{r7, lr}
 800116e:	b082      	sub	sp, #8
 8001170:	af00      	add	r7, sp, #0
 8001172:	4603      	mov	r3, r0
 8001174:	80fb      	strh	r3, [r7, #6]
  /* EXTI line interrupt detected */
  if(__HAL_GPIO_EXTI_GET_IT(GPIO_Pin) != RESET)
 8001176:	4b08      	ldr	r3, [pc, #32]	; (8001198 <HAL_GPIO_EXTI_IRQHandler+0x2c>)
 8001178:	695a      	ldr	r2, [r3, #20]
 800117a:	88fb      	ldrh	r3, [r7, #6]
 800117c:	4013      	ands	r3, r2
 800117e:	2b00      	cmp	r3, #0
 8001180:	d006      	beq.n	8001190 <HAL_GPIO_EXTI_IRQHandler+0x24>
  {
    __HAL_GPIO_EXTI_CLEAR_IT(GPIO_Pin);
 8001182:	4a05      	ldr	r2, [pc, #20]	; (8001198 <HAL_GPIO_EXTI_IRQHandler+0x2c>)
 8001184:	88fb      	ldrh	r3, [r7, #6]
 8001186:	6153      	str	r3, [r2, #20]
    HAL_GPIO_EXTI_Callback(GPIO_Pin);
 8001188:	88fb      	ldrh	r3, [r7, #6]
 800118a:	4618      	mov	r0, r3
 800118c:	f000 f806 	bl	800119c <HAL_GPIO_EXTI_Callback>
  }
}
 8001190:	bf00      	nop
 8001192:	3708      	adds	r7, #8
 8001194:	46bd      	mov	sp, r7
 8001196:	bd80      	pop	{r7, pc}
 8001198:	40013c00 	.word	0x40013c00

0800119c <HAL_GPIO_EXTI_Callback>:
  * @brief  EXTI line detection callbacks.
  * @param  GPIO_Pin Specifies the pins connected EXTI line
  * @retval None
  */
__weak void HAL_GPIO_EXTI_Callback(uint16_t GPIO_Pin)
{
 800119c:	b480      	push	{r7}
 800119e:	b083      	sub	sp, #12
 80011a0:	af00      	add	r7, sp, #0
 80011a2:	4603      	mov	r3, r0
 80011a4:	80fb      	strh	r3, [r7, #6]
  /* Prevent unused argument(s) compilation warning */
  UNUSED(GPIO_Pin);
  /* NOTE: This function Should not be modified, when the callback is needed,
           the HAL_GPIO_EXTI_Callback could be implemented in the user file
   */
}
 80011a6:	bf00      	nop
 80011a8:	370c      	adds	r7, #12
 80011aa:	46bd      	mov	sp, r7
 80011ac:	f85d 7b04 	ldr.w	r7, [sp], #4
 80011b0:	4770      	bx	lr
	...

080011b4 <HAL_RCC_OscConfig>:
  *         supported by this API. User should request a transition to HSE Off
  *         first and then HSE On or HSE Bypass.
  * @retval HAL status
  */
__weak HAL_StatusTypeDef HAL_RCC_OscConfig(RCC_OscInitTypeDef  *RCC_OscInitStruct)
{
 80011b4:	b580      	push	{r7, lr}
 80011b6:	b086      	sub	sp, #24
 80011b8:	af00      	add	r7, sp, #0
 80011ba:	6078      	str	r0, [r7, #4]
  uint32_t tickstart, pll_config;

  /* Check Null pointer */
  if(RCC_OscInitStruct == NULL)
 80011bc:	687b      	ldr	r3, [r7, #4]
 80011be:	2b00      	cmp	r3, #0
 80011c0:	d101      	bne.n	80011c6 <HAL_RCC_OscConfig+0x12>
  {
    return HAL_ERROR;
 80011c2:	2301      	movs	r3, #1
 80011c4:	e264      	b.n	8001690 <HAL_RCC_OscConfig+0x4dc>
  }

  /* Check the parameters */
  assert_param(IS_RCC_OSCILLATORTYPE(RCC_OscInitStruct->OscillatorType));
  /*------------------------------- HSE Configuration ------------------------*/
  if(((RCC_OscInitStruct->OscillatorType) & RCC_OSCILLATORTYPE_HSE) == RCC_OSCILLATORTYPE_HSE)
 80011c6:	687b      	ldr	r3, [r7, #4]
 80011c8:	681b      	ldr	r3, [r3, #0]
 80011ca:	f003 0301 	and.w	r3, r3, #1
 80011ce:	2b00      	cmp	r3, #0
 80011d0:	d075      	beq.n	80012be <HAL_RCC_OscConfig+0x10a>
  {
    /* Check the parameters */
    assert_param(IS_RCC_HSE(RCC_OscInitStruct->HSEState));
    /* When the HSE is used as system clock or clock source for PLL in these cases HSE will not disabled */
    if((__HAL_RCC_GET_SYSCLK_SOURCE() == RCC_CFGR_SWS_HSE) ||\
 80011d2:	4ba3      	ldr	r3, [pc, #652]	; (8001460 <HAL_RCC_OscConfig+0x2ac>)
 80011d4:	689b      	ldr	r3, [r3, #8]
 80011d6:	f003 030c 	and.w	r3, r3, #12
 80011da:	2b04      	cmp	r3, #4
 80011dc:	d00c      	beq.n	80011f8 <HAL_RCC_OscConfig+0x44>
      ((__HAL_RCC_GET_SYSCLK_SOURCE() == RCC_CFGR_SWS_PLL) && ((RCC->PLLCFGR & RCC_PLLCFGR_PLLSRC) == RCC_PLLCFGR_PLLSRC_HSE)))
 80011de:	4ba0      	ldr	r3, [pc, #640]	; (8001460 <HAL_RCC_OscConfig+0x2ac>)
 80011e0:	689b      	ldr	r3, [r3, #8]
 80011e2:	f003 030c 	and.w	r3, r3, #12
    if((__HAL_RCC_GET_SYSCLK_SOURCE() == RCC_CFGR_SWS_HSE) ||\
 80011e6:	2b08      	cmp	r3, #8
 80011e8:	d112      	bne.n	8001210 <HAL_RCC_OscConfig+0x5c>
      ((__HAL_RCC_GET_SYSCLK_SOURCE() == RCC_CFGR_SWS_PLL) && ((RCC->PLLCFGR & RCC_PLLCFGR_PLLSRC) == RCC_PLLCFGR_PLLSRC_HSE)))
 80011ea:	4b9d      	ldr	r3, [pc, #628]	; (8001460 <HAL_RCC_OscConfig+0x2ac>)
 80011ec:	685b      	ldr	r3, [r3, #4]
 80011ee:	f403 0380 	and.w	r3, r3, #4194304	; 0x400000
 80011f2:	f5b3 0f80 	cmp.w	r3, #4194304	; 0x400000
 80011f6:	d10b      	bne.n	8001210 <HAL_RCC_OscConfig+0x5c>
    {
      if((__HAL_RCC_GET_FLAG(RCC_FLAG_HSERDY) != RESET) && (RCC_OscInitStruct->HSEState == RCC_HSE_OFF))
 80011f8:	4b99      	ldr	r3, [pc, #612]	; (8001460 <HAL_RCC_OscConfig+0x2ac>)
 80011fa:	681b      	ldr	r3, [r3, #0]
 80011fc:	f403 3300 	and.w	r3, r3, #131072	; 0x20000
 8001200:	2b00      	cmp	r3, #0
 8001202:	d05b      	beq.n	80012bc <HAL_RCC_OscConfig+0x108>
 8001204:	687b      	ldr	r3, [r7, #4]
 8001206:	685b      	ldr	r3, [r3, #4]
 8001208:	2b00      	cmp	r3, #0
 800120a:	d157      	bne.n	80012bc <HAL_RCC_OscConfig+0x108>
      {
        return HAL_ERROR;
 800120c:	2301      	movs	r3, #1
 800120e:	e23f      	b.n	8001690 <HAL_RCC_OscConfig+0x4dc>
      }
    }
    else
    {
      /* Set the new HSE configuration ---------------------------------------*/
      __HAL_RCC_HSE_CONFIG(RCC_OscInitStruct->HSEState);
 8001210:	687b      	ldr	r3, [r7, #4]
 8001212:	685b      	ldr	r3, [r3, #4]
 8001214:	f5b3 3f80 	cmp.w	r3, #65536	; 0x10000
 8001218:	d106      	bne.n	8001228 <HAL_RCC_OscConfig+0x74>
 800121a:	4b91      	ldr	r3, [pc, #580]	; (8001460 <HAL_RCC_OscConfig+0x2ac>)
 800121c:	681b      	ldr	r3, [r3, #0]
 800121e:	4a90      	ldr	r2, [pc, #576]	; (8001460 <HAL_RCC_OscConfig+0x2ac>)
 8001220:	f443 3380 	orr.w	r3, r3, #65536	; 0x10000
 8001224:	6013      	str	r3, [r2, #0]
 8001226:	e01d      	b.n	8001264 <HAL_RCC_OscConfig+0xb0>
 8001228:	687b      	ldr	r3, [r7, #4]
 800122a:	685b      	ldr	r3, [r3, #4]
 800122c:	f5b3 2fa0 	cmp.w	r3, #327680	; 0x50000
 8001230:	d10c      	bne.n	800124c <HAL_RCC_OscConfig+0x98>
 8001232:	4b8b      	ldr	r3, [pc, #556]	; (8001460 <HAL_RCC_OscConfig+0x2ac>)
 8001234:	681b      	ldr	r3, [r3, #0]
 8001236:	4a8a      	ldr	r2, [pc, #552]	; (8001460 <HAL_RCC_OscConfig+0x2ac>)
 8001238:	f443 2380 	orr.w	r3, r3, #262144	; 0x40000
 800123c:	6013      	str	r3, [r2, #0]
 800123e:	4b88      	ldr	r3, [pc, #544]	; (8001460 <HAL_RCC_OscConfig+0x2ac>)
 8001240:	681b      	ldr	r3, [r3, #0]
 8001242:	4a87      	ldr	r2, [pc, #540]	; (8001460 <HAL_RCC_OscConfig+0x2ac>)
 8001244:	f443 3380 	orr.w	r3, r3, #65536	; 0x10000
 8001248:	6013      	str	r3, [r2, #0]
 800124a:	e00b      	b.n	8001264 <HAL_RCC_OscConfig+0xb0>
 800124c:	4b84      	ldr	r3, [pc, #528]	; (8001460 <HAL_RCC_OscConfig+0x2ac>)
 800124e:	681b      	ldr	r3, [r3, #0]
 8001250:	4a83      	ldr	r2, [pc, #524]	; (8001460 <HAL_RCC_OscConfig+0x2ac>)
 8001252:	f423 3380 	bic.w	r3, r3, #65536	; 0x10000
 8001256:	6013      	str	r3, [r2, #0]
 8001258:	4b81      	ldr	r3, [pc, #516]	; (8001460 <HAL_RCC_OscConfig+0x2ac>)
 800125a:	681b      	ldr	r3, [r3, #0]
 800125c:	4a80      	ldr	r2, [pc, #512]	; (8001460 <HAL_RCC_OscConfig+0x2ac>)
 800125e:	f423 2380 	bic.w	r3, r3, #262144	; 0x40000
 8001262:	6013      	str	r3, [r2, #0]

      /* Check the HSE State */
      if((RCC_OscInitStruct->HSEState) != RCC_HSE_OFF)
 8001264:	687b      	ldr	r3, [r7, #4]
 8001266:	685b      	ldr	r3, [r3, #4]
 8001268:	2b00      	cmp	r3, #0
 800126a:	d013      	beq.n	8001294 <HAL_RCC_OscConfig+0xe0>
      {
        /* Get Start Tick */
        tickstart = HAL_GetTick();
 800126c:	f7ff fc9c 	bl	8000ba8 <HAL_GetTick>
 8001270:	6138      	str	r0, [r7, #16]

        /* Wait till HSE is ready */
        while(__HAL_RCC_GET_FLAG(RCC_FLAG_HSERDY) == RESET)
 8001272:	e008      	b.n	8001286 <HAL_RCC_OscConfig+0xd2>
        {
          if((HAL_GetTick() - tickstart ) > HSE_TIMEOUT_VALUE)
 8001274:	f7ff fc98 	bl	8000ba8 <HAL_GetTick>
 8001278:	4602      	mov	r2, r0
 800127a:	693b      	ldr	r3, [r7, #16]
 800127c:	1ad3      	subs	r3, r2, r3
 800127e:	2b64      	cmp	r3, #100	; 0x64
 8001280:	d901      	bls.n	8001286 <HAL_RCC_OscConfig+0xd2>
          {
            return HAL_TIMEOUT;
 8001282:	2303      	movs	r3, #3
 8001284:	e204      	b.n	8001690 <HAL_RCC_OscConfig+0x4dc>
        while(__HAL_RCC_GET_FLAG(RCC_FLAG_HSERDY) == RESET)
 8001286:	4b76      	ldr	r3, [pc, #472]	; (8001460 <HAL_RCC_OscConfig+0x2ac>)
 8001288:	681b      	ldr	r3, [r3, #0]
 800128a:	f403 3300 	and.w	r3, r3, #131072	; 0x20000
 800128e:	2b00      	cmp	r3, #0
 8001290:	d0f0      	beq.n	8001274 <HAL_RCC_OscConfig+0xc0>
 8001292:	e014      	b.n	80012be <HAL_RCC_OscConfig+0x10a>
        }
      }
      else
      {
        /* Get Start Tick */
        tickstart = HAL_GetTick();
 8001294:	f7ff fc88 	bl	8000ba8 <HAL_GetTick>
 8001298:	6138      	str	r0, [r7, #16]

        /* Wait till HSE is bypassed or disabled */
        while(__HAL_RCC_GET_FLAG(RCC_FLAG_HSERDY) != RESET)
 800129a:	e008      	b.n	80012ae <HAL_RCC_OscConfig+0xfa>
        {
          if((HAL_GetTick() - tickstart ) > HSE_TIMEOUT_VALUE)
 800129c:	f7ff fc84 	bl	8000ba8 <HAL_GetTick>
 80012a0:	4602      	mov	r2, r0
 80012a2:	693b      	ldr	r3, [r7, #16]
 80012a4:	1ad3      	subs	r3, r2, r3
 80012a6:	2b64      	cmp	r3, #100	; 0x64
 80012a8:	d901      	bls.n	80012ae <HAL_RCC_OscConfig+0xfa>
          {
            return HAL_TIMEOUT;
 80012aa:	2303      	movs	r3, #3
 80012ac:	e1f0      	b.n	8001690 <HAL_RCC_OscConfig+0x4dc>
        while(__HAL_RCC_GET_FLAG(RCC_FLAG_HSERDY) != RESET)
 80012ae:	4b6c      	ldr	r3, [pc, #432]	; (8001460 <HAL_RCC_OscConfig+0x2ac>)
 80012b0:	681b      	ldr	r3, [r3, #0]
 80012b2:	f403 3300 	and.w	r3, r3, #131072	; 0x20000
 80012b6:	2b00      	cmp	r3, #0
 80012b8:	d1f0      	bne.n	800129c <HAL_RCC_OscConfig+0xe8>
 80012ba:	e000      	b.n	80012be <HAL_RCC_OscConfig+0x10a>
      if((__HAL_RCC_GET_FLAG(RCC_FLAG_HSERDY) != RESET) && (RCC_OscInitStruct->HSEState == RCC_HSE_OFF))
 80012bc:	bf00      	nop
        }
      }
    }
  }
  /*----------------------------- HSI Configuration --------------------------*/
  if(((RCC_OscInitStruct->OscillatorType) & RCC_OSCILLATORTYPE_HSI) == RCC_OSCILLATORTYPE_HSI)
 80012be:	687b      	ldr	r3, [r7, #4]
 80012c0:	681b      	ldr	r3, [r3, #0]
 80012c2:	f003 0302 	and.w	r3, r3, #2
 80012c6:	2b00      	cmp	r3, #0
 80012c8:	d063      	beq.n	8001392 <HAL_RCC_OscConfig+0x1de>
    /* Check the parameters */
    assert_param(IS_RCC_HSI(RCC_OscInitStruct->HSIState));
    assert_param(IS_RCC_CALIBRATION_VALUE(RCC_OscInitStruct->HSICalibrationValue));

    /* Check if HSI is used as system clock or as PLL source when PLL is selected as system clock */
    if((__HAL_RCC_GET_SYSCLK_SOURCE() == RCC_CFGR_SWS_HSI) ||\
 80012ca:	4b65      	ldr	r3, [pc, #404]	; (8001460 <HAL_RCC_OscConfig+0x2ac>)
 80012cc:	689b      	ldr	r3, [r3, #8]
 80012ce:	f003 030c 	and.w	r3, r3, #12
 80012d2:	2b00      	cmp	r3, #0
 80012d4:	d00b      	beq.n	80012ee <HAL_RCC_OscConfig+0x13a>
      ((__HAL_RCC_GET_SYSCLK_SOURCE() == RCC_CFGR_SWS_PLL) && ((RCC->PLLCFGR & RCC_PLLCFGR_PLLSRC) == RCC_PLLCFGR_PLLSRC_HSI)))
 80012d6:	4b62      	ldr	r3, [pc, #392]	; (8001460 <HAL_RCC_OscConfig+0x2ac>)
 80012d8:	689b      	ldr	r3, [r3, #8]
 80012da:	f003 030c 	and.w	r3, r3, #12
    if((__HAL_RCC_GET_SYSCLK_SOURCE() == RCC_CFGR_SWS_HSI) ||\
 80012de:	2b08      	cmp	r3, #8
 80012e0:	d11c      	bne.n	800131c <HAL_RCC_OscConfig+0x168>
      ((__HAL_RCC_GET_SYSCLK_SOURCE() == RCC_CFGR_SWS_PLL) && ((RCC->PLLCFGR & RCC_PLLCFGR_PLLSRC) == RCC_PLLCFGR_PLLSRC_HSI)))
 80012e2:	4b5f      	ldr	r3, [pc, #380]	; (8001460 <HAL_RCC_OscConfig+0x2ac>)
 80012e4:	685b      	ldr	r3, [r3, #4]
 80012e6:	f403 0380 	and.w	r3, r3, #4194304	; 0x400000
 80012ea:	2b00      	cmp	r3, #0
 80012ec:	d116      	bne.n	800131c <HAL_RCC_OscConfig+0x168>
    {
      /* When HSI is used as system clock it will not disabled */
      if((__HAL_RCC_GET_FLAG(RCC_FLAG_HSIRDY) != RESET) && (RCC_OscInitStruct->HSIState != RCC_HSI_ON))
 80012ee:	4b5c      	ldr	r3, [pc, #368]	; (8001460 <HAL_RCC_OscConfig+0x2ac>)
 80012f0:	681b      	ldr	r3, [r3, #0]
 80012f2:	f003 0302 	and.w	r3, r3, #2
 80012f6:	2b00      	cmp	r3, #0
 80012f8:	d005      	beq.n	8001306 <HAL_RCC_OscConfig+0x152>
 80012fa:	687b      	ldr	r3, [r7, #4]
 80012fc:	68db      	ldr	r3, [r3, #12]
 80012fe:	2b01      	cmp	r3, #1
 8001300:	d001      	beq.n	8001306 <HAL_RCC_OscConfig+0x152>
      {
        return HAL_ERROR;
 8001302:	2301      	movs	r3, #1
 8001304:	e1c4      	b.n	8001690 <HAL_RCC_OscConfig+0x4dc>
      }
      /* Otherwise, just the calibration is allowed */
      else
      {
        /* Adjusts the Internal High Speed oscillator (HSI) calibration value.*/
        __HAL_RCC_HSI_CALIBRATIONVALUE_ADJUST(RCC_OscInitStruct->HSICalibrationValue);
 8001306:	4b56      	ldr	r3, [pc, #344]	; (8001460 <HAL_RCC_OscConfig+0x2ac>)
 8001308:	681b      	ldr	r3, [r3, #0]
 800130a:	f023 02f8 	bic.w	r2, r3, #248	; 0xf8
 800130e:	687b      	ldr	r3, [r7, #4]
 8001310:	691b      	ldr	r3, [r3, #16]
 8001312:	00db      	lsls	r3, r3, #3
 8001314:	4952      	ldr	r1, [pc, #328]	; (8001460 <HAL_RCC_OscConfig+0x2ac>)
 8001316:	4313      	orrs	r3, r2
 8001318:	600b      	str	r3, [r1, #0]
      if((__HAL_RCC_GET_FLAG(RCC_FLAG_HSIRDY) != RESET) && (RCC_OscInitStruct->HSIState != RCC_HSI_ON))
 800131a:	e03a      	b.n	8001392 <HAL_RCC_OscConfig+0x1de>
      }
    }
    else
    {
      /* Check the HSI State */
      if((RCC_OscInitStruct->HSIState)!= RCC_HSI_OFF)
 800131c:	687b      	ldr	r3, [r7, #4]
 800131e:	68db      	ldr	r3, [r3, #12]
 8001320:	2b00      	cmp	r3, #0
 8001322:	d020      	beq.n	8001366 <HAL_RCC_OscConfig+0x1b2>
      {
        /* Enable the Internal High Speed oscillator (HSI). */
        __HAL_RCC_HSI_ENABLE();
 8001324:	4b4f      	ldr	r3, [pc, #316]	; (8001464 <HAL_RCC_OscConfig+0x2b0>)
 8001326:	2201      	movs	r2, #1
 8001328:	601a      	str	r2, [r3, #0]

        /* Get Start Tick*/
        tickstart = HAL_GetTick();
 800132a:	f7ff fc3d 	bl	8000ba8 <HAL_GetTick>
 800132e:	6138      	str	r0, [r7, #16]

        /* Wait till HSI is ready */
        while(__HAL_RCC_GET_FLAG(RCC_FLAG_HSIRDY) == RESET)
 8001330:	e008      	b.n	8001344 <HAL_RCC_OscConfig+0x190>
        {
          if((HAL_GetTick() - tickstart ) > HSI_TIMEOUT_VALUE)
 8001332:	f7ff fc39 	bl	8000ba8 <HAL_GetTick>
 8001336:	4602      	mov	r2, r0
 8001338:	693b      	ldr	r3, [r7, #16]
 800133a:	1ad3      	subs	r3, r2, r3
 800133c:	2b02      	cmp	r3, #2
 800133e:	d901      	bls.n	8001344 <HAL_RCC_OscConfig+0x190>
          {
            return HAL_TIMEOUT;
 8001340:	2303      	movs	r3, #3
 8001342:	e1a5      	b.n	8001690 <HAL_RCC_OscConfig+0x4dc>
        while(__HAL_RCC_GET_FLAG(RCC_FLAG_HSIRDY) == RESET)
 8001344:	4b46      	ldr	r3, [pc, #280]	; (8001460 <HAL_RCC_OscConfig+0x2ac>)
 8001346:	681b      	ldr	r3, [r3, #0]
 8001348:	f003 0302 	and.w	r3, r3, #2
 800134c:	2b00      	cmp	r3, #0
 800134e:	d0f0      	beq.n	8001332 <HAL_RCC_OscConfig+0x17e>
          }
        }

        /* Adjusts the Internal High Speed oscillator (HSI) calibration value. */
        __HAL_RCC_HSI_CALIBRATIONVALUE_ADJUST(RCC_OscInitStruct->HSICalibrationValue);
 8001350:	4b43      	ldr	r3, [pc, #268]	; (8001460 <HAL_RCC_OscConfig+0x2ac>)
 8001352:	681b      	ldr	r3, [r3, #0]
 8001354:	f023 02f8 	bic.w	r2, r3, #248	; 0xf8
 8001358:	687b      	ldr	r3, [r7, #4]
 800135a:	691b      	ldr	r3, [r3, #16]
 800135c:	00db      	lsls	r3, r3, #3
 800135e:	4940      	ldr	r1, [pc, #256]	; (8001460 <HAL_RCC_OscConfig+0x2ac>)
 8001360:	4313      	orrs	r3, r2
 8001362:	600b      	str	r3, [r1, #0]
 8001364:	e015      	b.n	8001392 <HAL_RCC_OscConfig+0x1de>
      }
      else
      {
        /* Disable the Internal High Speed oscillator (HSI). */
        __HAL_RCC_HSI_DISABLE();
 8001366:	4b3f      	ldr	r3, [pc, #252]	; (8001464 <HAL_RCC_OscConfig+0x2b0>)
 8001368:	2200      	movs	r2, #0
 800136a:	601a      	str	r2, [r3, #0]

        /* Get Start Tick*/
        tickstart = HAL_GetTick();
 800136c:	f7ff fc1c 	bl	8000ba8 <HAL_GetTick>
 8001370:	6138      	str	r0, [r7, #16]

        /* Wait till HSI is ready */
        while(__HAL_RCC_GET_FLAG(RCC_FLAG_HSIRDY) != RESET)
 8001372:	e008      	b.n	8001386 <HAL_RCC_OscConfig+0x1d2>
        {
          if((HAL_GetTick() - tickstart ) > HSI_TIMEOUT_VALUE)
 8001374:	f7ff fc18 	bl	8000ba8 <HAL_GetTick>
 8001378:	4602      	mov	r2, r0
 800137a:	693b      	ldr	r3, [r7, #16]
 800137c:	1ad3      	subs	r3, r2, r3
 800137e:	2b02      	cmp	r3, #2
 8001380:	d901      	bls.n	8001386 <HAL_RCC_OscConfig+0x1d2>
          {
            return HAL_TIMEOUT;
 8001382:	2303      	movs	r3, #3
 8001384:	e184      	b.n	8001690 <HAL_RCC_OscConfig+0x4dc>
        while(__HAL_RCC_GET_FLAG(RCC_FLAG_HSIRDY) != RESET)
 8001386:	4b36      	ldr	r3, [pc, #216]	; (8001460 <HAL_RCC_OscConfig+0x2ac>)
 8001388:	681b      	ldr	r3, [r3, #0]
 800138a:	f003 0302 	and.w	r3, r3, #2
 800138e:	2b00      	cmp	r3, #0
 8001390:	d1f0      	bne.n	8001374 <HAL_RCC_OscConfig+0x1c0>
        }
      }
    }
  }
  /*------------------------------ LSI Configuration -------------------------*/
  if(((RCC_OscInitStruct->OscillatorType) & RCC_OSCILLATORTYPE_LSI) == RCC_OSCILLATORTYPE_LSI)
 8001392:	687b      	ldr	r3, [r7, #4]
 8001394:	681b      	ldr	r3, [r3, #0]
 8001396:	f003 0308 	and.w	r3, r3, #8
 800139a:	2b00      	cmp	r3, #0
 800139c:	d030      	beq.n	8001400 <HAL_RCC_OscConfig+0x24c>
  {
    /* Check the parameters */
    assert_param(IS_RCC_LSI(RCC_OscInitStruct->LSIState));

    /* Check the LSI State */
    if((RCC_OscInitStruct->LSIState)!= RCC_LSI_OFF)
 800139e:	687b      	ldr	r3, [r7, #4]
 80013a0:	695b      	ldr	r3, [r3, #20]
 80013a2:	2b00      	cmp	r3, #0
 80013a4:	d016      	beq.n	80013d4 <HAL_RCC_OscConfig+0x220>
    {
      /* Enable the Internal Low Speed oscillator (LSI). */
      __HAL_RCC_LSI_ENABLE();
 80013a6:	4b30      	ldr	r3, [pc, #192]	; (8001468 <HAL_RCC_OscConfig+0x2b4>)
 80013a8:	2201      	movs	r2, #1
 80013aa:	601a      	str	r2, [r3, #0]

      /* Get Start Tick*/
      tickstart = HAL_GetTick();
 80013ac:	f7ff fbfc 	bl	8000ba8 <HAL_GetTick>
 80013b0:	6138      	str	r0, [r7, #16]

      /* Wait till LSI is ready */
      while(__HAL_RCC_GET_FLAG(RCC_FLAG_LSIRDY) == RESET)
 80013b2:	e008      	b.n	80013c6 <HAL_RCC_OscConfig+0x212>
      {
        if((HAL_GetTick() - tickstart ) > LSI_TIMEOUT_VALUE)
 80013b4:	f7ff fbf8 	bl	8000ba8 <HAL_GetTick>
 80013b8:	4602      	mov	r2, r0
 80013ba:	693b      	ldr	r3, [r7, #16]
 80013bc:	1ad3      	subs	r3, r2, r3
 80013be:	2b02      	cmp	r3, #2
 80013c0:	d901      	bls.n	80013c6 <HAL_RCC_OscConfig+0x212>
        {
          return HAL_TIMEOUT;
 80013c2:	2303      	movs	r3, #3
 80013c4:	e164      	b.n	8001690 <HAL_RCC_OscConfig+0x4dc>
      while(__HAL_RCC_GET_FLAG(RCC_FLAG_LSIRDY) == RESET)
 80013c6:	4b26      	ldr	r3, [pc, #152]	; (8001460 <HAL_RCC_OscConfig+0x2ac>)
 80013c8:	6f5b      	ldr	r3, [r3, #116]	; 0x74
 80013ca:	f003 0302 	and.w	r3, r3, #2
 80013ce:	2b00      	cmp	r3, #0
 80013d0:	d0f0      	beq.n	80013b4 <HAL_RCC_OscConfig+0x200>
 80013d2:	e015      	b.n	8001400 <HAL_RCC_OscConfig+0x24c>
      }
    }
    else
    {
      /* Disable the Internal Low Speed oscillator (LSI). */
      __HAL_RCC_LSI_DISABLE();
 80013d4:	4b24      	ldr	r3, [pc, #144]	; (8001468 <HAL_RCC_OscConfig+0x2b4>)
 80013d6:	2200      	movs	r2, #0
 80013d8:	601a      	str	r2, [r3, #0]

      /* Get Start Tick */
      tickstart = HAL_GetTick();
 80013da:	f7ff fbe5 	bl	8000ba8 <HAL_GetTick>
 80013de:	6138      	str	r0, [r7, #16]

      /* Wait till LSI is ready */
      while(__HAL_RCC_GET_FLAG(RCC_FLAG_LSIRDY) != RESET)
 80013e0:	e008      	b.n	80013f4 <HAL_RCC_OscConfig+0x240>
      {
        if((HAL_GetTick() - tickstart ) > LSI_TIMEOUT_VALUE)
 80013e2:	f7ff fbe1 	bl	8000ba8 <HAL_GetTick>
 80013e6:	4602      	mov	r2, r0
 80013e8:	693b      	ldr	r3, [r7, #16]
 80013ea:	1ad3      	subs	r3, r2, r3
 80013ec:	2b02      	cmp	r3, #2
 80013ee:	d901      	bls.n	80013f4 <HAL_RCC_OscConfig+0x240>
        {
          return HAL_TIMEOUT;
 80013f0:	2303      	movs	r3, #3
 80013f2:	e14d      	b.n	8001690 <HAL_RCC_OscConfig+0x4dc>
      while(__HAL_RCC_GET_FLAG(RCC_FLAG_LSIRDY) != RESET)
 80013f4:	4b1a      	ldr	r3, [pc, #104]	; (8001460 <HAL_RCC_OscConfig+0x2ac>)
 80013f6:	6f5b      	ldr	r3, [r3, #116]	; 0x74
 80013f8:	f003 0302 	and.w	r3, r3, #2
 80013fc:	2b00      	cmp	r3, #0
 80013fe:	d1f0      	bne.n	80013e2 <HAL_RCC_OscConfig+0x22e>
        }
      }
    }
  }
  /*------------------------------ LSE Configuration -------------------------*/
  if(((RCC_OscInitStruct->OscillatorType) & RCC_OSCILLATORTYPE_LSE) == RCC_OSCILLATORTYPE_LSE)
 8001400:	687b      	ldr	r3, [r7, #4]
 8001402:	681b      	ldr	r3, [r3, #0]
 8001404:	f003 0304 	and.w	r3, r3, #4
 8001408:	2b00      	cmp	r3, #0
 800140a:	f000 80a0 	beq.w	800154e <HAL_RCC_OscConfig+0x39a>
  {
    FlagStatus       pwrclkchanged = RESET;
 800140e:	2300      	movs	r3, #0
 8001410:	75fb      	strb	r3, [r7, #23]
    /* Check the parameters */
    assert_param(IS_RCC_LSE(RCC_OscInitStruct->LSEState));

    /* Update LSE configuration in Backup Domain control register    */
    /* Requires to enable write access to Backup Domain of necessary */
    if(__HAL_RCC_PWR_IS_CLK_DISABLED())
 8001412:	4b13      	ldr	r3, [pc, #76]	; (8001460 <HAL_RCC_OscConfig+0x2ac>)
 8001414:	6c1b      	ldr	r3, [r3, #64]	; 0x40
 8001416:	f003 5380 	and.w	r3, r3, #268435456	; 0x10000000
 800141a:	2b00      	cmp	r3, #0
 800141c:	d10f      	bne.n	800143e <HAL_RCC_OscConfig+0x28a>
    {
      __HAL_RCC_PWR_CLK_ENABLE();
 800141e:	2300      	movs	r3, #0
 8001420:	60bb      	str	r3, [r7, #8]
 8001422:	4b0f      	ldr	r3, [pc, #60]	; (8001460 <HAL_RCC_OscConfig+0x2ac>)
 8001424:	6c1b      	ldr	r3, [r3, #64]	; 0x40
 8001426:	4a0e      	ldr	r2, [pc, #56]	; (8001460 <HAL_RCC_OscConfig+0x2ac>)
 8001428:	f043 5380 	orr.w	r3, r3, #268435456	; 0x10000000
 800142c:	6413      	str	r3, [r2, #64]	; 0x40
 800142e:	4b0c      	ldr	r3, [pc, #48]	; (8001460 <HAL_RCC_OscConfig+0x2ac>)
 8001430:	6c1b      	ldr	r3, [r3, #64]	; 0x40
 8001432:	f003 5380 	and.w	r3, r3, #268435456	; 0x10000000
 8001436:	60bb      	str	r3, [r7, #8]
 8001438:	68bb      	ldr	r3, [r7, #8]
      pwrclkchanged = SET;
 800143a:	2301      	movs	r3, #1
 800143c:	75fb      	strb	r3, [r7, #23]
    }

    if(HAL_IS_BIT_CLR(PWR->CR, PWR_CR_DBP))
 800143e:	4b0b      	ldr	r3, [pc, #44]	; (800146c <HAL_RCC_OscConfig+0x2b8>)
 8001440:	681b      	ldr	r3, [r3, #0]
 8001442:	f403 7380 	and.w	r3, r3, #256	; 0x100
 8001446:	2b00      	cmp	r3, #0
 8001448:	d121      	bne.n	800148e <HAL_RCC_OscConfig+0x2da>
    {
      /* Enable write access to Backup domain */
      SET_BIT(PWR->CR, PWR_CR_DBP);
 800144a:	4b08      	ldr	r3, [pc, #32]	; (800146c <HAL_RCC_OscConfig+0x2b8>)
 800144c:	681b      	ldr	r3, [r3, #0]
 800144e:	4a07      	ldr	r2, [pc, #28]	; (800146c <HAL_RCC_OscConfig+0x2b8>)
 8001450:	f443 7380 	orr.w	r3, r3, #256	; 0x100
 8001454:	6013      	str	r3, [r2, #0]

      /* Wait for Backup domain Write protection disable */
      tickstart = HAL_GetTick();
 8001456:	f7ff fba7 	bl	8000ba8 <HAL_GetTick>
 800145a:	6138      	str	r0, [r7, #16]

      while(HAL_IS_BIT_CLR(PWR->CR, PWR_CR_DBP))
 800145c:	e011      	b.n	8001482 <HAL_RCC_OscConfig+0x2ce>
 800145e:	bf00      	nop
 8001460:	40023800 	.word	0x40023800
 8001464:	42470000 	.word	0x42470000
 8001468:	42470e80 	.word	0x42470e80
 800146c:	40007000 	.word	0x40007000
      {
        if((HAL_GetTick() - tickstart) > RCC_DBP_TIMEOUT_VALUE)
 8001470:	f7ff fb9a 	bl	8000ba8 <HAL_GetTick>
 8001474:	4602      	mov	r2, r0
 8001476:	693b      	ldr	r3, [r7, #16]
 8001478:	1ad3      	subs	r3, r2, r3
 800147a:	2b02      	cmp	r3, #2
 800147c:	d901      	bls.n	8001482 <HAL_RCC_OscConfig+0x2ce>
        {
          return HAL_TIMEOUT;
 800147e:	2303      	movs	r3, #3
 8001480:	e106      	b.n	8001690 <HAL_RCC_OscConfig+0x4dc>
      while(HAL_IS_BIT_CLR(PWR->CR, PWR_CR_DBP))
 8001482:	4b85      	ldr	r3, [pc, #532]	; (8001698 <HAL_RCC_OscConfig+0x4e4>)
 8001484:	681b      	ldr	r3, [r3, #0]
 8001486:	f403 7380 	and.w	r3, r3, #256	; 0x100
 800148a:	2b00      	cmp	r3, #0
 800148c:	d0f0      	beq.n	8001470 <HAL_RCC_OscConfig+0x2bc>
        }
      }
    }

    /* Set the new LSE configuration -----------------------------------------*/
    __HAL_RCC_LSE_CONFIG(RCC_OscInitStruct->LSEState);
 800148e:	687b      	ldr	r3, [r7, #4]
 8001490:	689b      	ldr	r3, [r3, #8]
 8001492:	2b01      	cmp	r3, #1
 8001494:	d106      	bne.n	80014a4 <HAL_RCC_OscConfig+0x2f0>
 8001496:	4b81      	ldr	r3, [pc, #516]	; (800169c <HAL_RCC_OscConfig+0x4e8>)
 8001498:	6f1b      	ldr	r3, [r3, #112]	; 0x70
 800149a:	4a80      	ldr	r2, [pc, #512]	; (800169c <HAL_RCC_OscConfig+0x4e8>)
 800149c:	f043 0301 	orr.w	r3, r3, #1
 80014a0:	6713      	str	r3, [r2, #112]	; 0x70
 80014a2:	e01c      	b.n	80014de <HAL_RCC_OscConfig+0x32a>
 80014a4:	687b      	ldr	r3, [r7, #4]
 80014a6:	689b      	ldr	r3, [r3, #8]
 80014a8:	2b05      	cmp	r3, #5
 80014aa:	d10c      	bne.n	80014c6 <HAL_RCC_OscConfig+0x312>
 80014ac:	4b7b      	ldr	r3, [pc, #492]	; (800169c <HAL_RCC_OscConfig+0x4e8>)
 80014ae:	6f1b      	ldr	r3, [r3, #112]	; 0x70
 80014b0:	4a7a      	ldr	r2, [pc, #488]	; (800169c <HAL_RCC_OscConfig+0x4e8>)
 80014b2:	f043 0304 	orr.w	r3, r3, #4
 80014b6:	6713      	str	r3, [r2, #112]	; 0x70
 80014b8:	4b78      	ldr	r3, [pc, #480]	; (800169c <HAL_RCC_OscConfig+0x4e8>)
 80014ba:	6f1b      	ldr	r3, [r3, #112]	; 0x70
 80014bc:	4a77      	ldr	r2, [pc, #476]	; (800169c <HAL_RCC_OscConfig+0x4e8>)
 80014be:	f043 0301 	orr.w	r3, r3, #1
 80014c2:	6713      	str	r3, [r2, #112]	; 0x70
 80014c4:	e00b      	b.n	80014de <HAL_RCC_OscConfig+0x32a>
 80014c6:	4b75      	ldr	r3, [pc, #468]	; (800169c <HAL_RCC_OscConfig+0x4e8>)
 80014c8:	6f1b      	ldr	r3, [r3, #112]	; 0x70
 80014ca:	4a74      	ldr	r2, [pc, #464]	; (800169c <HAL_RCC_OscConfig+0x4e8>)
 80014cc:	f023 0301 	bic.w	r3, r3, #1
 80014d0:	6713      	str	r3, [r2, #112]	; 0x70
 80014d2:	4b72      	ldr	r3, [pc, #456]	; (800169c <HAL_RCC_OscConfig+0x4e8>)
 80014d4:	6f1b      	ldr	r3, [r3, #112]	; 0x70
 80014d6:	4a71      	ldr	r2, [pc, #452]	; (800169c <HAL_RCC_OscConfig+0x4e8>)
 80014d8:	f023 0304 	bic.w	r3, r3, #4
 80014dc:	6713      	str	r3, [r2, #112]	; 0x70
    /* Check the LSE State */
    if((RCC_OscInitStruct->LSEState) != RCC_LSE_OFF)
 80014de:	687b      	ldr	r3, [r7, #4]
 80014e0:	689b      	ldr	r3, [r3, #8]
 80014e2:	2b00      	cmp	r3, #0
 80014e4:	d015      	beq.n	8001512 <HAL_RCC_OscConfig+0x35e>
    {
      /* Get Start Tick*/
      tickstart = HAL_GetTick();
 80014e6:	f7ff fb5f 	bl	8000ba8 <HAL_GetTick>
 80014ea:	6138      	str	r0, [r7, #16]

      /* Wait till LSE is ready */
      while(__HAL_RCC_GET_FLAG(RCC_FLAG_LSERDY) == RESET)
 80014ec:	e00a      	b.n	8001504 <HAL_RCC_OscConfig+0x350>
      {
        if((HAL_GetTick() - tickstart ) > RCC_LSE_TIMEOUT_VALUE)
 80014ee:	f7ff fb5b 	bl	8000ba8 <HAL_GetTick>
 80014f2:	4602      	mov	r2, r0
 80014f4:	693b      	ldr	r3, [r7, #16]
 80014f6:	1ad3      	subs	r3, r2, r3
 80014f8:	f241 3288 	movw	r2, #5000	; 0x1388
 80014fc:	4293      	cmp	r3, r2
 80014fe:	d901      	bls.n	8001504 <HAL_RCC_OscConfig+0x350>
        {
          return HAL_TIMEOUT;
 8001500:	2303      	movs	r3, #3
 8001502:	e0c5      	b.n	8001690 <HAL_RCC_OscConfig+0x4dc>
      while(__HAL_RCC_GET_FLAG(RCC_FLAG_LSERDY) == RESET)
 8001504:	4b65      	ldr	r3, [pc, #404]	; (800169c <HAL_RCC_OscConfig+0x4e8>)
 8001506:	6f1b      	ldr	r3, [r3, #112]	; 0x70
 8001508:	f003 0302 	and.w	r3, r3, #2
 800150c:	2b00      	cmp	r3, #0
 800150e:	d0ee      	beq.n	80014ee <HAL_RCC_OscConfig+0x33a>
 8001510:	e014      	b.n	800153c <HAL_RCC_OscConfig+0x388>
      }
    }
    else
    {
      /* Get Start Tick */
      tickstart = HAL_GetTick();
 8001512:	f7ff fb49 	bl	8000ba8 <HAL_GetTick>
 8001516:	6138      	str	r0, [r7, #16]

      /* Wait till LSE is ready */
      while(__HAL_RCC_GET_FLAG(RCC_FLAG_LSERDY) != RESET)
 8001518:	e00a      	b.n	8001530 <HAL_RCC_OscConfig+0x37c>
      {
        if((HAL_GetTick() - tickstart ) > RCC_LSE_TIMEOUT_VALUE)
 800151a:	f7ff fb45 	bl	8000ba8 <HAL_GetTick>
 800151e:	4602      	mov	r2, r0
 8001520:	693b      	ldr	r3, [r7, #16]
 8001522:	1ad3      	subs	r3, r2, r3
 8001524:	f241 3288 	movw	r2, #5000	; 0x1388
 8001528:	4293      	cmp	r3, r2
 800152a:	d901      	bls.n	8001530 <HAL_RCC_OscConfig+0x37c>
        {
          return HAL_TIMEOUT;
 800152c:	2303      	movs	r3, #3
 800152e:	e0af      	b.n	8001690 <HAL_RCC_OscConfig+0x4dc>
      while(__HAL_RCC_GET_FLAG(RCC_FLAG_LSERDY) != RESET)
 8001530:	4b5a      	ldr	r3, [pc, #360]	; (800169c <HAL_RCC_OscConfig+0x4e8>)
 8001532:	6f1b      	ldr	r3, [r3, #112]	; 0x70
 8001534:	f003 0302 	and.w	r3, r3, #2
 8001538:	2b00      	cmp	r3, #0
 800153a:	d1ee      	bne.n	800151a <HAL_RCC_OscConfig+0x366>
        }
      }
    }

    /* Restore clock configuration if changed */
    if(pwrclkchanged == SET)
 800153c:	7dfb      	ldrb	r3, [r7, #23]
 800153e:	2b01      	cmp	r3, #1
 8001540:	d105      	bne.n	800154e <HAL_RCC_OscConfig+0x39a>
    {
      __HAL_RCC_PWR_CLK_DISABLE();
 8001542:	4b56      	ldr	r3, [pc, #344]	; (800169c <HAL_RCC_OscConfig+0x4e8>)
 8001544:	6c1b      	ldr	r3, [r3, #64]	; 0x40
 8001546:	4a55      	ldr	r2, [pc, #340]	; (800169c <HAL_RCC_OscConfig+0x4e8>)
 8001548:	f023 5380 	bic.w	r3, r3, #268435456	; 0x10000000
 800154c:	6413      	str	r3, [r2, #64]	; 0x40
    }
  }
  /*-------------------------------- PLL Configuration -----------------------*/
  /* Check the parameters */
  assert_param(IS_RCC_PLL(RCC_OscInitStruct->PLL.PLLState));
  if ((RCC_OscInitStruct->PLL.PLLState) != RCC_PLL_NONE)
 800154e:	687b      	ldr	r3, [r7, #4]
 8001550:	699b      	ldr	r3, [r3, #24]
 8001552:	2b00      	cmp	r3, #0
 8001554:	f000 809b 	beq.w	800168e <HAL_RCC_OscConfig+0x4da>
  {
    /* Check if the PLL is used as system clock or not */
    if(__HAL_RCC_GET_SYSCLK_SOURCE() != RCC_CFGR_SWS_PLL)
 8001558:	4b50      	ldr	r3, [pc, #320]	; (800169c <HAL_RCC_OscConfig+0x4e8>)
 800155a:	689b      	ldr	r3, [r3, #8]
 800155c:	f003 030c 	and.w	r3, r3, #12
 8001560:	2b08      	cmp	r3, #8
 8001562:	d05c      	beq.n	800161e <HAL_RCC_OscConfig+0x46a>
    {
      if((RCC_OscInitStruct->PLL.PLLState) == RCC_PLL_ON)
 8001564:	687b      	ldr	r3, [r7, #4]
 8001566:	699b      	ldr	r3, [r3, #24]
 8001568:	2b02      	cmp	r3, #2
 800156a:	d141      	bne.n	80015f0 <HAL_RCC_OscConfig+0x43c>
        assert_param(IS_RCC_PLLN_VALUE(RCC_OscInitStruct->PLL.PLLN));
        assert_param(IS_RCC_PLLP_VALUE(RCC_OscInitStruct->PLL.PLLP));
        assert_param(IS_RCC_PLLQ_VALUE(RCC_OscInitStruct->PLL.PLLQ));

        /* Disable the main PLL. */
        __HAL_RCC_PLL_DISABLE();
 800156c:	4b4c      	ldr	r3, [pc, #304]	; (80016a0 <HAL_RCC_OscConfig+0x4ec>)
 800156e:	2200      	movs	r2, #0
 8001570:	601a      	str	r2, [r3, #0]

        /* Get Start Tick */
        tickstart = HAL_GetTick();
 8001572:	f7ff fb19 	bl	8000ba8 <HAL_GetTick>
 8001576:	6138      	str	r0, [r7, #16]

        /* Wait till PLL is ready */
        while(__HAL_RCC_GET_FLAG(RCC_FLAG_PLLRDY) != RESET)
 8001578:	e008      	b.n	800158c <HAL_RCC_OscConfig+0x3d8>
        {
          if((HAL_GetTick() - tickstart ) > PLL_TIMEOUT_VALUE)
 800157a:	f7ff fb15 	bl	8000ba8 <HAL_GetTick>
 800157e:	4602      	mov	r2, r0
 8001580:	693b      	ldr	r3, [r7, #16]
 8001582:	1ad3      	subs	r3, r2, r3
 8001584:	2b02      	cmp	r3, #2
 8001586:	d901      	bls.n	800158c <HAL_RCC_OscConfig+0x3d8>
          {
            return HAL_TIMEOUT;
 8001588:	2303      	movs	r3, #3
 800158a:	e081      	b.n	8001690 <HAL_RCC_OscConfig+0x4dc>
        while(__HAL_RCC_GET_FLAG(RCC_FLAG_PLLRDY) != RESET)
 800158c:	4b43      	ldr	r3, [pc, #268]	; (800169c <HAL_RCC_OscConfig+0x4e8>)
 800158e:	681b      	ldr	r3, [r3, #0]
 8001590:	f003 7300 	and.w	r3, r3, #33554432	; 0x2000000
 8001594:	2b00      	cmp	r3, #0
 8001596:	d1f0      	bne.n	800157a <HAL_RCC_OscConfig+0x3c6>
          }
        }

        /* Configure the main PLL clock source, multiplication and division factors. */
        WRITE_REG(RCC->PLLCFGR, (RCC_OscInitStruct->PLL.PLLSource                                            | \
 8001598:	687b      	ldr	r3, [r7, #4]
 800159a:	69da      	ldr	r2, [r3, #28]
 800159c:	687b      	ldr	r3, [r7, #4]
 800159e:	6a1b      	ldr	r3, [r3, #32]
 80015a0:	431a      	orrs	r2, r3
 80015a2:	687b      	ldr	r3, [r7, #4]
 80015a4:	6a5b      	ldr	r3, [r3, #36]	; 0x24
 80015a6:	019b      	lsls	r3, r3, #6
 80015a8:	431a      	orrs	r2, r3
 80015aa:	687b      	ldr	r3, [r7, #4]
 80015ac:	6a9b      	ldr	r3, [r3, #40]	; 0x28
 80015ae:	085b      	lsrs	r3, r3, #1
 80015b0:	3b01      	subs	r3, #1
 80015b2:	041b      	lsls	r3, r3, #16
 80015b4:	431a      	orrs	r2, r3
 80015b6:	687b      	ldr	r3, [r7, #4]
 80015b8:	6adb      	ldr	r3, [r3, #44]	; 0x2c
 80015ba:	061b      	lsls	r3, r3, #24
 80015bc:	4937      	ldr	r1, [pc, #220]	; (800169c <HAL_RCC_OscConfig+0x4e8>)
 80015be:	4313      	orrs	r3, r2
 80015c0:	604b      	str	r3, [r1, #4]
                                 RCC_OscInitStruct->PLL.PLLM                                                 | \
                                 (RCC_OscInitStruct->PLL.PLLN << RCC_PLLCFGR_PLLN_Pos)             | \
                                 (((RCC_OscInitStruct->PLL.PLLP >> 1U) - 1U) << RCC_PLLCFGR_PLLP_Pos) | \
                                 (RCC_OscInitStruct->PLL.PLLQ << RCC_PLLCFGR_PLLQ_Pos)));
        /* Enable the main PLL. */
        __HAL_RCC_PLL_ENABLE();
 80015c2:	4b37      	ldr	r3, [pc, #220]	; (80016a0 <HAL_RCC_OscConfig+0x4ec>)
 80015c4:	2201      	movs	r2, #1
 80015c6:	601a      	str	r2, [r3, #0]

        /* Get Start Tick */
        tickstart = HAL_GetTick();
 80015c8:	f7ff faee 	bl	8000ba8 <HAL_GetTick>
 80015cc:	6138      	str	r0, [r7, #16]

        /* Wait till PLL is ready */
        while(__HAL_RCC_GET_FLAG(RCC_FLAG_PLLRDY) == RESET)
 80015ce:	e008      	b.n	80015e2 <HAL_RCC_OscConfig+0x42e>
        {
          if((HAL_GetTick() - tickstart ) > PLL_TIMEOUT_VALUE)
 80015d0:	f7ff faea 	bl	8000ba8 <HAL_GetTick>
 80015d4:	4602      	mov	r2, r0
 80015d6:	693b      	ldr	r3, [r7, #16]
 80015d8:	1ad3      	subs	r3, r2, r3
 80015da:	2b02      	cmp	r3, #2
 80015dc:	d901      	bls.n	80015e2 <HAL_RCC_OscConfig+0x42e>
          {
            return HAL_TIMEOUT;
 80015de:	2303      	movs	r3, #3
 80015e0:	e056      	b.n	8001690 <HAL_RCC_OscConfig+0x4dc>
        while(__HAL_RCC_GET_FLAG(RCC_FLAG_PLLRDY) == RESET)
 80015e2:	4b2e      	ldr	r3, [pc, #184]	; (800169c <HAL_RCC_OscConfig+0x4e8>)
 80015e4:	681b      	ldr	r3, [r3, #0]
 80015e6:	f003 7300 	and.w	r3, r3, #33554432	; 0x2000000
 80015ea:	2b00      	cmp	r3, #0
 80015ec:	d0f0      	beq.n	80015d0 <HAL_RCC_OscConfig+0x41c>
 80015ee:	e04e      	b.n	800168e <HAL_RCC_OscConfig+0x4da>
        }
      }
      else
      {
        /* Disable the main PLL. */
        __HAL_RCC_PLL_DISABLE();
 80015f0:	4b2b      	ldr	r3, [pc, #172]	; (80016a0 <HAL_RCC_OscConfig+0x4ec>)
 80015f2:	2200      	movs	r2, #0
 80015f4:	601a      	str	r2, [r3, #0]

        /* Get Start Tick */
        tickstart = HAL_GetTick();
 80015f6:	f7ff fad7 	bl	8000ba8 <HAL_GetTick>
 80015fa:	6138      	str	r0, [r7, #16]

        /* Wait till PLL is ready */
        while(__HAL_RCC_GET_FLAG(RCC_FLAG_PLLRDY) != RESET)
 80015fc:	e008      	b.n	8001610 <HAL_RCC_OscConfig+0x45c>
        {
          if((HAL_GetTick() - tickstart ) > PLL_TIMEOUT_VALUE)
 80015fe:	f7ff fad3 	bl	8000ba8 <HAL_GetTick>
 8001602:	4602      	mov	r2, r0
 8001604:	693b      	ldr	r3, [r7, #16]
 8001606:	1ad3      	subs	r3, r2, r3
 8001608:	2b02      	cmp	r3, #2
 800160a:	d901      	bls.n	8001610 <HAL_RCC_OscConfig+0x45c>
          {
            return HAL_TIMEOUT;
 800160c:	2303      	movs	r3, #3
 800160e:	e03f      	b.n	8001690 <HAL_RCC_OscConfig+0x4dc>
        while(__HAL_RCC_GET_FLAG(RCC_FLAG_PLLRDY) != RESET)
 8001610:	4b22      	ldr	r3, [pc, #136]	; (800169c <HAL_RCC_OscConfig+0x4e8>)
 8001612:	681b      	ldr	r3, [r3, #0]
 8001614:	f003 7300 	and.w	r3, r3, #33554432	; 0x2000000
 8001618:	2b00      	cmp	r3, #0
 800161a:	d1f0      	bne.n	80015fe <HAL_RCC_OscConfig+0x44a>
 800161c:	e037      	b.n	800168e <HAL_RCC_OscConfig+0x4da>
      }
    }
    else
    {
      /* Check if there is a request to disable the PLL used as System clock source */
      if((RCC_OscInitStruct->PLL.PLLState) == RCC_PLL_OFF)
 800161e:	687b      	ldr	r3, [r7, #4]
 8001620:	699b      	ldr	r3, [r3, #24]
 8001622:	2b01      	cmp	r3, #1
 8001624:	d101      	bne.n	800162a <HAL_RCC_OscConfig+0x476>
      {
        return HAL_ERROR;
 8001626:	2301      	movs	r3, #1
 8001628:	e032      	b.n	8001690 <HAL_RCC_OscConfig+0x4dc>
      }
      else
      {
        /* Do not return HAL_ERROR if request repeats the current configuration */
        pll_config = RCC->PLLCFGR;
 800162a:	4b1c      	ldr	r3, [pc, #112]	; (800169c <HAL_RCC_OscConfig+0x4e8>)
 800162c:	685b      	ldr	r3, [r3, #4]
 800162e:	60fb      	str	r3, [r7, #12]
            (READ_BIT(pll_config, RCC_PLLCFGR_PLLN) != (RCC_OscInitStruct->PLL.PLLN) << RCC_PLLCFGR_PLLN_Pos) ||
            (READ_BIT(pll_config, RCC_PLLCFGR_PLLP) != (((RCC_OscInitStruct->PLL.PLLP >> 1U) - 1U)) << RCC_PLLCFGR_PLLP_Pos) ||
            (READ_BIT(pll_config, RCC_PLLCFGR_PLLQ) != (RCC_OscInitStruct->PLL.PLLQ << RCC_PLLCFGR_PLLQ_Pos)) ||
            (READ_BIT(pll_config, RCC_PLLCFGR_PLLR) != (RCC_OscInitStruct->PLL.PLLR << RCC_PLLCFGR_PLLR_Pos)))
#else
        if (((RCC_OscInitStruct->PLL.PLLState) == RCC_PLL_OFF) ||
 8001630:	687b      	ldr	r3, [r7, #4]
 8001632:	699b      	ldr	r3, [r3, #24]
 8001634:	2b01      	cmp	r3, #1
 8001636:	d028      	beq.n	800168a <HAL_RCC_OscConfig+0x4d6>
            (READ_BIT(pll_config, RCC_PLLCFGR_PLLSRC) != RCC_OscInitStruct->PLL.PLLSource) ||
 8001638:	68fb      	ldr	r3, [r7, #12]
 800163a:	f403 0280 	and.w	r2, r3, #4194304	; 0x400000
 800163e:	687b      	ldr	r3, [r7, #4]
 8001640:	69db      	ldr	r3, [r3, #28]
        if (((RCC_OscInitStruct->PLL.PLLState) == RCC_PLL_OFF) ||
 8001642:	429a      	cmp	r2, r3
 8001644:	d121      	bne.n	800168a <HAL_RCC_OscConfig+0x4d6>
            (READ_BIT(pll_config, RCC_PLLCFGR_PLLM) != (RCC_OscInitStruct->PLL.PLLM) << RCC_PLLCFGR_PLLM_Pos) ||
 8001646:	68fb      	ldr	r3, [r7, #12]
 8001648:	f003 023f 	and.w	r2, r3, #63	; 0x3f
 800164c:	687b      	ldr	r3, [r7, #4]
 800164e:	6a1b      	ldr	r3, [r3, #32]
            (READ_BIT(pll_config, RCC_PLLCFGR_PLLSRC) != RCC_OscInitStruct->PLL.PLLSource) ||
 8001650:	429a      	cmp	r2, r3
 8001652:	d11a      	bne.n	800168a <HAL_RCC_OscConfig+0x4d6>
            (READ_BIT(pll_config, RCC_PLLCFGR_PLLN) != (RCC_OscInitStruct->PLL.PLLN) << RCC_PLLCFGR_PLLN_Pos) ||
 8001654:	68fa      	ldr	r2, [r7, #12]
 8001656:	f647 73c0 	movw	r3, #32704	; 0x7fc0
 800165a:	4013      	ands	r3, r2
 800165c:	687a      	ldr	r2, [r7, #4]
 800165e:	6a52      	ldr	r2, [r2, #36]	; 0x24
 8001660:	0192      	lsls	r2, r2, #6
            (READ_BIT(pll_config, RCC_PLLCFGR_PLLM) != (RCC_OscInitStruct->PLL.PLLM) << RCC_PLLCFGR_PLLM_Pos) ||
 8001662:	4293      	cmp	r3, r2
 8001664:	d111      	bne.n	800168a <HAL_RCC_OscConfig+0x4d6>
            (READ_BIT(pll_config, RCC_PLLCFGR_PLLP) != (((RCC_OscInitStruct->PLL.PLLP >> 1U) - 1U)) << RCC_PLLCFGR_PLLP_Pos) ||
 8001666:	68fb      	ldr	r3, [r7, #12]
 8001668:	f403 3240 	and.w	r2, r3, #196608	; 0x30000
 800166c:	687b      	ldr	r3, [r7, #4]
 800166e:	6a9b      	ldr	r3, [r3, #40]	; 0x28
 8001670:	085b      	lsrs	r3, r3, #1
 8001672:	3b01      	subs	r3, #1
 8001674:	041b      	lsls	r3, r3, #16
            (READ_BIT(pll_config, RCC_PLLCFGR_PLLN) != (RCC_OscInitStruct->PLL.PLLN) << RCC_PLLCFGR_PLLN_Pos) ||
 8001676:	429a      	cmp	r2, r3
 8001678:	d107      	bne.n	800168a <HAL_RCC_OscConfig+0x4d6>
            (READ_BIT(pll_config, RCC_PLLCFGR_PLLQ) != (RCC_OscInitStruct->PLL.PLLQ << RCC_PLLCFGR_PLLQ_Pos)))
 800167a:	68fb      	ldr	r3, [r7, #12]
 800167c:	f003 6270 	and.w	r2, r3, #251658240	; 0xf000000
 8001680:	687b      	ldr	r3, [r7, #4]
 8001682:	6adb      	ldr	r3, [r3, #44]	; 0x2c
 8001684:	061b      	lsls	r3, r3, #24
            (READ_BIT(pll_config, RCC_PLLCFGR_PLLP) != (((RCC_OscInitStruct->PLL.PLLP >> 1U) - 1U)) << RCC_PLLCFGR_PLLP_Pos) ||
 8001686:	429a      	cmp	r2, r3
 8001688:	d001      	beq.n	800168e <HAL_RCC_OscConfig+0x4da>
#endif
        {
          return HAL_ERROR;
 800168a:	2301      	movs	r3, #1
 800168c:	e000      	b.n	8001690 <HAL_RCC_OscConfig+0x4dc>
        }
      }
    }
  }
  return HAL_OK;
 800168e:	2300      	movs	r3, #0
}
 8001690:	4618      	mov	r0, r3
 8001692:	3718      	adds	r7, #24
 8001694:	46bd      	mov	sp, r7
 8001696:	bd80      	pop	{r7, pc}
 8001698:	40007000 	.word	0x40007000
 800169c:	40023800 	.word	0x40023800
 80016a0:	42470060 	.word	0x42470060

080016a4 <HAL_RCC_ClockConfig>:
  *         HPRE[3:0] bits to ensure that HCLK not exceed the maximum allowed frequency
  *         (for more details refer to section above "Initialization/de-initialization functions")
  * @retval None
  */
HAL_StatusTypeDef HAL_RCC_ClockConfig(RCC_ClkInitTypeDef  *RCC_ClkInitStruct, uint32_t FLatency)
{
 80016a4:	b580      	push	{r7, lr}
 80016a6:	b084      	sub	sp, #16
 80016a8:	af00      	add	r7, sp, #0
 80016aa:	6078      	str	r0, [r7, #4]
 80016ac:	6039      	str	r1, [r7, #0]
  uint32_t tickstart;

  /* Check Null pointer */
  if(RCC_ClkInitStruct == NULL)
 80016ae:	687b      	ldr	r3, [r7, #4]
 80016b0:	2b00      	cmp	r3, #0
 80016b2:	d101      	bne.n	80016b8 <HAL_RCC_ClockConfig+0x14>
  {
    return HAL_ERROR;
 80016b4:	2301      	movs	r3, #1
 80016b6:	e0cc      	b.n	8001852 <HAL_RCC_ClockConfig+0x1ae>
  /* To correctly read data from FLASH memory, the number of wait states (LATENCY)
    must be correctly programmed according to the frequency of the CPU clock
    (HCLK) and the supply voltage of the device. */

  /* Increasing the number of wait states because of higher CPU frequency */
  if(FLatency > __HAL_FLASH_GET_LATENCY())
 80016b8:	4b68      	ldr	r3, [pc, #416]	; (800185c <HAL_RCC_ClockConfig+0x1b8>)
 80016ba:	681b      	ldr	r3, [r3, #0]
 80016bc:	f003 0307 	and.w	r3, r3, #7
 80016c0:	683a      	ldr	r2, [r7, #0]
 80016c2:	429a      	cmp	r2, r3
 80016c4:	d90c      	bls.n	80016e0 <HAL_RCC_ClockConfig+0x3c>
  {
    /* Program the new number of wait states to the LATENCY bits in the FLASH_ACR register */
    __HAL_FLASH_SET_LATENCY(FLatency);
 80016c6:	4b65      	ldr	r3, [pc, #404]	; (800185c <HAL_RCC_ClockConfig+0x1b8>)
 80016c8:	683a      	ldr	r2, [r7, #0]
 80016ca:	b2d2      	uxtb	r2, r2
 80016cc:	701a      	strb	r2, [r3, #0]

    /* Check that the new number of wait states is taken into account to access the Flash
    memory by reading the FLASH_ACR register */
    if(__HAL_FLASH_GET_LATENCY() != FLatency)
 80016ce:	4b63      	ldr	r3, [pc, #396]	; (800185c <HAL_RCC_ClockConfig+0x1b8>)
 80016d0:	681b      	ldr	r3, [r3, #0]
 80016d2:	f003 0307 	and.w	r3, r3, #7
 80016d6:	683a      	ldr	r2, [r7, #0]
 80016d8:	429a      	cmp	r2, r3
 80016da:	d001      	beq.n	80016e0 <HAL_RCC_ClockConfig+0x3c>
    {
      return HAL_ERROR;
 80016dc:	2301      	movs	r3, #1
 80016de:	e0b8      	b.n	8001852 <HAL_RCC_ClockConfig+0x1ae>
    }
  }

  /*-------------------------- HCLK Configuration --------------------------*/
  if(((RCC_ClkInitStruct->ClockType) & RCC_CLOCKTYPE_HCLK) == RCC_CLOCKTYPE_HCLK)
 80016e0:	687b      	ldr	r3, [r7, #4]
 80016e2:	681b      	ldr	r3, [r3, #0]
 80016e4:	f003 0302 	and.w	r3, r3, #2
 80016e8:	2b00      	cmp	r3, #0
 80016ea:	d020      	beq.n	800172e <HAL_RCC_ClockConfig+0x8a>
  {
    /* Set the highest APBx dividers in order to ensure that we do not go through
       a non-spec phase whatever we decrease or increase HCLK. */
    if(((RCC_ClkInitStruct->ClockType) & RCC_CLOCKTYPE_PCLK1) == RCC_CLOCKTYPE_PCLK1)
 80016ec:	687b      	ldr	r3, [r7, #4]
 80016ee:	681b      	ldr	r3, [r3, #0]
 80016f0:	f003 0304 	and.w	r3, r3, #4
 80016f4:	2b00      	cmp	r3, #0
 80016f6:	d005      	beq.n	8001704 <HAL_RCC_ClockConfig+0x60>
    {
      MODIFY_REG(RCC->CFGR, RCC_CFGR_PPRE1, RCC_HCLK_DIV16);
 80016f8:	4b59      	ldr	r3, [pc, #356]	; (8001860 <HAL_RCC_ClockConfig+0x1bc>)
 80016fa:	689b      	ldr	r3, [r3, #8]
 80016fc:	4a58      	ldr	r2, [pc, #352]	; (8001860 <HAL_RCC_ClockConfig+0x1bc>)
 80016fe:	f443 53e0 	orr.w	r3, r3, #7168	; 0x1c00
 8001702:	6093      	str	r3, [r2, #8]
    }

    if(((RCC_ClkInitStruct->ClockType) & RCC_CLOCKTYPE_PCLK2) == RCC_CLOCKTYPE_PCLK2)
 8001704:	687b      	ldr	r3, [r7, #4]
 8001706:	681b      	ldr	r3, [r3, #0]
 8001708:	f003 0308 	and.w	r3, r3, #8
 800170c:	2b00      	cmp	r3, #0
 800170e:	d005      	beq.n	800171c <HAL_RCC_ClockConfig+0x78>
    {
      MODIFY_REG(RCC->CFGR, RCC_CFGR_PPRE2, (RCC_HCLK_DIV16 << 3));
 8001710:	4b53      	ldr	r3, [pc, #332]	; (8001860 <HAL_RCC_ClockConfig+0x1bc>)
 8001712:	689b      	ldr	r3, [r3, #8]
 8001714:	4a52      	ldr	r2, [pc, #328]	; (8001860 <HAL_RCC_ClockConfig+0x1bc>)
 8001716:	f443 4360 	orr.w	r3, r3, #57344	; 0xe000
 800171a:	6093      	str	r3, [r2, #8]
    }

    assert_param(IS_RCC_HCLK(RCC_ClkInitStruct->AHBCLKDivider));
    MODIFY_REG(RCC->CFGR, RCC_CFGR_HPRE, RCC_ClkInitStruct->AHBCLKDivider);
 800171c:	4b50      	ldr	r3, [pc, #320]	; (8001860 <HAL_RCC_ClockConfig+0x1bc>)
 800171e:	689b      	ldr	r3, [r3, #8]
 8001720:	f023 02f0 	bic.w	r2, r3, #240	; 0xf0
 8001724:	687b      	ldr	r3, [r7, #4]
 8001726:	689b      	ldr	r3, [r3, #8]
 8001728:	494d      	ldr	r1, [pc, #308]	; (8001860 <HAL_RCC_ClockConfig+0x1bc>)
 800172a:	4313      	orrs	r3, r2
 800172c:	608b      	str	r3, [r1, #8]
  }

  /*------------------------- SYSCLK Configuration ---------------------------*/
  if(((RCC_ClkInitStruct->ClockType) & RCC_CLOCKTYPE_SYSCLK) == RCC_CLOCKTYPE_SYSCLK)
 800172e:	687b      	ldr	r3, [r7, #4]
 8001730:	681b      	ldr	r3, [r3, #0]
 8001732:	f003 0301 	and.w	r3, r3, #1
 8001736:	2b00      	cmp	r3, #0
 8001738:	d044      	beq.n	80017c4 <HAL_RCC_ClockConfig+0x120>
  {
    assert_param(IS_RCC_SYSCLKSOURCE(RCC_ClkInitStruct->SYSCLKSource));

    /* HSE is selected as System Clock Source */
    if(RCC_ClkInitStruct->SYSCLKSource == RCC_SYSCLKSOURCE_HSE)
 800173a:	687b      	ldr	r3, [r7, #4]
 800173c:	685b      	ldr	r3, [r3, #4]
 800173e:	2b01      	cmp	r3, #1
 8001740:	d107      	bne.n	8001752 <HAL_RCC_ClockConfig+0xae>
    {
      /* Check the HSE ready flag */
      if(__HAL_RCC_GET_FLAG(RCC_FLAG_HSERDY) == RESET)
 8001742:	4b47      	ldr	r3, [pc, #284]	; (8001860 <HAL_RCC_ClockConfig+0x1bc>)
 8001744:	681b      	ldr	r3, [r3, #0]
 8001746:	f403 3300 	and.w	r3, r3, #131072	; 0x20000
 800174a:	2b00      	cmp	r3, #0
 800174c:	d119      	bne.n	8001782 <HAL_RCC_ClockConfig+0xde>
      {
        return HAL_ERROR;
 800174e:	2301      	movs	r3, #1
 8001750:	e07f      	b.n	8001852 <HAL_RCC_ClockConfig+0x1ae>
      }
    }
    /* PLL is selected as System Clock Source */
    else if((RCC_ClkInitStruct->SYSCLKSource == RCC_SYSCLKSOURCE_PLLCLK)   ||
 8001752:	687b      	ldr	r3, [r7, #4]
 8001754:	685b      	ldr	r3, [r3, #4]
 8001756:	2b02      	cmp	r3, #2
 8001758:	d003      	beq.n	8001762 <HAL_RCC_ClockConfig+0xbe>
            (RCC_ClkInitStruct->SYSCLKSource == RCC_SYSCLKSOURCE_PLLRCLK))
 800175a:	687b      	ldr	r3, [r7, #4]
 800175c:	685b      	ldr	r3, [r3, #4]
    else if((RCC_ClkInitStruct->SYSCLKSource == RCC_SYSCLKSOURCE_PLLCLK)   ||
 800175e:	2b03      	cmp	r3, #3
 8001760:	d107      	bne.n	8001772 <HAL_RCC_ClockConfig+0xce>
    {
      /* Check the PLL ready flag */
      if(__HAL_RCC_GET_FLAG(RCC_FLAG_PLLRDY) == RESET)
 8001762:	4b3f      	ldr	r3, [pc, #252]	; (8001860 <HAL_RCC_ClockConfig+0x1bc>)
 8001764:	681b      	ldr	r3, [r3, #0]
 8001766:	f003 7300 	and.w	r3, r3, #33554432	; 0x2000000
 800176a:	2b00      	cmp	r3, #0
 800176c:	d109      	bne.n	8001782 <HAL_RCC_ClockConfig+0xde>
      {
        return HAL_ERROR;
 800176e:	2301      	movs	r3, #1
 8001770:	e06f      	b.n	8001852 <HAL_RCC_ClockConfig+0x1ae>
    }
    /* HSI is selected as System Clock Source */
    else
    {
      /* Check the HSI ready flag */
      if(__HAL_RCC_GET_FLAG(RCC_FLAG_HSIRDY) == RESET)
 8001772:	4b3b      	ldr	r3, [pc, #236]	; (8001860 <HAL_RCC_ClockConfig+0x1bc>)
 8001774:	681b      	ldr	r3, [r3, #0]
 8001776:	f003 0302 	and.w	r3, r3, #2
 800177a:	2b00      	cmp	r3, #0
 800177c:	d101      	bne.n	8001782 <HAL_RCC_ClockConfig+0xde>
      {
        return HAL_ERROR;
 800177e:	2301      	movs	r3, #1
 8001780:	e067      	b.n	8001852 <HAL_RCC_ClockConfig+0x1ae>
      }
    }

    __HAL_RCC_SYSCLK_CONFIG(RCC_ClkInitStruct->SYSCLKSource);
 8001782:	4b37      	ldr	r3, [pc, #220]	; (8001860 <HAL_RCC_ClockConfig+0x1bc>)
 8001784:	689b      	ldr	r3, [r3, #8]
 8001786:	f023 0203 	bic.w	r2, r3, #3
 800178a:	687b      	ldr	r3, [r7, #4]
 800178c:	685b      	ldr	r3, [r3, #4]
 800178e:	4934      	ldr	r1, [pc, #208]	; (8001860 <HAL_RCC_ClockConfig+0x1bc>)
 8001790:	4313      	orrs	r3, r2
 8001792:	608b      	str	r3, [r1, #8]

    /* Get Start Tick */
    tickstart = HAL_GetTick();
 8001794:	f7ff fa08 	bl	8000ba8 <HAL_GetTick>
 8001798:	60f8      	str	r0, [r7, #12]

    while (__HAL_RCC_GET_SYSCLK_SOURCE() != (RCC_ClkInitStruct->SYSCLKSource << RCC_CFGR_SWS_Pos))
 800179a:	e00a      	b.n	80017b2 <HAL_RCC_ClockConfig+0x10e>
    {
      if ((HAL_GetTick() - tickstart) > CLOCKSWITCH_TIMEOUT_VALUE)
 800179c:	f7ff fa04 	bl	8000ba8 <HAL_GetTick>
 80017a0:	4602      	mov	r2, r0
 80017a2:	68fb      	ldr	r3, [r7, #12]
 80017a4:	1ad3      	subs	r3, r2, r3
 80017a6:	f241 3288 	movw	r2, #5000	; 0x1388
 80017aa:	4293      	cmp	r3, r2
 80017ac:	d901      	bls.n	80017b2 <HAL_RCC_ClockConfig+0x10e>
      {
        return HAL_TIMEOUT;
 80017ae:	2303      	movs	r3, #3
 80017b0:	e04f      	b.n	8001852 <HAL_RCC_ClockConfig+0x1ae>
    while (__HAL_RCC_GET_SYSCLK_SOURCE() != (RCC_ClkInitStruct->SYSCLKSource << RCC_CFGR_SWS_Pos))
 80017b2:	4b2b      	ldr	r3, [pc, #172]	; (8001860 <HAL_RCC_ClockConfig+0x1bc>)
 80017b4:	689b      	ldr	r3, [r3, #8]
 80017b6:	f003 020c 	and.w	r2, r3, #12
 80017ba:	687b      	ldr	r3, [r7, #4]
 80017bc:	685b      	ldr	r3, [r3, #4]
 80017be:	009b      	lsls	r3, r3, #2
 80017c0:	429a      	cmp	r2, r3
 80017c2:	d1eb      	bne.n	800179c <HAL_RCC_ClockConfig+0xf8>
      }
    }
  }

  /* Decreasing the number of wait states because of lower CPU frequency */
  if(FLatency < __HAL_FLASH_GET_LATENCY())
 80017c4:	4b25      	ldr	r3, [pc, #148]	; (800185c <HAL_RCC_ClockConfig+0x1b8>)
 80017c6:	681b      	ldr	r3, [r3, #0]
 80017c8:	f003 0307 	and.w	r3, r3, #7
 80017cc:	683a      	ldr	r2, [r7, #0]
 80017ce:	429a      	cmp	r2, r3
 80017d0:	d20c      	bcs.n	80017ec <HAL_RCC_ClockConfig+0x148>
  {
     /* Program the new number of wait states to the LATENCY bits in the FLASH_ACR register */
    __HAL_FLASH_SET_LATENCY(FLatency);
 80017d2:	4b22      	ldr	r3, [pc, #136]	; (800185c <HAL_RCC_ClockConfig+0x1b8>)
 80017d4:	683a      	ldr	r2, [r7, #0]
 80017d6:	b2d2      	uxtb	r2, r2
 80017d8:	701a      	strb	r2, [r3, #0]

    /* Check that the new number of wait states is taken into account to access the Flash
    memory by reading the FLASH_ACR register */
    if(__HAL_FLASH_GET_LATENCY() != FLatency)
 80017da:	4b20      	ldr	r3, [pc, #128]	; (800185c <HAL_RCC_ClockConfig+0x1b8>)
 80017dc:	681b      	ldr	r3, [r3, #0]
 80017de:	f003 0307 	and.w	r3, r3, #7
 80017e2:	683a      	ldr	r2, [r7, #0]
 80017e4:	429a      	cmp	r2, r3
 80017e6:	d001      	beq.n	80017ec <HAL_RCC_ClockConfig+0x148>
    {
      return HAL_ERROR;
 80017e8:	2301      	movs	r3, #1
 80017ea:	e032      	b.n	8001852 <HAL_RCC_ClockConfig+0x1ae>
    }
  }

  /*-------------------------- PCLK1 Configuration ---------------------------*/
  if(((RCC_ClkInitStruct->ClockType) & RCC_CLOCKTYPE_PCLK1) == RCC_CLOCKTYPE_PCLK1)
 80017ec:	687b      	ldr	r3, [r7, #4]
 80017ee:	681b      	ldr	r3, [r3, #0]
 80017f0:	f003 0304 	and.w	r3, r3, #4
 80017f4:	2b00      	cmp	r3, #0
 80017f6:	d008      	beq.n	800180a <HAL_RCC_ClockConfig+0x166>
  {
    assert_param(IS_RCC_PCLK(RCC_ClkInitStruct->APB1CLKDivider));
    MODIFY_REG(RCC->CFGR, RCC_CFGR_PPRE1, RCC_ClkInitStruct->APB1CLKDivider);
 80017f8:	4b19      	ldr	r3, [pc, #100]	; (8001860 <HAL_RCC_ClockConfig+0x1bc>)
 80017fa:	689b      	ldr	r3, [r3, #8]
 80017fc:	f423 52e0 	bic.w	r2, r3, #7168	; 0x1c00
 8001800:	687b      	ldr	r3, [r7, #4]
 8001802:	68db      	ldr	r3, [r3, #12]
 8001804:	4916      	ldr	r1, [pc, #88]	; (8001860 <HAL_RCC_ClockConfig+0x1bc>)
 8001806:	4313      	orrs	r3, r2
 8001808:	608b      	str	r3, [r1, #8]
  }

  /*-------------------------- PCLK2 Configuration ---------------------------*/
  if(((RCC_ClkInitStruct->ClockType) & RCC_CLOCKTYPE_PCLK2) == RCC_CLOCKTYPE_PCLK2)
 800180a:	687b      	ldr	r3, [r7, #4]
 800180c:	681b      	ldr	r3, [r3, #0]
 800180e:	f003 0308 	and.w	r3, r3, #8
 8001812:	2b00      	cmp	r3, #0
 8001814:	d009      	beq.n	800182a <HAL_RCC_ClockConfig+0x186>
  {
    assert_param(IS_RCC_PCLK(RCC_ClkInitStruct->APB2CLKDivider));
    MODIFY_REG(RCC->CFGR, RCC_CFGR_PPRE2, ((RCC_ClkInitStruct->APB2CLKDivider) << 3U));
 8001816:	4b12      	ldr	r3, [pc, #72]	; (8001860 <HAL_RCC_ClockConfig+0x1bc>)
 8001818:	689b      	ldr	r3, [r3, #8]
 800181a:	f423 4260 	bic.w	r2, r3, #57344	; 0xe000
 800181e:	687b      	ldr	r3, [r7, #4]
 8001820:	691b      	ldr	r3, [r3, #16]
 8001822:	00db      	lsls	r3, r3, #3
 8001824:	490e      	ldr	r1, [pc, #56]	; (8001860 <HAL_RCC_ClockConfig+0x1bc>)
 8001826:	4313      	orrs	r3, r2
 8001828:	608b      	str	r3, [r1, #8]
  }

  /* Update the SystemCoreClock global variable */
  SystemCoreClock = HAL_RCC_GetSysClockFreq() >> AHBPrescTable[(RCC->CFGR & RCC_CFGR_HPRE)>> RCC_CFGR_HPRE_Pos];
 800182a:	f000 f821 	bl	8001870 <HAL_RCC_GetSysClockFreq>
 800182e:	4602      	mov	r2, r0
 8001830:	4b0b      	ldr	r3, [pc, #44]	; (8001860 <HAL_RCC_ClockConfig+0x1bc>)
 8001832:	689b      	ldr	r3, [r3, #8]
 8001834:	091b      	lsrs	r3, r3, #4
 8001836:	f003 030f 	and.w	r3, r3, #15
 800183a:	490a      	ldr	r1, [pc, #40]	; (8001864 <HAL_RCC_ClockConfig+0x1c0>)
 800183c:	5ccb      	ldrb	r3, [r1, r3]
 800183e:	fa22 f303 	lsr.w	r3, r2, r3
 8001842:	4a09      	ldr	r2, [pc, #36]	; (8001868 <HAL_RCC_ClockConfig+0x1c4>)
 8001844:	6013      	str	r3, [r2, #0]

  /* Configure the source of time base considering new system clocks settings */
  HAL_InitTick (uwTickPrio);
 8001846:	4b09      	ldr	r3, [pc, #36]	; (800186c <HAL_RCC_ClockConfig+0x1c8>)
 8001848:	681b      	ldr	r3, [r3, #0]
 800184a:	4618      	mov	r0, r3
 800184c:	f7ff f8b6 	bl	80009bc <HAL_InitTick>

  return HAL_OK;
 8001850:	2300      	movs	r3, #0
}
 8001852:	4618      	mov	r0, r3
 8001854:	3710      	adds	r7, #16
 8001856:	46bd      	mov	sp, r7
 8001858:	bd80      	pop	{r7, pc}
 800185a:	bf00      	nop
 800185c:	40023c00 	.word	0x40023c00
 8001860:	40023800 	.word	0x40023800
 8001864:	08006860 	.word	0x08006860
 8001868:	20000000 	.word	0x20000000
 800186c:	20000004 	.word	0x20000004

08001870 <HAL_RCC_GetSysClockFreq>:
  *
  *
  * @retval SYSCLK frequency
  */
__weak uint32_t HAL_RCC_GetSysClockFreq(void)
{
 8001870:	e92d 43b0 	stmdb	sp!, {r4, r5, r7, r8, r9, lr}
 8001874:	b084      	sub	sp, #16
 8001876:	af00      	add	r7, sp, #0
  uint32_t pllm = 0U, pllvco = 0U, pllp = 0U;
 8001878:	2300      	movs	r3, #0
 800187a:	607b      	str	r3, [r7, #4]
 800187c:	2300      	movs	r3, #0
 800187e:	60fb      	str	r3, [r7, #12]
 8001880:	2300      	movs	r3, #0
 8001882:	603b      	str	r3, [r7, #0]
  uint32_t sysclockfreq = 0U;
 8001884:	2300      	movs	r3, #0
 8001886:	60bb      	str	r3, [r7, #8]

  /* Get SYSCLK source -------------------------------------------------------*/
  switch (RCC->CFGR & RCC_CFGR_SWS)
 8001888:	4b67      	ldr	r3, [pc, #412]	; (8001a28 <HAL_RCC_GetSysClockFreq+0x1b8>)
 800188a:	689b      	ldr	r3, [r3, #8]
 800188c:	f003 030c 	and.w	r3, r3, #12
 8001890:	2b08      	cmp	r3, #8
 8001892:	d00d      	beq.n	80018b0 <HAL_RCC_GetSysClockFreq+0x40>
 8001894:	2b08      	cmp	r3, #8
 8001896:	f200 80bd 	bhi.w	8001a14 <HAL_RCC_GetSysClockFreq+0x1a4>
 800189a:	2b00      	cmp	r3, #0
 800189c:	d002      	beq.n	80018a4 <HAL_RCC_GetSysClockFreq+0x34>
 800189e:	2b04      	cmp	r3, #4
 80018a0:	d003      	beq.n	80018aa <HAL_RCC_GetSysClockFreq+0x3a>
 80018a2:	e0b7      	b.n	8001a14 <HAL_RCC_GetSysClockFreq+0x1a4>
  {
    case RCC_CFGR_SWS_HSI:  /* HSI used as system clock source */
    {
      sysclockfreq = HSI_VALUE;
 80018a4:	4b61      	ldr	r3, [pc, #388]	; (8001a2c <HAL_RCC_GetSysClockFreq+0x1bc>)
 80018a6:	60bb      	str	r3, [r7, #8]
       break;
 80018a8:	e0b7      	b.n	8001a1a <HAL_RCC_GetSysClockFreq+0x1aa>
    }
    case RCC_CFGR_SWS_HSE:  /* HSE used as system clock  source */
    {
      sysclockfreq = HSE_VALUE;
 80018aa:	4b61      	ldr	r3, [pc, #388]	; (8001a30 <HAL_RCC_GetSysClockFreq+0x1c0>)
 80018ac:	60bb      	str	r3, [r7, #8]
      break;
 80018ae:	e0b4      	b.n	8001a1a <HAL_RCC_GetSysClockFreq+0x1aa>
    }
    case RCC_CFGR_SWS_PLL:  /* PLL used as system clock  source */
    {
      /* PLL_VCO = (HSE_VALUE or HSI_VALUE / PLLM) * PLLN
      SYSCLK = PLL_VCO / PLLP */
      pllm = RCC->PLLCFGR & RCC_PLLCFGR_PLLM;
 80018b0:	4b5d      	ldr	r3, [pc, #372]	; (8001a28 <HAL_RCC_GetSysClockFreq+0x1b8>)
 80018b2:	685b      	ldr	r3, [r3, #4]
 80018b4:	f003 033f 	and.w	r3, r3, #63	; 0x3f
 80018b8:	607b      	str	r3, [r7, #4]
      if(__HAL_RCC_GET_PLL_OSCSOURCE() != RCC_PLLSOURCE_HSI)
 80018ba:	4b5b      	ldr	r3, [pc, #364]	; (8001a28 <HAL_RCC_GetSysClockFreq+0x1b8>)
 80018bc:	685b      	ldr	r3, [r3, #4]
 80018be:	f403 0380 	and.w	r3, r3, #4194304	; 0x400000
 80018c2:	2b00      	cmp	r3, #0
 80018c4:	d04d      	beq.n	8001962 <HAL_RCC_GetSysClockFreq+0xf2>
      {
        /* HSE used as PLL clock source */
        pllvco = (uint32_t) ((((uint64_t) HSE_VALUE * ((uint64_t) ((RCC->PLLCFGR & RCC_PLLCFGR_PLLN) >> RCC_PLLCFGR_PLLN_Pos)))) / (uint64_t)pllm);
 80018c6:	4b58      	ldr	r3, [pc, #352]	; (8001a28 <HAL_RCC_GetSysClockFreq+0x1b8>)
 80018c8:	685b      	ldr	r3, [r3, #4]
 80018ca:	099b      	lsrs	r3, r3, #6
 80018cc:	461a      	mov	r2, r3
 80018ce:	f04f 0300 	mov.w	r3, #0
 80018d2:	f240 10ff 	movw	r0, #511	; 0x1ff
 80018d6:	f04f 0100 	mov.w	r1, #0
 80018da:	ea02 0800 	and.w	r8, r2, r0
 80018de:	ea03 0901 	and.w	r9, r3, r1
 80018e2:	4640      	mov	r0, r8
 80018e4:	4649      	mov	r1, r9
 80018e6:	f04f 0200 	mov.w	r2, #0
 80018ea:	f04f 0300 	mov.w	r3, #0
 80018ee:	014b      	lsls	r3, r1, #5
 80018f0:	ea43 63d0 	orr.w	r3, r3, r0, lsr #27
 80018f4:	0142      	lsls	r2, r0, #5
 80018f6:	4610      	mov	r0, r2
 80018f8:	4619      	mov	r1, r3
 80018fa:	ebb0 0008 	subs.w	r0, r0, r8
 80018fe:	eb61 0109 	sbc.w	r1, r1, r9
 8001902:	f04f 0200 	mov.w	r2, #0
 8001906:	f04f 0300 	mov.w	r3, #0
 800190a:	018b      	lsls	r3, r1, #6
 800190c:	ea43 6390 	orr.w	r3, r3, r0, lsr #26
 8001910:	0182      	lsls	r2, r0, #6
 8001912:	1a12      	subs	r2, r2, r0
 8001914:	eb63 0301 	sbc.w	r3, r3, r1
 8001918:	f04f 0000 	mov.w	r0, #0
 800191c:	f04f 0100 	mov.w	r1, #0
 8001920:	00d9      	lsls	r1, r3, #3
 8001922:	ea41 7152 	orr.w	r1, r1, r2, lsr #29
 8001926:	00d0      	lsls	r0, r2, #3
 8001928:	4602      	mov	r2, r0
 800192a:	460b      	mov	r3, r1
 800192c:	eb12 0208 	adds.w	r2, r2, r8
 8001930:	eb43 0309 	adc.w	r3, r3, r9
 8001934:	f04f 0000 	mov.w	r0, #0
 8001938:	f04f 0100 	mov.w	r1, #0
 800193c:	0259      	lsls	r1, r3, #9
 800193e:	ea41 51d2 	orr.w	r1, r1, r2, lsr #23
 8001942:	0250      	lsls	r0, r2, #9
 8001944:	4602      	mov	r2, r0
 8001946:	460b      	mov	r3, r1
 8001948:	4610      	mov	r0, r2
 800194a:	4619      	mov	r1, r3
 800194c:	687b      	ldr	r3, [r7, #4]
 800194e:	461a      	mov	r2, r3
 8001950:	f04f 0300 	mov.w	r3, #0
 8001954:	f7fe fc86 	bl	8000264 <__aeabi_uldivmod>
 8001958:	4602      	mov	r2, r0
 800195a:	460b      	mov	r3, r1
 800195c:	4613      	mov	r3, r2
 800195e:	60fb      	str	r3, [r7, #12]
 8001960:	e04a      	b.n	80019f8 <HAL_RCC_GetSysClockFreq+0x188>
      }
      else
      {
        /* HSI used as PLL clock source */
        pllvco = (uint32_t) ((((uint64_t) HSI_VALUE * ((uint64_t) ((RCC->PLLCFGR & RCC_PLLCFGR_PLLN) >> RCC_PLLCFGR_PLLN_Pos)))) / (uint64_t)pllm);
 8001962:	4b31      	ldr	r3, [pc, #196]	; (8001a28 <HAL_RCC_GetSysClockFreq+0x1b8>)
 8001964:	685b      	ldr	r3, [r3, #4]
 8001966:	099b      	lsrs	r3, r3, #6
 8001968:	461a      	mov	r2, r3
 800196a:	f04f 0300 	mov.w	r3, #0
 800196e:	f240 10ff 	movw	r0, #511	; 0x1ff
 8001972:	f04f 0100 	mov.w	r1, #0
 8001976:	ea02 0400 	and.w	r4, r2, r0
 800197a:	ea03 0501 	and.w	r5, r3, r1
 800197e:	4620      	mov	r0, r4
 8001980:	4629      	mov	r1, r5
 8001982:	f04f 0200 	mov.w	r2, #0
 8001986:	f04f 0300 	mov.w	r3, #0
 800198a:	014b      	lsls	r3, r1, #5
 800198c:	ea43 63d0 	orr.w	r3, r3, r0, lsr #27
 8001990:	0142      	lsls	r2, r0, #5
 8001992:	4610      	mov	r0, r2
 8001994:	4619      	mov	r1, r3
 8001996:	1b00      	subs	r0, r0, r4
 8001998:	eb61 0105 	sbc.w	r1, r1, r5
 800199c:	f04f 0200 	mov.w	r2, #0
 80019a0:	f04f 0300 	mov.w	r3, #0
 80019a4:	018b      	lsls	r3, r1, #6
 80019a6:	ea43 6390 	orr.w	r3, r3, r0, lsr #26
 80019aa:	0182      	lsls	r2, r0, #6
 80019ac:	1a12      	subs	r2, r2, r0
 80019ae:	eb63 0301 	sbc.w	r3, r3, r1
 80019b2:	f04f 0000 	mov.w	r0, #0
 80019b6:	f04f 0100 	mov.w	r1, #0
 80019ba:	00d9      	lsls	r1, r3, #3
 80019bc:	ea41 7152 	orr.w	r1, r1, r2, lsr #29
 80019c0:	00d0      	lsls	r0, r2, #3
 80019c2:	4602      	mov	r2, r0
 80019c4:	460b      	mov	r3, r1
 80019c6:	1912      	adds	r2, r2, r4
 80019c8:	eb45 0303 	adc.w	r3, r5, r3
 80019cc:	f04f 0000 	mov.w	r0, #0
 80019d0:	f04f 0100 	mov.w	r1, #0
 80019d4:	0299      	lsls	r1, r3, #10
 80019d6:	ea41 5192 	orr.w	r1, r1, r2, lsr #22
 80019da:	0290      	lsls	r0, r2, #10
 80019dc:	4602      	mov	r2, r0
 80019de:	460b      	mov	r3, r1
 80019e0:	4610      	mov	r0, r2
 80019e2:	4619      	mov	r1, r3
 80019e4:	687b      	ldr	r3, [r7, #4]
 80019e6:	461a      	mov	r2, r3
 80019e8:	f04f 0300 	mov.w	r3, #0
 80019ec:	f7fe fc3a 	bl	8000264 <__aeabi_uldivmod>
 80019f0:	4602      	mov	r2, r0
 80019f2:	460b      	mov	r3, r1
 80019f4:	4613      	mov	r3, r2
 80019f6:	60fb      	str	r3, [r7, #12]
      }
      pllp = ((((RCC->PLLCFGR & RCC_PLLCFGR_PLLP) >> RCC_PLLCFGR_PLLP_Pos) + 1U) *2U);
 80019f8:	4b0b      	ldr	r3, [pc, #44]	; (8001a28 <HAL_RCC_GetSysClockFreq+0x1b8>)
 80019fa:	685b      	ldr	r3, [r3, #4]
 80019fc:	0c1b      	lsrs	r3, r3, #16
 80019fe:	f003 0303 	and.w	r3, r3, #3
 8001a02:	3301      	adds	r3, #1
 8001a04:	005b      	lsls	r3, r3, #1
 8001a06:	603b      	str	r3, [r7, #0]

      sysclockfreq = pllvco/pllp;
 8001a08:	68fa      	ldr	r2, [r7, #12]
 8001a0a:	683b      	ldr	r3, [r7, #0]
 8001a0c:	fbb2 f3f3 	udiv	r3, r2, r3
 8001a10:	60bb      	str	r3, [r7, #8]
      break;
 8001a12:	e002      	b.n	8001a1a <HAL_RCC_GetSysClockFreq+0x1aa>
    }
    default:
    {
      sysclockfreq = HSI_VALUE;
 8001a14:	4b05      	ldr	r3, [pc, #20]	; (8001a2c <HAL_RCC_GetSysClockFreq+0x1bc>)
 8001a16:	60bb      	str	r3, [r7, #8]
      break;
 8001a18:	bf00      	nop
    }
  }
  return sysclockfreq;
 8001a1a:	68bb      	ldr	r3, [r7, #8]
}
 8001a1c:	4618      	mov	r0, r3
 8001a1e:	3710      	adds	r7, #16
 8001a20:	46bd      	mov	sp, r7
 8001a22:	e8bd 83b0 	ldmia.w	sp!, {r4, r5, r7, r8, r9, pc}
 8001a26:	bf00      	nop
 8001a28:	40023800 	.word	0x40023800
 8001a2c:	00f42400 	.word	0x00f42400
 8001a30:	007a1200 	.word	0x007a1200

08001a34 <HAL_RCC_GetHCLKFreq>:
  * @note   The SystemCoreClock CMSIS variable is used to store System Clock Frequency
  *         and updated within this function
  * @retval HCLK frequency
  */
uint32_t HAL_RCC_GetHCLKFreq(void)
{
 8001a34:	b480      	push	{r7}
 8001a36:	af00      	add	r7, sp, #0
  return SystemCoreClock;
 8001a38:	4b03      	ldr	r3, [pc, #12]	; (8001a48 <HAL_RCC_GetHCLKFreq+0x14>)
 8001a3a:	681b      	ldr	r3, [r3, #0]
}
 8001a3c:	4618      	mov	r0, r3
 8001a3e:	46bd      	mov	sp, r7
 8001a40:	f85d 7b04 	ldr.w	r7, [sp], #4
 8001a44:	4770      	bx	lr
 8001a46:	bf00      	nop
 8001a48:	20000000 	.word	0x20000000

08001a4c <HAL_RCC_GetPCLK1Freq>:
  * @note   Each time PCLK1 changes, this function must be called to update the
  *         right PCLK1 value. Otherwise, any configuration based on this function will be incorrect.
  * @retval PCLK1 frequency
  */
uint32_t HAL_RCC_GetPCLK1Freq(void)
{
 8001a4c:	b580      	push	{r7, lr}
 8001a4e:	af00      	add	r7, sp, #0
  /* Get HCLK source and Compute PCLK1 frequency ---------------------------*/
  return (HAL_RCC_GetHCLKFreq() >> APBPrescTable[(RCC->CFGR & RCC_CFGR_PPRE1)>> RCC_CFGR_PPRE1_Pos]);
 8001a50:	f7ff fff0 	bl	8001a34 <HAL_RCC_GetHCLKFreq>
 8001a54:	4602      	mov	r2, r0
 8001a56:	4b05      	ldr	r3, [pc, #20]	; (8001a6c <HAL_RCC_GetPCLK1Freq+0x20>)
 8001a58:	689b      	ldr	r3, [r3, #8]
 8001a5a:	0a9b      	lsrs	r3, r3, #10
 8001a5c:	f003 0307 	and.w	r3, r3, #7
 8001a60:	4903      	ldr	r1, [pc, #12]	; (8001a70 <HAL_RCC_GetPCLK1Freq+0x24>)
 8001a62:	5ccb      	ldrb	r3, [r1, r3]
 8001a64:	fa22 f303 	lsr.w	r3, r2, r3
}
 8001a68:	4618      	mov	r0, r3
 8001a6a:	bd80      	pop	{r7, pc}
 8001a6c:	40023800 	.word	0x40023800
 8001a70:	08006870 	.word	0x08006870

08001a74 <HAL_RCC_GetClockConfig>:
  * will be configured.
  * @param  pFLatency Pointer on the Flash Latency.
  * @retval None
  */
void HAL_RCC_GetClockConfig(RCC_ClkInitTypeDef  *RCC_ClkInitStruct, uint32_t *pFLatency)
{
 8001a74:	b480      	push	{r7}
 8001a76:	b083      	sub	sp, #12
 8001a78:	af00      	add	r7, sp, #0
 8001a7a:	6078      	str	r0, [r7, #4]
 8001a7c:	6039      	str	r1, [r7, #0]
  /* Set all possible values for the Clock type parameter --------------------*/
  RCC_ClkInitStruct->ClockType = RCC_CLOCKTYPE_SYSCLK | RCC_CLOCKTYPE_HCLK | RCC_CLOCKTYPE_PCLK1 | RCC_CLOCKTYPE_PCLK2;
 8001a7e:	687b      	ldr	r3, [r7, #4]
 8001a80:	220f      	movs	r2, #15
 8001a82:	601a      	str	r2, [r3, #0]

  /* Get the SYSCLK configuration --------------------------------------------*/
  RCC_ClkInitStruct->SYSCLKSource = (uint32_t)(RCC->CFGR & RCC_CFGR_SW);
 8001a84:	4b12      	ldr	r3, [pc, #72]	; (8001ad0 <HAL_RCC_GetClockConfig+0x5c>)
 8001a86:	689b      	ldr	r3, [r3, #8]
 8001a88:	f003 0203 	and.w	r2, r3, #3
 8001a8c:	687b      	ldr	r3, [r7, #4]
 8001a8e:	605a      	str	r2, [r3, #4]

  /* Get the HCLK configuration ----------------------------------------------*/
  RCC_ClkInitStruct->AHBCLKDivider = (uint32_t)(RCC->CFGR & RCC_CFGR_HPRE);
 8001a90:	4b0f      	ldr	r3, [pc, #60]	; (8001ad0 <HAL_RCC_GetClockConfig+0x5c>)
 8001a92:	689b      	ldr	r3, [r3, #8]
 8001a94:	f003 02f0 	and.w	r2, r3, #240	; 0xf0
 8001a98:	687b      	ldr	r3, [r7, #4]
 8001a9a:	609a      	str	r2, [r3, #8]

  /* Get the APB1 configuration ----------------------------------------------*/
  RCC_ClkInitStruct->APB1CLKDivider = (uint32_t)(RCC->CFGR & RCC_CFGR_PPRE1);
 8001a9c:	4b0c      	ldr	r3, [pc, #48]	; (8001ad0 <HAL_RCC_GetClockConfig+0x5c>)
 8001a9e:	689b      	ldr	r3, [r3, #8]
 8001aa0:	f403 52e0 	and.w	r2, r3, #7168	; 0x1c00
 8001aa4:	687b      	ldr	r3, [r7, #4]
 8001aa6:	60da      	str	r2, [r3, #12]

  /* Get the APB2 configuration ----------------------------------------------*/
  RCC_ClkInitStruct->APB2CLKDivider = (uint32_t)((RCC->CFGR & RCC_CFGR_PPRE2) >> 3U);
 8001aa8:	4b09      	ldr	r3, [pc, #36]	; (8001ad0 <HAL_RCC_GetClockConfig+0x5c>)
 8001aaa:	689b      	ldr	r3, [r3, #8]
 8001aac:	08db      	lsrs	r3, r3, #3
 8001aae:	f403 52e0 	and.w	r2, r3, #7168	; 0x1c00
 8001ab2:	687b      	ldr	r3, [r7, #4]
 8001ab4:	611a      	str	r2, [r3, #16]

  /* Get the Flash Wait State (Latency) configuration ------------------------*/
  *pFLatency = (uint32_t)(FLASH->ACR & FLASH_ACR_LATENCY);
 8001ab6:	4b07      	ldr	r3, [pc, #28]	; (8001ad4 <HAL_RCC_GetClockConfig+0x60>)
 8001ab8:	681b      	ldr	r3, [r3, #0]
 8001aba:	f003 0207 	and.w	r2, r3, #7
 8001abe:	683b      	ldr	r3, [r7, #0]
 8001ac0:	601a      	str	r2, [r3, #0]
}
 8001ac2:	bf00      	nop
 8001ac4:	370c      	adds	r7, #12
 8001ac6:	46bd      	mov	sp, r7
 8001ac8:	f85d 7b04 	ldr.w	r7, [sp], #4
 8001acc:	4770      	bx	lr
 8001ace:	bf00      	nop
 8001ad0:	40023800 	.word	0x40023800
 8001ad4:	40023c00 	.word	0x40023c00

08001ad8 <HAL_TIM_Base_Init>:
  *         Ex: call @ref HAL_TIM_Base_DeInit() before HAL_TIM_Base_Init()
  * @param  htim TIM Base handle
  * @retval HAL status
  */
HAL_StatusTypeDef HAL_TIM_Base_Init(TIM_HandleTypeDef *htim)
{
 8001ad8:	b580      	push	{r7, lr}
 8001ada:	b082      	sub	sp, #8
 8001adc:	af00      	add	r7, sp, #0
 8001ade:	6078      	str	r0, [r7, #4]
  /* Check the TIM handle allocation */
  if (htim == NULL)
 8001ae0:	687b      	ldr	r3, [r7, #4]
 8001ae2:	2b00      	cmp	r3, #0
 8001ae4:	d101      	bne.n	8001aea <HAL_TIM_Base_Init+0x12>
  {
    return HAL_ERROR;
 8001ae6:	2301      	movs	r3, #1
 8001ae8:	e041      	b.n	8001b6e <HAL_TIM_Base_Init+0x96>
  assert_param(IS_TIM_INSTANCE(htim->Instance));
  assert_param(IS_TIM_COUNTER_MODE(htim->Init.CounterMode));
  assert_param(IS_TIM_CLOCKDIVISION_DIV(htim->Init.ClockDivision));
  assert_param(IS_TIM_AUTORELOAD_PRELOAD(htim->Init.AutoReloadPreload));

  if (htim->State == HAL_TIM_STATE_RESET)
 8001aea:	687b      	ldr	r3, [r7, #4]
 8001aec:	f893 303d 	ldrb.w	r3, [r3, #61]	; 0x3d
 8001af0:	b2db      	uxtb	r3, r3
 8001af2:	2b00      	cmp	r3, #0
 8001af4:	d106      	bne.n	8001b04 <HAL_TIM_Base_Init+0x2c>
  {
    /* Allocate lock resource and initialize it */
    htim->Lock = HAL_UNLOCKED;
 8001af6:	687b      	ldr	r3, [r7, #4]
 8001af8:	2200      	movs	r2, #0
 8001afa:	f883 203c 	strb.w	r2, [r3, #60]	; 0x3c
    }
    /* Init the low level hardware : GPIO, CLOCK, NVIC */
    htim->Base_MspInitCallback(htim);
#else
    /* Init the low level hardware : GPIO, CLOCK, NVIC */
    HAL_TIM_Base_MspInit(htim);
 8001afe:	6878      	ldr	r0, [r7, #4]
 8001b00:	f000 f839 	bl	8001b76 <HAL_TIM_Base_MspInit>
#endif /* USE_HAL_TIM_REGISTER_CALLBACKS */
  }

  /* Set the TIM state */
  htim->State = HAL_TIM_STATE_BUSY;
 8001b04:	687b      	ldr	r3, [r7, #4]
 8001b06:	2202      	movs	r2, #2
 8001b08:	f883 203d 	strb.w	r2, [r3, #61]	; 0x3d

  /* Set the Time Base configuration */
  TIM_Base_SetConfig(htim->Instance, &htim->Init);
 8001b0c:	687b      	ldr	r3, [r7, #4]
 8001b0e:	681a      	ldr	r2, [r3, #0]
 8001b10:	687b      	ldr	r3, [r7, #4]
 8001b12:	3304      	adds	r3, #4
 8001b14:	4619      	mov	r1, r3
 8001b16:	4610      	mov	r0, r2
 8001b18:	f000 f9d8 	bl	8001ecc <TIM_Base_SetConfig>

  /* Initialize the DMA burst operation state */
  htim->DMABurstState = HAL_DMA_BURST_STATE_READY;
 8001b1c:	687b      	ldr	r3, [r7, #4]
 8001b1e:	2201      	movs	r2, #1
 8001b20:	f883 2046 	strb.w	r2, [r3, #70]	; 0x46

  /* Initialize the TIM channels state */
  TIM_CHANNEL_STATE_SET_ALL(htim, HAL_TIM_CHANNEL_STATE_READY);
 8001b24:	687b      	ldr	r3, [r7, #4]
 8001b26:	2201      	movs	r2, #1
 8001b28:	f883 203e 	strb.w	r2, [r3, #62]	; 0x3e
 8001b2c:	687b      	ldr	r3, [r7, #4]
 8001b2e:	2201      	movs	r2, #1
 8001b30:	f883 203f 	strb.w	r2, [r3, #63]	; 0x3f
 8001b34:	687b      	ldr	r3, [r7, #4]
 8001b36:	2201      	movs	r2, #1
 8001b38:	f883 2040 	strb.w	r2, [r3, #64]	; 0x40
 8001b3c:	687b      	ldr	r3, [r7, #4]
 8001b3e:	2201      	movs	r2, #1
 8001b40:	f883 2041 	strb.w	r2, [r3, #65]	; 0x41
  TIM_CHANNEL_N_STATE_SET_ALL(htim, HAL_TIM_CHANNEL_STATE_READY);
 8001b44:	687b      	ldr	r3, [r7, #4]
 8001b46:	2201      	movs	r2, #1
 8001b48:	f883 2042 	strb.w	r2, [r3, #66]	; 0x42
 8001b4c:	687b      	ldr	r3, [r7, #4]
 8001b4e:	2201      	movs	r2, #1
 8001b50:	f883 2043 	strb.w	r2, [r3, #67]	; 0x43
 8001b54:	687b      	ldr	r3, [r7, #4]
 8001b56:	2201      	movs	r2, #1
 8001b58:	f883 2044 	strb.w	r2, [r3, #68]	; 0x44
 8001b5c:	687b      	ldr	r3, [r7, #4]
 8001b5e:	2201      	movs	r2, #1
 8001b60:	f883 2045 	strb.w	r2, [r3, #69]	; 0x45

  /* Initialize the TIM state*/
  htim->State = HAL_TIM_STATE_READY;
 8001b64:	687b      	ldr	r3, [r7, #4]
 8001b66:	2201      	movs	r2, #1
 8001b68:	f883 203d 	strb.w	r2, [r3, #61]	; 0x3d

  return HAL_OK;
 8001b6c:	2300      	movs	r3, #0
}
 8001b6e:	4618      	mov	r0, r3
 8001b70:	3708      	adds	r7, #8
 8001b72:	46bd      	mov	sp, r7
 8001b74:	bd80      	pop	{r7, pc}

08001b76 <HAL_TIM_Base_MspInit>:
  * @brief  Initializes the TIM Base MSP.
  * @param  htim TIM Base handle
  * @retval None
  */
__weak void HAL_TIM_Base_MspInit(TIM_HandleTypeDef *htim)
{
 8001b76:	b480      	push	{r7}
 8001b78:	b083      	sub	sp, #12
 8001b7a:	af00      	add	r7, sp, #0
 8001b7c:	6078      	str	r0, [r7, #4]
  UNUSED(htim);

  /* NOTE : This function should not be modified, when the callback is needed,
            the HAL_TIM_Base_MspInit could be implemented in the user file
   */
}
 8001b7e:	bf00      	nop
 8001b80:	370c      	adds	r7, #12
 8001b82:	46bd      	mov	sp, r7
 8001b84:	f85d 7b04 	ldr.w	r7, [sp], #4
 8001b88:	4770      	bx	lr
	...

08001b8c <HAL_TIM_Base_Start_IT>:
  * @brief  Starts the TIM Base generation in interrupt mode.
  * @param  htim TIM Base handle
  * @retval HAL status
  */
HAL_StatusTypeDef HAL_TIM_Base_Start_IT(TIM_HandleTypeDef *htim)
{
 8001b8c:	b480      	push	{r7}
 8001b8e:	b085      	sub	sp, #20
 8001b90:	af00      	add	r7, sp, #0
 8001b92:	6078      	str	r0, [r7, #4]

  /* Check the parameters */
  assert_param(IS_TIM_INSTANCE(htim->Instance));

  /* Check the TIM state */
  if (htim->State != HAL_TIM_STATE_READY)
 8001b94:	687b      	ldr	r3, [r7, #4]
 8001b96:	f893 303d 	ldrb.w	r3, [r3, #61]	; 0x3d
 8001b9a:	b2db      	uxtb	r3, r3
 8001b9c:	2b01      	cmp	r3, #1
 8001b9e:	d001      	beq.n	8001ba4 <HAL_TIM_Base_Start_IT+0x18>
  {
    return HAL_ERROR;
 8001ba0:	2301      	movs	r3, #1
 8001ba2:	e04e      	b.n	8001c42 <HAL_TIM_Base_Start_IT+0xb6>
  }

  /* Set the TIM state */
  htim->State = HAL_TIM_STATE_BUSY;
 8001ba4:	687b      	ldr	r3, [r7, #4]
 8001ba6:	2202      	movs	r2, #2
 8001ba8:	f883 203d 	strb.w	r2, [r3, #61]	; 0x3d

  /* Enable the TIM Update interrupt */
  __HAL_TIM_ENABLE_IT(htim, TIM_IT_UPDATE);
 8001bac:	687b      	ldr	r3, [r7, #4]
 8001bae:	681b      	ldr	r3, [r3, #0]
 8001bb0:	68da      	ldr	r2, [r3, #12]
 8001bb2:	687b      	ldr	r3, [r7, #4]
 8001bb4:	681b      	ldr	r3, [r3, #0]
 8001bb6:	f042 0201 	orr.w	r2, r2, #1
 8001bba:	60da      	str	r2, [r3, #12]

  /* Enable the Peripheral, except in trigger mode where enable is automatically done with trigger */
  if (IS_TIM_SLAVE_INSTANCE(htim->Instance))
 8001bbc:	687b      	ldr	r3, [r7, #4]
 8001bbe:	681b      	ldr	r3, [r3, #0]
 8001bc0:	4a23      	ldr	r2, [pc, #140]	; (8001c50 <HAL_TIM_Base_Start_IT+0xc4>)
 8001bc2:	4293      	cmp	r3, r2
 8001bc4:	d022      	beq.n	8001c0c <HAL_TIM_Base_Start_IT+0x80>
 8001bc6:	687b      	ldr	r3, [r7, #4]
 8001bc8:	681b      	ldr	r3, [r3, #0]
 8001bca:	f1b3 4f80 	cmp.w	r3, #1073741824	; 0x40000000
 8001bce:	d01d      	beq.n	8001c0c <HAL_TIM_Base_Start_IT+0x80>
 8001bd0:	687b      	ldr	r3, [r7, #4]
 8001bd2:	681b      	ldr	r3, [r3, #0]
 8001bd4:	4a1f      	ldr	r2, [pc, #124]	; (8001c54 <HAL_TIM_Base_Start_IT+0xc8>)
 8001bd6:	4293      	cmp	r3, r2
 8001bd8:	d018      	beq.n	8001c0c <HAL_TIM_Base_Start_IT+0x80>
 8001bda:	687b      	ldr	r3, [r7, #4]
 8001bdc:	681b      	ldr	r3, [r3, #0]
 8001bde:	4a1e      	ldr	r2, [pc, #120]	; (8001c58 <HAL_TIM_Base_Start_IT+0xcc>)
 8001be0:	4293      	cmp	r3, r2
 8001be2:	d013      	beq.n	8001c0c <HAL_TIM_Base_Start_IT+0x80>
 8001be4:	687b      	ldr	r3, [r7, #4]
 8001be6:	681b      	ldr	r3, [r3, #0]
 8001be8:	4a1c      	ldr	r2, [pc, #112]	; (8001c5c <HAL_TIM_Base_Start_IT+0xd0>)
 8001bea:	4293      	cmp	r3, r2
 8001bec:	d00e      	beq.n	8001c0c <HAL_TIM_Base_Start_IT+0x80>
 8001bee:	687b      	ldr	r3, [r7, #4]
 8001bf0:	681b      	ldr	r3, [r3, #0]
 8001bf2:	4a1b      	ldr	r2, [pc, #108]	; (8001c60 <HAL_TIM_Base_Start_IT+0xd4>)
 8001bf4:	4293      	cmp	r3, r2
 8001bf6:	d009      	beq.n	8001c0c <HAL_TIM_Base_Start_IT+0x80>
 8001bf8:	687b      	ldr	r3, [r7, #4]
 8001bfa:	681b      	ldr	r3, [r3, #0]
 8001bfc:	4a19      	ldr	r2, [pc, #100]	; (8001c64 <HAL_TIM_Base_Start_IT+0xd8>)
 8001bfe:	4293      	cmp	r3, r2
 8001c00:	d004      	beq.n	8001c0c <HAL_TIM_Base_Start_IT+0x80>
 8001c02:	687b      	ldr	r3, [r7, #4]
 8001c04:	681b      	ldr	r3, [r3, #0]
 8001c06:	4a18      	ldr	r2, [pc, #96]	; (8001c68 <HAL_TIM_Base_Start_IT+0xdc>)
 8001c08:	4293      	cmp	r3, r2
 8001c0a:	d111      	bne.n	8001c30 <HAL_TIM_Base_Start_IT+0xa4>
  {
    tmpsmcr = htim->Instance->SMCR & TIM_SMCR_SMS;
 8001c0c:	687b      	ldr	r3, [r7, #4]
 8001c0e:	681b      	ldr	r3, [r3, #0]
 8001c10:	689b      	ldr	r3, [r3, #8]
 8001c12:	f003 0307 	and.w	r3, r3, #7
 8001c16:	60fb      	str	r3, [r7, #12]
    if (!IS_TIM_SLAVEMODE_TRIGGER_ENABLED(tmpsmcr))
 8001c18:	68fb      	ldr	r3, [r7, #12]
 8001c1a:	2b06      	cmp	r3, #6
 8001c1c:	d010      	beq.n	8001c40 <HAL_TIM_Base_Start_IT+0xb4>
    {
      __HAL_TIM_ENABLE(htim);
 8001c1e:	687b      	ldr	r3, [r7, #4]
 8001c20:	681b      	ldr	r3, [r3, #0]
 8001c22:	681a      	ldr	r2, [r3, #0]
 8001c24:	687b      	ldr	r3, [r7, #4]
 8001c26:	681b      	ldr	r3, [r3, #0]
 8001c28:	f042 0201 	orr.w	r2, r2, #1
 8001c2c:	601a      	str	r2, [r3, #0]
    if (!IS_TIM_SLAVEMODE_TRIGGER_ENABLED(tmpsmcr))
 8001c2e:	e007      	b.n	8001c40 <HAL_TIM_Base_Start_IT+0xb4>
    }
  }
  else
  {
    __HAL_TIM_ENABLE(htim);
 8001c30:	687b      	ldr	r3, [r7, #4]
 8001c32:	681b      	ldr	r3, [r3, #0]
 8001c34:	681a      	ldr	r2, [r3, #0]
 8001c36:	687b      	ldr	r3, [r7, #4]
 8001c38:	681b      	ldr	r3, [r3, #0]
 8001c3a:	f042 0201 	orr.w	r2, r2, #1
 8001c3e:	601a      	str	r2, [r3, #0]
  }

  /* Return function status */
  return HAL_OK;
 8001c40:	2300      	movs	r3, #0
}
 8001c42:	4618      	mov	r0, r3
 8001c44:	3714      	adds	r7, #20
 8001c46:	46bd      	mov	sp, r7
 8001c48:	f85d 7b04 	ldr.w	r7, [sp], #4
 8001c4c:	4770      	bx	lr
 8001c4e:	bf00      	nop
 8001c50:	40010000 	.word	0x40010000
 8001c54:	40000400 	.word	0x40000400
 8001c58:	40000800 	.word	0x40000800
 8001c5c:	40000c00 	.word	0x40000c00
 8001c60:	40010400 	.word	0x40010400
 8001c64:	40014000 	.word	0x40014000
 8001c68:	40001800 	.word	0x40001800

08001c6c <HAL_TIM_IRQHandler>:
  * @brief  This function handles TIM interrupts requests.
  * @param  htim TIM  handle
  * @retval None
  */
void HAL_TIM_IRQHandler(TIM_HandleTypeDef *htim)
{
 8001c6c:	b580      	push	{r7, lr}
 8001c6e:	b082      	sub	sp, #8
 8001c70:	af00      	add	r7, sp, #0
 8001c72:	6078      	str	r0, [r7, #4]
  /* Capture compare 1 event */
  if (__HAL_TIM_GET_FLAG(htim, TIM_FLAG_CC1) != RESET)
 8001c74:	687b      	ldr	r3, [r7, #4]
 8001c76:	681b      	ldr	r3, [r3, #0]
 8001c78:	691b      	ldr	r3, [r3, #16]
 8001c7a:	f003 0302 	and.w	r3, r3, #2
 8001c7e:	2b02      	cmp	r3, #2
 8001c80:	d122      	bne.n	8001cc8 <HAL_TIM_IRQHandler+0x5c>
  {
    if (__HAL_TIM_GET_IT_SOURCE(htim, TIM_IT_CC1) != RESET)
 8001c82:	687b      	ldr	r3, [r7, #4]
 8001c84:	681b      	ldr	r3, [r3, #0]
 8001c86:	68db      	ldr	r3, [r3, #12]
 8001c88:	f003 0302 	and.w	r3, r3, #2
 8001c8c:	2b02      	cmp	r3, #2
 8001c8e:	d11b      	bne.n	8001cc8 <HAL_TIM_IRQHandler+0x5c>
    {
      {
        __HAL_TIM_CLEAR_IT(htim, TIM_IT_CC1);
 8001c90:	687b      	ldr	r3, [r7, #4]
 8001c92:	681b      	ldr	r3, [r3, #0]
 8001c94:	f06f 0202 	mvn.w	r2, #2
 8001c98:	611a      	str	r2, [r3, #16]
        htim->Channel = HAL_TIM_ACTIVE_CHANNEL_1;
 8001c9a:	687b      	ldr	r3, [r7, #4]
 8001c9c:	2201      	movs	r2, #1
 8001c9e:	771a      	strb	r2, [r3, #28]

        /* Input capture event */
        if ((htim->Instance->CCMR1 & TIM_CCMR1_CC1S) != 0x00U)
 8001ca0:	687b      	ldr	r3, [r7, #4]
 8001ca2:	681b      	ldr	r3, [r3, #0]
 8001ca4:	699b      	ldr	r3, [r3, #24]
 8001ca6:	f003 0303 	and.w	r3, r3, #3
 8001caa:	2b00      	cmp	r3, #0
 8001cac:	d003      	beq.n	8001cb6 <HAL_TIM_IRQHandler+0x4a>
        {
#if (USE_HAL_TIM_REGISTER_CALLBACKS == 1)
          htim->IC_CaptureCallback(htim);
#else
          HAL_TIM_IC_CaptureCallback(htim);
 8001cae:	6878      	ldr	r0, [r7, #4]
 8001cb0:	f000 f8ee 	bl	8001e90 <HAL_TIM_IC_CaptureCallback>
 8001cb4:	e005      	b.n	8001cc2 <HAL_TIM_IRQHandler+0x56>
        {
#if (USE_HAL_TIM_REGISTER_CALLBACKS == 1)
          htim->OC_DelayElapsedCallback(htim);
          htim->PWM_PulseFinishedCallback(htim);
#else
          HAL_TIM_OC_DelayElapsedCallback(htim);
 8001cb6:	6878      	ldr	r0, [r7, #4]
 8001cb8:	f000 f8e0 	bl	8001e7c <HAL_TIM_OC_DelayElapsedCallback>
          HAL_TIM_PWM_PulseFinishedCallback(htim);
 8001cbc:	6878      	ldr	r0, [r7, #4]
 8001cbe:	f000 f8f1 	bl	8001ea4 <HAL_TIM_PWM_PulseFinishedCallback>
#endif /* USE_HAL_TIM_REGISTER_CALLBACKS */
        }
        htim->Channel = HAL_TIM_ACTIVE_CHANNEL_CLEARED;
 8001cc2:	687b      	ldr	r3, [r7, #4]
 8001cc4:	2200      	movs	r2, #0
 8001cc6:	771a      	strb	r2, [r3, #28]
      }
    }
  }
  /* Capture compare 2 event */
  if (__HAL_TIM_GET_FLAG(htim, TIM_FLAG_CC2) != RESET)
 8001cc8:	687b      	ldr	r3, [r7, #4]
 8001cca:	681b      	ldr	r3, [r3, #0]
 8001ccc:	691b      	ldr	r3, [r3, #16]
 8001cce:	f003 0304 	and.w	r3, r3, #4
 8001cd2:	2b04      	cmp	r3, #4
 8001cd4:	d122      	bne.n	8001d1c <HAL_TIM_IRQHandler+0xb0>
  {
    if (__HAL_TIM_GET_IT_SOURCE(htim, TIM_IT_CC2) != RESET)
 8001cd6:	687b      	ldr	r3, [r7, #4]
 8001cd8:	681b      	ldr	r3, [r3, #0]
 8001cda:	68db      	ldr	r3, [r3, #12]
 8001cdc:	f003 0304 	and.w	r3, r3, #4
 8001ce0:	2b04      	cmp	r3, #4
 8001ce2:	d11b      	bne.n	8001d1c <HAL_TIM_IRQHandler+0xb0>
    {
      __HAL_TIM_CLEAR_IT(htim, TIM_IT_CC2);
 8001ce4:	687b      	ldr	r3, [r7, #4]
 8001ce6:	681b      	ldr	r3, [r3, #0]
 8001ce8:	f06f 0204 	mvn.w	r2, #4
 8001cec:	611a      	str	r2, [r3, #16]
      htim->Channel = HAL_TIM_ACTIVE_CHANNEL_2;
 8001cee:	687b      	ldr	r3, [r7, #4]
 8001cf0:	2202      	movs	r2, #2
 8001cf2:	771a      	strb	r2, [r3, #28]
      /* Input capture event */
      if ((htim->Instance->CCMR1 & TIM_CCMR1_CC2S) != 0x00U)
 8001cf4:	687b      	ldr	r3, [r7, #4]
 8001cf6:	681b      	ldr	r3, [r3, #0]
 8001cf8:	699b      	ldr	r3, [r3, #24]
 8001cfa:	f403 7340 	and.w	r3, r3, #768	; 0x300
 8001cfe:	2b00      	cmp	r3, #0
 8001d00:	d003      	beq.n	8001d0a <HAL_TIM_IRQHandler+0x9e>
      {
#if (USE_HAL_TIM_REGISTER_CALLBACKS == 1)
        htim->IC_CaptureCallback(htim);
#else
        HAL_TIM_IC_CaptureCallback(htim);
 8001d02:	6878      	ldr	r0, [r7, #4]
 8001d04:	f000 f8c4 	bl	8001e90 <HAL_TIM_IC_CaptureCallback>
 8001d08:	e005      	b.n	8001d16 <HAL_TIM_IRQHandler+0xaa>
      {
#if (USE_HAL_TIM_REGISTER_CALLBACKS == 1)
        htim->OC_DelayElapsedCallback(htim);
        htim->PWM_PulseFinishedCallback(htim);
#else
        HAL_TIM_OC_DelayElapsedCallback(htim);
 8001d0a:	6878      	ldr	r0, [r7, #4]
 8001d0c:	f000 f8b6 	bl	8001e7c <HAL_TIM_OC_DelayElapsedCallback>
        HAL_TIM_PWM_PulseFinishedCallback(htim);
 8001d10:	6878      	ldr	r0, [r7, #4]
 8001d12:	f000 f8c7 	bl	8001ea4 <HAL_TIM_PWM_PulseFinishedCallback>
#endif /* USE_HAL_TIM_REGISTER_CALLBACKS */
      }
      htim->Channel = HAL_TIM_ACTIVE_CHANNEL_CLEARED;
 8001d16:	687b      	ldr	r3, [r7, #4]
 8001d18:	2200      	movs	r2, #0
 8001d1a:	771a      	strb	r2, [r3, #28]
    }
  }
  /* Capture compare 3 event */
  if (__HAL_TIM_GET_FLAG(htim, TIM_FLAG_CC3) != RESET)
 8001d1c:	687b      	ldr	r3, [r7, #4]
 8001d1e:	681b      	ldr	r3, [r3, #0]
 8001d20:	691b      	ldr	r3, [r3, #16]
 8001d22:	f003 0308 	and.w	r3, r3, #8
 8001d26:	2b08      	cmp	r3, #8
 8001d28:	d122      	bne.n	8001d70 <HAL_TIM_IRQHandler+0x104>
  {
    if (__HAL_TIM_GET_IT_SOURCE(htim, TIM_IT_CC3) != RESET)
 8001d2a:	687b      	ldr	r3, [r7, #4]
 8001d2c:	681b      	ldr	r3, [r3, #0]
 8001d2e:	68db      	ldr	r3, [r3, #12]
 8001d30:	f003 0308 	and.w	r3, r3, #8
 8001d34:	2b08      	cmp	r3, #8
 8001d36:	d11b      	bne.n	8001d70 <HAL_TIM_IRQHandler+0x104>
    {
      __HAL_TIM_CLEAR_IT(htim, TIM_IT_CC3);
 8001d38:	687b      	ldr	r3, [r7, #4]
 8001d3a:	681b      	ldr	r3, [r3, #0]
 8001d3c:	f06f 0208 	mvn.w	r2, #8
 8001d40:	611a      	str	r2, [r3, #16]
      htim->Channel = HAL_TIM_ACTIVE_CHANNEL_3;
 8001d42:	687b      	ldr	r3, [r7, #4]
 8001d44:	2204      	movs	r2, #4
 8001d46:	771a      	strb	r2, [r3, #28]
      /* Input capture event */
      if ((htim->Instance->CCMR2 & TIM_CCMR2_CC3S) != 0x00U)
 8001d48:	687b      	ldr	r3, [r7, #4]
 8001d4a:	681b      	ldr	r3, [r3, #0]
 8001d4c:	69db      	ldr	r3, [r3, #28]
 8001d4e:	f003 0303 	and.w	r3, r3, #3
 8001d52:	2b00      	cmp	r3, #0
 8001d54:	d003      	beq.n	8001d5e <HAL_TIM_IRQHandler+0xf2>
      {
#if (USE_HAL_TIM_REGISTER_CALLBACKS == 1)
        htim->IC_CaptureCallback(htim);
#else
        HAL_TIM_IC_CaptureCallback(htim);
 8001d56:	6878      	ldr	r0, [r7, #4]
 8001d58:	f000 f89a 	bl	8001e90 <HAL_TIM_IC_CaptureCallback>
 8001d5c:	e005      	b.n	8001d6a <HAL_TIM_IRQHandler+0xfe>
      {
#if (USE_HAL_TIM_REGISTER_CALLBACKS == 1)
        htim->OC_DelayElapsedCallback(htim);
        htim->PWM_PulseFinishedCallback(htim);
#else
        HAL_TIM_OC_DelayElapsedCallback(htim);
 8001d5e:	6878      	ldr	r0, [r7, #4]
 8001d60:	f000 f88c 	bl	8001e7c <HAL_TIM_OC_DelayElapsedCallback>
        HAL_TIM_PWM_PulseFinishedCallback(htim);
 8001d64:	6878      	ldr	r0, [r7, #4]
 8001d66:	f000 f89d 	bl	8001ea4 <HAL_TIM_PWM_PulseFinishedCallback>
#endif /* USE_HAL_TIM_REGISTER_CALLBACKS */
      }
      htim->Channel = HAL_TIM_ACTIVE_CHANNEL_CLEARED;
 8001d6a:	687b      	ldr	r3, [r7, #4]
 8001d6c:	2200      	movs	r2, #0
 8001d6e:	771a      	strb	r2, [r3, #28]
    }
  }
  /* Capture compare 4 event */
  if (__HAL_TIM_GET_FLAG(htim, TIM_FLAG_CC4) != RESET)
 8001d70:	687b      	ldr	r3, [r7, #4]
 8001d72:	681b      	ldr	r3, [r3, #0]
 8001d74:	691b      	ldr	r3, [r3, #16]
 8001d76:	f003 0310 	and.w	r3, r3, #16
 8001d7a:	2b10      	cmp	r3, #16
 8001d7c:	d122      	bne.n	8001dc4 <HAL_TIM_IRQHandler+0x158>
  {
    if (__HAL_TIM_GET_IT_SOURCE(htim, TIM_IT_CC4) != RESET)
 8001d7e:	687b      	ldr	r3, [r7, #4]
 8001d80:	681b      	ldr	r3, [r3, #0]
 8001d82:	68db      	ldr	r3, [r3, #12]
 8001d84:	f003 0310 	and.w	r3, r3, #16
 8001d88:	2b10      	cmp	r3, #16
 8001d8a:	d11b      	bne.n	8001dc4 <HAL_TIM_IRQHandler+0x158>
    {
      __HAL_TIM_CLEAR_IT(htim, TIM_IT_CC4);
 8001d8c:	687b      	ldr	r3, [r7, #4]
 8001d8e:	681b      	ldr	r3, [r3, #0]
 8001d90:	f06f 0210 	mvn.w	r2, #16
 8001d94:	611a      	str	r2, [r3, #16]
      htim->Channel = HAL_TIM_ACTIVE_CHANNEL_4;
 8001d96:	687b      	ldr	r3, [r7, #4]
 8001d98:	2208      	movs	r2, #8
 8001d9a:	771a      	strb	r2, [r3, #28]
      /* Input capture event */
      if ((htim->Instance->CCMR2 & TIM_CCMR2_CC4S) != 0x00U)
 8001d9c:	687b      	ldr	r3, [r7, #4]
 8001d9e:	681b      	ldr	r3, [r3, #0]
 8001da0:	69db      	ldr	r3, [r3, #28]
 8001da2:	f403 7340 	and.w	r3, r3, #768	; 0x300
 8001da6:	2b00      	cmp	r3, #0
 8001da8:	d003      	beq.n	8001db2 <HAL_TIM_IRQHandler+0x146>
      {
#if (USE_HAL_TIM_REGISTER_CALLBACKS == 1)
        htim->IC_CaptureCallback(htim);
#else
        HAL_TIM_IC_CaptureCallback(htim);
 8001daa:	6878      	ldr	r0, [r7, #4]
 8001dac:	f000 f870 	bl	8001e90 <HAL_TIM_IC_CaptureCallback>
 8001db0:	e005      	b.n	8001dbe <HAL_TIM_IRQHandler+0x152>
      {
#if (USE_HAL_TIM_REGISTER_CALLBACKS == 1)
        htim->OC_DelayElapsedCallback(htim);
        htim->PWM_PulseFinishedCallback(htim);
#else
        HAL_TIM_OC_DelayElapsedCallback(htim);
 8001db2:	6878      	ldr	r0, [r7, #4]
 8001db4:	f000 f862 	bl	8001e7c <HAL_TIM_OC_DelayElapsedCallback>
        HAL_TIM_PWM_PulseFinishedCallback(htim);
 8001db8:	6878      	ldr	r0, [r7, #4]
 8001dba:	f000 f873 	bl	8001ea4 <HAL_TIM_PWM_PulseFinishedCallback>
#endif /* USE_HAL_TIM_REGISTER_CALLBACKS */
      }
      htim->Channel = HAL_TIM_ACTIVE_CHANNEL_CLEARED;
 8001dbe:	687b      	ldr	r3, [r7, #4]
 8001dc0:	2200      	movs	r2, #0
 8001dc2:	771a      	strb	r2, [r3, #28]
    }
  }
  /* TIM Update event */
  if (__HAL_TIM_GET_FLAG(htim, TIM_FLAG_UPDATE) != RESET)
 8001dc4:	687b      	ldr	r3, [r7, #4]
 8001dc6:	681b      	ldr	r3, [r3, #0]
 8001dc8:	691b      	ldr	r3, [r3, #16]
 8001dca:	f003 0301 	and.w	r3, r3, #1
 8001dce:	2b01      	cmp	r3, #1
 8001dd0:	d10e      	bne.n	8001df0 <HAL_TIM_IRQHandler+0x184>
  {
    if (__HAL_TIM_GET_IT_SOURCE(htim, TIM_IT_UPDATE) != RESET)
 8001dd2:	687b      	ldr	r3, [r7, #4]
 8001dd4:	681b      	ldr	r3, [r3, #0]
 8001dd6:	68db      	ldr	r3, [r3, #12]
 8001dd8:	f003 0301 	and.w	r3, r3, #1
 8001ddc:	2b01      	cmp	r3, #1
 8001dde:	d107      	bne.n	8001df0 <HAL_TIM_IRQHandler+0x184>
    {
      __HAL_TIM_CLEAR_IT(htim, TIM_IT_UPDATE);
 8001de0:	687b      	ldr	r3, [r7, #4]
 8001de2:	681b      	ldr	r3, [r3, #0]
 8001de4:	f06f 0201 	mvn.w	r2, #1
 8001de8:	611a      	str	r2, [r3, #16]
#if (USE_HAL_TIM_REGISTER_CALLBACKS == 1)
      htim->PeriodElapsedCallback(htim);
#else
      HAL_TIM_PeriodElapsedCallback(htim);
 8001dea:	6878      	ldr	r0, [r7, #4]
 8001dec:	f7fe fda6 	bl	800093c <HAL_TIM_PeriodElapsedCallback>
#endif /* USE_HAL_TIM_REGISTER_CALLBACKS */
    }
  }
  /* TIM Break input event */
  if (__HAL_TIM_GET_FLAG(htim, TIM_FLAG_BREAK) != RESET)
 8001df0:	687b      	ldr	r3, [r7, #4]
 8001df2:	681b      	ldr	r3, [r3, #0]
 8001df4:	691b      	ldr	r3, [r3, #16]
 8001df6:	f003 0380 	and.w	r3, r3, #128	; 0x80
 8001dfa:	2b80      	cmp	r3, #128	; 0x80
 8001dfc:	d10e      	bne.n	8001e1c <HAL_TIM_IRQHandler+0x1b0>
  {
    if (__HAL_TIM_GET_IT_SOURCE(htim, TIM_IT_BREAK) != RESET)
 8001dfe:	687b      	ldr	r3, [r7, #4]
 8001e00:	681b      	ldr	r3, [r3, #0]
 8001e02:	68db      	ldr	r3, [r3, #12]
 8001e04:	f003 0380 	and.w	r3, r3, #128	; 0x80
 8001e08:	2b80      	cmp	r3, #128	; 0x80
 8001e0a:	d107      	bne.n	8001e1c <HAL_TIM_IRQHandler+0x1b0>
    {
      __HAL_TIM_CLEAR_IT(htim, TIM_IT_BREAK);
 8001e0c:	687b      	ldr	r3, [r7, #4]
 8001e0e:	681b      	ldr	r3, [r3, #0]
 8001e10:	f06f 0280 	mvn.w	r2, #128	; 0x80
 8001e14:	611a      	str	r2, [r3, #16]
#if (USE_HAL_TIM_REGISTER_CALLBACKS == 1)
      htim->BreakCallback(htim);
#else
      HAL_TIMEx_BreakCallback(htim);
 8001e16:	6878      	ldr	r0, [r7, #4]
 8001e18:	f000 f902 	bl	8002020 <HAL_TIMEx_BreakCallback>
#endif /* USE_HAL_TIM_REGISTER_CALLBACKS */
    }
  }
  /* TIM Trigger detection event */
  if (__HAL_TIM_GET_FLAG(htim, TIM_FLAG_TRIGGER) != RESET)
 8001e1c:	687b      	ldr	r3, [r7, #4]
 8001e1e:	681b      	ldr	r3, [r3, #0]
 8001e20:	691b      	ldr	r3, [r3, #16]
 8001e22:	f003 0340 	and.w	r3, r3, #64	; 0x40
 8001e26:	2b40      	cmp	r3, #64	; 0x40
 8001e28:	d10e      	bne.n	8001e48 <HAL_TIM_IRQHandler+0x1dc>
  {
    if (__HAL_TIM_GET_IT_SOURCE(htim, TIM_IT_TRIGGER) != RESET)
 8001e2a:	687b      	ldr	r3, [r7, #4]
 8001e2c:	681b      	ldr	r3, [r3, #0]
 8001e2e:	68db      	ldr	r3, [r3, #12]
 8001e30:	f003 0340 	and.w	r3, r3, #64	; 0x40
 8001e34:	2b40      	cmp	r3, #64	; 0x40
 8001e36:	d107      	bne.n	8001e48 <HAL_TIM_IRQHandler+0x1dc>
    {
      __HAL_TIM_CLEAR_IT(htim, TIM_IT_TRIGGER);
 8001e38:	687b      	ldr	r3, [r7, #4]
 8001e3a:	681b      	ldr	r3, [r3, #0]
 8001e3c:	f06f 0240 	mvn.w	r2, #64	; 0x40
 8001e40:	611a      	str	r2, [r3, #16]
#if (USE_HAL_TIM_REGISTER_CALLBACKS == 1)
      htim->TriggerCallback(htim);
#else
      HAL_TIM_TriggerCallback(htim);
 8001e42:	6878      	ldr	r0, [r7, #4]
 8001e44:	f000 f838 	bl	8001eb8 <HAL_TIM_TriggerCallback>
#endif /* USE_HAL_TIM_REGISTER_CALLBACKS */
    }
  }
  /* TIM commutation event */
  if (__HAL_TIM_GET_FLAG(htim, TIM_FLAG_COM) != RESET)
 8001e48:	687b      	ldr	r3, [r7, #4]
 8001e4a:	681b      	ldr	r3, [r3, #0]
 8001e4c:	691b      	ldr	r3, [r3, #16]
 8001e4e:	f003 0320 	and.w	r3, r3, #32
 8001e52:	2b20      	cmp	r3, #32
 8001e54:	d10e      	bne.n	8001e74 <HAL_TIM_IRQHandler+0x208>
  {
    if (__HAL_TIM_GET_IT_SOURCE(htim, TIM_IT_COM) != RESET)
 8001e56:	687b      	ldr	r3, [r7, #4]
 8001e58:	681b      	ldr	r3, [r3, #0]
 8001e5a:	68db      	ldr	r3, [r3, #12]
 8001e5c:	f003 0320 	and.w	r3, r3, #32
 8001e60:	2b20      	cmp	r3, #32
 8001e62:	d107      	bne.n	8001e74 <HAL_TIM_IRQHandler+0x208>
    {
      __HAL_TIM_CLEAR_IT(htim, TIM_FLAG_COM);
 8001e64:	687b      	ldr	r3, [r7, #4]
 8001e66:	681b      	ldr	r3, [r3, #0]
 8001e68:	f06f 0220 	mvn.w	r2, #32
 8001e6c:	611a      	str	r2, [r3, #16]
#if (USE_HAL_TIM_REGISTER_CALLBACKS == 1)
      htim->CommutationCallback(htim);
#else
      HAL_TIMEx_CommutCallback(htim);
 8001e6e:	6878      	ldr	r0, [r7, #4]
 8001e70:	f000 f8cc 	bl	800200c <HAL_TIMEx_CommutCallback>
#endif /* USE_HAL_TIM_REGISTER_CALLBACKS */
    }
  }
}
 8001e74:	bf00      	nop
 8001e76:	3708      	adds	r7, #8
 8001e78:	46bd      	mov	sp, r7
 8001e7a:	bd80      	pop	{r7, pc}

08001e7c <HAL_TIM_OC_DelayElapsedCallback>:
  * @brief  Output Compare callback in non-blocking mode
  * @param  htim TIM OC handle
  * @retval None
  */
__weak void HAL_TIM_OC_DelayElapsedCallback(TIM_HandleTypeDef *htim)
{
 8001e7c:	b480      	push	{r7}
 8001e7e:	b083      	sub	sp, #12
 8001e80:	af00      	add	r7, sp, #0
 8001e82:	6078      	str	r0, [r7, #4]
  UNUSED(htim);

  /* NOTE : This function should not be modified, when the callback is needed,
            the HAL_TIM_OC_DelayElapsedCallback could be implemented in the user file
   */
}
 8001e84:	bf00      	nop
 8001e86:	370c      	adds	r7, #12
 8001e88:	46bd      	mov	sp, r7
 8001e8a:	f85d 7b04 	ldr.w	r7, [sp], #4
 8001e8e:	4770      	bx	lr

08001e90 <HAL_TIM_IC_CaptureCallback>:
  * @brief  Input Capture callback in non-blocking mode
  * @param  htim TIM IC handle
  * @retval None
  */
__weak void HAL_TIM_IC_CaptureCallback(TIM_HandleTypeDef *htim)
{
 8001e90:	b480      	push	{r7}
 8001e92:	b083      	sub	sp, #12
 8001e94:	af00      	add	r7, sp, #0
 8001e96:	6078      	str	r0, [r7, #4]
  UNUSED(htim);

  /* NOTE : This function should not be modified, when the callback is needed,
            the HAL_TIM_IC_CaptureCallback could be implemented in the user file
   */
}
 8001e98:	bf00      	nop
 8001e9a:	370c      	adds	r7, #12
 8001e9c:	46bd      	mov	sp, r7
 8001e9e:	f85d 7b04 	ldr.w	r7, [sp], #4
 8001ea2:	4770      	bx	lr

08001ea4 <HAL_TIM_PWM_PulseFinishedCallback>:
  * @brief  PWM Pulse finished callback in non-blocking mode
  * @param  htim TIM handle
  * @retval None
  */
__weak void HAL_TIM_PWM_PulseFinishedCallback(TIM_HandleTypeDef *htim)
{
 8001ea4:	b480      	push	{r7}
 8001ea6:	b083      	sub	sp, #12
 8001ea8:	af00      	add	r7, sp, #0
 8001eaa:	6078      	str	r0, [r7, #4]
  UNUSED(htim);

  /* NOTE : This function should not be modified, when the callback is needed,
            the HAL_TIM_PWM_PulseFinishedCallback could be implemented in the user file
   */
}
 8001eac:	bf00      	nop
 8001eae:	370c      	adds	r7, #12
 8001eb0:	46bd      	mov	sp, r7
 8001eb2:	f85d 7b04 	ldr.w	r7, [sp], #4
 8001eb6:	4770      	bx	lr

08001eb8 <HAL_TIM_TriggerCallback>:
  * @brief  Hall Trigger detection callback in non-blocking mode
  * @param  htim TIM handle
  * @retval None
  */
__weak void HAL_TIM_TriggerCallback(TIM_HandleTypeDef *htim)
{
 8001eb8:	b480      	push	{r7}
 8001eba:	b083      	sub	sp, #12
 8001ebc:	af00      	add	r7, sp, #0
 8001ebe:	6078      	str	r0, [r7, #4]
  UNUSED(htim);

  /* NOTE : This function should not be modified, when the callback is needed,
            the HAL_TIM_TriggerCallback could be implemented in the user file
   */
}
 8001ec0:	bf00      	nop
 8001ec2:	370c      	adds	r7, #12
 8001ec4:	46bd      	mov	sp, r7
 8001ec6:	f85d 7b04 	ldr.w	r7, [sp], #4
 8001eca:	4770      	bx	lr

08001ecc <TIM_Base_SetConfig>:
  * @param  TIMx TIM peripheral
  * @param  Structure TIM Base configuration structure
  * @retval None
  */
void TIM_Base_SetConfig(TIM_TypeDef *TIMx, TIM_Base_InitTypeDef *Structure)
{
 8001ecc:	b480      	push	{r7}
 8001ece:	b085      	sub	sp, #20
 8001ed0:	af00      	add	r7, sp, #0
 8001ed2:	6078      	str	r0, [r7, #4]
 8001ed4:	6039      	str	r1, [r7, #0]
  uint32_t tmpcr1;
  tmpcr1 = TIMx->CR1;
 8001ed6:	687b      	ldr	r3, [r7, #4]
 8001ed8:	681b      	ldr	r3, [r3, #0]
 8001eda:	60fb      	str	r3, [r7, #12]

  /* Set TIM Time Base Unit parameters ---------------------------------------*/
  if (IS_TIM_COUNTER_MODE_SELECT_INSTANCE(TIMx))
 8001edc:	687b      	ldr	r3, [r7, #4]
 8001ede:	4a40      	ldr	r2, [pc, #256]	; (8001fe0 <TIM_Base_SetConfig+0x114>)
 8001ee0:	4293      	cmp	r3, r2
 8001ee2:	d013      	beq.n	8001f0c <TIM_Base_SetConfig+0x40>
 8001ee4:	687b      	ldr	r3, [r7, #4]
 8001ee6:	f1b3 4f80 	cmp.w	r3, #1073741824	; 0x40000000
 8001eea:	d00f      	beq.n	8001f0c <TIM_Base_SetConfig+0x40>
 8001eec:	687b      	ldr	r3, [r7, #4]
 8001eee:	4a3d      	ldr	r2, [pc, #244]	; (8001fe4 <TIM_Base_SetConfig+0x118>)
 8001ef0:	4293      	cmp	r3, r2
 8001ef2:	d00b      	beq.n	8001f0c <TIM_Base_SetConfig+0x40>
 8001ef4:	687b      	ldr	r3, [r7, #4]
 8001ef6:	4a3c      	ldr	r2, [pc, #240]	; (8001fe8 <TIM_Base_SetConfig+0x11c>)
 8001ef8:	4293      	cmp	r3, r2
 8001efa:	d007      	beq.n	8001f0c <TIM_Base_SetConfig+0x40>
 8001efc:	687b      	ldr	r3, [r7, #4]
 8001efe:	4a3b      	ldr	r2, [pc, #236]	; (8001fec <TIM_Base_SetConfig+0x120>)
 8001f00:	4293      	cmp	r3, r2
 8001f02:	d003      	beq.n	8001f0c <TIM_Base_SetConfig+0x40>
 8001f04:	687b      	ldr	r3, [r7, #4]
 8001f06:	4a3a      	ldr	r2, [pc, #232]	; (8001ff0 <TIM_Base_SetConfig+0x124>)
 8001f08:	4293      	cmp	r3, r2
 8001f0a:	d108      	bne.n	8001f1e <TIM_Base_SetConfig+0x52>
  {
    /* Select the Counter Mode */
    tmpcr1 &= ~(TIM_CR1_DIR | TIM_CR1_CMS);
 8001f0c:	68fb      	ldr	r3, [r7, #12]
 8001f0e:	f023 0370 	bic.w	r3, r3, #112	; 0x70
 8001f12:	60fb      	str	r3, [r7, #12]
    tmpcr1 |= Structure->CounterMode;
 8001f14:	683b      	ldr	r3, [r7, #0]
 8001f16:	685b      	ldr	r3, [r3, #4]
 8001f18:	68fa      	ldr	r2, [r7, #12]
 8001f1a:	4313      	orrs	r3, r2
 8001f1c:	60fb      	str	r3, [r7, #12]
  }

  if (IS_TIM_CLOCK_DIVISION_INSTANCE(TIMx))
 8001f1e:	687b      	ldr	r3, [r7, #4]
 8001f20:	4a2f      	ldr	r2, [pc, #188]	; (8001fe0 <TIM_Base_SetConfig+0x114>)
 8001f22:	4293      	cmp	r3, r2
 8001f24:	d02b      	beq.n	8001f7e <TIM_Base_SetConfig+0xb2>
 8001f26:	687b      	ldr	r3, [r7, #4]
 8001f28:	f1b3 4f80 	cmp.w	r3, #1073741824	; 0x40000000
 8001f2c:	d027      	beq.n	8001f7e <TIM_Base_SetConfig+0xb2>
 8001f2e:	687b      	ldr	r3, [r7, #4]
 8001f30:	4a2c      	ldr	r2, [pc, #176]	; (8001fe4 <TIM_Base_SetConfig+0x118>)
 8001f32:	4293      	cmp	r3, r2
 8001f34:	d023      	beq.n	8001f7e <TIM_Base_SetConfig+0xb2>
 8001f36:	687b      	ldr	r3, [r7, #4]
 8001f38:	4a2b      	ldr	r2, [pc, #172]	; (8001fe8 <TIM_Base_SetConfig+0x11c>)
 8001f3a:	4293      	cmp	r3, r2
